Archive member included because of file (symbol)

c:/ac6/systemworkbench/plugins/fr.ac6.mcu.externaltools.arm-none.win32_1.3.0.201507241045/tools/compiler/bin/../lib/gcc/arm-none-eabi/4.9.3/armv7e-m/fpu\libgcc.a(_arm_addsubdf3.o)
                              Utilities/STM3240_41_G_EVAL/stm324xg_eval_lcd.o (__aeabi_ui2d)
c:/ac6/systemworkbench/plugins/fr.ac6.mcu.externaltools.arm-none.win32_1.3.0.201507241045/tools/compiler/bin/../lib/gcc/arm-none-eabi/4.9.3/armv7e-m/fpu\libgcc.a(_arm_cmpdf2.o)
                              Utilities/STM3240_41_G_EVAL/stm324xg_eval_lcd.o (__aeabi_dcmplt)
c:/ac6/systemworkbench/plugins/fr.ac6.mcu.externaltools.arm-none.win32_1.3.0.201507241045/tools/compiler/bin/../lib/gcc/arm-none-eabi/4.9.3/../../../../arm-none-eabi/lib/armv7e-m/fpu\libc.a(lib_a-errno.o)
                              src/syscalls.o (__errno)
c:/ac6/systemworkbench/plugins/fr.ac6.mcu.externaltools.arm-none.win32_1.3.0.201507241045/tools/compiler/bin/../lib/gcc/arm-none-eabi/4.9.3/../../../../arm-none-eabi/lib/armv7e-m/fpu\libc.a(lib_a-exit.o)
                              c:/ac6/systemworkbench/plugins/fr.ac6.mcu.externaltools.arm-none.win32_1.3.0.201507241045/tools/compiler/bin/../lib/gcc/arm-none-eabi/4.9.3/../../../../arm-none-eabi/lib/armv7e-m/fpu/crt0.o (exit)
c:/ac6/systemworkbench/plugins/fr.ac6.mcu.externaltools.arm-none.win32_1.3.0.201507241045/tools/compiler/bin/../lib/gcc/arm-none-eabi/4.9.3/../../../../arm-none-eabi/lib/armv7e-m/fpu\libc.a(lib_a-impure.o)
                              c:/ac6/systemworkbench/plugins/fr.ac6.mcu.externaltools.arm-none.win32_1.3.0.201507241045/tools/compiler/bin/../lib/gcc/arm-none-eabi/4.9.3/../../../../arm-none-eabi/lib/armv7e-m/fpu\libc.a(lib_a-exit.o) (_global_impure_ptr)
c:/ac6/systemworkbench/plugins/fr.ac6.mcu.externaltools.arm-none.win32_1.3.0.201507241045/tools/compiler/bin/../lib/gcc/arm-none-eabi/4.9.3/../../../../arm-none-eabi/lib/armv7e-m/fpu\libc.a(lib_a-init.o)
                              c:/ac6/systemworkbench/plugins/fr.ac6.mcu.externaltools.arm-none.win32_1.3.0.201507241045/tools/compiler/bin/../lib/gcc/arm-none-eabi/4.9.3/../../../../arm-none-eabi/lib/armv7e-m/fpu/crt0.o (__libc_init_array)
c:/ac6/systemworkbench/plugins/fr.ac6.mcu.externaltools.arm-none.win32_1.3.0.201507241045/tools/compiler/bin/../lib/gcc/arm-none-eabi/4.9.3/../../../../arm-none-eabi/lib/armv7e-m/fpu\libc.a(lib_a-malloc.o)
                              src/serial_debug.o (malloc)
c:/ac6/systemworkbench/plugins/fr.ac6.mcu.externaltools.arm-none.win32_1.3.0.201507241045/tools/compiler/bin/../lib/gcc/arm-none-eabi/4.9.3/../../../../arm-none-eabi/lib/armv7e-m/fpu\libc.a(lib_a-mallocr.o)
                              c:/ac6/systemworkbench/plugins/fr.ac6.mcu.externaltools.arm-none.win32_1.3.0.201507241045/tools/compiler/bin/../lib/gcc/arm-none-eabi/4.9.3/../../../../arm-none-eabi/lib/armv7e-m/fpu\libc.a(lib_a-malloc.o) (_malloc_r)
c:/ac6/systemworkbench/plugins/fr.ac6.mcu.externaltools.arm-none.win32_1.3.0.201507241045/tools/compiler/bin/../lib/gcc/arm-none-eabi/4.9.3/../../../../arm-none-eabi/lib/armv7e-m/fpu\libc.a(lib_a-memcmp.o)
                              src/udp_echoserver.o (memcmp)
c:/ac6/systemworkbench/plugins/fr.ac6.mcu.externaltools.arm-none.win32_1.3.0.201507241045/tools/compiler/bin/../lib/gcc/arm-none-eabi/4.9.3/../../../../arm-none-eabi/lib/armv7e-m/fpu\libc.a(lib_a-memcpy.o)
                              src/udp_echoserver.o (memcpy)
c:/ac6/systemworkbench/plugins/fr.ac6.mcu.externaltools.arm-none.win32_1.3.0.201507241045/tools/compiler/bin/../lib/gcc/arm-none-eabi/4.9.3/../../../../arm-none-eabi/lib/armv7e-m/fpu\libc.a(lib_a-memset.o)
                              c:/ac6/systemworkbench/plugins/fr.ac6.mcu.externaltools.arm-none.win32_1.3.0.201507241045/tools/compiler/bin/../lib/gcc/arm-none-eabi/4.9.3/../../../../arm-none-eabi/lib/armv7e-m/fpu/crt0.o (memset)
c:/ac6/systemworkbench/plugins/fr.ac6.mcu.externaltools.arm-none.win32_1.3.0.201507241045/tools/compiler/bin/../lib/gcc/arm-none-eabi/4.9.3/../../../../arm-none-eabi/lib/armv7e-m/fpu\libc.a(lib_a-mlock.o)
                              c:/ac6/systemworkbench/plugins/fr.ac6.mcu.externaltools.arm-none.win32_1.3.0.201507241045/tools/compiler/bin/../lib/gcc/arm-none-eabi/4.9.3/../../../../arm-none-eabi/lib/armv7e-m/fpu\libc.a(lib_a-mallocr.o) (__malloc_lock)
c:/ac6/systemworkbench/plugins/fr.ac6.mcu.externaltools.arm-none.win32_1.3.0.201507241045/tools/compiler/bin/../lib/gcc/arm-none-eabi/4.9.3/../../../../arm-none-eabi/lib/armv7e-m/fpu\libc.a(lib_a-printf.o)
                              src/udp_echoserver.o (printf)
c:/ac6/systemworkbench/plugins/fr.ac6.mcu.externaltools.arm-none.win32_1.3.0.201507241045/tools/compiler/bin/../lib/gcc/arm-none-eabi/4.9.3/../../../../arm-none-eabi/lib/armv7e-m/fpu\libc.a(lib_a-puts.o)
                              src/udp_echoserver.o (puts)
c:/ac6/systemworkbench/plugins/fr.ac6.mcu.externaltools.arm-none.win32_1.3.0.201507241045/tools/compiler/bin/../lib/gcc/arm-none-eabi/4.9.3/../../../../arm-none-eabi/lib/armv7e-m/fpu\libc.a(lib_a-sbrkr.o)
                              c:/ac6/systemworkbench/plugins/fr.ac6.mcu.externaltools.arm-none.win32_1.3.0.201507241045/tools/compiler/bin/../lib/gcc/arm-none-eabi/4.9.3/../../../../arm-none-eabi/lib/armv7e-m/fpu\libc.a(lib_a-mallocr.o) (_sbrk_r)
c:/ac6/systemworkbench/plugins/fr.ac6.mcu.externaltools.arm-none.win32_1.3.0.201507241045/tools/compiler/bin/../lib/gcc/arm-none-eabi/4.9.3/../../../../arm-none-eabi/lib/armv7e-m/fpu\libc.a(lib_a-sprintf.o)
                              src/main.o (sprintf)
c:/ac6/systemworkbench/plugins/fr.ac6.mcu.externaltools.arm-none.win32_1.3.0.201507241045/tools/compiler/bin/../lib/gcc/arm-none-eabi/4.9.3/../../../../arm-none-eabi/lib/armv7e-m/fpu\libc.a(lib_a-strlen.o)
                              c:/ac6/systemworkbench/plugins/fr.ac6.mcu.externaltools.arm-none.win32_1.3.0.201507241045/tools/compiler/bin/../lib/gcc/arm-none-eabi/4.9.3/../../../../arm-none-eabi/lib/armv7e-m/fpu\libc.a(lib_a-puts.o) (strlen)
c:/ac6/systemworkbench/plugins/fr.ac6.mcu.externaltools.arm-none.win32_1.3.0.201507241045/tools/compiler/bin/../lib/gcc/arm-none-eabi/4.9.3/../../../../arm-none-eabi/lib/armv7e-m/fpu\libc.a(lib_a-svfprintf.o)
                              c:/ac6/systemworkbench/plugins/fr.ac6.mcu.externaltools.arm-none.win32_1.3.0.201507241045/tools/compiler/bin/../lib/gcc/arm-none-eabi/4.9.3/../../../../arm-none-eabi/lib/armv7e-m/fpu\libc.a(lib_a-sprintf.o) (_svfprintf_r)
c:/ac6/systemworkbench/plugins/fr.ac6.mcu.externaltools.arm-none.win32_1.3.0.201507241045/tools/compiler/bin/../lib/gcc/arm-none-eabi/4.9.3/../../../../arm-none-eabi/lib/armv7e-m/fpu\libc.a(lib_a-vfprintf.o)
                              c:/ac6/systemworkbench/plugins/fr.ac6.mcu.externaltools.arm-none.win32_1.3.0.201507241045/tools/compiler/bin/../lib/gcc/arm-none-eabi/4.9.3/../../../../arm-none-eabi/lib/armv7e-m/fpu\libc.a(lib_a-printf.o) (_vfprintf_r)
c:/ac6/systemworkbench/plugins/fr.ac6.mcu.externaltools.arm-none.win32_1.3.0.201507241045/tools/compiler/bin/../lib/gcc/arm-none-eabi/4.9.3/../../../../arm-none-eabi/lib/armv7e-m/fpu\libc.a(lib_a-vsnprintf.o)
                              src/serial_debug.o (vsnprintf)
c:/ac6/systemworkbench/plugins/fr.ac6.mcu.externaltools.arm-none.win32_1.3.0.201507241045/tools/compiler/bin/../lib/gcc/arm-none-eabi/4.9.3/../../../../arm-none-eabi/lib/armv7e-m/fpu\libc.a(lib_a-vsprintf.o)
                              src/serial_debug.o (vsprintf)
c:/ac6/systemworkbench/plugins/fr.ac6.mcu.externaltools.arm-none.win32_1.3.0.201507241045/tools/compiler/bin/../lib/gcc/arm-none-eabi/4.9.3/../../../../arm-none-eabi/lib/armv7e-m/fpu\libc.a(lib_a-wsetup.o)
                              c:/ac6/systemworkbench/plugins/fr.ac6.mcu.externaltools.arm-none.win32_1.3.0.201507241045/tools/compiler/bin/../lib/gcc/arm-none-eabi/4.9.3/../../../../arm-none-eabi/lib/armv7e-m/fpu\libc.a(lib_a-vfprintf.o) (__swsetup_r)
c:/ac6/systemworkbench/plugins/fr.ac6.mcu.externaltools.arm-none.win32_1.3.0.201507241045/tools/compiler/bin/../lib/gcc/arm-none-eabi/4.9.3/../../../../arm-none-eabi/lib/armv7e-m/fpu\libc.a(lib_a-__call_atexit.o)
                              c:/ac6/systemworkbench/plugins/fr.ac6.mcu.externaltools.arm-none.win32_1.3.0.201507241045/tools/compiler/bin/../lib/gcc/arm-none-eabi/4.9.3/../../../../arm-none-eabi/lib/armv7e-m/fpu\libc.a(lib_a-exit.o) (__call_exitprocs)
c:/ac6/systemworkbench/plugins/fr.ac6.mcu.externaltools.arm-none.win32_1.3.0.201507241045/tools/compiler/bin/../lib/gcc/arm-none-eabi/4.9.3/../../../../arm-none-eabi/lib/armv7e-m/fpu\libc.a(lib_a-atexit.o)
                              c:/ac6/systemworkbench/plugins/fr.ac6.mcu.externaltools.arm-none.win32_1.3.0.201507241045/tools/compiler/bin/../lib/gcc/arm-none-eabi/4.9.3/../../../../arm-none-eabi/lib/armv7e-m/fpu\libc.a(lib_a-__call_atexit.o) (atexit)
c:/ac6/systemworkbench/plugins/fr.ac6.mcu.externaltools.arm-none.win32_1.3.0.201507241045/tools/compiler/bin/../lib/gcc/arm-none-eabi/4.9.3/../../../../arm-none-eabi/lib/armv7e-m/fpu\libc.a(lib_a-dtoa.o)
                              c:/ac6/systemworkbench/plugins/fr.ac6.mcu.externaltools.arm-none.win32_1.3.0.201507241045/tools/compiler/bin/../lib/gcc/arm-none-eabi/4.9.3/../../../../arm-none-eabi/lib/armv7e-m/fpu\libc.a(lib_a-svfprintf.o) (_dtoa_r)
c:/ac6/systemworkbench/plugins/fr.ac6.mcu.externaltools.arm-none.win32_1.3.0.201507241045/tools/compiler/bin/../lib/gcc/arm-none-eabi/4.9.3/../../../../arm-none-eabi/lib/armv7e-m/fpu\libc.a(lib_a-fflush.o)
                              c:/ac6/systemworkbench/plugins/fr.ac6.mcu.externaltools.arm-none.win32_1.3.0.201507241045/tools/compiler/bin/../lib/gcc/arm-none-eabi/4.9.3/../../../../arm-none-eabi/lib/armv7e-m/fpu\libc.a(lib_a-vfprintf.o) (_fflush_r)
c:/ac6/systemworkbench/plugins/fr.ac6.mcu.externaltools.arm-none.win32_1.3.0.201507241045/tools/compiler/bin/../lib/gcc/arm-none-eabi/4.9.3/../../../../arm-none-eabi/lib/armv7e-m/fpu\libc.a(lib_a-findfp.o)
                              c:/ac6/systemworkbench/plugins/fr.ac6.mcu.externaltools.arm-none.win32_1.3.0.201507241045/tools/compiler/bin/../lib/gcc/arm-none-eabi/4.9.3/../../../../arm-none-eabi/lib/armv7e-m/fpu\libc.a(lib_a-vfprintf.o) (__sinit)
c:/ac6/systemworkbench/plugins/fr.ac6.mcu.externaltools.arm-none.win32_1.3.0.201507241045/tools/compiler/bin/../lib/gcc/arm-none-eabi/4.9.3/../../../../arm-none-eabi/lib/armv7e-m/fpu\libc.a(lib_a-fini.o)
                              c:/ac6/systemworkbench/plugins/fr.ac6.mcu.externaltools.arm-none.win32_1.3.0.201507241045/tools/compiler/bin/../lib/gcc/arm-none-eabi/4.9.3/../../../../arm-none-eabi/lib/armv7e-m/fpu\libc.a(lib_a-__call_atexit.o) (__libc_fini_array)
c:/ac6/systemworkbench/plugins/fr.ac6.mcu.externaltools.arm-none.win32_1.3.0.201507241045/tools/compiler/bin/../lib/gcc/arm-none-eabi/4.9.3/../../../../arm-none-eabi/lib/armv7e-m/fpu\libc.a(lib_a-freer.o)
                              c:/ac6/systemworkbench/plugins/fr.ac6.mcu.externaltools.arm-none.win32_1.3.0.201507241045/tools/compiler/bin/../lib/gcc/arm-none-eabi/4.9.3/../../../../arm-none-eabi/lib/armv7e-m/fpu\libc.a(lib_a-malloc.o) (_free_r)
c:/ac6/systemworkbench/plugins/fr.ac6.mcu.externaltools.arm-none.win32_1.3.0.201507241045/tools/compiler/bin/../lib/gcc/arm-none-eabi/4.9.3/../../../../arm-none-eabi/lib/armv7e-m/fpu\libc.a(lib_a-fvwrite.o)
                              c:/ac6/systemworkbench/plugins/fr.ac6.mcu.externaltools.arm-none.win32_1.3.0.201507241045/tools/compiler/bin/../lib/gcc/arm-none-eabi/4.9.3/../../../../arm-none-eabi/lib/armv7e-m/fpu\libc.a(lib_a-puts.o) (__sfvwrite_r)
c:/ac6/systemworkbench/plugins/fr.ac6.mcu.externaltools.arm-none.win32_1.3.0.201507241045/tools/compiler/bin/../lib/gcc/arm-none-eabi/4.9.3/../../../../arm-none-eabi/lib/armv7e-m/fpu\libc.a(lib_a-fwalk.o)
                              c:/ac6/systemworkbench/plugins/fr.ac6.mcu.externaltools.arm-none.win32_1.3.0.201507241045/tools/compiler/bin/../lib/gcc/arm-none-eabi/4.9.3/../../../../arm-none-eabi/lib/armv7e-m/fpu\libc.a(lib_a-findfp.o) (_fwalk)
c:/ac6/systemworkbench/plugins/fr.ac6.mcu.externaltools.arm-none.win32_1.3.0.201507241045/tools/compiler/bin/../lib/gcc/arm-none-eabi/4.9.3/../../../../arm-none-eabi/lib/armv7e-m/fpu\libc.a(lib_a-locale.o)
                              c:/ac6/systemworkbench/plugins/fr.ac6.mcu.externaltools.arm-none.win32_1.3.0.201507241045/tools/compiler/bin/../lib/gcc/arm-none-eabi/4.9.3/../../../../arm-none-eabi/lib/armv7e-m/fpu\libc.a(lib_a-svfprintf.o) (_localeconv_r)
c:/ac6/systemworkbench/plugins/fr.ac6.mcu.externaltools.arm-none.win32_1.3.0.201507241045/tools/compiler/bin/../lib/gcc/arm-none-eabi/4.9.3/../../../../arm-none-eabi/lib/armv7e-m/fpu\libc.a(lib_a-makebuf.o)
                              c:/ac6/systemworkbench/plugins/fr.ac6.mcu.externaltools.arm-none.win32_1.3.0.201507241045/tools/compiler/bin/../lib/gcc/arm-none-eabi/4.9.3/../../../../arm-none-eabi/lib/armv7e-m/fpu\libc.a(lib_a-wsetup.o) (__smakebuf_r)
c:/ac6/systemworkbench/plugins/fr.ac6.mcu.externaltools.arm-none.win32_1.3.0.201507241045/tools/compiler/bin/../lib/gcc/arm-none-eabi/4.9.3/../../../../arm-none-eabi/lib/armv7e-m/fpu\libc.a(lib_a-memchr.o)
                              c:/ac6/systemworkbench/plugins/fr.ac6.mcu.externaltools.arm-none.win32_1.3.0.201507241045/tools/compiler/bin/../lib/gcc/arm-none-eabi/4.9.3/../../../../arm-none-eabi/lib/armv7e-m/fpu\libc.a(lib_a-svfprintf.o) (memchr)
c:/ac6/systemworkbench/plugins/fr.ac6.mcu.externaltools.arm-none.win32_1.3.0.201507241045/tools/compiler/bin/../lib/gcc/arm-none-eabi/4.9.3/../../../../arm-none-eabi/lib/armv7e-m/fpu\libc.a(lib_a-memmove.o)
                              c:/ac6/systemworkbench/plugins/fr.ac6.mcu.externaltools.arm-none.win32_1.3.0.201507241045/tools/compiler/bin/../lib/gcc/arm-none-eabi/4.9.3/../../../../arm-none-eabi/lib/armv7e-m/fpu\libc.a(lib_a-fvwrite.o) (memmove)
c:/ac6/systemworkbench/plugins/fr.ac6.mcu.externaltools.arm-none.win32_1.3.0.201507241045/tools/compiler/bin/../lib/gcc/arm-none-eabi/4.9.3/../../../../arm-none-eabi/lib/armv7e-m/fpu\libc.a(lib_a-mprec.o)
                              c:/ac6/systemworkbench/plugins/fr.ac6.mcu.externaltools.arm-none.win32_1.3.0.201507241045/tools/compiler/bin/../lib/gcc/arm-none-eabi/4.9.3/../../../../arm-none-eabi/lib/armv7e-m/fpu\libc.a(lib_a-dtoa.o) (_Balloc)
c:/ac6/systemworkbench/plugins/fr.ac6.mcu.externaltools.arm-none.win32_1.3.0.201507241045/tools/compiler/bin/../lib/gcc/arm-none-eabi/4.9.3/../../../../arm-none-eabi/lib/armv7e-m/fpu\libc.a(lib_a-reallocr.o)
                              c:/ac6/systemworkbench/plugins/fr.ac6.mcu.externaltools.arm-none.win32_1.3.0.201507241045/tools/compiler/bin/../lib/gcc/arm-none-eabi/4.9.3/../../../../arm-none-eabi/lib/armv7e-m/fpu\libc.a(lib_a-fvwrite.o) (_realloc_r)
c:/ac6/systemworkbench/plugins/fr.ac6.mcu.externaltools.arm-none.win32_1.3.0.201507241045/tools/compiler/bin/../lib/gcc/arm-none-eabi/4.9.3/../../../../arm-none-eabi/lib/armv7e-m/fpu\libc.a(lib_a-reent.o)
                              c:/ac6/systemworkbench/plugins/fr.ac6.mcu.externaltools.arm-none.win32_1.3.0.201507241045/tools/compiler/bin/../lib/gcc/arm-none-eabi/4.9.3/../../../../arm-none-eabi/lib/armv7e-m/fpu\libc.a(lib_a-sbrkr.o) (errno)
c:/ac6/systemworkbench/plugins/fr.ac6.mcu.externaltools.arm-none.win32_1.3.0.201507241045/tools/compiler/bin/../lib/gcc/arm-none-eabi/4.9.3/../../../../arm-none-eabi/lib/armv7e-m/fpu\libc.a(lib_a-s_fpclassify.o)
                              c:/ac6/systemworkbench/plugins/fr.ac6.mcu.externaltools.arm-none.win32_1.3.0.201507241045/tools/compiler/bin/../lib/gcc/arm-none-eabi/4.9.3/../../../../arm-none-eabi/lib/armv7e-m/fpu\libc.a(lib_a-svfprintf.o) (__fpclassifyd)
c:/ac6/systemworkbench/plugins/fr.ac6.mcu.externaltools.arm-none.win32_1.3.0.201507241045/tools/compiler/bin/../lib/gcc/arm-none-eabi/4.9.3/../../../../arm-none-eabi/lib/armv7e-m/fpu\libc.a(lib_a-stdio.o)
                              c:/ac6/systemworkbench/plugins/fr.ac6.mcu.externaltools.arm-none.win32_1.3.0.201507241045/tools/compiler/bin/../lib/gcc/arm-none-eabi/4.9.3/../../../../arm-none-eabi/lib/armv7e-m/fpu\libc.a(lib_a-findfp.o) (__sread)
c:/ac6/systemworkbench/plugins/fr.ac6.mcu.externaltools.arm-none.win32_1.3.0.201507241045/tools/compiler/bin/../lib/gcc/arm-none-eabi/4.9.3/../../../../arm-none-eabi/lib/armv7e-m/fpu\libc.a(lib_a-strcmp.o)
                              c:/ac6/systemworkbench/plugins/fr.ac6.mcu.externaltools.arm-none.win32_1.3.0.201507241045/tools/compiler/bin/../lib/gcc/arm-none-eabi/4.9.3/../../../../arm-none-eabi/lib/armv7e-m/fpu\libc.a(lib_a-locale.o) (strcmp)
c:/ac6/systemworkbench/plugins/fr.ac6.mcu.externaltools.arm-none.win32_1.3.0.201507241045/tools/compiler/bin/../lib/gcc/arm-none-eabi/4.9.3/../../../../arm-none-eabi/lib/armv7e-m/fpu\libc.a(lib_a-svfiprintf.o)
                              c:/ac6/systemworkbench/plugins/fr.ac6.mcu.externaltools.arm-none.win32_1.3.0.201507241045/tools/compiler/bin/../lib/gcc/arm-none-eabi/4.9.3/../../../../arm-none-eabi/lib/armv7e-m/fpu\libc.a(lib_a-svfprintf.o) (__ssprint_r)
c:/ac6/systemworkbench/plugins/fr.ac6.mcu.externaltools.arm-none.win32_1.3.0.201507241045/tools/compiler/bin/../lib/gcc/arm-none-eabi/4.9.3/../../../../arm-none-eabi/lib/armv7e-m/fpu\libc.a(lib_a-vfiprintf.o)
                              c:/ac6/systemworkbench/plugins/fr.ac6.mcu.externaltools.arm-none.win32_1.3.0.201507241045/tools/compiler/bin/../lib/gcc/arm-none-eabi/4.9.3/../../../../arm-none-eabi/lib/armv7e-m/fpu\libc.a(lib_a-vfprintf.o) (__sprint_r)
c:/ac6/systemworkbench/plugins/fr.ac6.mcu.externaltools.arm-none.win32_1.3.0.201507241045/tools/compiler/bin/../lib/gcc/arm-none-eabi/4.9.3/../../../../arm-none-eabi/lib/armv7e-m/fpu\libc.a(lib_a-writer.o)
                              c:/ac6/systemworkbench/plugins/fr.ac6.mcu.externaltools.arm-none.win32_1.3.0.201507241045/tools/compiler/bin/../lib/gcc/arm-none-eabi/4.9.3/../../../../arm-none-eabi/lib/armv7e-m/fpu\libc.a(lib_a-stdio.o) (_write_r)
c:/ac6/systemworkbench/plugins/fr.ac6.mcu.externaltools.arm-none.win32_1.3.0.201507241045/tools/compiler/bin/../lib/gcc/arm-none-eabi/4.9.3/../../../../arm-none-eabi/lib/armv7e-m/fpu\libc.a(lib_a-__atexit.o)
                              c:/ac6/systemworkbench/plugins/fr.ac6.mcu.externaltools.arm-none.win32_1.3.0.201507241045/tools/compiler/bin/../lib/gcc/arm-none-eabi/4.9.3/../../../../arm-none-eabi/lib/armv7e-m/fpu\libc.a(lib_a-atexit.o) (__register_exitproc)
c:/ac6/systemworkbench/plugins/fr.ac6.mcu.externaltools.arm-none.win32_1.3.0.201507241045/tools/compiler/bin/../lib/gcc/arm-none-eabi/4.9.3/../../../../arm-none-eabi/lib/armv7e-m/fpu\libc.a(lib_a-callocr.o)
                              c:/ac6/systemworkbench/plugins/fr.ac6.mcu.externaltools.arm-none.win32_1.3.0.201507241045/tools/compiler/bin/../lib/gcc/arm-none-eabi/4.9.3/../../../../arm-none-eabi/lib/armv7e-m/fpu\libc.a(lib_a-mprec.o) (_calloc_r)
c:/ac6/systemworkbench/plugins/fr.ac6.mcu.externaltools.arm-none.win32_1.3.0.201507241045/tools/compiler/bin/../lib/gcc/arm-none-eabi/4.9.3/../../../../arm-none-eabi/lib/armv7e-m/fpu\libc.a(lib_a-closer.o)
                              c:/ac6/systemworkbench/plugins/fr.ac6.mcu.externaltools.arm-none.win32_1.3.0.201507241045/tools/compiler/bin/../lib/gcc/arm-none-eabi/4.9.3/../../../../arm-none-eabi/lib/armv7e-m/fpu\libc.a(lib_a-stdio.o) (_close_r)
c:/ac6/systemworkbench/plugins/fr.ac6.mcu.externaltools.arm-none.win32_1.3.0.201507241045/tools/compiler/bin/../lib/gcc/arm-none-eabi/4.9.3/../../../../arm-none-eabi/lib/armv7e-m/fpu\libc.a(lib_a-fclose.o)
                              c:/ac6/systemworkbench/plugins/fr.ac6.mcu.externaltools.arm-none.win32_1.3.0.201507241045/tools/compiler/bin/../lib/gcc/arm-none-eabi/4.9.3/../../../../arm-none-eabi/lib/armv7e-m/fpu\libc.a(lib_a-findfp.o) (_fclose_r)
c:/ac6/systemworkbench/plugins/fr.ac6.mcu.externaltools.arm-none.win32_1.3.0.201507241045/tools/compiler/bin/../lib/gcc/arm-none-eabi/4.9.3/../../../../arm-none-eabi/lib/armv7e-m/fpu\libc.a(lib_a-fputwc.o)
                              c:/ac6/systemworkbench/plugins/fr.ac6.mcu.externaltools.arm-none.win32_1.3.0.201507241045/tools/compiler/bin/../lib/gcc/arm-none-eabi/4.9.3/../../../../arm-none-eabi/lib/armv7e-m/fpu\libc.a(lib_a-vfiprintf.o) (_fputwc_r)
c:/ac6/systemworkbench/plugins/fr.ac6.mcu.externaltools.arm-none.win32_1.3.0.201507241045/tools/compiler/bin/../lib/gcc/arm-none-eabi/4.9.3/../../../../arm-none-eabi/lib/armv7e-m/fpu\libc.a(lib_a-fstatr.o)
                              c:/ac6/systemworkbench/plugins/fr.ac6.mcu.externaltools.arm-none.win32_1.3.0.201507241045/tools/compiler/bin/../lib/gcc/arm-none-eabi/4.9.3/../../../../arm-none-eabi/lib/armv7e-m/fpu\libc.a(lib_a-makebuf.o) (_fstat_r)
c:/ac6/systemworkbench/plugins/fr.ac6.mcu.externaltools.arm-none.win32_1.3.0.201507241045/tools/compiler/bin/../lib/gcc/arm-none-eabi/4.9.3/../../../../arm-none-eabi/lib/armv7e-m/fpu\libc.a(lib_a-isattyr.o)
                              c:/ac6/systemworkbench/plugins/fr.ac6.mcu.externaltools.arm-none.win32_1.3.0.201507241045/tools/compiler/bin/../lib/gcc/arm-none-eabi/4.9.3/../../../../arm-none-eabi/lib/armv7e-m/fpu\libc.a(lib_a-makebuf.o) (_isatty_r)
c:/ac6/systemworkbench/plugins/fr.ac6.mcu.externaltools.arm-none.win32_1.3.0.201507241045/tools/compiler/bin/../lib/gcc/arm-none-eabi/4.9.3/../../../../arm-none-eabi/lib/armv7e-m/fpu\libc.a(lib_a-lseekr.o)
                              c:/ac6/systemworkbench/plugins/fr.ac6.mcu.externaltools.arm-none.win32_1.3.0.201507241045/tools/compiler/bin/../lib/gcc/arm-none-eabi/4.9.3/../../../../arm-none-eabi/lib/armv7e-m/fpu\libc.a(lib_a-stdio.o) (_lseek_r)
c:/ac6/systemworkbench/plugins/fr.ac6.mcu.externaltools.arm-none.win32_1.3.0.201507241045/tools/compiler/bin/../lib/gcc/arm-none-eabi/4.9.3/../../../../arm-none-eabi/lib/armv7e-m/fpu\libc.a(lib_a-readr.o)
                              c:/ac6/systemworkbench/plugins/fr.ac6.mcu.externaltools.arm-none.win32_1.3.0.201507241045/tools/compiler/bin/../lib/gcc/arm-none-eabi/4.9.3/../../../../arm-none-eabi/lib/armv7e-m/fpu\libc.a(lib_a-stdio.o) (_read_r)
c:/ac6/systemworkbench/plugins/fr.ac6.mcu.externaltools.arm-none.win32_1.3.0.201507241045/tools/compiler/bin/../lib/gcc/arm-none-eabi/4.9.3/../../../../arm-none-eabi/lib/armv7e-m/fpu\libc.a(lib_a-wbuf.o)
                              c:/ac6/systemworkbench/plugins/fr.ac6.mcu.externaltools.arm-none.win32_1.3.0.201507241045/tools/compiler/bin/../lib/gcc/arm-none-eabi/4.9.3/../../../../arm-none-eabi/lib/armv7e-m/fpu\libc.a(lib_a-fputwc.o) (__swbuf_r)
c:/ac6/systemworkbench/plugins/fr.ac6.mcu.externaltools.arm-none.win32_1.3.0.201507241045/tools/compiler/bin/../lib/gcc/arm-none-eabi/4.9.3/../../../../arm-none-eabi/lib/armv7e-m/fpu\libc.a(lib_a-wcrtomb.o)
                              c:/ac6/systemworkbench/plugins/fr.ac6.mcu.externaltools.arm-none.win32_1.3.0.201507241045/tools/compiler/bin/../lib/gcc/arm-none-eabi/4.9.3/../../../../arm-none-eabi/lib/armv7e-m/fpu\libc.a(lib_a-fputwc.o) (_wcrtomb_r)
c:/ac6/systemworkbench/plugins/fr.ac6.mcu.externaltools.arm-none.win32_1.3.0.201507241045/tools/compiler/bin/../lib/gcc/arm-none-eabi/4.9.3/../../../../arm-none-eabi/lib/armv7e-m/fpu\libc.a(lib_a-wctomb_r.o)
                              c:/ac6/systemworkbench/plugins/fr.ac6.mcu.externaltools.arm-none.win32_1.3.0.201507241045/tools/compiler/bin/../lib/gcc/arm-none-eabi/4.9.3/../../../../arm-none-eabi/lib/armv7e-m/fpu\libc.a(lib_a-wcrtomb.o) (__wctomb)
c:/ac6/systemworkbench/plugins/fr.ac6.mcu.externaltools.arm-none.win32_1.3.0.201507241045/tools/compiler/bin/../lib/gcc/arm-none-eabi/4.9.3/armv7e-m/fpu\libgcc.a(_arm_muldivdf3.o)
                              c:/ac6/systemworkbench/plugins/fr.ac6.mcu.externaltools.arm-none.win32_1.3.0.201507241045/tools/compiler/bin/../lib/gcc/arm-none-eabi/4.9.3/../../../../arm-none-eabi/lib/armv7e-m/fpu\libc.a(lib_a-dtoa.o) (__aeabi_dmul)
c:/ac6/systemworkbench/plugins/fr.ac6.mcu.externaltools.arm-none.win32_1.3.0.201507241045/tools/compiler/bin/../lib/gcc/arm-none-eabi/4.9.3/armv7e-m/fpu\libgcc.a(_arm_fixdfsi.o)
                              c:/ac6/systemworkbench/plugins/fr.ac6.mcu.externaltools.arm-none.win32_1.3.0.201507241045/tools/compiler/bin/../lib/gcc/arm-none-eabi/4.9.3/../../../../arm-none-eabi/lib/armv7e-m/fpu\libc.a(lib_a-dtoa.o) (__aeabi_d2iz)
c:/ac6/systemworkbench/plugins/fr.ac6.mcu.externaltools.arm-none.win32_1.3.0.201507241045/tools/compiler/bin/../lib/gcc/arm-none-eabi/4.9.3/armv7e-m/fpu\libgcc.a(_aeabi_uldivmod.o)
                              c:/ac6/systemworkbench/plugins/fr.ac6.mcu.externaltools.arm-none.win32_1.3.0.201507241045/tools/compiler/bin/../lib/gcc/arm-none-eabi/4.9.3/../../../../arm-none-eabi/lib/armv7e-m/fpu\libc.a(lib_a-svfprintf.o) (__aeabi_uldivmod)
c:/ac6/systemworkbench/plugins/fr.ac6.mcu.externaltools.arm-none.win32_1.3.0.201507241045/tools/compiler/bin/../lib/gcc/arm-none-eabi/4.9.3/armv7e-m/fpu\libgcc.a(bpabi.o)
                              c:/ac6/systemworkbench/plugins/fr.ac6.mcu.externaltools.arm-none.win32_1.3.0.201507241045/tools/compiler/bin/../lib/gcc/arm-none-eabi/4.9.3/armv7e-m/fpu\libgcc.a(_aeabi_uldivmod.o) (__gnu_uldivmod_helper)
c:/ac6/systemworkbench/plugins/fr.ac6.mcu.externaltools.arm-none.win32_1.3.0.201507241045/tools/compiler/bin/../lib/gcc/arm-none-eabi/4.9.3/armv7e-m/fpu\libgcc.a(_dvmd_tls.o)
                              c:/ac6/systemworkbench/plugins/fr.ac6.mcu.externaltools.arm-none.win32_1.3.0.201507241045/tools/compiler/bin/../lib/gcc/arm-none-eabi/4.9.3/armv7e-m/fpu\libgcc.a(_aeabi_uldivmod.o) (__aeabi_ldiv0)
c:/ac6/systemworkbench/plugins/fr.ac6.mcu.externaltools.arm-none.win32_1.3.0.201507241045/tools/compiler/bin/../lib/gcc/arm-none-eabi/4.9.3/armv7e-m/fpu\libgcc.a(_divdi3.o)
                              c:/ac6/systemworkbench/plugins/fr.ac6.mcu.externaltools.arm-none.win32_1.3.0.201507241045/tools/compiler/bin/../lib/gcc/arm-none-eabi/4.9.3/armv7e-m/fpu\libgcc.a(bpabi.o) (__divdi3)
c:/ac6/systemworkbench/plugins/fr.ac6.mcu.externaltools.arm-none.win32_1.3.0.201507241045/tools/compiler/bin/../lib/gcc/arm-none-eabi/4.9.3/armv7e-m/fpu\libgcc.a(_udivdi3.o)
                              c:/ac6/systemworkbench/plugins/fr.ac6.mcu.externaltools.arm-none.win32_1.3.0.201507241045/tools/compiler/bin/../lib/gcc/arm-none-eabi/4.9.3/armv7e-m/fpu\libgcc.a(bpabi.o) (__udivdi3)

Allocating common symbols
Common symbol       size              file

LCD_CacheBuffer_yptr_bottom_bak
                    0x2               Utilities/Common/lcd_log.o
LCD_CacheBuffer_yptr_top_bak
                    0x2               Utilities/Common/lcd_log.o
netif_list          0x4               lwip_v1.3.2/src/core/netif.o
SDIO_CmdInitStructure
                    0x14              Utilities/STM3240_41_G_EVAL/stm324xg_eval_sdio_sd.o
sEEDMA_InitStructure
                    0x3c              Utilities/STM3240_41_G_EVAL/stm324xg_eval.o
RX_Frame_Descriptor
                    0xc               STM32F4x7_ETH_Driver/src/stm32f4x7_eth.o
tcp_active_pcbs     0x4               lwip_v1.3.2/src/core/tcp.o
udp_pcbs            0x4               lwip_v1.3.2/src/core/udp.o
errno               0x4               c:/ac6/systemworkbench/plugins/fr.ac6.mcu.externaltools.arm-none.win32_1.3.0.201507241045/tools/compiler/bin/../lib/gcc/arm-none-eabi/4.9.3/../../../../arm-none-eabi/lib/armv7e-m/fpu\libc.a(lib_a-reent.o)
current_netif       0x4               lwip_v1.3.2/src/core/ipv4/ip.o
gp_packet           0x4               src/udp_echoserver.o
tcp_ticks           0x4               lwip_v1.3.2/src/core/tcp.o
tcp_listen_pcbs     0x4               lwip_v1.3.2/src/core/tcp.o
ETH_InitStructure   0xbc              src/stm32f4x7_eth_bsp.o
abuffer             0x28              src/main.o
DMARxDescToGet      0x4               STM32F4x7_ETH_Driver/src/stm32f4x7_eth.o
gnetif              0x38              src/netconf.o
LCD_CacheBuffer_yptr_bottom
                    0x2               Utilities/Common/lcd_log.o
OV2640_Camera_ID    0x4               src/main.o
LCD_CacheBuffer_xptr
                    0x2               Utilities/Common/lcd_log.o
DMATxDescToSet      0x4               STM32F4x7_ETH_Driver/src/stm32f4x7_eth.o
tcp_tmp_pcb         0x4               lwip_v1.3.2/src/core/tcp.o
SDCardInfo          0x58              Utilities/STM3240_41_G_EVAL/stm324xg_eval_sdio_sd.o
SDIO_InitStructure  0x18              Utilities/STM3240_41_G_EVAL/stm324xg_eval_sdio_sd.o
tcp_input_pcb       0x4               lwip_v1.3.2/src/core/tcp_in.o
ImageFormat         0x1               src/camera_api.o
LCD_CacheBuffer_yptr_invert
                    0x1               Utilities/Common/lcd_log.o
DMATxDscrTab        0x80              STM32F4x7_ETH_Driver/src/stm32f4x7_eth.o
SDIO_DataInitStructure
                    0x18              Utilities/STM3240_41_G_EVAL/stm324xg_eval_sdio_sd.o
current_header      0x4               lwip_v1.3.2/src/core/ipv4/ip.o
LCD_Lock            0x1               Utilities/Common/lcd_log.o
Rx_Buff             0x17d0            STM32F4x7_ETH_Driver/src/stm32f4x7_eth.o
g_frame_total_len   0x4               src/udp_echoserver.o
tcp_bound_pcbs      0x4               lwip_v1.3.2/src/core/tcp.o
LCD_Scrolled        0x1               Utilities/Common/lcd_log.o
OV9655_Camera_ID    0x4               src/main.o
Frame_Rx_index      0x4               STM32F4x7_ETH_Driver/src/stm32f4x7_eth.o
data                0x64              src/udp_echoserver.o
LCD_CacheBuffer_yptr_top
                    0x2               Utilities/Common/lcd_log.o
LCD_ScrollActive    0x1               Utilities/Common/lcd_log.o
LCD_CacheBuffer     0xc98             Utilities/Common/lcd_log.o
DMA_RX_FRAME_infos  0x4               STM32F4x7_ETH_Driver/src/stm32f4x7_eth.o
DMARxDscrTab        0x80              STM32F4x7_ETH_Driver/src/stm32f4x7_eth.o
TS_State            0x8               Utilities/STM3240_41_G_EVAL/stm324xg_eval_ioe.o
tcp_tw_pcbs         0x4               lwip_v1.3.2/src/core/tcp.o
LCD_LineColor       0x2               Utilities/Common/lcd_log.o
netif_default       0x4               lwip_v1.3.2/src/core/netif.o
NVIC_InitStructure  0x4               Utilities/STM3240_41_G_EVAL/stm324xg_eval.o
RCC_Clocks          0x10              src/main.o
Camera              0x1               src/camera_api.o
message_count       0x4               src/udp_echoserver.o
g_total_section     0x2               src/udp_echoserver.o
timingdelay         0x4               src/main.o
Tx_Buff             0x17d0            STM32F4x7_ETH_Driver/src/stm32f4x7_eth.o
LCD_ScrollBackStep  0x2               Utilities/Common/lcd_log.o

Discarded input sections

 .text          0x00000000        0x0 c:/ac6/systemworkbench/plugins/fr.ac6.mcu.externaltools.arm-none.win32_1.3.0.201507241045/tools/compiler/bin/../lib/gcc/arm-none-eabi/4.9.3/armv7e-m/fpu/crti.o
 .data          0x00000000        0x0 c:/ac6/systemworkbench/plugins/fr.ac6.mcu.externaltools.arm-none.win32_1.3.0.201507241045/tools/compiler/bin/../lib/gcc/arm-none-eabi/4.9.3/armv7e-m/fpu/crti.o
 .bss           0x00000000        0x0 c:/ac6/systemworkbench/plugins/fr.ac6.mcu.externaltools.arm-none.win32_1.3.0.201507241045/tools/compiler/bin/../lib/gcc/arm-none-eabi/4.9.3/armv7e-m/fpu/crti.o
 .data          0x00000000        0x4 c:/ac6/systemworkbench/plugins/fr.ac6.mcu.externaltools.arm-none.win32_1.3.0.201507241045/tools/compiler/bin/../lib/gcc/arm-none-eabi/4.9.3/armv7e-m/fpu/crtbegin.o
 .text          0x00000000       0x74 c:/ac6/systemworkbench/plugins/fr.ac6.mcu.externaltools.arm-none.win32_1.3.0.201507241045/tools/compiler/bin/../lib/gcc/arm-none-eabi/4.9.3/../../../../arm-none-eabi/lib/armv7e-m/fpu/crt0.o
 .data          0x00000000        0x0 c:/ac6/systemworkbench/plugins/fr.ac6.mcu.externaltools.arm-none.win32_1.3.0.201507241045/tools/compiler/bin/../lib/gcc/arm-none-eabi/4.9.3/../../../../arm-none-eabi/lib/armv7e-m/fpu/crt0.o
 .bss           0x00000000        0x0 c:/ac6/systemworkbench/plugins/fr.ac6.mcu.externaltools.arm-none.win32_1.3.0.201507241045/tools/compiler/bin/../lib/gcc/arm-none-eabi/4.9.3/../../../../arm-none-eabi/lib/armv7e-m/fpu/crt0.o
 .ARM.extab     0x00000000        0x0 c:/ac6/systemworkbench/plugins/fr.ac6.mcu.externaltools.arm-none.win32_1.3.0.201507241045/tools/compiler/bin/../lib/gcc/arm-none-eabi/4.9.3/../../../../arm-none-eabi/lib/armv7e-m/fpu/crt0.o
 .ARM.exidx     0x00000000        0x8 c:/ac6/systemworkbench/plugins/fr.ac6.mcu.externaltools.arm-none.win32_1.3.0.201507241045/tools/compiler/bin/../lib/gcc/arm-none-eabi/4.9.3/../../../../arm-none-eabi/lib/armv7e-m/fpu/crt0.o
 .ARM.attributes
                0x00000000       0x20 c:/ac6/systemworkbench/plugins/fr.ac6.mcu.externaltools.arm-none.win32_1.3.0.201507241045/tools/compiler/bin/../lib/gcc/arm-none-eabi/4.9.3/../../../../arm-none-eabi/lib/armv7e-m/fpu/crt0.o
 .text          0x00000000       0x14 startup/startup_stm32f40xx.o
 .data          0x00000000        0x0 startup/startup_stm32f40xx.o
 .bss           0x00000000        0x0 startup/startup_stm32f40xx.o
 .text.Empty_serial_io_init
                0x00000000        0x2 startup/startup_stm32f40xx.o
 .group         0x00000000        0x8 src/camera_api.o
 .group         0x00000000        0x8 src/camera_api.o
Memory Configuration

Name             Origin             Length             Attributes
FLASH            0x08000000         0x00100000         xr
RAM              0x20000000         0x00020000         xrw
CCMRAM           0x10000000         0x00010000         xrw
MEMORY_B1        0x60000000         0x00000000         xr
ExtRAM           0x64080000         0x00200000         rw
*default*        0x00000000         0xffffffff

Linker script and memory map

LOAD c:/ac6/systemworkbench/plugins/fr.ac6.mcu.externaltools.arm-none.win32_1.3.0.201507241045/tools/compiler/bin/../lib/gcc/arm-none-eabi/4.9.3/armv7e-m/fpu/crti.o
LOAD c:/ac6/systemworkbench/plugins/fr.ac6.mcu.externaltools.arm-none.win32_1.3.0.201507241045/tools/compiler/bin/../lib/gcc/arm-none-eabi/4.9.3/armv7e-m/fpu/crtbegin.o
LOAD c:/ac6/systemworkbench/plugins/fr.ac6.mcu.externaltools.arm-none.win32_1.3.0.201507241045/tools/compiler/bin/../lib/gcc/arm-none-eabi/4.9.3/../../../../arm-none-eabi/lib/armv7e-m/fpu/crt0.o
LOAD c:/ac6/systemworkbench/plugins/fr.ac6.mcu.externaltools.arm-none.win32_1.3.0.201507241045/tools/compiler/bin/../lib/gcc/arm-none-eabi/4.9.3/../../../../arm-none-eabi/lib/armv7e-m/fpu\libm.a
LOAD startup/startup_stm32f40xx.o
LOAD src/camera_api.o
LOAD src/dcmi_ov2640.o
LOAD src/dcmi_ov9655.o
LOAD src/main.o
LOAD src/netconf.o
LOAD src/serial_debug.o
LOAD src/serial_io.o
LOAD src/stm32f4x7_eth_bsp.o
LOAD src/stm32f4xx_it.o
LOAD src/syscalls.o
LOAD src/system_stm32f4xx.o
LOAD src/udp_echoserver.o
LOAD lwip_v1.3.2/src/netif/etharp.o
LOAD lwip_v1.3.2/src/netif/loopif.o
LOAD lwip_v1.3.2/src/netif/slipif.o
LOAD lwip_v1.3.2/src/netif/ppp/auth.o
LOAD lwip_v1.3.2/src/netif/ppp/chap.o
LOAD lwip_v1.3.2/src/netif/ppp/chpms.o
LOAD lwip_v1.3.2/src/netif/ppp/fsm.o
LOAD lwip_v1.3.2/src/netif/ppp/ipcp.o
LOAD lwip_v1.3.2/src/netif/ppp/lcp.o
LOAD lwip_v1.3.2/src/netif/ppp/magic.o
LOAD lwip_v1.3.2/src/netif/ppp/md5.o
LOAD lwip_v1.3.2/src/netif/ppp/pap.o
LOAD lwip_v1.3.2/src/netif/ppp/ppp.o
LOAD lwip_v1.3.2/src/netif/ppp/ppp_oe.o
LOAD lwip_v1.3.2/src/netif/ppp/randm.o
LOAD lwip_v1.3.2/src/netif/ppp/vj.o
LOAD lwip_v1.3.2/src/core/dhcp.o
LOAD lwip_v1.3.2/src/core/dns.o
LOAD lwip_v1.3.2/src/core/init.o
LOAD lwip_v1.3.2/src/core/mem.o
LOAD lwip_v1.3.2/src/core/memp.o
LOAD lwip_v1.3.2/src/core/netif.o
LOAD lwip_v1.3.2/src/core/pbuf.o
LOAD lwip_v1.3.2/src/core/raw.o
LOAD lwip_v1.3.2/src/core/stats.o
LOAD lwip_v1.3.2/src/core/sys.o
LOAD lwip_v1.3.2/src/core/tcp.o
LOAD lwip_v1.3.2/src/core/tcp_in.o
LOAD lwip_v1.3.2/src/core/tcp_out.o
LOAD lwip_v1.3.2/src/core/udp.o
LOAD lwip_v1.3.2/src/core/snmp/asn1_dec.o
LOAD lwip_v1.3.2/src/core/snmp/asn1_enc.o
LOAD lwip_v1.3.2/src/core/snmp/mib2.o
LOAD lwip_v1.3.2/src/core/snmp/mib_structs.o
LOAD lwip_v1.3.2/src/core/snmp/msg_in.o
LOAD lwip_v1.3.2/src/core/snmp/msg_out.o
LOAD lwip_v1.3.2/src/core/ipv4/autoip.o
LOAD lwip_v1.3.2/src/core/ipv4/icmp.o
LOAD lwip_v1.3.2/src/core/ipv4/igmp.o
LOAD lwip_v1.3.2/src/core/ipv4/inet.o
LOAD lwip_v1.3.2/src/core/ipv4/inet_chksum.o
LOAD lwip_v1.3.2/src/core/ipv4/ip.o
LOAD lwip_v1.3.2/src/core/ipv4/ip_addr.o
LOAD lwip_v1.3.2/src/core/ipv4/ip_frag.o
LOAD lwip_v1.3.2/src/api/api_lib.o
LOAD lwip_v1.3.2/src/api/api_msg.o
LOAD lwip_v1.3.2/src/api/err.o
LOAD lwip_v1.3.2/src/api/netbuf.o
LOAD lwip_v1.3.2/src/api/netdb.o
LOAD lwip_v1.3.2/src/api/netifapi.o
LOAD lwip_v1.3.2/src/api/sockets.o
LOAD lwip_v1.3.2/src/api/tcpip.o
LOAD lwip_v1.3.2/port/STM32/Standalone/ethernetif.o
LOAD Utilities/STM3240_41_G_EVAL/stm324xg_eval.o
LOAD Utilities/STM3240_41_G_EVAL/stm324xg_eval_fsmc_sram.o
LOAD Utilities/STM3240_41_G_EVAL/stm324xg_eval_ioe.o
LOAD Utilities/STM3240_41_G_EVAL/stm324xg_eval_lcd.o
LOAD Utilities/STM3240_41_G_EVAL/stm324xg_eval_sdio_sd.o
LOAD Utilities/Common/fonts.o
LOAD Utilities/Common/lcd_log.o
LOAD StdPeriph_Driver/src/stm32f4xx_adc.o
LOAD StdPeriph_Driver/src/stm32f4xx_can.o
LOAD StdPeriph_Driver/src/stm32f4xx_crc.o
LOAD StdPeriph_Driver/src/stm32f4xx_cryp.o
LOAD StdPeriph_Driver/src/stm32f4xx_cryp_aes.o
LOAD StdPeriph_Driver/src/stm32f4xx_cryp_des.o
LOAD StdPeriph_Driver/src/stm32f4xx_cryp_tdes.o
LOAD StdPeriph_Driver/src/stm32f4xx_dac.o
LOAD StdPeriph_Driver/src/stm32f4xx_dbgmcu.o
LOAD StdPeriph_Driver/src/stm32f4xx_dcmi.o
LOAD StdPeriph_Driver/src/stm32f4xx_dma.o
LOAD StdPeriph_Driver/src/stm32f4xx_exti.o
LOAD StdPeriph_Driver/src/stm32f4xx_flash.o
LOAD StdPeriph_Driver/src/stm32f4xx_fsmc.o
LOAD StdPeriph_Driver/src/stm32f4xx_gpio.o
LOAD StdPeriph_Driver/src/stm32f4xx_hash.o
LOAD StdPeriph_Driver/src/stm32f4xx_hash_md5.o
LOAD StdPeriph_Driver/src/stm32f4xx_hash_sha1.o
LOAD StdPeriph_Driver/src/stm32f4xx_i2c.o
LOAD StdPeriph_Driver/src/stm32f4xx_iwdg.o
LOAD StdPeriph_Driver/src/stm32f4xx_misc.o
LOAD StdPeriph_Driver/src/stm32f4xx_pwr.o
LOAD StdPeriph_Driver/src/stm32f4xx_rcc.o
LOAD StdPeriph_Driver/src/stm32f4xx_rng.o
LOAD StdPeriph_Driver/src/stm32f4xx_rtc.o
LOAD StdPeriph_Driver/src/stm32f4xx_sdio.o
LOAD StdPeriph_Driver/src/stm32f4xx_spi.o
LOAD StdPeriph_Driver/src/stm32f4xx_syscfg.o
LOAD StdPeriph_Driver/src/stm32f4xx_tim.o
LOAD StdPeriph_Driver/src/stm32f4xx_usart.o
LOAD StdPeriph_Driver/src/stm32f4xx_wwdg.o
LOAD STM32F4x7_ETH_Driver/src/stm32f4x7_eth.o
START GROUP
LOAD c:/ac6/systemworkbench/plugins/fr.ac6.mcu.externaltools.arm-none.win32_1.3.0.201507241045/tools/compiler/bin/../lib/gcc/arm-none-eabi/4.9.3/armv7e-m/fpu\libgcc.a
LOAD c:/ac6/systemworkbench/plugins/fr.ac6.mcu.externaltools.arm-none.win32_1.3.0.201507241045/tools/compiler/bin/../lib/gcc/arm-none-eabi/4.9.3/../../../../arm-none-eabi/lib/armv7e-m/fpu\libc.a
END GROUP
LOAD c:/ac6/systemworkbench/plugins/fr.ac6.mcu.externaltools.arm-none.win32_1.3.0.201507241045/tools/compiler/bin/../lib/gcc/arm-none-eabi/4.9.3/armv7e-m/fpu/crtend.o
LOAD c:/ac6/systemworkbench/plugins/fr.ac6.mcu.externaltools.arm-none.win32_1.3.0.201507241045/tools/compiler/bin/../lib/gcc/arm-none-eabi/4.9.3/armv7e-m/fpu/crtn.o
                0x20020000                _estack = 0x20020000
                0x00000000                _Min_Heap_Size = 0x0
                0x00000400                _Min_Stack_Size = 0x400

.isr_vector     0x08000000      0x188
                0x08000000                . = ALIGN (0x4)
 *(.isr_vector)
 .isr_vector    0x08000000      0x188 startup/startup_stm32f40xx.o
                0x08000000                g_pfnVectors
                0x08000188                . = ALIGN (0x4)

.text           0x08000188    0x17080
                0x08000188                . = ALIGN (0x4)
 *(.text)
 .text          0x08000188       0x5c c:/ac6/systemworkbench/plugins/fr.ac6.mcu.externaltools.arm-none.win32_1.3.0.201507241045/tools/compiler/bin/../lib/gcc/arm-none-eabi/4.9.3/armv7e-m/fpu/crtbegin.o
 .text          0x080001e4      0x370 c:/ac6/systemworkbench/plugins/fr.ac6.mcu.externaltools.arm-none.win32_1.3.0.201507241045/tools/compiler/bin/../lib/gcc/arm-none-eabi/4.9.3/armv7e-m/fpu\libgcc.a(_arm_addsubdf3.o)
                0x080001e4                __aeabi_drsub
                0x080001ec                __aeabi_dsub
                0x080001ec                __subdf3
                0x080001f0                __aeabi_dadd
                0x080001f0                __adddf3
                0x08000468                __floatunsidf
                0x08000468                __aeabi_ui2d
                0x08000488                __floatsidf
                0x08000488                __aeabi_i2d
                0x080004ac                __aeabi_f2d
                0x080004ac                __extendsfdf2
                0x080004e8                __floatundidf
                0x080004e8                __aeabi_ul2d
                0x080004f8                __floatdidf
                0x080004f8                __aeabi_l2d
 .text          0x08000554      0x110 c:/ac6/systemworkbench/plugins/fr.ac6.mcu.externaltools.arm-none.win32_1.3.0.201507241045/tools/compiler/bin/../lib/gcc/arm-none-eabi/4.9.3/armv7e-m/fpu\libgcc.a(_arm_cmpdf2.o)
                0x08000554                __gtdf2
                0x08000554                __gedf2
                0x0800055c                __ltdf2
                0x0800055c                __ledf2
                0x08000564                __nedf2
                0x08000564                __eqdf2
                0x08000564                __cmpdf2
                0x080005e0                __aeabi_cdrcmple
                0x080005f0                __aeabi_cdcmpeq
                0x080005f0                __aeabi_cdcmple
                0x08000600                __aeabi_dcmpeq
                0x08000614                __aeabi_dcmplt
                0x08000628                __aeabi_dcmple
                0x0800063c                __aeabi_dcmpge
                0x08000650                __aeabi_dcmpgt
 .text          0x08000664      0x134 c:/ac6/systemworkbench/plugins/fr.ac6.mcu.externaltools.arm-none.win32_1.3.0.201507241045/tools/compiler/bin/../lib/gcc/arm-none-eabi/4.9.3/../../../../arm-none-eabi/lib/armv7e-m/fpu\libc.a(lib_a-memcpy.o)
                0x08000664                memcpy
 .text          0x08000798      0x424 c:/ac6/systemworkbench/plugins/fr.ac6.mcu.externaltools.arm-none.win32_1.3.0.201507241045/tools/compiler/bin/../lib/gcc/arm-none-eabi/4.9.3/armv7e-m/fpu\libgcc.a(_arm_muldivdf3.o)
                0x08000798                __aeabi_dmul
                0x08000798                __muldf3
                0x080009ec                __divdf3
                0x080009ec                __aeabi_ddiv
 .text          0x08000bbc       0x50 c:/ac6/systemworkbench/plugins/fr.ac6.mcu.externaltools.arm-none.win32_1.3.0.201507241045/tools/compiler/bin/../lib/gcc/arm-none-eabi/4.9.3/armv7e-m/fpu\libgcc.a(_arm_fixdfsi.o)
                0x08000bbc                __aeabi_d2iz
                0x08000bbc                __fixdfsi
 .text          0x08000c0c       0x30 c:/ac6/systemworkbench/plugins/fr.ac6.mcu.externaltools.arm-none.win32_1.3.0.201507241045/tools/compiler/bin/../lib/gcc/arm-none-eabi/4.9.3/armv7e-m/fpu\libgcc.a(_aeabi_uldivmod.o)
                0x08000c0c                __aeabi_uldivmod
 .text          0x08000c3c       0x60 c:/ac6/systemworkbench/plugins/fr.ac6.mcu.externaltools.arm-none.win32_1.3.0.201507241045/tools/compiler/bin/../lib/gcc/arm-none-eabi/4.9.3/armv7e-m/fpu\libgcc.a(bpabi.o)
                0x08000c3c                __gnu_ldivmod_helper
                0x08000c6c                __gnu_uldivmod_helper
 .text          0x08000c9c        0x4 c:/ac6/systemworkbench/plugins/fr.ac6.mcu.externaltools.arm-none.win32_1.3.0.201507241045/tools/compiler/bin/../lib/gcc/arm-none-eabi/4.9.3/armv7e-m/fpu\libgcc.a(_dvmd_tls.o)
                0x08000c9c                __aeabi_idiv0
                0x08000c9c                __aeabi_ldiv0
 .text          0x08000ca0      0x29c c:/ac6/systemworkbench/plugins/fr.ac6.mcu.externaltools.arm-none.win32_1.3.0.201507241045/tools/compiler/bin/../lib/gcc/arm-none-eabi/4.9.3/armv7e-m/fpu\libgcc.a(_divdi3.o)
                0x08000ca0                __divdi3
 .text          0x08000f3c      0x26c c:/ac6/systemworkbench/plugins/fr.ac6.mcu.externaltools.arm-none.win32_1.3.0.201507241045/tools/compiler/bin/../lib/gcc/arm-none-eabi/4.9.3/armv7e-m/fpu\libgcc.a(_udivdi3.o)
                0x08000f3c                __udivdi3
 *(.text*)
 .text.Reset_Handler
                0x080011a8       0x4c startup/startup_stm32f40xx.o
                0x080011a8                Reset_Handler
 .text.Default_Handler
                0x080011f4        0x2 startup/startup_stm32f40xx.o
                0x080011f4                RTC_Alarm_IRQHandler
                0x080011f4                HASH_RNG_IRQHandler
                0x080011f4                TIM8_CC_IRQHandler
                0x080011f4                TIM1_CC_IRQHandler
                0x080011f4                DMA2_Stream5_IRQHandler
                0x080011f4                DMA1_Stream5_IRQHandler
                0x080011f4                PVD_IRQHandler
                0x080011f4                SDIO_IRQHandler
                0x080011f4                TAMP_STAMP_IRQHandler
                0x080011f4                PendSV_Handler
                0x080011f4                CAN2_RX1_IRQHandler
                0x080011f4                EXTI3_IRQHandler
                0x080011f4                TIM8_TRG_COM_TIM14_IRQHandler
                0x080011f4                TIM1_UP_TIM10_IRQHandler
                0x080011f4                TIM8_UP_TIM13_IRQHandler
                0x080011f4                I2C3_ER_IRQHandler
                0x080011f4                EXTI0_IRQHandler
                0x080011f4                I2C2_EV_IRQHandler
                0x080011f4                DMA1_Stream2_IRQHandler
                0x080011f4                CAN1_RX0_IRQHandler
                0x080011f4                FPU_IRQHandler
                0x080011f4                OTG_HS_WKUP_IRQHandler
                0x080011f4                CAN2_SCE_IRQHandler
                0x080011f4                DMA2_Stream2_IRQHandler
                0x080011f4                SPI1_IRQHandler
                0x080011f4                TIM6_DAC_IRQHandler
                0x080011f4                TIM1_BRK_TIM9_IRQHandler
                0x080011f4                CAN2_RX0_IRQHandler
                0x080011f4                DMA2_Stream3_IRQHandler
                0x080011f4                USART6_IRQHandler
                0x080011f4                USART3_IRQHandler
                0x080011f4                CRYP_IRQHandler
                0x080011f4                CAN1_RX1_IRQHandler
                0x080011f4                UART5_IRQHandler
                0x080011f4                DMA2_Stream0_IRQHandler
                0x080011f4                TIM4_IRQHandler
                0x080011f4                I2C1_EV_IRQHandler
                0x080011f4                DMA1_Stream6_IRQHandler
                0x080011f4                DMA1_Stream1_IRQHandler
                0x080011f4                UART4_IRQHandler
                0x080011f4                TIM3_IRQHandler
                0x080011f4                RCC_IRQHandler
                0x080011f4                TIM8_BRK_TIM12_IRQHandler
                0x080011f4                Default_Handler
                0x080011f4                ADC_IRQHandler
                0x080011f4                DMA1_Stream7_IRQHandler
                0x080011f4                TIM7_IRQHandler
                0x080011f4                CAN2_TX_IRQHandler
                0x080011f4                TIM5_IRQHandler
                0x080011f4                DMA2_Stream7_IRQHandler
                0x080011f4                I2C3_EV_IRQHandler
                0x080011f4                EXTI9_5_IRQHandler
                0x080011f4                RTC_WKUP_IRQHandler
                0x080011f4                ETH_WKUP_IRQHandler
                0x080011f4                SPI2_IRQHandler
                0x080011f4                OTG_HS_EP1_IN_IRQHandler
                0x080011f4                DMA1_Stream0_IRQHandler
                0x080011f4                CAN1_TX_IRQHandler
                0x080011f4                SVC_Handler
                0x080011f4                EXTI4_IRQHandler
                0x080011f4                FSMC_IRQHandler
                0x080011f4                ETH_IRQHandler
                0x080011f4                OTG_HS_EP1_OUT_IRQHandler
                0x080011f4                WWDG_IRQHandler
                0x080011f4                TIM2_IRQHandler
                0x080011f4                OTG_FS_WKUP_IRQHandler
                0x080011f4                TIM1_TRG_COM_TIM11_IRQHandler
                0x080011f4                OTG_HS_IRQHandler
                0x080011f4                EXTI1_IRQHandler
                0x080011f4                USART2_IRQHandler
                0x080011f4                I2C2_ER_IRQHandler
                0x080011f4                DMA2_Stream1_IRQHandler
                0x080011f4                CAN1_SCE_IRQHandler
                0x080011f4                FLASH_IRQHandler
                0x080011f4                DMA2_Stream4_IRQHandler
                0x080011f4                USART1_IRQHandler
                0x080011f4                OTG_FS_IRQHandler
                0x080011f4                SPI3_IRQHandler
                0x080011f4                DMA1_Stream4_IRQHandler
                0x080011f4                I2C1_ER_IRQHandler
                0x080011f4                DMA2_Stream6_IRQHandler
                0x080011f4                DMA1_Stream3_IRQHandler
 *fill*         0x080011f6        0x2 
 .text.Camera_Config
                0x080011f8       0x54 src/camera_api.o
                0x080011f8                Camera_Config
 .text.Demo_LCD_Clear
                0x0800124c       0x38 src/camera_api.o
                0x0800124c                Demo_LCD_Clear
 .text.OV2640_HW_Init
                0x08001284      0x164 src/dcmi_ov2640.o
                0x08001284                OV2640_HW_Init
 .text.OV2640_Reset
                0x080013e8       0x18 src/dcmi_ov2640.o
                0x080013e8                OV2640_Reset
 .text.OV2640_ReadID
                0x08001400       0x50 src/dcmi_ov2640.o
                0x08001400                OV2640_ReadID
 .text.OV2640_Init
                0x08001450      0x108 src/dcmi_ov2640.o
                0x08001450                OV2640_Init
 .text.OV2640_QQVGAConfig
                0x08001558       0x50 src/dcmi_ov2640.o
                0x08001558                OV2640_QQVGAConfig
 .text.OV2640_QVGAConfig
                0x080015a8       0x50 src/dcmi_ov2640.o
                0x080015a8                OV2640_QVGAConfig
 .text.OV2640_WriteReg
                0x080015f8       0xf0 src/dcmi_ov2640.o
                0x080015f8                OV2640_WriteReg
 .text.OV2640_ReadReg
                0x080016e8      0x168 src/dcmi_ov2640.o
                0x080016e8                OV2640_ReadReg
 .text.main     0x08001850       0x48 src/main.o
                0x08001850                main
 .text.Delay    0x08001898       0x34 src/main.o
                0x08001898                Delay
 .text.Time_Update
                0x080018cc       0x1c src/main.o
                0x080018cc                Time_Update
 .text.CameraOn
                0x080018e8       0xcc src/main.o
                0x080018e8                CameraOn
 .text.Capture_QQVGA_Image
                0x080019b4       0x54 src/main.o
                0x080019b4                Capture_QQVGA_Image
 .text.LCD_LED_Init
                0x08001a08       0xa8 src/main.o
                0x08001a08                LCD_LED_Init
 .text.ADC_Config
                0x08001ab0       0xa8 src/main.o
 .text.LwIP_Init
                0x08001b58      0x15c src/netconf.o
                0x08001b58                LwIP_Init
 .text.LwIP_Pkt_Handle
                0x08001cb4       0x10 src/netconf.o
                0x08001cb4                LwIP_Pkt_Handle
 .text.LwIP_Periodic_Handle
                0x08001cc4       0x48 src/netconf.o
                0x08001cc4                LwIP_Periodic_Handle
 .text.DebugComPort_Init
                0x08001d0c       0x30 src/serial_debug.o
                0x08001d0c                DebugComPort_Init
 .text.__io_putchar
                0x08001d3c       0x34 src/serial_debug.o
                0x08001d3c                __io_putchar
 .text.Serial_PutString
                0x08001d70       0x28 src/serial_debug.o
                0x08001d70                Serial_PutString
 .text.printf2  0x08001d98       0x50 src/serial_debug.o
                0x08001d98                printf2
 .text.__serial_io_init
                0x08001de8       0x30 src/serial_io.o
                0x08001de8                __serial_io_init
 .text.__serial_io_getchar
                0x08001e18       0x24 src/serial_io.o
                0x08001e18                __serial_io_getchar
                0x08001e18                __io_getchar
 .text.NVIC_SetPriority
                0x08001e3c       0x54 src/stm32f4x7_eth_bsp.o
 .text.SysTick_Config
                0x08001e90       0x44 src/stm32f4x7_eth_bsp.o
 .text.ETH_BSP_Config
                0x08001ed4       0x6c src/stm32f4x7_eth_bsp.o
                0x08001ed4                ETH_BSP_Config
 .text.ETH_MACDMA_Config
                0x08001f40       0xe8 src/stm32f4x7_eth_bsp.o
 .text.ETH_GPIO_Config
                0x08002028      0x178 src/stm32f4x7_eth_bsp.o
 .text.Eth_Link_PHYITConfig
                0x080021a0       0x74 src/stm32f4x7_eth_bsp.o
                0x080021a0                Eth_Link_PHYITConfig
 .text.Eth_Link_EXTIConfig
                0x08002214       0x74 src/stm32f4x7_eth_bsp.o
                0x08002214                Eth_Link_EXTIConfig
 .text.Eth_Link_ITHandler
                0x08002288       0x4c src/stm32f4x7_eth_bsp.o
                0x08002288                Eth_Link_ITHandler
 .text.ETH_link_callback
                0x080022d4      0x2d8 src/stm32f4x7_eth_bsp.o
                0x080022d4                ETH_link_callback
 .text.NMI_Handler
                0x080025ac        0xc src/stm32f4xx_it.o
                0x080025ac                NMI_Handler
 .text.HardFault_Handler
                0x080025b8        0x8 src/stm32f4xx_it.o
                0x080025b8                HardFault_Handler
 .text.MemManage_Handler
                0x080025c0        0x8 src/stm32f4xx_it.o
                0x080025c0                MemManage_Handler
 .text.BusFault_Handler
                0x080025c8        0x8 src/stm32f4xx_it.o
                0x080025c8                BusFault_Handler
 .text.UsageFault_Handler
                0x080025d0        0x8 src/stm32f4xx_it.o
                0x080025d0                UsageFault_Handler
 .text.DebugMon_Handler
                0x080025d8        0xc src/stm32f4xx_it.o
                0x080025d8                DebugMon_Handler
 .text.SysTick_Handler
                0x080025e4        0xc src/stm32f4xx_it.o
                0x080025e4                SysTick_Handler
 .text.EXTI15_10_IRQHandler
                0x080025f0       0x24 src/stm32f4xx_it.o
                0x080025f0                EXTI15_10_IRQHandler
 .text.EXTI2_IRQHandler
                0x08002614       0xc0 src/stm32f4xx_it.o
                0x08002614                EXTI2_IRQHandler
 .text.DCMI_IRQHandler
                0x080026d4        0xc src/stm32f4xx_it.o
                0x080026d4                DCMI_IRQHandler
 .text._read    0x080026e0       0x3c src/syscalls.o
                0x080026e0                _read
 .text._write   0x0800271c       0x38 src/syscalls.o
                0x0800271c                _write
 .text._sbrk    0x08002754       0x58 src/syscalls.o
                0x08002754                _sbrk
 .text._close   0x080027ac       0x18 src/syscalls.o
                0x080027ac                _close
 .text._fstat   0x080027c4       0x20 src/syscalls.o
                0x080027c4                _fstat
 .text._isatty  0x080027e4       0x18 src/syscalls.o
                0x080027e4                _isatty
 .text._lseek   0x080027fc       0x1c src/syscalls.o
                0x080027fc                _lseek
 .text.SystemInit
                0x08002818       0x68 src/system_stm32f4xx.o
                0x08002818                SystemInit
 .text.SetSysClock
                0x08002880      0x110 src/system_stm32f4xx.o
 .text.udp_echoserver_init
                0x08002990       0x74 src/udp_echoserver.o
                0x08002990                udp_echoserver_init
 .text.udp_echoserver_receive_callback
                0x08002a04      0x394 src/udp_echoserver.o
                0x08002a04                udp_echoserver_receive_callback
 .text.Init_image_send_process
                0x08002d98       0x78 src/udp_echoserver.o
                0x08002d98                Init_image_send_process
 .text.set_status
                0x08002e10       0x48 src/udp_echoserver.o
                0x08002e10                set_status
 .text.free_etharp_q
                0x08002e58       0x34 lwip_v1.3.2/src/netif/etharp.o
 .text.etharp_tmr
                0x08002e8c       0xfc lwip_v1.3.2/src/netif/etharp.o
                0x08002e8c                etharp_tmr
 .text.find_entry
                0x08002f88      0x2cc lwip_v1.3.2/src/netif/etharp.o
 .text.etharp_send_ip
                0x08003254       0x68 lwip_v1.3.2/src/netif/etharp.o
 .text.update_arp_entry
                0x080032bc      0x150 lwip_v1.3.2/src/netif/etharp.o
 .text.etharp_ip_input
                0x0800340c       0x50 lwip_v1.3.2/src/netif/etharp.o
                0x0800340c                etharp_ip_input
 .text.etharp_arp_input
                0x0800345c      0x1d4 lwip_v1.3.2/src/netif/etharp.o
                0x0800345c                etharp_arp_input
 .text.etharp_output
                0x08003630       0xf8 lwip_v1.3.2/src/netif/etharp.o
                0x08003630                etharp_output
 .text.etharp_query
                0x08003728      0x24c lwip_v1.3.2/src/netif/etharp.o
                0x08003728                etharp_query
 .text.etharp_raw
                0x08003974      0x108 lwip_v1.3.2/src/netif/etharp.o
 .text.etharp_request
                0x08003a7c       0x48 lwip_v1.3.2/src/netif/etharp.o
                0x08003a7c                etharp_request
 .text.ethernet_input
                0x08003ac4       0x88 lwip_v1.3.2/src/netif/etharp.o
                0x08003ac4                ethernet_input
 .text.dhcp_network_changed
                0x08003b4c       0x80 lwip_v1.3.2/src/core/dhcp.o
                0x08003b4c                dhcp_network_changed
 .text.dhcp_arp_reply
                0x08003bcc       0x40 lwip_v1.3.2/src/core/dhcp.o
                0x08003bcc                dhcp_arp_reply
 .text.dhcp_decline
                0x08003c0c       0xd4 lwip_v1.3.2/src/core/dhcp.o
 .text.dhcp_discover
                0x08003ce0      0x118 lwip_v1.3.2/src/core/dhcp.o
 .text.dhcp_reboot
                0x08003df8      0x100 lwip_v1.3.2/src/core/dhcp.o
 .text.dhcp_set_state
                0x08003ef8       0x2c lwip_v1.3.2/src/core/dhcp.o
 .text.dhcp_option
                0x08003f24       0x4c lwip_v1.3.2/src/core/dhcp.o
 .text.dhcp_option_byte
                0x08003f70       0x30 lwip_v1.3.2/src/core/dhcp.o
 .text.dhcp_option_short
                0x08003fa0       0x54 lwip_v1.3.2/src/core/dhcp.o
 .text.dhcp_option_long
                0x08003ff4       0x98 lwip_v1.3.2/src/core/dhcp.o
 .text.dhcp_create_request
                0x0800408c      0x1e8 lwip_v1.3.2/src/core/dhcp.o
 .text.dhcp_delete_request
                0x08004274       0x44 lwip_v1.3.2/src/core/dhcp.o
 .text.dhcp_option_trailer
                0x080042b8       0x60 lwip_v1.3.2/src/core/dhcp.o
 .text.plug_holes
                0x08004318       0xbc lwip_v1.3.2/src/core/mem.o
 .text.mem_init
                0x080043d4       0x84 lwip_v1.3.2/src/core/mem.o
                0x080043d4                mem_init
 .text.mem_free
                0x08004458       0x64 lwip_v1.3.2/src/core/mem.o
                0x08004458                mem_free
 .text.mem_realloc
                0x080044bc      0x17c lwip_v1.3.2/src/core/mem.o
                0x080044bc                mem_realloc
 .text.mem_malloc
                0x08004638      0x14c lwip_v1.3.2/src/core/mem.o
                0x08004638                mem_malloc
 .text.memp_init
                0x08004784       0x98 lwip_v1.3.2/src/core/memp.o
                0x08004784                memp_init
 .text.memp_malloc
                0x0800481c       0x44 lwip_v1.3.2/src/core/memp.o
                0x0800481c                memp_malloc
 .text.memp_free
                0x08004860       0x3c lwip_v1.3.2/src/core/memp.o
                0x08004860                memp_free
 .text.netif_add
                0x0800489c       0x90 lwip_v1.3.2/src/core/netif.o
                0x0800489c                netif_add
 .text.netif_set_addr
                0x0800492c       0x2c lwip_v1.3.2/src/core/netif.o
                0x0800492c                netif_set_addr
 .text.netif_set_ipaddr
                0x08004958       0xac lwip_v1.3.2/src/core/netif.o
                0x08004958                netif_set_ipaddr
 .text.netif_set_gw
                0x08004a04       0x28 lwip_v1.3.2/src/core/netif.o
                0x08004a04                netif_set_gw
 .text.netif_set_netmask
                0x08004a2c       0x28 lwip_v1.3.2/src/core/netif.o
                0x08004a2c                netif_set_netmask
 .text.netif_set_default
                0x08004a54       0x1c lwip_v1.3.2/src/core/netif.o
                0x08004a54                netif_set_default
 .text.netif_set_up
                0x08004a70       0x58 lwip_v1.3.2/src/core/netif.o
                0x08004a70                netif_set_up
 .text.netif_set_down
                0x08004ac8       0x40 lwip_v1.3.2/src/core/netif.o
                0x08004ac8                netif_set_down
 .text.netif_is_up
                0x08004b08       0x28 lwip_v1.3.2/src/core/netif.o
                0x08004b08                netif_is_up
 .text.netif_set_link_up
                0x08004b30       0x68 lwip_v1.3.2/src/core/netif.o
                0x08004b30                netif_set_link_up
 .text.netif_set_link_down
                0x08004b98       0x30 lwip_v1.3.2/src/core/netif.o
                0x08004b98                netif_set_link_down
 .text.netif_is_link_up
                0x08004bc8       0x28 lwip_v1.3.2/src/core/netif.o
                0x08004bc8                netif_is_link_up
 .text.netif_set_link_callback
                0x08004bf0       0x20 lwip_v1.3.2/src/core/netif.o
                0x08004bf0                netif_set_link_callback
 .text.pbuf_alloc
                0x08004c10      0x1f4 lwip_v1.3.2/src/core/pbuf.o
                0x08004c10                pbuf_alloc
 .text.pbuf_realloc
                0x08004e04       0xc8 lwip_v1.3.2/src/core/pbuf.o
                0x08004e04                pbuf_realloc
 .text.pbuf_header
                0x08004ecc       0xe0 lwip_v1.3.2/src/core/pbuf.o
                0x08004ecc                pbuf_header
 .text.pbuf_free
                0x08004fac       0xa0 lwip_v1.3.2/src/core/pbuf.o
                0x08004fac                pbuf_free
 .text.pbuf_clen
                0x0800504c       0x30 lwip_v1.3.2/src/core/pbuf.o
                0x0800504c                pbuf_clen
 .text.pbuf_ref
                0x0800507c       0x24 lwip_v1.3.2/src/core/pbuf.o
                0x0800507c                pbuf_ref
 .text.pbuf_cat
                0x080050a0       0x5c lwip_v1.3.2/src/core/pbuf.o
                0x080050a0                pbuf_cat
 .text.pbuf_chain
                0x080050fc       0x20 lwip_v1.3.2/src/core/pbuf.o
                0x080050fc                pbuf_chain
 .text.pbuf_copy
                0x0800511c      0x100 lwip_v1.3.2/src/core/pbuf.o
                0x0800511c                pbuf_copy
 .text.pbuf_copy_partial
                0x0800521c       0xcc lwip_v1.3.2/src/core/pbuf.o
                0x0800521c                pbuf_copy_partial
 .text.pbuf_take
                0x080052e8       0x9c lwip_v1.3.2/src/core/pbuf.o
                0x080052e8                pbuf_take
 .text.raw_input
                0x08005384       0xac lwip_v1.3.2/src/core/raw.o
                0x08005384                raw_input
 .text.tcp_tmr  0x08005430       0x2c lwip_v1.3.2/src/core/tcp.o
                0x08005430                tcp_tmr
 .text.tcp_close
                0x0800545c      0x164 lwip_v1.3.2/src/core/tcp.o
                0x0800545c                tcp_close
 .text.tcp_abandon
                0x080055c0       0xe0 lwip_v1.3.2/src/core/tcp.o
                0x080055c0                tcp_abandon
 .text.tcp_update_rcv_ann_wnd
                0x080056a0       0x84 lwip_v1.3.2/src/core/tcp.o
                0x080056a0                tcp_update_rcv_ann_wnd
 .text.tcp_recved
                0x08005724       0x60 lwip_v1.3.2/src/core/tcp.o
                0x08005724                tcp_recved
 .text.tcp_slowtmr
                0x08005784      0x3cc lwip_v1.3.2/src/core/tcp.o
                0x08005784                tcp_slowtmr
 .text.tcp_fasttmr
                0x08005b50       0xb0 lwip_v1.3.2/src/core/tcp.o
                0x08005b50                tcp_fasttmr
 .text.tcp_segs_free
                0x08005c00       0x38 lwip_v1.3.2/src/core/tcp.o
                0x08005c00                tcp_segs_free
 .text.tcp_seg_free
                0x08005c38       0x3c lwip_v1.3.2/src/core/tcp.o
                0x08005c38                tcp_seg_free
 .text.tcp_recv_null
                0x08005c74       0x48 lwip_v1.3.2/src/core/tcp.o
                0x08005c74                tcp_recv_null
 .text.tcp_kill_prio
                0x08005cbc       0x80 lwip_v1.3.2/src/core/tcp.o
 .text.tcp_kill_timewait
                0x08005d3c       0x60 lwip_v1.3.2/src/core/tcp.o
 .text.tcp_alloc
                0x08005d9c      0x10c lwip_v1.3.2/src/core/tcp.o
                0x08005d9c                tcp_alloc
 .text.tcp_pcb_purge
                0x08005ea8       0x60 lwip_v1.3.2/src/core/tcp.o
                0x08005ea8                tcp_pcb_purge
 .text.tcp_pcb_remove
                0x08005f08       0xac lwip_v1.3.2/src/core/tcp.o
                0x08005f08                tcp_pcb_remove
 .text.tcp_next_iss
                0x08005fb4       0x28 lwip_v1.3.2/src/core/tcp.o
                0x08005fb4                tcp_next_iss
 .text.tcp_eff_send_mss
                0x08005fdc       0x40 lwip_v1.3.2/src/core/tcp.o
                0x08005fdc                tcp_eff_send_mss
 .text.tcp_input
                0x0800601c      0x5d0 lwip_v1.3.2/src/core/tcp_in.o
                0x0800601c                tcp_input
 .text.tcp_listen_input
                0x080065ec      0x1a4 lwip_v1.3.2/src/core/tcp_in.o
 .text.tcp_timewait_input
                0x08006790       0xe8 lwip_v1.3.2/src/core/tcp_in.o
 .text.tcp_process
                0x08006878      0x6cc lwip_v1.3.2/src/core/tcp_in.o
 .text.tcp_receive
                0x08006f44      0x8c4 lwip_v1.3.2/src/core/tcp_in.o
 .text.tcp_parseopt
                0x08007808      0x104 lwip_v1.3.2/src/core/tcp_in.o
 .text.tcp_output_set_header
                0x0800790c       0xec lwip_v1.3.2/src/core/tcp_out.o
 .text.tcp_send_ctrl
                0x080079f8       0x2c lwip_v1.3.2/src/core/tcp_out.o
                0x080079f8                tcp_send_ctrl
 .text.tcp_enqueue
                0x08007a24      0x5b4 lwip_v1.3.2/src/core/tcp_out.o
                0x08007a24                tcp_enqueue
 .text.tcp_send_empty_ack
                0x08007fd8       0x6c lwip_v1.3.2/src/core/tcp_out.o
                0x08007fd8                tcp_send_empty_ack
 .text.tcp_output
                0x08008044      0x2d4 lwip_v1.3.2/src/core/tcp_out.o
                0x08008044                tcp_output
 .text.tcp_output_segment
                0x08008318      0x144 lwip_v1.3.2/src/core/tcp_out.o
 .text.tcp_rst  0x0800845c       0xf0 lwip_v1.3.2/src/core/tcp_out.o
                0x0800845c                tcp_rst
 .text.tcp_rexmit_rto
                0x0800854c       0x60 lwip_v1.3.2/src/core/tcp_out.o
                0x0800854c                tcp_rexmit_rto
 .text.tcp_rexmit
                0x080085ac       0x84 lwip_v1.3.2/src/core/tcp_out.o
                0x080085ac                tcp_rexmit
 .text.tcp_rexmit_fast
                0x08008630       0xac lwip_v1.3.2/src/core/tcp_out.o
                0x08008630                tcp_rexmit_fast
 .text.tcp_keepalive
                0x080086dc       0x44 lwip_v1.3.2/src/core/tcp_out.o
                0x080086dc                tcp_keepalive
 .text.tcp_zero_window_probe
                0x08008720       0xe0 lwip_v1.3.2/src/core/tcp_out.o
                0x08008720                tcp_zero_window_probe
 .text.udp_input
                0x08008800      0x290 lwip_v1.3.2/src/core/udp.o
                0x08008800                udp_input
 .text.udp_send
                0x08008a90       0x24 lwip_v1.3.2/src/core/udp.o
                0x08008a90                udp_send
 .text.udp_sendto
                0x08008ab4       0x40 lwip_v1.3.2/src/core/udp.o
                0x08008ab4                udp_sendto
 .text.udp_sendto_if
                0x08008af4      0x128 lwip_v1.3.2/src/core/udp.o
                0x08008af4                udp_sendto_if
 .text.udp_bind
                0x08008c1c       0xc0 lwip_v1.3.2/src/core/udp.o
                0x08008c1c                udp_bind
 .text.udp_connect
                0x08008cdc       0x9c lwip_v1.3.2/src/core/udp.o
                0x08008cdc                udp_connect
 .text.udp_recv
                0x08008d78       0x24 lwip_v1.3.2/src/core/udp.o
                0x08008d78                udp_recv
 .text.udp_remove
                0x08008d9c       0x60 lwip_v1.3.2/src/core/udp.o
                0x08008d9c                udp_remove
 .text.udp_new  0x08008dfc       0x30 lwip_v1.3.2/src/core/udp.o
                0x08008dfc                udp_new
 .text.icmp_input
                0x08008e2c      0x200 lwip_v1.3.2/src/core/ipv4/icmp.o
                0x08008e2c                icmp_input
 .text.icmp_dest_unreach
                0x0800902c       0x20 lwip_v1.3.2/src/core/ipv4/icmp.o
                0x0800902c                icmp_dest_unreach
 .text.icmp_time_exceeded
                0x0800904c       0x20 lwip_v1.3.2/src/core/ipv4/icmp.o
                0x0800904c                icmp_time_exceeded
 .text.icmp_send_response
                0x0800906c       0xa8 lwip_v1.3.2/src/core/ipv4/icmp.o
 .text.htons    0x08009114       0x2c lwip_v1.3.2/src/core/ipv4/inet.o
                0x08009114                htons
 .text.ntohs    0x08009140       0x1c lwip_v1.3.2/src/core/ipv4/inet.o
                0x08009140                ntohs
 .text.htonl    0x0800915c       0x34 lwip_v1.3.2/src/core/ipv4/inet.o
                0x0800915c                htonl
 .text.ntohl    0x08009190       0x18 lwip_v1.3.2/src/core/ipv4/inet.o
                0x08009190                ntohl
 .text.lwip_standard_chksum
                0x080091a8       0x9c lwip_v1.3.2/src/core/ipv4/inet_chksum.o
 .text.inet_chksum
                0x08009244       0x24 lwip_v1.3.2/src/core/ipv4/inet_chksum.o
                0x08009244                inet_chksum
 .text.inet_chksum_pbuf
                0x08009268       0x98 lwip_v1.3.2/src/core/ipv4/inet_chksum.o
                0x08009268                inet_chksum_pbuf
 .text.ip_route
                0x08009300       0x70 lwip_v1.3.2/src/core/ipv4/ip.o
                0x08009300                ip_route
 .text.ip_input
                0x08009370      0x278 lwip_v1.3.2/src/core/ipv4/ip.o
                0x08009370                ip_input
 .text.ip_output_if
                0x080095e8      0x194 lwip_v1.3.2/src/core/ipv4/ip.o
                0x080095e8                ip_output_if
 .text.ip_output
                0x0800977c       0x4c lwip_v1.3.2/src/core/ipv4/ip.o
                0x0800977c                ip_output
 .text.ip_addr_isbroadcast
                0x080097c8       0x7c lwip_v1.3.2/src/core/ipv4/ip_addr.o
                0x080097c8                ip_addr_isbroadcast
 .text.ip_reass_free_complete_datagram
                0x08009844       0xbc lwip_v1.3.2/src/core/ipv4/ip_frag.o
 .text.ip_reass_remove_oldest_datagram
                0x08009900       0xb8 lwip_v1.3.2/src/core/ipv4/ip_frag.o
 .text.ip_reass_enqueue_new_datagram
                0x080099b8       0x74 lwip_v1.3.2/src/core/ipv4/ip_frag.o
 .text.ip_reass_dequeue_datagram
                0x08009a2c       0x38 lwip_v1.3.2/src/core/ipv4/ip_frag.o
 .text.ip_reass_chain_frag_into_datagram_and_validate
                0x08009a64      0x210 lwip_v1.3.2/src/core/ipv4/ip_frag.o
 .text.ip_reass
                0x08009c74      0x268 lwip_v1.3.2/src/core/ipv4/ip_frag.o
                0x08009c74                ip_reass
 .text.ip_frag  0x08009edc      0x1a4 lwip_v1.3.2/src/core/ipv4/ip_frag.o
                0x08009edc                ip_frag
 .text.low_level_init
                0x0800a080       0xb0 lwip_v1.3.2/port/STM32/Standalone/ethernetif.o
 .text.low_level_output
                0x0800a130       0x68 lwip_v1.3.2/port/STM32/Standalone/ethernetif.o
 .text.low_level_input
                0x0800a198       0xf4 lwip_v1.3.2/port/STM32/Standalone/ethernetif.o
 .text.ethernetif_input
                0x0800a28c       0x48 lwip_v1.3.2/port/STM32/Standalone/ethernetif.o
                0x0800a28c                ethernetif_input
 .text.ethernetif_init
                0x0800a2d4       0x40 lwip_v1.3.2/port/STM32/Standalone/ethernetif.o
                0x0800a2d4                ethernetif_init
 .text.STM_EVAL_LEDInit
                0x0800a314       0x5c Utilities/STM3240_41_G_EVAL/stm324xg_eval.o
                0x0800a314                STM_EVAL_LEDInit
 .text.STM_EVAL_LEDOn
                0x0800a370       0x30 Utilities/STM3240_41_G_EVAL/stm324xg_eval.o
                0x0800a370                STM_EVAL_LEDOn
 .text.STM_EVAL_COMInit
                0x0800a3a0       0xd4 Utilities/STM3240_41_G_EVAL/stm324xg_eval.o
                0x0800a3a0                STM_EVAL_COMInit
 .text.IOE_JoyStickGetState
                0x0800a474       0x74 Utilities/STM3240_41_G_EVAL/stm324xg_eval_ioe.o
                0x0800a474                IOE_JoyStickGetState
 .text.IOE_GetGITStatus
                0x0800a4e8       0x40 Utilities/STM3240_41_G_EVAL/stm324xg_eval_ioe.o
                0x0800a4e8                IOE_GetGITStatus
 .text.IOE_ClearGITPending
                0x0800a528       0x28 Utilities/STM3240_41_G_EVAL/stm324xg_eval_ioe.o
                0x0800a528                IOE_ClearGITPending
 .text.IOE_ClearIOITPending
                0x0800a550       0x54 Utilities/STM3240_41_G_EVAL/stm324xg_eval_ioe.o
                0x0800a550                IOE_ClearIOITPending
 .text.IOE_GPIO_Config
                0x0800a5a4       0xa8 Utilities/STM3240_41_G_EVAL/stm324xg_eval_ioe.o
 .text.I2C_WriteDeviceRegister
                0x0800a64c      0x164 Utilities/STM3240_41_G_EVAL/stm324xg_eval_ioe.o
                0x0800a64c                I2C_WriteDeviceRegister
 .text.I2C_ReadDeviceRegister
                0x0800a7b0      0x1e8 Utilities/STM3240_41_G_EVAL/stm324xg_eval_ioe.o
                0x0800a7b0                I2C_ReadDeviceRegister
 .text.IOE_TimeoutUserCallback
                0x0800a998       0x6c Utilities/STM3240_41_G_EVAL/stm324xg_eval_ioe.o
                0x0800a998                IOE_TimeoutUserCallback
 .text.LCD_Init
                0x0800aa04      0x424 Utilities/STM3240_41_G_EVAL/stm324xg_eval_lcd.o
                0x0800aa04                LCD_Init
 .text.LCD_SetTextColor
                0x0800ae28       0x20 Utilities/STM3240_41_G_EVAL/stm324xg_eval_lcd.o
                0x0800ae28                LCD_SetTextColor
 .text.LCD_SetBackColor
                0x0800ae48       0x20 Utilities/STM3240_41_G_EVAL/stm324xg_eval_lcd.o
                0x0800ae48                LCD_SetBackColor
 .text.LCD_SetFont
                0x0800ae68       0x1c Utilities/STM3240_41_G_EVAL/stm324xg_eval_lcd.o
                0x0800ae68                LCD_SetFont
 .text.LCD_GetFont
                0x0800ae84       0x18 Utilities/STM3240_41_G_EVAL/stm324xg_eval_lcd.o
                0x0800ae84                LCD_GetFont
 .text.LCD_ClearLine
                0x0800ae9c       0x48 Utilities/STM3240_41_G_EVAL/stm324xg_eval_lcd.o
                0x0800ae9c                LCD_ClearLine
 .text.LCD_Clear
                0x0800aee4       0x40 Utilities/STM3240_41_G_EVAL/stm324xg_eval_lcd.o
                0x0800aee4                LCD_Clear
 .text.LCD_SetCursor
                0x0800af24       0x2c Utilities/STM3240_41_G_EVAL/stm324xg_eval_lcd.o
                0x0800af24                LCD_SetCursor
 .text.LCD_DrawChar
                0x0800af50      0x104 Utilities/STM3240_41_G_EVAL/stm324xg_eval_lcd.o
                0x0800af50                LCD_DrawChar
 .text.LCD_DisplayChar
                0x0800b054       0x48 Utilities/STM3240_41_G_EVAL/stm324xg_eval_lcd.o
                0x0800b054                LCD_DisplayChar
 .text.LCD_DisplayStringLine
                0x0800b09c       0x70 Utilities/STM3240_41_G_EVAL/stm324xg_eval_lcd.o
                0x0800b09c                LCD_DisplayStringLine
 .text.LCD_SetDisplayWindow
                0x0800b10c       0x94 Utilities/STM3240_41_G_EVAL/stm324xg_eval_lcd.o
                0x0800b10c                LCD_SetDisplayWindow
 .text.LCD_DrawCircle
                0x0800b1a0      0x1cc Utilities/STM3240_41_G_EVAL/stm324xg_eval_lcd.o
                0x0800b1a0                LCD_DrawCircle
 .text.LCD_WriteReg
                0x0800b36c       0x2c Utilities/STM3240_41_G_EVAL/stm324xg_eval_lcd.o
                0x0800b36c                LCD_WriteReg
 .text.LCD_ReadReg
                0x0800b398       0x28 Utilities/STM3240_41_G_EVAL/stm324xg_eval_lcd.o
                0x0800b398                LCD_ReadReg
 .text.LCD_WriteRAM_Prepare
                0x0800b3c0       0x14 Utilities/STM3240_41_G_EVAL/stm324xg_eval_lcd.o
                0x0800b3c0                LCD_WriteRAM_Prepare
 .text.LCD_WriteRAM
                0x0800b3d4       0x1c Utilities/STM3240_41_G_EVAL/stm324xg_eval_lcd.o
                0x0800b3d4                LCD_WriteRAM
 .text.LCD_CtrlLinesConfig
                0x0800b3f0      0x13c Utilities/STM3240_41_G_EVAL/stm324xg_eval_lcd.o
                0x0800b3f0                LCD_CtrlLinesConfig
 .text.LCD_FSMCConfig
                0x0800b52c       0x80 Utilities/STM3240_41_G_EVAL/stm324xg_eval_lcd.o
                0x0800b52c                LCD_FSMCConfig
 .text.delay    0x0800b5ac       0x34 Utilities/STM3240_41_G_EVAL/stm324xg_eval_lcd.o
 .text.ADC_Init
                0x0800b5e0       0xa8 StdPeriph_Driver/src/stm32f4xx_adc.o
                0x0800b5e0                ADC_Init
 .text.ADC_StructInit
                0x0800b688       0x3c StdPeriph_Driver/src/stm32f4xx_adc.o
                0x0800b688                ADC_StructInit
 .text.ADC_CommonInit
                0x0800b6c4       0x50 StdPeriph_Driver/src/stm32f4xx_adc.o
                0x0800b6c4                ADC_CommonInit
 .text.ADC_Cmd  0x0800b714       0x38 StdPeriph_Driver/src/stm32f4xx_adc.o
                0x0800b714                ADC_Cmd
 .text.ADC_RegularChannelConfig
                0x0800b74c      0x194 StdPeriph_Driver/src/stm32f4xx_adc.o
                0x0800b74c                ADC_RegularChannelConfig
 .text.ADC_SoftwareStartConv
                0x0800b8e0       0x20 StdPeriph_Driver/src/stm32f4xx_adc.o
                0x0800b8e0                ADC_SoftwareStartConv
 .text.DCMI_Init
                0x0800b900       0x80 StdPeriph_Driver/src/stm32f4xx_dcmi.o
                0x0800b900                DCMI_Init
 .text.DCMI_Cmd
                0x0800b980       0x38 StdPeriph_Driver/src/stm32f4xx_dcmi.o
                0x0800b980                DCMI_Cmd
 .text.DCMI_CaptureCmd
                0x0800b9b8       0x38 StdPeriph_Driver/src/stm32f4xx_dcmi.o
                0x0800b9b8                DCMI_CaptureCmd
 .text.DMA_DeInit
                0x0800b9f0      0x1a4 StdPeriph_Driver/src/stm32f4xx_dma.o
                0x0800b9f0                DMA_DeInit
 .text.DMA_Init
                0x0800bb94       0xac StdPeriph_Driver/src/stm32f4xx_dma.o
                0x0800bb94                DMA_Init
 .text.DMA_Cmd  0x0800bc40       0x38 StdPeriph_Driver/src/stm32f4xx_dma.o
                0x0800bc40                DMA_Cmd
 .text.EXTI_Init
                0x0800bc78       0xe4 StdPeriph_Driver/src/stm32f4xx_exti.o
                0x0800bc78                EXTI_Init
 .text.EXTI_GetITStatus
                0x0800bd5c       0x48 StdPeriph_Driver/src/stm32f4xx_exti.o
                0x0800bd5c                EXTI_GetITStatus
 .text.EXTI_ClearITPendingBit
                0x0800bda4       0x1c StdPeriph_Driver/src/stm32f4xx_exti.o
                0x0800bda4                EXTI_ClearITPendingBit
 .text.FSMC_NORSRAMInit
                0x0800bdc0      0x134 StdPeriph_Driver/src/stm32f4xx_fsmc.o
                0x0800bdc0                FSMC_NORSRAMInit
 .text.FSMC_NORSRAMCmd
                0x0800bef4       0x54 StdPeriph_Driver/src/stm32f4xx_fsmc.o
                0x0800bef4                FSMC_NORSRAMCmd
 .text.GPIO_Init
                0x0800bf48      0x11c StdPeriph_Driver/src/stm32f4xx_gpio.o
                0x0800bf48                GPIO_Init
 .text.GPIO_PinAFConfig
                0x0800c064       0x90 StdPeriph_Driver/src/stm32f4xx_gpio.o
                0x0800c064                GPIO_PinAFConfig
 .text.I2C_DeInit
                0x0800c0f4       0x74 StdPeriph_Driver/src/stm32f4xx_i2c.o
                0x0800c0f4                I2C_DeInit
 .text.I2C_Init
                0x0800c168      0x184 StdPeriph_Driver/src/stm32f4xx_i2c.o
                0x0800c168                I2C_Init
 .text.I2C_Cmd  0x0800c2ec       0x40 StdPeriph_Driver/src/stm32f4xx_i2c.o
                0x0800c2ec                I2C_Cmd
 .text.I2C_GenerateSTART
                0x0800c32c       0x40 StdPeriph_Driver/src/stm32f4xx_i2c.o
                0x0800c32c                I2C_GenerateSTART
 .text.I2C_GenerateSTOP
                0x0800c36c       0x40 StdPeriph_Driver/src/stm32f4xx_i2c.o
                0x0800c36c                I2C_GenerateSTOP
 .text.I2C_Send7bitAddress
                0x0800c3ac       0x3c StdPeriph_Driver/src/stm32f4xx_i2c.o
                0x0800c3ac                I2C_Send7bitAddress
 .text.I2C_AcknowledgeConfig
                0x0800c3e8       0x40 StdPeriph_Driver/src/stm32f4xx_i2c.o
                0x0800c3e8                I2C_AcknowledgeConfig
 .text.I2C_SoftwareResetCmd
                0x0800c428       0x44 StdPeriph_Driver/src/stm32f4xx_i2c.o
                0x0800c428                I2C_SoftwareResetCmd
 .text.I2C_SendData
                0x0800c46c       0x20 StdPeriph_Driver/src/stm32f4xx_i2c.o
                0x0800c46c                I2C_SendData
 .text.I2C_ReceiveData
                0x0800c48c       0x1c StdPeriph_Driver/src/stm32f4xx_i2c.o
                0x0800c48c                I2C_ReceiveData
 .text.I2C_CheckEvent
                0x0800c4a8       0x60 StdPeriph_Driver/src/stm32f4xx_i2c.o
                0x0800c4a8                I2C_CheckEvent
 .text.I2C_GetFlagStatus
                0x0800c508       0x68 StdPeriph_Driver/src/stm32f4xx_i2c.o
                0x0800c508                I2C_GetFlagStatus
 .text.NVIC_PriorityGroupConfig
                0x0800c570       0x24 StdPeriph_Driver/src/stm32f4xx_misc.o
                0x0800c570                NVIC_PriorityGroupConfig
 .text.NVIC_Init
                0x0800c594       0xc0 StdPeriph_Driver/src/stm32f4xx_misc.o
                0x0800c594                NVIC_Init
 .text.SysTick_CLKSourceConfig
                0x0800c654       0x38 StdPeriph_Driver/src/stm32f4xx_misc.o
                0x0800c654                SysTick_CLKSourceConfig
 .text.RCC_MCO1Config
                0x0800c68c       0x3c StdPeriph_Driver/src/stm32f4xx_rcc.o
                0x0800c68c                RCC_MCO1Config
 .text.RCC_GetClocksFreq
                0x0800c6c8      0x154 StdPeriph_Driver/src/stm32f4xx_rcc.o
                0x0800c6c8                RCC_GetClocksFreq
 .text.RCC_AHB1PeriphClockCmd
                0x0800c81c       0x3c StdPeriph_Driver/src/stm32f4xx_rcc.o
                0x0800c81c                RCC_AHB1PeriphClockCmd
 .text.RCC_AHB2PeriphClockCmd
                0x0800c858       0x3c StdPeriph_Driver/src/stm32f4xx_rcc.o
                0x0800c858                RCC_AHB2PeriphClockCmd
 .text.RCC_AHB3PeriphClockCmd
                0x0800c894       0x3c StdPeriph_Driver/src/stm32f4xx_rcc.o
                0x0800c894                RCC_AHB3PeriphClockCmd
 .text.RCC_APB1PeriphClockCmd
                0x0800c8d0       0x3c StdPeriph_Driver/src/stm32f4xx_rcc.o
                0x0800c8d0                RCC_APB1PeriphClockCmd
 .text.RCC_APB2PeriphClockCmd
                0x0800c90c       0x3c StdPeriph_Driver/src/stm32f4xx_rcc.o
                0x0800c90c                RCC_APB2PeriphClockCmd
 .text.RCC_AHB1PeriphResetCmd
                0x0800c948       0x3c StdPeriph_Driver/src/stm32f4xx_rcc.o
                0x0800c948                RCC_AHB1PeriphResetCmd
 .text.RCC_APB1PeriphResetCmd
                0x0800c984       0x3c StdPeriph_Driver/src/stm32f4xx_rcc.o
                0x0800c984                RCC_APB1PeriphResetCmd
 .text.SYSCFG_EXTILineConfig
                0x0800c9c0       0x84 StdPeriph_Driver/src/stm32f4xx_syscfg.o
                0x0800c9c0                SYSCFG_EXTILineConfig
 .text.SYSCFG_ETH_MediaInterfaceConfig
                0x0800ca44       0x1c StdPeriph_Driver/src/stm32f4xx_syscfg.o
                0x0800ca44                SYSCFG_ETH_MediaInterfaceConfig
 .text.USART_Init
                0x0800ca60      0x178 StdPeriph_Driver/src/stm32f4xx_usart.o
                0x0800ca60                USART_Init
 .text.USART_Cmd
                0x0800cbd8       0x40 StdPeriph_Driver/src/stm32f4xx_usart.o
                0x0800cbd8                USART_Cmd
 .text.USART_SendData
                0x0800cc18       0x24 StdPeriph_Driver/src/stm32f4xx_usart.o
                0x0800cc18                USART_SendData
 .text.USART_ReceiveData
                0x0800cc3c       0x20 StdPeriph_Driver/src/stm32f4xx_usart.o
                0x0800cc3c                USART_ReceiveData
 .text.USART_GetFlagStatus
                0x0800cc5c       0x38 StdPeriph_Driver/src/stm32f4xx_usart.o
                0x0800cc5c                USART_GetFlagStatus
 .text.ETH_DeInit
                0x0800cc94       0x1c STM32F4x7_ETH_Driver/src/stm32f4x7_eth.o
                0x0800cc94                ETH_DeInit
 .text.ETH_StructInit
                0x0800ccb0      0x15c STM32F4x7_ETH_Driver/src/stm32f4x7_eth.o
                0x0800ccb0                ETH_StructInit
 .text.ETH_Init
                0x0800ce0c      0x474 STM32F4x7_ETH_Driver/src/stm32f4x7_eth.o
                0x0800ce0c                ETH_Init
 .text.ETH_Start
                0x0800d280       0x24 STM32F4x7_ETH_Driver/src/stm32f4x7_eth.o
                0x0800d280                ETH_Start
 .text.ETH_Stop
                0x0800d2a4       0x24 STM32F4x7_ETH_Driver/src/stm32f4x7_eth.o
                0x0800d2a4                ETH_Stop
 .text.ETH_MACTransmissionCmd
                0x0800d2c8       0x4c STM32F4x7_ETH_Driver/src/stm32f4x7_eth.o
                0x0800d2c8                ETH_MACTransmissionCmd
 .text.ETH_MACReceptionCmd
                0x0800d314       0x4c STM32F4x7_ETH_Driver/src/stm32f4x7_eth.o
                0x0800d314                ETH_MACReceptionCmd
 .text.ETH_MACAddressConfig
                0x0800d360       0x6c STM32F4x7_ETH_Driver/src/stm32f4x7_eth.o
                0x0800d360                ETH_MACAddressConfig
 .text.ETH_Get_Received_Frame
                0x0800d3cc       0x70 STM32F4x7_ETH_Driver/src/stm32f4x7_eth.o
                0x0800d3cc                ETH_Get_Received_Frame
 .text.ETH_Prepare_Transmit_Descriptors
                0x0800d43c      0x164 STM32F4x7_ETH_Driver/src/stm32f4x7_eth.o
                0x0800d43c                ETH_Prepare_Transmit_Descriptors
 .text.ETH_DMARxDescChainInit
                0x0800d5a0       0xa8 STM32F4x7_ETH_Driver/src/stm32f4x7_eth.o
                0x0800d5a0                ETH_DMARxDescChainInit
 .text.ETH_CheckFrameReceived
                0x0800d648       0xe8 STM32F4x7_ETH_Driver/src/stm32f4x7_eth.o
                0x0800d648                ETH_CheckFrameReceived
 .text.ETH_DMATxDescChainInit
                0x0800d730       0x90 STM32F4x7_ETH_Driver/src/stm32f4x7_eth.o
                0x0800d730                ETH_DMATxDescChainInit
 .text.ETH_DMATxDescChecksumInsertionConfig
                0x0800d7c0       0x20 STM32F4x7_ETH_Driver/src/stm32f4x7_eth.o
                0x0800d7c0                ETH_DMATxDescChecksumInsertionConfig
 .text.ETH_SoftwareReset
                0x0800d7e0       0x24 STM32F4x7_ETH_Driver/src/stm32f4x7_eth.o
                0x0800d7e0                ETH_SoftwareReset
 .text.ETH_GetSoftwareResetStatus
                0x0800d804       0x38 STM32F4x7_ETH_Driver/src/stm32f4x7_eth.o
                0x0800d804                ETH_GetSoftwareResetStatus
 .text.ETH_FlushTransmitFIFO
                0x0800d83c       0x4c STM32F4x7_ETH_Driver/src/stm32f4x7_eth.o
                0x0800d83c                ETH_FlushTransmitFIFO
 .text.ETH_DMATransmissionCmd
                0x0800d888       0x50 STM32F4x7_ETH_Driver/src/stm32f4x7_eth.o
                0x0800d888                ETH_DMATransmissionCmd
 .text.ETH_DMAReceptionCmd
                0x0800d8d8       0x50 STM32F4x7_ETH_Driver/src/stm32f4x7_eth.o
                0x0800d8d8                ETH_DMAReceptionCmd
 .text.ETH_ReadPHYRegister
                0x0800d928       0xa0 STM32F4x7_ETH_Driver/src/stm32f4x7_eth.o
                0x0800d928                ETH_ReadPHYRegister
 .text.ETH_WritePHYRegister
                0x0800d9c8       0xa4 STM32F4x7_ETH_Driver/src/stm32f4x7_eth.o
                0x0800d9c8                ETH_WritePHYRegister
 .text.__errno  0x0800da6c        0xc c:/ac6/systemworkbench/plugins/fr.ac6.mcu.externaltools.arm-none.win32_1.3.0.201507241045/tools/compiler/bin/../lib/gcc/arm-none-eabi/4.9.3/../../../../arm-none-eabi/lib/armv7e-m/fpu\libc.a(lib_a-errno.o)
                0x0800da6c                __errno
 .text.__libc_init_array
                0x0800da78       0x50 c:/ac6/systemworkbench/plugins/fr.ac6.mcu.externaltools.arm-none.win32_1.3.0.201507241045/tools/compiler/bin/../lib/gcc/arm-none-eabi/4.9.3/../../../../arm-none-eabi/lib/armv7e-m/fpu\libc.a(lib_a-init.o)
                0x0800da78                __libc_init_array
 .text.malloc   0x0800dac8       0x10 c:/ac6/systemworkbench/plugins/fr.ac6.mcu.externaltools.arm-none.win32_1.3.0.201507241045/tools/compiler/bin/../lib/gcc/arm-none-eabi/4.9.3/../../../../arm-none-eabi/lib/armv7e-m/fpu\libc.a(lib_a-malloc.o)
                0x0800dac8                malloc
 .text.free     0x0800dad8       0x10 c:/ac6/systemworkbench/plugins/fr.ac6.mcu.externaltools.arm-none.win32_1.3.0.201507241045/tools/compiler/bin/../lib/gcc/arm-none-eabi/4.9.3/../../../../arm-none-eabi/lib/armv7e-m/fpu\libc.a(lib_a-malloc.o)
                0x0800dad8                free
 .text._malloc_r
                0x0800dae8      0x524 c:/ac6/systemworkbench/plugins/fr.ac6.mcu.externaltools.arm-none.win32_1.3.0.201507241045/tools/compiler/bin/../lib/gcc/arm-none-eabi/4.9.3/../../../../arm-none-eabi/lib/armv7e-m/fpu\libc.a(lib_a-mallocr.o)
                0x0800dae8                _malloc_r
 .text.memcmp   0x0800e00c       0x64 c:/ac6/systemworkbench/plugins/fr.ac6.mcu.externaltools.arm-none.win32_1.3.0.201507241045/tools/compiler/bin/../lib/gcc/arm-none-eabi/4.9.3/../../../../arm-none-eabi/lib/armv7e-m/fpu\libc.a(lib_a-memcmp.o)
                0x0800e00c                memcmp
 .text.memset   0x0800e070       0x9c c:/ac6/systemworkbench/plugins/fr.ac6.mcu.externaltools.arm-none.win32_1.3.0.201507241045/tools/compiler/bin/../lib/gcc/arm-none-eabi/4.9.3/../../../../arm-none-eabi/lib/armv7e-m/fpu\libc.a(lib_a-memset.o)
                0x0800e070                memset
 .text.__malloc_lock
                0x0800e10c        0x4 c:/ac6/systemworkbench/plugins/fr.ac6.mcu.externaltools.arm-none.win32_1.3.0.201507241045/tools/compiler/bin/../lib/gcc/arm-none-eabi/4.9.3/../../../../arm-none-eabi/lib/armv7e-m/fpu\libc.a(lib_a-mlock.o)
                0x0800e10c                __malloc_lock
 .text.__malloc_unlock
                0x0800e110        0x4 c:/ac6/systemworkbench/plugins/fr.ac6.mcu.externaltools.arm-none.win32_1.3.0.201507241045/tools/compiler/bin/../lib/gcc/arm-none-eabi/4.9.3/../../../../arm-none-eabi/lib/armv7e-m/fpu\libc.a(lib_a-mlock.o)
                0x0800e110                __malloc_unlock
 .text.printf   0x0800e114       0x28 c:/ac6/systemworkbench/plugins/fr.ac6.mcu.externaltools.arm-none.win32_1.3.0.201507241045/tools/compiler/bin/../lib/gcc/arm-none-eabi/4.9.3/../../../../arm-none-eabi/lib/armv7e-m/fpu\libc.a(lib_a-printf.o)
                0x0800e114                printf
 .text._puts_r  0x0800e13c       0x5c c:/ac6/systemworkbench/plugins/fr.ac6.mcu.externaltools.arm-none.win32_1.3.0.201507241045/tools/compiler/bin/../lib/gcc/arm-none-eabi/4.9.3/../../../../arm-none-eabi/lib/armv7e-m/fpu\libc.a(lib_a-puts.o)
                0x0800e13c                _puts_r
 .text.puts     0x0800e198       0x10 c:/ac6/systemworkbench/plugins/fr.ac6.mcu.externaltools.arm-none.win32_1.3.0.201507241045/tools/compiler/bin/../lib/gcc/arm-none-eabi/4.9.3/../../../../arm-none-eabi/lib/armv7e-m/fpu\libc.a(lib_a-puts.o)
                0x0800e198                puts
 .text._sbrk_r  0x0800e1a8       0x24 c:/ac6/systemworkbench/plugins/fr.ac6.mcu.externaltools.arm-none.win32_1.3.0.201507241045/tools/compiler/bin/../lib/gcc/arm-none-eabi/4.9.3/../../../../arm-none-eabi/lib/armv7e-m/fpu\libc.a(lib_a-sbrkr.o)
                0x0800e1a8                _sbrk_r
 .text.sprintf  0x0800e1cc       0x4c c:/ac6/systemworkbench/plugins/fr.ac6.mcu.externaltools.arm-none.win32_1.3.0.201507241045/tools/compiler/bin/../lib/gcc/arm-none-eabi/4.9.3/../../../../arm-none-eabi/lib/armv7e-m/fpu\libc.a(lib_a-sprintf.o)
                0x0800e1cc                sprintf
 .text.strlen   0x0800e218       0x5c c:/ac6/systemworkbench/plugins/fr.ac6.mcu.externaltools.arm-none.win32_1.3.0.201507241045/tools/compiler/bin/../lib/gcc/arm-none-eabi/4.9.3/../../../../arm-none-eabi/lib/armv7e-m/fpu\libc.a(lib_a-strlen.o)
                0x0800e218                strlen
 *fill*         0x0800e274        0x4 
 .text._svfprintf_r
                0x0800e278     0x14d0 c:/ac6/systemworkbench/plugins/fr.ac6.mcu.externaltools.arm-none.win32_1.3.0.201507241045/tools/compiler/bin/../lib/gcc/arm-none-eabi/4.9.3/../../../../arm-none-eabi/lib/armv7e-m/fpu\libc.a(lib_a-svfprintf.o)
                0x0800e278                _svfprintf_r
 .text._vfprintf_r
                0x0800f748     0x1428 c:/ac6/systemworkbench/plugins/fr.ac6.mcu.externaltools.arm-none.win32_1.3.0.201507241045/tools/compiler/bin/../lib/gcc/arm-none-eabi/4.9.3/../../../../arm-none-eabi/lib/armv7e-m/fpu\libc.a(lib_a-vfprintf.o)
                0x0800f748                _vfprintf_r
 .text.__sbprintf
                0x08010b70       0x78 c:/ac6/systemworkbench/plugins/fr.ac6.mcu.externaltools.arm-none.win32_1.3.0.201507241045/tools/compiler/bin/../lib/gcc/arm-none-eabi/4.9.3/../../../../arm-none-eabi/lib/armv7e-m/fpu\libc.a(lib_a-vfprintf.o)
 .text._vsnprintf_r
                0x08010be8       0x74 c:/ac6/systemworkbench/plugins/fr.ac6.mcu.externaltools.arm-none.win32_1.3.0.201507241045/tools/compiler/bin/../lib/gcc/arm-none-eabi/4.9.3/../../../../arm-none-eabi/lib/armv7e-m/fpu\libc.a(lib_a-vsnprintf.o)
                0x08010be8                _vsnprintf_r
 .text.vsnprintf
                0x08010c5c       0x20 c:/ac6/systemworkbench/plugins/fr.ac6.mcu.externaltools.arm-none.win32_1.3.0.201507241045/tools/compiler/bin/../lib/gcc/arm-none-eabi/4.9.3/../../../../arm-none-eabi/lib/armv7e-m/fpu\libc.a(lib_a-vsnprintf.o)
                0x08010c5c                vsnprintf
 .text._vsprintf_r
                0x08010c7c       0x34 c:/ac6/systemworkbench/plugins/fr.ac6.mcu.externaltools.arm-none.win32_1.3.0.201507241045/tools/compiler/bin/../lib/gcc/arm-none-eabi/4.9.3/../../../../arm-none-eabi/lib/armv7e-m/fpu\libc.a(lib_a-vsprintf.o)
                0x08010c7c                _vsprintf_r
 .text.vsprintf
                0x08010cb0       0x18 c:/ac6/systemworkbench/plugins/fr.ac6.mcu.externaltools.arm-none.win32_1.3.0.201507241045/tools/compiler/bin/../lib/gcc/arm-none-eabi/4.9.3/../../../../arm-none-eabi/lib/armv7e-m/fpu\libc.a(lib_a-vsprintf.o)
                0x08010cb0                vsprintf
 .text.__swsetup_r
                0x08010cc8       0xc4 c:/ac6/systemworkbench/plugins/fr.ac6.mcu.externaltools.arm-none.win32_1.3.0.201507241045/tools/compiler/bin/../lib/gcc/arm-none-eabi/4.9.3/../../../../arm-none-eabi/lib/armv7e-m/fpu\libc.a(lib_a-wsetup.o)
                0x08010cc8                __swsetup_r
 .text.startup.register_fini
                0x08010d8c       0x14 c:/ac6/systemworkbench/plugins/fr.ac6.mcu.externaltools.arm-none.win32_1.3.0.201507241045/tools/compiler/bin/../lib/gcc/arm-none-eabi/4.9.3/../../../../arm-none-eabi/lib/armv7e-m/fpu\libc.a(lib_a-__call_atexit.o)
 .text.atexit   0x08010da0        0xc c:/ac6/systemworkbench/plugins/fr.ac6.mcu.externaltools.arm-none.win32_1.3.0.201507241045/tools/compiler/bin/../lib/gcc/arm-none-eabi/4.9.3/../../../../arm-none-eabi/lib/armv7e-m/fpu\libc.a(lib_a-atexit.o)
                0x08010da0                atexit
 .text.quorem   0x08010dac      0x12c c:/ac6/systemworkbench/plugins/fr.ac6.mcu.externaltools.arm-none.win32_1.3.0.201507241045/tools/compiler/bin/../lib/gcc/arm-none-eabi/4.9.3/../../../../arm-none-eabi/lib/armv7e-m/fpu\libc.a(lib_a-dtoa.o)
 .text._dtoa_r  0x08010ed8      0xea8 c:/ac6/systemworkbench/plugins/fr.ac6.mcu.externaltools.arm-none.win32_1.3.0.201507241045/tools/compiler/bin/../lib/gcc/arm-none-eabi/4.9.3/../../../../arm-none-eabi/lib/armv7e-m/fpu\libc.a(lib_a-dtoa.o)
                0x08010ed8                _dtoa_r
 .text.__sflush_r
                0x08011d80      0x154 c:/ac6/systemworkbench/plugins/fr.ac6.mcu.externaltools.arm-none.win32_1.3.0.201507241045/tools/compiler/bin/../lib/gcc/arm-none-eabi/4.9.3/../../../../arm-none-eabi/lib/armv7e-m/fpu\libc.a(lib_a-fflush.o)
                0x08011d80                __sflush_r
 .text._fflush_r
                0x08011ed4       0x2c c:/ac6/systemworkbench/plugins/fr.ac6.mcu.externaltools.arm-none.win32_1.3.0.201507241045/tools/compiler/bin/../lib/gcc/arm-none-eabi/4.9.3/../../../../arm-none-eabi/lib/armv7e-m/fpu\libc.a(lib_a-fflush.o)
                0x08011ed4                _fflush_r
 .text._cleanup_r
                0x08011f00        0xc c:/ac6/systemworkbench/plugins/fr.ac6.mcu.externaltools.arm-none.win32_1.3.0.201507241045/tools/compiler/bin/../lib/gcc/arm-none-eabi/4.9.3/../../../../arm-none-eabi/lib/armv7e-m/fpu\libc.a(lib_a-findfp.o)
                0x08011f00                _cleanup_r
 .text.__sinit.part.1
                0x08011f0c       0xf0 c:/ac6/systemworkbench/plugins/fr.ac6.mcu.externaltools.arm-none.win32_1.3.0.201507241045/tools/compiler/bin/../lib/gcc/arm-none-eabi/4.9.3/../../../../arm-none-eabi/lib/armv7e-m/fpu\libc.a(lib_a-findfp.o)
 .text.__sinit  0x08011ffc        0xc c:/ac6/systemworkbench/plugins/fr.ac6.mcu.externaltools.arm-none.win32_1.3.0.201507241045/tools/compiler/bin/../lib/gcc/arm-none-eabi/4.9.3/../../../../arm-none-eabi/lib/armv7e-m/fpu\libc.a(lib_a-findfp.o)
                0x08011ffc                __sinit
 .text.__sfp_lock_acquire
                0x08012008        0x4 c:/ac6/systemworkbench/plugins/fr.ac6.mcu.externaltools.arm-none.win32_1.3.0.201507241045/tools/compiler/bin/../lib/gcc/arm-none-eabi/4.9.3/../../../../arm-none-eabi/lib/armv7e-m/fpu\libc.a(lib_a-findfp.o)
                0x08012008                __sfp_lock_acquire
 .text.__sfp_lock_release
                0x0801200c        0x4 c:/ac6/systemworkbench/plugins/fr.ac6.mcu.externaltools.arm-none.win32_1.3.0.201507241045/tools/compiler/bin/../lib/gcc/arm-none-eabi/4.9.3/../../../../arm-none-eabi/lib/armv7e-m/fpu\libc.a(lib_a-findfp.o)
                0x0801200c                __sfp_lock_release
 .text.__libc_fini_array
                0x08012010       0x2c c:/ac6/systemworkbench/plugins/fr.ac6.mcu.externaltools.arm-none.win32_1.3.0.201507241045/tools/compiler/bin/../lib/gcc/arm-none-eabi/4.9.3/../../../../arm-none-eabi/lib/armv7e-m/fpu\libc.a(lib_a-fini.o)
                0x08012010                __libc_fini_array
 .text._malloc_trim_r
                0x0801203c       0x9c c:/ac6/systemworkbench/plugins/fr.ac6.mcu.externaltools.arm-none.win32_1.3.0.201507241045/tools/compiler/bin/../lib/gcc/arm-none-eabi/4.9.3/../../../../arm-none-eabi/lib/armv7e-m/fpu\libc.a(lib_a-freer.o)
                0x0801203c                _malloc_trim_r
 .text._free_r  0x080120d8      0x1b0 c:/ac6/systemworkbench/plugins/fr.ac6.mcu.externaltools.arm-none.win32_1.3.0.201507241045/tools/compiler/bin/../lib/gcc/arm-none-eabi/4.9.3/../../../../arm-none-eabi/lib/armv7e-m/fpu\libc.a(lib_a-freer.o)
                0x080120d8                _free_r
 .text.__sfvwrite_r
                0x08012288      0x318 c:/ac6/systemworkbench/plugins/fr.ac6.mcu.externaltools.arm-none.win32_1.3.0.201507241045/tools/compiler/bin/../lib/gcc/arm-none-eabi/4.9.3/../../../../arm-none-eabi/lib/armv7e-m/fpu\libc.a(lib_a-fvwrite.o)
                0x08012288                __sfvwrite_r
 .text._fwalk_reent
                0x080125a0       0x54 c:/ac6/systemworkbench/plugins/fr.ac6.mcu.externaltools.arm-none.win32_1.3.0.201507241045/tools/compiler/bin/../lib/gcc/arm-none-eabi/4.9.3/../../../../arm-none-eabi/lib/armv7e-m/fpu\libc.a(lib_a-fwalk.o)
                0x080125a0                _fwalk_reent
 .text.__locale_charset
                0x080125f4        0x8 c:/ac6/systemworkbench/plugins/fr.ac6.mcu.externaltools.arm-none.win32_1.3.0.201507241045/tools/compiler/bin/../lib/gcc/arm-none-eabi/4.9.3/../../../../arm-none-eabi/lib/armv7e-m/fpu\libc.a(lib_a-locale.o)
                0x080125f4                __locale_charset
 .text.__locale_mb_cur_max
                0x080125fc        0xc c:/ac6/systemworkbench/plugins/fr.ac6.mcu.externaltools.arm-none.win32_1.3.0.201507241045/tools/compiler/bin/../lib/gcc/arm-none-eabi/4.9.3/../../../../arm-none-eabi/lib/armv7e-m/fpu\libc.a(lib_a-locale.o)
                0x080125fc                __locale_mb_cur_max
 .text._localeconv_r
                0x08012608        0x8 c:/ac6/systemworkbench/plugins/fr.ac6.mcu.externaltools.arm-none.win32_1.3.0.201507241045/tools/compiler/bin/../lib/gcc/arm-none-eabi/4.9.3/../../../../arm-none-eabi/lib/armv7e-m/fpu\libc.a(lib_a-locale.o)
                0x08012608                _localeconv_r
 .text.__smakebuf_r
                0x08012610       0xe0 c:/ac6/systemworkbench/plugins/fr.ac6.mcu.externaltools.arm-none.win32_1.3.0.201507241045/tools/compiler/bin/../lib/gcc/arm-none-eabi/4.9.3/../../../../arm-none-eabi/lib/armv7e-m/fpu\libc.a(lib_a-makebuf.o)
                0x08012610                __smakebuf_r
 .text.memchr   0x080126f0       0x94 c:/ac6/systemworkbench/plugins/fr.ac6.mcu.externaltools.arm-none.win32_1.3.0.201507241045/tools/compiler/bin/../lib/gcc/arm-none-eabi/4.9.3/../../../../arm-none-eabi/lib/armv7e-m/fpu\libc.a(lib_a-memchr.o)
                0x080126f0                memchr
 .text.memmove  0x08012784       0xc8 c:/ac6/systemworkbench/plugins/fr.ac6.mcu.externaltools.arm-none.win32_1.3.0.201507241045/tools/compiler/bin/../lib/gcc/arm-none-eabi/4.9.3/../../../../arm-none-eabi/lib/armv7e-m/fpu\libc.a(lib_a-memmove.o)
                0x08012784                memmove
 .text._Balloc  0x0801284c       0x4c c:/ac6/systemworkbench/plugins/fr.ac6.mcu.externaltools.arm-none.win32_1.3.0.201507241045/tools/compiler/bin/../lib/gcc/arm-none-eabi/4.9.3/../../../../arm-none-eabi/lib/armv7e-m/fpu\libc.a(lib_a-mprec.o)
                0x0801284c                _Balloc
 .text._Bfree   0x08012898       0x14 c:/ac6/systemworkbench/plugins/fr.ac6.mcu.externaltools.arm-none.win32_1.3.0.201507241045/tools/compiler/bin/../lib/gcc/arm-none-eabi/4.9.3/../../../../arm-none-eabi/lib/armv7e-m/fpu\libc.a(lib_a-mprec.o)
                0x08012898                _Bfree
 .text.__multadd
                0x080128ac       0x84 c:/ac6/systemworkbench/plugins/fr.ac6.mcu.externaltools.arm-none.win32_1.3.0.201507241045/tools/compiler/bin/../lib/gcc/arm-none-eabi/4.9.3/../../../../arm-none-eabi/lib/armv7e-m/fpu\libc.a(lib_a-mprec.o)
                0x080128ac                __multadd
 .text.__hi0bits
                0x08012930       0x40 c:/ac6/systemworkbench/plugins/fr.ac6.mcu.externaltools.arm-none.win32_1.3.0.201507241045/tools/compiler/bin/../lib/gcc/arm-none-eabi/4.9.3/../../../../arm-none-eabi/lib/armv7e-m/fpu\libc.a(lib_a-mprec.o)
                0x08012930                __hi0bits
 .text.__lo0bits
                0x08012970       0x5c c:/ac6/systemworkbench/plugins/fr.ac6.mcu.externaltools.arm-none.win32_1.3.0.201507241045/tools/compiler/bin/../lib/gcc/arm-none-eabi/4.9.3/../../../../arm-none-eabi/lib/armv7e-m/fpu\libc.a(lib_a-mprec.o)
                0x08012970                __lo0bits
 .text.__i2b    0x080129cc       0x14 c:/ac6/systemworkbench/plugins/fr.ac6.mcu.externaltools.arm-none.win32_1.3.0.201507241045/tools/compiler/bin/../lib/gcc/arm-none-eabi/4.9.3/../../../../arm-none-eabi/lib/armv7e-m/fpu\libc.a(lib_a-mprec.o)
                0x080129cc                __i2b
 .text.__multiply
                0x080129e0      0x134 c:/ac6/systemworkbench/plugins/fr.ac6.mcu.externaltools.arm-none.win32_1.3.0.201507241045/tools/compiler/bin/../lib/gcc/arm-none-eabi/4.9.3/../../../../arm-none-eabi/lib/armv7e-m/fpu\libc.a(lib_a-mprec.o)
                0x080129e0                __multiply
 .text.__pow5mult
                0x08012b14       0xa0 c:/ac6/systemworkbench/plugins/fr.ac6.mcu.externaltools.arm-none.win32_1.3.0.201507241045/tools/compiler/bin/../lib/gcc/arm-none-eabi/4.9.3/../../../../arm-none-eabi/lib/armv7e-m/fpu\libc.a(lib_a-mprec.o)
                0x08012b14                __pow5mult
 .text.__lshift
                0x08012bb4       0xac c:/ac6/systemworkbench/plugins/fr.ac6.mcu.externaltools.arm-none.win32_1.3.0.201507241045/tools/compiler/bin/../lib/gcc/arm-none-eabi/4.9.3/../../../../arm-none-eabi/lib/armv7e-m/fpu\libc.a(lib_a-mprec.o)
                0x08012bb4                __lshift
 .text.__mcmp   0x08012c60       0x48 c:/ac6/systemworkbench/plugins/fr.ac6.mcu.externaltools.arm-none.win32_1.3.0.201507241045/tools/compiler/bin/../lib/gcc/arm-none-eabi/4.9.3/../../../../arm-none-eabi/lib/armv7e-m/fpu\libc.a(lib_a-mprec.o)
                0x08012c60                __mcmp
 .text.__mdiff  0x08012ca8       0xd4 c:/ac6/systemworkbench/plugins/fr.ac6.mcu.externaltools.arm-none.win32_1.3.0.201507241045/tools/compiler/bin/../lib/gcc/arm-none-eabi/4.9.3/../../../../arm-none-eabi/lib/armv7e-m/fpu\libc.a(lib_a-mprec.o)
                0x08012ca8                __mdiff
 .text.__d2b    0x08012d7c       0xbc c:/ac6/systemworkbench/plugins/fr.ac6.mcu.externaltools.arm-none.win32_1.3.0.201507241045/tools/compiler/bin/../lib/gcc/arm-none-eabi/4.9.3/../../../../arm-none-eabi/lib/armv7e-m/fpu\libc.a(lib_a-mprec.o)
                0x08012d7c                __d2b
 .text._realloc_r
                0x08012e38      0x3ec c:/ac6/systemworkbench/plugins/fr.ac6.mcu.externaltools.arm-none.win32_1.3.0.201507241045/tools/compiler/bin/../lib/gcc/arm-none-eabi/4.9.3/../../../../arm-none-eabi/lib/armv7e-m/fpu\libc.a(lib_a-reallocr.o)
                0x08012e38                _realloc_r
 .text.__fpclassifyd
                0x08013224       0x5c c:/ac6/systemworkbench/plugins/fr.ac6.mcu.externaltools.arm-none.win32_1.3.0.201507241045/tools/compiler/bin/../lib/gcc/arm-none-eabi/4.9.3/../../../../arm-none-eabi/lib/armv7e-m/fpu\libc.a(lib_a-s_fpclassify.o)
                0x08013224                __fpclassifyd
 .text.__sread  0x08013280       0x24 c:/ac6/systemworkbench/plugins/fr.ac6.mcu.externaltools.arm-none.win32_1.3.0.201507241045/tools/compiler/bin/../lib/gcc/arm-none-eabi/4.9.3/../../../../arm-none-eabi/lib/armv7e-m/fpu\libc.a(lib_a-stdio.o)
                0x08013280                __sread
 .text.__swrite
                0x080132a4       0x38 c:/ac6/systemworkbench/plugins/fr.ac6.mcu.externaltools.arm-none.win32_1.3.0.201507241045/tools/compiler/bin/../lib/gcc/arm-none-eabi/4.9.3/../../../../arm-none-eabi/lib/armv7e-m/fpu\libc.a(lib_a-stdio.o)
                0x080132a4                __swrite
 .text.__sseek  0x080132dc       0x20 c:/ac6/systemworkbench/plugins/fr.ac6.mcu.externaltools.arm-none.win32_1.3.0.201507241045/tools/compiler/bin/../lib/gcc/arm-none-eabi/4.9.3/../../../../arm-none-eabi/lib/armv7e-m/fpu\libc.a(lib_a-stdio.o)
                0x080132dc                __sseek
 .text.__sclose
                0x080132fc        0x8 c:/ac6/systemworkbench/plugins/fr.ac6.mcu.externaltools.arm-none.win32_1.3.0.201507241045/tools/compiler/bin/../lib/gcc/arm-none-eabi/4.9.3/../../../../arm-none-eabi/lib/armv7e-m/fpu\libc.a(lib_a-stdio.o)
                0x080132fc                __sclose
 .text.__ssprint_r
                0x08013304      0x104 c:/ac6/systemworkbench/plugins/fr.ac6.mcu.externaltools.arm-none.win32_1.3.0.201507241045/tools/compiler/bin/../lib/gcc/arm-none-eabi/4.9.3/../../../../arm-none-eabi/lib/armv7e-m/fpu\libc.a(lib_a-svfiprintf.o)
                0x08013304                __ssprint_r
 .text.__sprint_r.part.0
                0x08013408       0x78 c:/ac6/systemworkbench/plugins/fr.ac6.mcu.externaltools.arm-none.win32_1.3.0.201507241045/tools/compiler/bin/../lib/gcc/arm-none-eabi/4.9.3/../../../../arm-none-eabi/lib/armv7e-m/fpu\libc.a(lib_a-vfiprintf.o)
 .text.__sprint_r
                0x08013480       0x18 c:/ac6/systemworkbench/plugins/fr.ac6.mcu.externaltools.arm-none.win32_1.3.0.201507241045/tools/compiler/bin/../lib/gcc/arm-none-eabi/4.9.3/../../../../arm-none-eabi/lib/armv7e-m/fpu\libc.a(lib_a-vfiprintf.o)
                0x08013480                __sprint_r
 .text._write_r
                0x08013498       0x28 c:/ac6/systemworkbench/plugins/fr.ac6.mcu.externaltools.arm-none.win32_1.3.0.201507241045/tools/compiler/bin/../lib/gcc/arm-none-eabi/4.9.3/../../../../arm-none-eabi/lib/armv7e-m/fpu\libc.a(lib_a-writer.o)
                0x08013498                _write_r
 .text.__register_exitproc
                0x080134c0       0xa4 c:/ac6/systemworkbench/plugins/fr.ac6.mcu.externaltools.arm-none.win32_1.3.0.201507241045/tools/compiler/bin/../lib/gcc/arm-none-eabi/4.9.3/../../../../arm-none-eabi/lib/armv7e-m/fpu\libc.a(lib_a-__atexit.o)
                0x080134c0                __register_exitproc
 .text._calloc_r
                0x08013564       0x60 c:/ac6/systemworkbench/plugins/fr.ac6.mcu.externaltools.arm-none.win32_1.3.0.201507241045/tools/compiler/bin/../lib/gcc/arm-none-eabi/4.9.3/../../../../arm-none-eabi/lib/armv7e-m/fpu\libc.a(lib_a-callocr.o)
                0x08013564                _calloc_r
 .text._close_r
                0x080135c4       0x24 c:/ac6/systemworkbench/plugins/fr.ac6.mcu.externaltools.arm-none.win32_1.3.0.201507241045/tools/compiler/bin/../lib/gcc/arm-none-eabi/4.9.3/../../../../arm-none-eabi/lib/armv7e-m/fpu\libc.a(lib_a-closer.o)
                0x080135c4                _close_r
 .text._fclose_r
                0x080135e8       0x84 c:/ac6/systemworkbench/plugins/fr.ac6.mcu.externaltools.arm-none.win32_1.3.0.201507241045/tools/compiler/bin/../lib/gcc/arm-none-eabi/4.9.3/../../../../arm-none-eabi/lib/armv7e-m/fpu\libc.a(lib_a-fclose.o)
                0x080135e8                _fclose_r
 .text.__fputwc
                0x0801366c       0xb0 c:/ac6/systemworkbench/plugins/fr.ac6.mcu.externaltools.arm-none.win32_1.3.0.201507241045/tools/compiler/bin/../lib/gcc/arm-none-eabi/4.9.3/../../../../arm-none-eabi/lib/armv7e-m/fpu\libc.a(lib_a-fputwc.o)
                0x0801366c                __fputwc
 .text._fputwc_r
                0x0801371c       0x24 c:/ac6/systemworkbench/plugins/fr.ac6.mcu.externaltools.arm-none.win32_1.3.0.201507241045/tools/compiler/bin/../lib/gcc/arm-none-eabi/4.9.3/../../../../arm-none-eabi/lib/armv7e-m/fpu\libc.a(lib_a-fputwc.o)
                0x0801371c                _fputwc_r
 .text._fstat_r
                0x08013740       0x28 c:/ac6/systemworkbench/plugins/fr.ac6.mcu.externaltools.arm-none.win32_1.3.0.201507241045/tools/compiler/bin/../lib/gcc/arm-none-eabi/4.9.3/../../../../arm-none-eabi/lib/armv7e-m/fpu\libc.a(lib_a-fstatr.o)
                0x08013740                _fstat_r
 .text._isatty_r
                0x08013768       0x24 c:/ac6/systemworkbench/plugins/fr.ac6.mcu.externaltools.arm-none.win32_1.3.0.201507241045/tools/compiler/bin/../lib/gcc/arm-none-eabi/4.9.3/../../../../arm-none-eabi/lib/armv7e-m/fpu\libc.a(lib_a-isattyr.o)
                0x08013768                _isatty_r
 .text._lseek_r
                0x0801378c       0x28 c:/ac6/systemworkbench/plugins/fr.ac6.mcu.externaltools.arm-none.win32_1.3.0.201507241045/tools/compiler/bin/../lib/gcc/arm-none-eabi/4.9.3/../../../../arm-none-eabi/lib/armv7e-m/fpu\libc.a(lib_a-lseekr.o)
                0x0801378c                _lseek_r
 .text._read_r  0x080137b4       0x28 c:/ac6/systemworkbench/plugins/fr.ac6.mcu.externaltools.arm-none.win32_1.3.0.201507241045/tools/compiler/bin/../lib/gcc/arm-none-eabi/4.9.3/../../../../arm-none-eabi/lib/armv7e-m/fpu\libc.a(lib_a-readr.o)
                0x080137b4                _read_r
 .text.__swbuf_r
                0x080137dc       0xa8 c:/ac6/systemworkbench/plugins/fr.ac6.mcu.externaltools.arm-none.win32_1.3.0.201507241045/tools/compiler/bin/../lib/gcc/arm-none-eabi/4.9.3/../../../../arm-none-eabi/lib/armv7e-m/fpu\libc.a(lib_a-wbuf.o)
                0x080137dc                __swbuf_r
 .text._wcrtomb_r
                0x08013884       0x54 c:/ac6/systemworkbench/plugins/fr.ac6.mcu.externaltools.arm-none.win32_1.3.0.201507241045/tools/compiler/bin/../lib/gcc/arm-none-eabi/4.9.3/../../../../arm-none-eabi/lib/armv7e-m/fpu\libc.a(lib_a-wcrtomb.o)
                0x08013884                _wcrtomb_r
 .text.__ascii_wctomb
                0x080138d8       0x1c c:/ac6/systemworkbench/plugins/fr.ac6.mcu.externaltools.arm-none.win32_1.3.0.201507241045/tools/compiler/bin/../lib/gcc/arm-none-eabi/4.9.3/../../../../arm-none-eabi/lib/armv7e-m/fpu\libc.a(lib_a-wctomb_r.o)
                0x080138d8                __ascii_wctomb
 *(.rodata)
 .rodata        0x080138f4      0x1c8 src/camera_api.o
 .rodata        0x08013abc      0x728 src/dcmi_ov2640.o
                0x08013abc                OV2640_QQVGA
                0x08013d4c                OV2640_QVGA
                0x08013f04                OV2640_JPEG_INIT
                0x08014080                OV2640_YUV422
                0x08014094                OV2640_JPEG
                0x080140a4                OV2640_160x120_JPEG
                0x080140f4                OV2640_176x144_JPEG
                0x08014144                OV2640_320x240_JPEG
                0x08014194                OV2640_352x288_JPEG
 .rodata        0x080141e4      0x114 src/main.o
 .rodata        0x080142f8       0x58 src/netconf.o
 .rodata        0x08014350       0x6c src/stm32f4x7_eth_bsp.o
 .rodata        0x080143bc       0x18 src/stm32f4xx_it.o
 .rodata        0x080143d4      0x164 src/udp_echoserver.o
 .rodata        0x08014538       0x10 lwip_v1.3.2/src/netif/etharp.o
                0x08014538                ethbroadcast
                0x08014540                ethzero
 .rodata        0x08014548       0x28 lwip_v1.3.2/src/core/memp.o
 .rodata        0x08014570       0x90 lwip_v1.3.2/src/core/tcp.o
                0x080145e8                tcp_backoff
                0x080145f8                tcp_persist_backoff
 .rodata        0x08014600        0x8 lwip_v1.3.2/src/core/ipv4/ip_addr.o
                0x08014600                ip_addr_any
                0x08014604                ip_addr_broadcast
 .rodata        0x08014608       0x70 Utilities/STM3240_41_G_EVAL/stm324xg_eval.o
                0x08014608                GPIO_PIN
                0x08014610                GPIO_CLK
                0x08014620                BUTTON_PIN
                0x08014628                BUTTON_CLK
                0x08014634                BUTTON_EXTI_LINE
                0x0801463c                BUTTON_PORT_SOURCE
                0x08014644                BUTTON_PIN_SOURCE
                0x0801464c                BUTTON_IRQn
                0x08014654                COM_USART_CLK
                0x08014658                COM_TX_PORT_CLK
                0x0801465c                COM_RX_PORT_CLK
                0x08014660                COM_TX_PIN
                0x08014664                COM_RX_PIN
                0x08014668                COM_TX_PIN_SOURCE
                0x0801466c                COM_RX_PIN_SOURCE
                0x08014670                COM_TX_AF
                0x08014674                COM_RX_AF
 .rodata        0x08014678     0x29d0 Utilities/Common/fonts.o
                0x08014678                ASCII16x24_Table
                0x08015848                ASCII12x12_Table
                0x08016148                ASCII8x12_Table
                0x08016a48                ASCII8x8_Table
 *(.rodata*)
 .rodata.str1.4
                0x08017048        0x2 c:/ac6/systemworkbench/plugins/fr.ac6.mcu.externaltools.arm-none.win32_1.3.0.201507241045/tools/compiler/bin/../lib/gcc/arm-none-eabi/4.9.3/../../../../arm-none-eabi/lib/armv7e-m/fpu\libc.a(lib_a-impure.o)
                                  0x4 (size before relaxing)
 *fill*         0x0801704a        0x2 
 .rodata._global_impure_ptr
                0x0801704c        0x4 c:/ac6/systemworkbench/plugins/fr.ac6.mcu.externaltools.arm-none.win32_1.3.0.201507241045/tools/compiler/bin/../lib/gcc/arm-none-eabi/4.9.3/../../../../arm-none-eabi/lib/armv7e-m/fpu\libc.a(lib_a-impure.o)
                0x0801704c                _global_impure_ptr
 .rodata.str1.4
                0x08017050        0x2 c:/ac6/systemworkbench/plugins/fr.ac6.mcu.externaltools.arm-none.win32_1.3.0.201507241045/tools/compiler/bin/../lib/gcc/arm-none-eabi/4.9.3/../../../../arm-none-eabi/lib/armv7e-m/fpu\libc.a(lib_a-puts.o)
                                  0x4 (size before relaxing)
 *fill*         0x08017052        0x2 
 .rodata.zeroes.6916
                0x08017054       0x10 c:/ac6/systemworkbench/plugins/fr.ac6.mcu.externaltools.arm-none.win32_1.3.0.201507241045/tools/compiler/bin/../lib/gcc/arm-none-eabi/4.9.3/../../../../arm-none-eabi/lib/armv7e-m/fpu\libc.a(lib_a-svfprintf.o)
 .rodata.str1.4
                0x08017064       0x42 c:/ac6/systemworkbench/plugins/fr.ac6.mcu.externaltools.arm-none.win32_1.3.0.201507241045/tools/compiler/bin/../lib/gcc/arm-none-eabi/4.9.3/../../../../arm-none-eabi/lib/armv7e-m/fpu\libc.a(lib_a-svfprintf.o)
                                 0x44 (size before relaxing)
 *fill*         0x080170a6        0x2 
 .rodata.blanks.6915
                0x080170a8       0x10 c:/ac6/systemworkbench/plugins/fr.ac6.mcu.externaltools.arm-none.win32_1.3.0.201507241045/tools/compiler/bin/../lib/gcc/arm-none-eabi/4.9.3/../../../../arm-none-eabi/lib/armv7e-m/fpu\libc.a(lib_a-svfprintf.o)
 .rodata.zeroes.6931
                0x080170b8       0x10 c:/ac6/systemworkbench/plugins/fr.ac6.mcu.externaltools.arm-none.win32_1.3.0.201507241045/tools/compiler/bin/../lib/gcc/arm-none-eabi/4.9.3/../../../../arm-none-eabi/lib/armv7e-m/fpu\libc.a(lib_a-vfprintf.o)
 .rodata.str1.4
                0x00000000       0x44 c:/ac6/systemworkbench/plugins/fr.ac6.mcu.externaltools.arm-none.win32_1.3.0.201507241045/tools/compiler/bin/../lib/gcc/arm-none-eabi/4.9.3/../../../../arm-none-eabi/lib/armv7e-m/fpu\libc.a(lib_a-vfprintf.o)
 .rodata.blanks.6930
                0x080170c8       0x10 c:/ac6/systemworkbench/plugins/fr.ac6.mcu.externaltools.arm-none.win32_1.3.0.201507241045/tools/compiler/bin/../lib/gcc/arm-none-eabi/4.9.3/../../../../arm-none-eabi/lib/armv7e-m/fpu\libc.a(lib_a-vfprintf.o)
 .rodata.str1.4
                0x080170d8       0x10 c:/ac6/systemworkbench/plugins/fr.ac6.mcu.externaltools.arm-none.win32_1.3.0.201507241045/tools/compiler/bin/../lib/gcc/arm-none-eabi/4.9.3/../../../../arm-none-eabi/lib/armv7e-m/fpu\libc.a(lib_a-dtoa.o)
                                 0x14 (size before relaxing)
 .rodata.str1.4
                0x080170e8        0xc c:/ac6/systemworkbench/plugins/fr.ac6.mcu.externaltools.arm-none.win32_1.3.0.201507241045/tools/compiler/bin/../lib/gcc/arm-none-eabi/4.9.3/../../../../arm-none-eabi/lib/armv7e-m/fpu\libc.a(lib_a-locale.o)
                                 0x14 (size before relaxing)
 .rodata.p05.5296
                0x080170f4        0xc c:/ac6/systemworkbench/plugins/fr.ac6.mcu.externaltools.arm-none.win32_1.3.0.201507241045/tools/compiler/bin/../lib/gcc/arm-none-eabi/4.9.3/../../../../arm-none-eabi/lib/armv7e-m/fpu\libc.a(lib_a-mprec.o)
 .rodata.__mprec_tens
                0x08017100       0xc8 c:/ac6/systemworkbench/plugins/fr.ac6.mcu.externaltools.arm-none.win32_1.3.0.201507241045/tools/compiler/bin/../lib/gcc/arm-none-eabi/4.9.3/../../../../arm-none-eabi/lib/armv7e-m/fpu\libc.a(lib_a-mprec.o)
                0x08017100                __mprec_tens
 .rodata.__mprec_bigtens
                0x080171c8       0x28 c:/ac6/systemworkbench/plugins/fr.ac6.mcu.externaltools.arm-none.win32_1.3.0.201507241045/tools/compiler/bin/../lib/gcc/arm-none-eabi/4.9.3/../../../../arm-none-eabi/lib/armv7e-m/fpu\libc.a(lib_a-mprec.o)
                0x080171c8                __mprec_bigtens
 *(.glue_7)
 .glue_7        0x00000000        0x0 linker stubs
 *(.glue_7t)
 .glue_7t       0x00000000        0x0 linker stubs
 *(.eh_frame)
 .eh_frame      0x080171f0        0x0 c:/ac6/systemworkbench/plugins/fr.ac6.mcu.externaltools.arm-none.win32_1.3.0.201507241045/tools/compiler/bin/../lib/gcc/arm-none-eabi/4.9.3/armv7e-m/fpu/crtbegin.o
 *(.init)
 .init          0x080171f0        0x4 c:/ac6/systemworkbench/plugins/fr.ac6.mcu.externaltools.arm-none.win32_1.3.0.201507241045/tools/compiler/bin/../lib/gcc/arm-none-eabi/4.9.3/armv7e-m/fpu/crti.o
                0x080171f0                _init
 .init          0x080171f4        0x8 c:/ac6/systemworkbench/plugins/fr.ac6.mcu.externaltools.arm-none.win32_1.3.0.201507241045/tools/compiler/bin/../lib/gcc/arm-none-eabi/4.9.3/armv7e-m/fpu/crtn.o
 *(.fini)
 .fini          0x080171fc        0x4 c:/ac6/systemworkbench/plugins/fr.ac6.mcu.externaltools.arm-none.win32_1.3.0.201507241045/tools/compiler/bin/../lib/gcc/arm-none-eabi/4.9.3/armv7e-m/fpu/crti.o
                0x080171fc                _fini
 .fini          0x08017200        0x8 c:/ac6/systemworkbench/plugins/fr.ac6.mcu.externaltools.arm-none.win32_1.3.0.201507241045/tools/compiler/bin/../lib/gcc/arm-none-eabi/4.9.3/armv7e-m/fpu/crtn.o
                0x08017208                . = ALIGN (0x4)
                0x08017208                _etext = .

.vfp11_veneer   0x08017208        0x0
 .vfp11_veneer  0x00000000        0x0 linker stubs

.v4_bx          0x08017208        0x0
 .v4_bx         0x00000000        0x0 linker stubs

.iplt           0x08017208        0x0
 .iplt          0x00000000        0x0 c:/ac6/systemworkbench/plugins/fr.ac6.mcu.externaltools.arm-none.win32_1.3.0.201507241045/tools/compiler/bin/../lib/gcc/arm-none-eabi/4.9.3/armv7e-m/fpu/crtbegin.o

.ARM.extab
 *(.ARM.extab* .gnu.linkonce.armextab.*)

.ARM            0x08017208        0x8
                0x08017208                __exidx_start = .
 *(.ARM.exidx*)
 .ARM.exidx     0x08017208        0x8 c:/ac6/systemworkbench/plugins/fr.ac6.mcu.externaltools.arm-none.win32_1.3.0.201507241045/tools/compiler/bin/../lib/gcc/arm-none-eabi/4.9.3/armv7e-m/fpu\libgcc.a(_divdi3.o)
 .ARM.exidx     0x08017210        0x0 c:/ac6/systemworkbench/plugins/fr.ac6.mcu.externaltools.arm-none.win32_1.3.0.201507241045/tools/compiler/bin/../lib/gcc/arm-none-eabi/4.9.3/armv7e-m/fpu\libgcc.a(_udivdi3.o)
                                  0x8 (size before relaxing)
                0x08017210                __exidx_end = .

.rel.dyn        0x08017210        0x0
 .rel.iplt      0x00000000        0x0 c:/ac6/systemworkbench/plugins/fr.ac6.mcu.externaltools.arm-none.win32_1.3.0.201507241045/tools/compiler/bin/../lib/gcc/arm-none-eabi/4.9.3/armv7e-m/fpu/crtbegin.o

.preinit_array  0x08017210        0x0
                0x08017210                PROVIDE (__preinit_array_start, .)
 *(.preinit_array*)
                0x08017210                PROVIDE (__preinit_array_end, .)

.init_array     0x08017210        0x8
                0x08017210                PROVIDE (__init_array_start, .)
 *(SORT(.init_array.*))
 .init_array.00000
                0x08017210        0x4 c:/ac6/systemworkbench/plugins/fr.ac6.mcu.externaltools.arm-none.win32_1.3.0.201507241045/tools/compiler/bin/../lib/gcc/arm-none-eabi/4.9.3/../../../../arm-none-eabi/lib/armv7e-m/fpu\libc.a(lib_a-__call_atexit.o)
 *(.init_array*)
 .init_array    0x08017214        0x4 c:/ac6/systemworkbench/plugins/fr.ac6.mcu.externaltools.arm-none.win32_1.3.0.201507241045/tools/compiler/bin/../lib/gcc/arm-none-eabi/4.9.3/armv7e-m/fpu/crtbegin.o
                0x08017218                PROVIDE (__init_array_end, .)

.fini_array     0x08017218        0x4
                0x08017218                PROVIDE (__fini_array_start, .)
 *(SORT(.fini_array.*))
 *(.fini_array*)
 .fini_array    0x08017218        0x4 c:/ac6/systemworkbench/plugins/fr.ac6.mcu.externaltools.arm-none.win32_1.3.0.201507241045/tools/compiler/bin/../lib/gcc/arm-none-eabi/4.9.3/armv7e-m/fpu/crtbegin.o
                0x0801721c                PROVIDE (__fini_array_end, .)
                0x0801721c                _sidata = LOADADDR (.data)

.data           0x20000000      0x93c load address 0x0801721c
                0x20000000                . = ALIGN (0x4)
                0x20000000                _sdata = .
 *(.data)
 .data          0x20000000        0x8 src/camera_api.o
                0x20000000                ImageForematArray
 .data          0x20000008        0x4 lwip_v1.3.2/src/core/dhcp.o
 .data          0x2000000c       0x34 lwip_v1.3.2/src/core/tcp.o
                0x2000000c                tcp_state_str
 .data          0x20000040       0x28 Utilities/STM3240_41_G_EVAL/stm324xg_eval.o
                0x20000040                GPIO_PORT
                0x20000050                BUTTON_PORT
                0x2000005c                COM_USART
                0x20000060                COM_TX_PORT
                0x20000064                COM_RX_PORT
 .data          0x20000068        0x4 Utilities/STM3240_41_G_EVAL/stm324xg_eval_ioe.o
                0x20000068                IOE_TimeOut
 .data          0x2000006c        0x2 Utilities/STM3240_41_G_EVAL/stm324xg_eval_lcd.o
                0x2000006c                BackColor
 *fill*         0x2000006e        0x2 
 .data          0x20000070       0x20 Utilities/Common/fonts.o
                0x20000070                Font16x24
                0x20000078                Font12x12
                0x20000080                Font8x12
                0x20000088                Font8x8
 .data          0x20000090       0x10 StdPeriph_Driver/src/stm32f4xx_rcc.o
 *(.data*)
 .data.impure_data
                0x200000a0      0x428 c:/ac6/systemworkbench/plugins/fr.ac6.mcu.externaltools.arm-none.win32_1.3.0.201507241045/tools/compiler/bin/../lib/gcc/arm-none-eabi/4.9.3/../../../../arm-none-eabi/lib/armv7e-m/fpu\libc.a(lib_a-impure.o)
 .data._impure_ptr
                0x200004c8        0x4 c:/ac6/systemworkbench/plugins/fr.ac6.mcu.externaltools.arm-none.win32_1.3.0.201507241045/tools/compiler/bin/../lib/gcc/arm-none-eabi/4.9.3/../../../../arm-none-eabi/lib/armv7e-m/fpu\libc.a(lib_a-impure.o)
                0x200004c8                _impure_ptr
 .data.__malloc_av_
                0x200004cc      0x408 c:/ac6/systemworkbench/plugins/fr.ac6.mcu.externaltools.arm-none.win32_1.3.0.201507241045/tools/compiler/bin/../lib/gcc/arm-none-eabi/4.9.3/../../../../arm-none-eabi/lib/armv7e-m/fpu\libc.a(lib_a-mallocr.o)
                0x200004cc                __malloc_av_
 .data.__malloc_trim_threshold
                0x200008d4        0x4 c:/ac6/systemworkbench/plugins/fr.ac6.mcu.externaltools.arm-none.win32_1.3.0.201507241045/tools/compiler/bin/../lib/gcc/arm-none-eabi/4.9.3/../../../../arm-none-eabi/lib/armv7e-m/fpu\libc.a(lib_a-mallocr.o)
                0x200008d4                __malloc_trim_threshold
 .data.__malloc_sbrk_base
                0x200008d8        0x4 c:/ac6/systemworkbench/plugins/fr.ac6.mcu.externaltools.arm-none.win32_1.3.0.201507241045/tools/compiler/bin/../lib/gcc/arm-none-eabi/4.9.3/../../../../arm-none-eabi/lib/armv7e-m/fpu\libc.a(lib_a-mallocr.o)
                0x200008d8                __malloc_sbrk_base
 .data.lconv    0x200008dc       0x38 c:/ac6/systemworkbench/plugins/fr.ac6.mcu.externaltools.arm-none.win32_1.3.0.201507241045/tools/compiler/bin/../lib/gcc/arm-none-eabi/4.9.3/../../../../arm-none-eabi/lib/armv7e-m/fpu\libc.a(lib_a-locale.o)
 .data.lc_ctype_charset
                0x20000914       0x20 c:/ac6/systemworkbench/plugins/fr.ac6.mcu.externaltools.arm-none.win32_1.3.0.201507241045/tools/compiler/bin/../lib/gcc/arm-none-eabi/4.9.3/../../../../arm-none-eabi/lib/armv7e-m/fpu\libc.a(lib_a-locale.o)
 .data.__mb_cur_max
                0x20000934        0x4 c:/ac6/systemworkbench/plugins/fr.ac6.mcu.externaltools.arm-none.win32_1.3.0.201507241045/tools/compiler/bin/../lib/gcc/arm-none-eabi/4.9.3/../../../../arm-none-eabi/lib/armv7e-m/fpu\libc.a(lib_a-locale.o)
                0x20000934                __mb_cur_max
 .data.__wctomb
                0x20000938        0x4 c:/ac6/systemworkbench/plugins/fr.ac6.mcu.externaltools.arm-none.win32_1.3.0.201507241045/tools/compiler/bin/../lib/gcc/arm-none-eabi/4.9.3/../../../../arm-none-eabi/lib/armv7e-m/fpu\libc.a(lib_a-wctomb_r.o)
                0x20000938                __wctomb
                0x2000093c                . = ALIGN (0x4)
                0x2000093c                _edata = .
                0x08017b58                _siccmram = LOADADDR (.ccmram)

.jcr            0x2000093c        0x0 load address 0x08017b58
 .jcr           0x2000093c        0x0 c:/ac6/systemworkbench/plugins/fr.ac6.mcu.externaltools.arm-none.win32_1.3.0.201507241045/tools/compiler/bin/../lib/gcc/arm-none-eabi/4.9.3/armv7e-m/fpu/crtbegin.o

.igot.plt       0x2000093c        0x0 load address 0x08017b58
 .igot.plt      0x00000000        0x0 c:/ac6/systemworkbench/plugins/fr.ac6.mcu.externaltools.arm-none.win32_1.3.0.201507241045/tools/compiler/bin/../lib/gcc/arm-none-eabi/4.9.3/armv7e-m/fpu/crtbegin.o

.ccmram         0x10000000        0x0 load address 0x08017b58
                0x10000000                . = ALIGN (0x4)
                0x10000000                _sccmram = .
 *(.ccmram)
 *(.ccmram*)
                0x10000000                . = ALIGN (0x4)
                0x10000000                _eccmram = .
                0x10000000                . = ALIGN (0x4)

.bss            0x2000093c    0x131ac
                0x2000093c                _sbss = .
                0x2000093c                __bss_start__ = _sbss
 *(.bss)
 .bss           0x2000093c       0x1c c:/ac6/systemworkbench/plugins/fr.ac6.mcu.externaltools.arm-none.win32_1.3.0.201507241045/tools/compiler/bin/../lib/gcc/arm-none-eabi/4.9.3/armv7e-m/fpu/crtbegin.o
 .bss           0x20000958        0xc src/camera_api.o
                0x2000095c                PressedKey
                0x20000960                ValueMin
                0x20000961                ValueMax
 .bss           0x20000964     0x9600 src/dcmi_ov2640.o
                0x20000964                frame_buffer
 .bss           0x20009f64        0x8 src/main.o
                0x20009f64                LocalTime
                0x20009f68                uhADCVal
 .bss           0x20009f6c        0xc src/netconf.o
                0x20009f6c                TCPTimer
                0x20009f70                ARPTimer
                0x20009f74                IPaddress
 .bss           0x20009f78        0x4 src/stm32f4x7_eth_bsp.o
                0x20009f78                EthStatus
 .bss           0x20009f7c        0x1 src/stm32f4xx_it.o
 *fill*         0x20009f7d        0x3 
 .bss           0x20009f80        0x8 src/syscalls.o
                0x20009f80                __env
 .bss           0x20009f88        0x4 src/udp_echoserver.o
                0x20009f88                m_server_state
                0x20009f8a                g_cur_section
 .bss           0x20009f8c       0xcc lwip_v1.3.2/src/netif/etharp.o
 .bss           0x2000a058     0x2824 lwip_v1.3.2/src/core/mem.o
 .bss           0x2000c87c     0x3968 lwip_v1.3.2/src/core/memp.o
 .bss           0x200101e4        0x1 lwip_v1.3.2/src/core/netif.o
 *fill*         0x200101e5        0x3 
 .bss           0x200101e8        0x4 lwip_v1.3.2/src/core/raw.o
 .bss           0x200101ec        0x1 lwip_v1.3.2/src/core/tcp.o
 *fill*         0x200101ed        0x3 
 .bss           0x200101f0       0x30 lwip_v1.3.2/src/core/tcp_in.o
 .bss           0x20010220        0x2 lwip_v1.3.2/src/core/ipv4/ip.o
 *fill*         0x20010222        0x2 
 .bss           0x20010224      0x5e8 lwip_v1.3.2/src/core/ipv4/ip_frag.o
 .bss           0x2001080c        0x8 Utilities/STM3240_41_G_EVAL/stm324xg_eval_lcd.o
                0x20010810                TextColor
 *(.bss*)
 .bss.__malloc_max_total_mem
                0x20010814        0x4 c:/ac6/systemworkbench/plugins/fr.ac6.mcu.externaltools.arm-none.win32_1.3.0.201507241045/tools/compiler/bin/../lib/gcc/arm-none-eabi/4.9.3/../../../../arm-none-eabi/lib/armv7e-m/fpu\libc.a(lib_a-mallocr.o)
                0x20010814                __malloc_max_total_mem
 .bss.__malloc_max_sbrked_mem
                0x20010818        0x4 c:/ac6/systemworkbench/plugins/fr.ac6.mcu.externaltools.arm-none.win32_1.3.0.201507241045/tools/compiler/bin/../lib/gcc/arm-none-eabi/4.9.3/../../../../arm-none-eabi/lib/armv7e-m/fpu\libc.a(lib_a-mallocr.o)
                0x20010818                __malloc_max_sbrked_mem
 .bss.__malloc_top_pad
                0x2001081c        0x4 c:/ac6/systemworkbench/plugins/fr.ac6.mcu.externaltools.arm-none.win32_1.3.0.201507241045/tools/compiler/bin/../lib/gcc/arm-none-eabi/4.9.3/../../../../arm-none-eabi/lib/armv7e-m/fpu\libc.a(lib_a-mallocr.o)
                0x2001081c                __malloc_top_pad
 .bss.__malloc_current_mallinfo
                0x20010820       0x28 c:/ac6/systemworkbench/plugins/fr.ac6.mcu.externaltools.arm-none.win32_1.3.0.201507241045/tools/compiler/bin/../lib/gcc/arm-none-eabi/4.9.3/../../../../arm-none-eabi/lib/armv7e-m/fpu\libc.a(lib_a-mallocr.o)
                0x20010820                __malloc_current_mallinfo
 *(COMMON)
 COMMON         0x20010848        0x2 src/camera_api.o
                0x20010848                ImageFormat
                0x20010849                Camera
 *fill*         0x2001084a        0x2 
 COMMON         0x2001084c       0x44 src/main.o
                0x2001084c                abuffer
                0x20010874                OV2640_Camera_ID
                0x20010878                OV9655_Camera_ID
                0x2001087c                RCC_Clocks
                0x2001088c                timingdelay
 COMMON         0x20010890       0x38 src/netconf.o
                0x20010890                gnetif
 COMMON         0x200108c8       0xbc src/stm32f4x7_eth_bsp.o
                0x200108c8                ETH_InitStructure
 COMMON         0x20010984       0x72 src/udp_echoserver.o
                0x20010984                gp_packet
                0x20010988                g_frame_total_len
                0x2001098c                data
                0x200109f0                message_count
                0x200109f4                g_total_section
 *fill*         0x200109f6        0x2 
 COMMON         0x200109f8        0x8 lwip_v1.3.2/src/core/netif.o
                0x200109f8                netif_list
                0x200109fc                netif_default
 COMMON         0x20010a00       0x18 lwip_v1.3.2/src/core/tcp.o
                0x20010a00                tcp_active_pcbs
                0x20010a04                tcp_ticks
                0x20010a08                tcp_listen_pcbs
                0x20010a0c                tcp_tmp_pcb
                0x20010a10                tcp_bound_pcbs
                0x20010a14                tcp_tw_pcbs
 COMMON         0x20010a18        0x4 lwip_v1.3.2/src/core/tcp_in.o
                0x20010a18                tcp_input_pcb
 COMMON         0x20010a1c        0x4 lwip_v1.3.2/src/core/udp.o
                0x20010a1c                udp_pcbs
 COMMON         0x20010a20        0x8 lwip_v1.3.2/src/core/ipv4/ip.o
                0x20010a20                current_netif
                0x20010a24                current_header
 COMMON         0x20010a28     0x30bc STM32F4x7_ETH_Driver/src/stm32f4x7_eth.o
                0x20010a28                RX_Frame_Descriptor
                0x20010a34                DMARxDescToGet
                0x20010a38                DMATxDescToSet
                0x20010a3c                DMATxDscrTab
                0x20010abc                Rx_Buff
                0x2001228c                Frame_Rx_index
                0x20012290                DMA_RX_FRAME_infos
                0x20012294                DMARxDscrTab
                0x20012314                Tx_Buff
 COMMON         0x20013ae4        0x4 c:/ac6/systemworkbench/plugins/fr.ac6.mcu.externaltools.arm-none.win32_1.3.0.201507241045/tools/compiler/bin/../lib/gcc/arm-none-eabi/4.9.3/../../../../arm-none-eabi/lib/armv7e-m/fpu\libc.a(lib_a-reent.o)
                0x20013ae4                errno
                0x20013ae8                . = ALIGN (0x4)
                0x20013ae8                _ebss = .
                0x20013ae8                __bss_end__ = _ebss

._user_heap_stack
                0x20013ae8      0x400
                0x20013ae8                . = ALIGN (0x8)
                0x20013ae8                PROVIDE (end, .)
                0x20013ae8                PROVIDE (_end, .)
                0x20013ae8                . = (. + _Min_Heap_Size)
                0x20013ee8                . = (. + _Min_Stack_Size)
 *fill*         0x20013ae8      0x400 
                0x20013ee8                . = ALIGN (0x8)

.memory_b1_text
 *(.mb1text)
 *(.mb1text*)
 *(.mb1rodata)
 *(.mb1rodata*)

.ARM.attributes
                0x00000000       0x30
 *(.ARM.attributes)
 .ARM.attributes
                0x00000000       0x22 c:/ac6/systemworkbench/plugins/fr.ac6.mcu.externaltools.arm-none.win32_1.3.0.201507241045/tools/compiler/bin/../lib/gcc/arm-none-eabi/4.9.3/armv7e-m/fpu/crti.o
 .ARM.attributes
                0x00000022       0x34 c:/ac6/systemworkbench/plugins/fr.ac6.mcu.externaltools.arm-none.win32_1.3.0.201507241045/tools/compiler/bin/../lib/gcc/arm-none-eabi/4.9.3/armv7e-m/fpu/crtbegin.o
 .ARM.attributes
                0x00000056       0x21 startup/startup_stm32f40xx.o
 .ARM.attributes
                0x00000077       0x39 src/camera_api.o
 .ARM.attributes
                0x000000b0       0x39 src/dcmi_ov2640.o
 .ARM.attributes
                0x000000e9       0x39 src/main.o
 .ARM.attributes
                0x00000122       0x39 src/netconf.o
 .ARM.attributes
                0x0000015b       0x39 src/serial_debug.o
 .ARM.attributes
                0x00000194       0x39 src/serial_io.o
 .ARM.attributes
                0x000001cd       0x39 src/stm32f4x7_eth_bsp.o
 .ARM.attributes
                0x00000206       0x39 src/stm32f4xx_it.o
 .ARM.attributes
                0x0000023f       0x39 src/syscalls.o
 .ARM.attributes
                0x00000278       0x39 src/system_stm32f4xx.o
 .ARM.attributes
                0x000002b1       0x39 src/udp_echoserver.o
 .ARM.attributes
                0x000002ea       0x39 lwip_v1.3.2/src/netif/etharp.o
 .ARM.attributes
                0x00000323       0x39 lwip_v1.3.2/src/core/dhcp.o
 .ARM.attributes
                0x0000035c       0x39 lwip_v1.3.2/src/core/mem.o
 .ARM.attributes
                0x00000395       0x39 lwip_v1.3.2/src/core/memp.o
 .ARM.attributes
                0x000003ce       0x39 lwip_v1.3.2/src/core/netif.o
 .ARM.attributes
                0x00000407       0x39 lwip_v1.3.2/src/core/pbuf.o
 .ARM.attributes
                0x00000440       0x39 lwip_v1.3.2/src/core/raw.o
 .ARM.attributes
                0x00000479       0x39 lwip_v1.3.2/src/core/tcp.o
 .ARM.attributes
                0x000004b2       0x39 lwip_v1.3.2/src/core/tcp_in.o
 .ARM.attributes
                0x000004eb       0x39 lwip_v1.3.2/src/core/tcp_out.o
 .ARM.attributes
                0x00000524       0x39 lwip_v1.3.2/src/core/udp.o
 .ARM.attributes
                0x0000055d       0x39 lwip_v1.3.2/src/core/ipv4/icmp.o
 .ARM.attributes
                0x00000596       0x39 lwip_v1.3.2/src/core/ipv4/inet.o
 .ARM.attributes
                0x000005cf       0x39 lwip_v1.3.2/src/core/ipv4/inet_chksum.o
 .ARM.attributes
                0x00000608       0x39 lwip_v1.3.2/src/core/ipv4/ip.o
 .ARM.attributes
                0x00000641       0x39 lwip_v1.3.2/src/core/ipv4/ip_addr.o
 .ARM.attributes
                0x0000067a       0x39 lwip_v1.3.2/src/core/ipv4/ip_frag.o
 .ARM.attributes
                0x000006b3       0x39 lwip_v1.3.2/port/STM32/Standalone/ethernetif.o
 .ARM.attributes
                0x000006ec       0x39 Utilities/STM3240_41_G_EVAL/stm324xg_eval.o
 .ARM.attributes
                0x00000725       0x39 Utilities/STM3240_41_G_EVAL/stm324xg_eval_ioe.o
 .ARM.attributes
                0x0000075e       0x39 Utilities/STM3240_41_G_EVAL/stm324xg_eval_lcd.o
 .ARM.attributes
                0x00000797       0x39 Utilities/Common/fonts.o
 .ARM.attributes
                0x000007d0       0x39 StdPeriph_Driver/src/stm32f4xx_adc.o
 .ARM.attributes
                0x00000809       0x39 StdPeriph_Driver/src/stm32f4xx_dcmi.o
 .ARM.attributes
                0x00000842       0x39 StdPeriph_Driver/src/stm32f4xx_dma.o
 .ARM.attributes
                0x0000087b       0x39 StdPeriph_Driver/src/stm32f4xx_exti.o
 .ARM.attributes
                0x000008b4       0x39 StdPeriph_Driver/src/stm32f4xx_fsmc.o
 .ARM.attributes
                0x000008ed       0x39 StdPeriph_Driver/src/stm32f4xx_gpio.o
 .ARM.attributes
                0x00000926       0x39 StdPeriph_Driver/src/stm32f4xx_i2c.o
 .ARM.attributes
                0x0000095f       0x39 StdPeriph_Driver/src/stm32f4xx_misc.o
 .ARM.attributes
                0x00000998       0x39 StdPeriph_Driver/src/stm32f4xx_rcc.o
 .ARM.attributes
                0x000009d1       0x39 StdPeriph_Driver/src/stm32f4xx_syscfg.o
 .ARM.attributes
                0x00000a0a       0x39 StdPeriph_Driver/src/stm32f4xx_usart.o
 .ARM.attributes
                0x00000a43       0x39 STM32F4x7_ETH_Driver/src/stm32f4x7_eth.o
 .ARM.attributes
                0x00000a7c       0x22 c:/ac6/systemworkbench/plugins/fr.ac6.mcu.externaltools.arm-none.win32_1.3.0.201507241045/tools/compiler/bin/../lib/gcc/arm-none-eabi/4.9.3/armv7e-m/fpu\libgcc.a(_arm_addsubdf3.o)
 .ARM.attributes
                0x00000a9e       0x22 c:/ac6/systemworkbench/plugins/fr.ac6.mcu.externaltools.arm-none.win32_1.3.0.201507241045/tools/compiler/bin/../lib/gcc/arm-none-eabi/4.9.3/armv7e-m/fpu\libgcc.a(_arm_cmpdf2.o)
 .ARM.attributes
                0x00000ac0       0x34 c:/ac6/systemworkbench/plugins/fr.ac6.mcu.externaltools.arm-none.win32_1.3.0.201507241045/tools/compiler/bin/../lib/gcc/arm-none-eabi/4.9.3/../../../../arm-none-eabi/lib/armv7e-m/fpu\libc.a(lib_a-errno.o)
 .ARM.attributes
                0x00000af4       0x34 c:/ac6/systemworkbench/plugins/fr.ac6.mcu.externaltools.arm-none.win32_1.3.0.201507241045/tools/compiler/bin/../lib/gcc/arm-none-eabi/4.9.3/../../../../arm-none-eabi/lib/armv7e-m/fpu\libc.a(lib_a-impure.o)
 .ARM.attributes
                0x00000b28       0x34 c:/ac6/systemworkbench/plugins/fr.ac6.mcu.externaltools.arm-none.win32_1.3.0.201507241045/tools/compiler/bin/../lib/gcc/arm-none-eabi/4.9.3/../../../../arm-none-eabi/lib/armv7e-m/fpu\libc.a(lib_a-init.o)
 .ARM.attributes
                0x00000b5c       0x34 c:/ac6/systemworkbench/plugins/fr.ac6.mcu.externaltools.arm-none.win32_1.3.0.201507241045/tools/compiler/bin/../lib/gcc/arm-none-eabi/4.9.3/../../../../arm-none-eabi/lib/armv7e-m/fpu\libc.a(lib_a-malloc.o)
 .ARM.attributes
                0x00000b90       0x34 c:/ac6/systemworkbench/plugins/fr.ac6.mcu.externaltools.arm-none.win32_1.3.0.201507241045/tools/compiler/bin/../lib/gcc/arm-none-eabi/4.9.3/../../../../arm-none-eabi/lib/armv7e-m/fpu\libc.a(lib_a-mallocr.o)
 .ARM.attributes
                0x00000bc4       0x34 c:/ac6/systemworkbench/plugins/fr.ac6.mcu.externaltools.arm-none.win32_1.3.0.201507241045/tools/compiler/bin/../lib/gcc/arm-none-eabi/4.9.3/../../../../arm-none-eabi/lib/armv7e-m/fpu\libc.a(lib_a-memcmp.o)
 .ARM.attributes
                0x00000bf8       0x20 c:/ac6/systemworkbench/plugins/fr.ac6.mcu.externaltools.arm-none.win32_1.3.0.201507241045/tools/compiler/bin/../lib/gcc/arm-none-eabi/4.9.3/../../../../arm-none-eabi/lib/armv7e-m/fpu\libc.a(lib_a-memcpy.o)
 .ARM.attributes
                0x00000c18       0x34 c:/ac6/systemworkbench/plugins/fr.ac6.mcu.externaltools.arm-none.win32_1.3.0.201507241045/tools/compiler/bin/../lib/gcc/arm-none-eabi/4.9.3/../../../../arm-none-eabi/lib/armv7e-m/fpu\libc.a(lib_a-memset.o)
 .ARM.attributes
                0x00000c4c       0x34 c:/ac6/systemworkbench/plugins/fr.ac6.mcu.externaltools.arm-none.win32_1.3.0.201507241045/tools/compiler/bin/../lib/gcc/arm-none-eabi/4.9.3/../../../../arm-none-eabi/lib/armv7e-m/fpu\libc.a(lib_a-mlock.o)
 .ARM.attributes
                0x00000c80       0x34 c:/ac6/systemworkbench/plugins/fr.ac6.mcu.externaltools.arm-none.win32_1.3.0.201507241045/tools/compiler/bin/../lib/gcc/arm-none-eabi/4.9.3/../../../../arm-none-eabi/lib/armv7e-m/fpu\libc.a(lib_a-printf.o)
 .ARM.attributes
                0x00000cb4       0x34 c:/ac6/systemworkbench/plugins/fr.ac6.mcu.externaltools.arm-none.win32_1.3.0.201507241045/tools/compiler/bin/../lib/gcc/arm-none-eabi/4.9.3/../../../../arm-none-eabi/lib/armv7e-m/fpu\libc.a(lib_a-puts.o)
 .ARM.attributes
                0x00000ce8       0x34 c:/ac6/systemworkbench/plugins/fr.ac6.mcu.externaltools.arm-none.win32_1.3.0.201507241045/tools/compiler/bin/../lib/gcc/arm-none-eabi/4.9.3/../../../../arm-none-eabi/lib/armv7e-m/fpu\libc.a(lib_a-sbrkr.o)
 .ARM.attributes
                0x00000d1c       0x34 c:/ac6/systemworkbench/plugins/fr.ac6.mcu.externaltools.arm-none.win32_1.3.0.201507241045/tools/compiler/bin/../lib/gcc/arm-none-eabi/4.9.3/../../../../arm-none-eabi/lib/armv7e-m/fpu\libc.a(lib_a-sprintf.o)
 .ARM.attributes
                0x00000d50       0x34 c:/ac6/systemworkbench/plugins/fr.ac6.mcu.externaltools.arm-none.win32_1.3.0.201507241045/tools/compiler/bin/../lib/gcc/arm-none-eabi/4.9.3/../../../../arm-none-eabi/lib/armv7e-m/fpu\libc.a(lib_a-strlen.o)
 .ARM.attributes
                0x00000d84       0x34 c:/ac6/systemworkbench/plugins/fr.ac6.mcu.externaltools.arm-none.win32_1.3.0.201507241045/tools/compiler/bin/../lib/gcc/arm-none-eabi/4.9.3/../../../../arm-none-eabi/lib/armv7e-m/fpu\libc.a(lib_a-svfprintf.o)
 .ARM.attributes
                0x00000db8       0x34 c:/ac6/systemworkbench/plugins/fr.ac6.mcu.externaltools.arm-none.win32_1.3.0.201507241045/tools/compiler/bin/../lib/gcc/arm-none-eabi/4.9.3/../../../../arm-none-eabi/lib/armv7e-m/fpu\libc.a(lib_a-vfprintf.o)
 .ARM.attributes
                0x00000dec       0x34 c:/ac6/systemworkbench/plugins/fr.ac6.mcu.externaltools.arm-none.win32_1.3.0.201507241045/tools/compiler/bin/../lib/gcc/arm-none-eabi/4.9.3/../../../../arm-none-eabi/lib/armv7e-m/fpu\libc.a(lib_a-vsnprintf.o)
 .ARM.attributes
                0x00000e20       0x34 c:/ac6/systemworkbench/plugins/fr.ac6.mcu.externaltools.arm-none.win32_1.3.0.201507241045/tools/compiler/bin/../lib/gcc/arm-none-eabi/4.9.3/../../../../arm-none-eabi/lib/armv7e-m/fpu\libc.a(lib_a-vsprintf.o)
 .ARM.attributes
                0x00000e54       0x34 c:/ac6/systemworkbench/plugins/fr.ac6.mcu.externaltools.arm-none.win32_1.3.0.201507241045/tools/compiler/bin/../lib/gcc/arm-none-eabi/4.9.3/../../../../arm-none-eabi/lib/armv7e-m/fpu\libc.a(lib_a-wsetup.o)
 .ARM.attributes
                0x00000e88       0x34 c:/ac6/systemworkbench/plugins/fr.ac6.mcu.externaltools.arm-none.win32_1.3.0.201507241045/tools/compiler/bin/../lib/gcc/arm-none-eabi/4.9.3/../../../../arm-none-eabi/lib/armv7e-m/fpu\libc.a(lib_a-__call_atexit.o)
 .ARM.attributes
                0x00000ebc       0x34 c:/ac6/systemworkbench/plugins/fr.ac6.mcu.externaltools.arm-none.win32_1.3.0.201507241045/tools/compiler/bin/../lib/gcc/arm-none-eabi/4.9.3/../../../../arm-none-eabi/lib/armv7e-m/fpu\libc.a(lib_a-atexit.o)
 .ARM.attributes
                0x00000ef0       0x34 c:/ac6/systemworkbench/plugins/fr.ac6.mcu.externaltools.arm-none.win32_1.3.0.201507241045/tools/compiler/bin/../lib/gcc/arm-none-eabi/4.9.3/../../../../arm-none-eabi/lib/armv7e-m/fpu\libc.a(lib_a-dtoa.o)
 .ARM.attributes
                0x00000f24       0x34 c:/ac6/systemworkbench/plugins/fr.ac6.mcu.externaltools.arm-none.win32_1.3.0.201507241045/tools/compiler/bin/../lib/gcc/arm-none-eabi/4.9.3/../../../../arm-none-eabi/lib/armv7e-m/fpu\libc.a(lib_a-fflush.o)
 .ARM.attributes
                0x00000f58       0x34 c:/ac6/systemworkbench/plugins/fr.ac6.mcu.externaltools.arm-none.win32_1.3.0.201507241045/tools/compiler/bin/../lib/gcc/arm-none-eabi/4.9.3/../../../../arm-none-eabi/lib/armv7e-m/fpu\libc.a(lib_a-findfp.o)
 .ARM.attributes
                0x00000f8c       0x34 c:/ac6/systemworkbench/plugins/fr.ac6.mcu.externaltools.arm-none.win32_1.3.0.201507241045/tools/compiler/bin/../lib/gcc/arm-none-eabi/4.9.3/../../../../arm-none-eabi/lib/armv7e-m/fpu\libc.a(lib_a-fini.o)
 .ARM.attributes
                0x00000fc0       0x34 c:/ac6/systemworkbench/plugins/fr.ac6.mcu.externaltools.arm-none.win32_1.3.0.201507241045/tools/compiler/bin/../lib/gcc/arm-none-eabi/4.9.3/../../../../arm-none-eabi/lib/armv7e-m/fpu\libc.a(lib_a-freer.o)
 .ARM.attributes
                0x00000ff4       0x34 c:/ac6/systemworkbench/plugins/fr.ac6.mcu.externaltools.arm-none.win32_1.3.0.201507241045/tools/compiler/bin/../lib/gcc/arm-none-eabi/4.9.3/../../../../arm-none-eabi/lib/armv7e-m/fpu\libc.a(lib_a-fvwrite.o)
 .ARM.attributes
                0x00001028       0x34 c:/ac6/systemworkbench/plugins/fr.ac6.mcu.externaltools.arm-none.win32_1.3.0.201507241045/tools/compiler/bin/../lib/gcc/arm-none-eabi/4.9.3/../../../../arm-none-eabi/lib/armv7e-m/fpu\libc.a(lib_a-fwalk.o)
 .ARM.attributes
                0x0000105c       0x34 c:/ac6/systemworkbench/plugins/fr.ac6.mcu.externaltools.arm-none.win32_1.3.0.201507241045/tools/compiler/bin/../lib/gcc/arm-none-eabi/4.9.3/../../../../arm-none-eabi/lib/armv7e-m/fpu\libc.a(lib_a-locale.o)
 .ARM.attributes
                0x00001090       0x34 c:/ac6/systemworkbench/plugins/fr.ac6.mcu.externaltools.arm-none.win32_1.3.0.201507241045/tools/compiler/bin/../lib/gcc/arm-none-eabi/4.9.3/../../../../arm-none-eabi/lib/armv7e-m/fpu\libc.a(lib_a-makebuf.o)
 .ARM.attributes
                0x000010c4       0x34 c:/ac6/systemworkbench/plugins/fr.ac6.mcu.externaltools.arm-none.win32_1.3.0.201507241045/tools/compiler/bin/../lib/gcc/arm-none-eabi/4.9.3/../../../../arm-none-eabi/lib/armv7e-m/fpu\libc.a(lib_a-memchr.o)
 .ARM.attributes
                0x000010f8       0x34 c:/ac6/systemworkbench/plugins/fr.ac6.mcu.externaltools.arm-none.win32_1.3.0.201507241045/tools/compiler/bin/../lib/gcc/arm-none-eabi/4.9.3/../../../../arm-none-eabi/lib/armv7e-m/fpu\libc.a(lib_a-memmove.o)
 .ARM.attributes
                0x0000112c       0x34 c:/ac6/systemworkbench/plugins/fr.ac6.mcu.externaltools.arm-none.win32_1.3.0.201507241045/tools/compiler/bin/../lib/gcc/arm-none-eabi/4.9.3/../../../../arm-none-eabi/lib/armv7e-m/fpu\libc.a(lib_a-mprec.o)
 .ARM.attributes
                0x00001160       0x34 c:/ac6/systemworkbench/plugins/fr.ac6.mcu.externaltools.arm-none.win32_1.3.0.201507241045/tools/compiler/bin/../lib/gcc/arm-none-eabi/4.9.3/../../../../arm-none-eabi/lib/armv7e-m/fpu\libc.a(lib_a-reallocr.o)
 .ARM.attributes
                0x00001194       0x34 c:/ac6/systemworkbench/plugins/fr.ac6.mcu.externaltools.arm-none.win32_1.3.0.201507241045/tools/compiler/bin/../lib/gcc/arm-none-eabi/4.9.3/../../../../arm-none-eabi/lib/armv7e-m/fpu\libc.a(lib_a-reent.o)
 .ARM.attributes
                0x000011c8       0x34 c:/ac6/systemworkbench/plugins/fr.ac6.mcu.externaltools.arm-none.win32_1.3.0.201507241045/tools/compiler/bin/../lib/gcc/arm-none-eabi/4.9.3/../../../../arm-none-eabi/lib/armv7e-m/fpu\libc.a(lib_a-s_fpclassify.o)
 .ARM.attributes
                0x000011fc       0x34 c:/ac6/systemworkbench/plugins/fr.ac6.mcu.externaltools.arm-none.win32_1.3.0.201507241045/tools/compiler/bin/../lib/gcc/arm-none-eabi/4.9.3/../../../../arm-none-eabi/lib/armv7e-m/fpu\libc.a(lib_a-stdio.o)
 .ARM.attributes
                0x00001230       0x34 c:/ac6/systemworkbench/plugins/fr.ac6.mcu.externaltools.arm-none.win32_1.3.0.201507241045/tools/compiler/bin/../lib/gcc/arm-none-eabi/4.9.3/../../../../arm-none-eabi/lib/armv7e-m/fpu\libc.a(lib_a-svfiprintf.o)
 .ARM.attributes
                0x00001264       0x34 c:/ac6/systemworkbench/plugins/fr.ac6.mcu.externaltools.arm-none.win32_1.3.0.201507241045/tools/compiler/bin/../lib/gcc/arm-none-eabi/4.9.3/../../../../arm-none-eabi/lib/armv7e-m/fpu\libc.a(lib_a-vfiprintf.o)
 .ARM.attributes
                0x00001298       0x34 c:/ac6/systemworkbench/plugins/fr.ac6.mcu.externaltools.arm-none.win32_1.3.0.201507241045/tools/compiler/bin/../lib/gcc/arm-none-eabi/4.9.3/../../../../arm-none-eabi/lib/armv7e-m/fpu\libc.a(lib_a-writer.o)
 .ARM.attributes
                0x000012cc       0x34 c:/ac6/systemworkbench/plugins/fr.ac6.mcu.externaltools.arm-none.win32_1.3.0.201507241045/tools/compiler/bin/../lib/gcc/arm-none-eabi/4.9.3/../../../../arm-none-eabi/lib/armv7e-m/fpu\libc.a(lib_a-__atexit.o)
 .ARM.attributes
                0x00001300       0x34 c:/ac6/systemworkbench/plugins/fr.ac6.mcu.externaltools.arm-none.win32_1.3.0.201507241045/tools/compiler/bin/../lib/gcc/arm-none-eabi/4.9.3/../../../../arm-none-eabi/lib/armv7e-m/fpu\libc.a(lib_a-callocr.o)
 .ARM.attributes
                0x00001334       0x34 c:/ac6/systemworkbench/plugins/fr.ac6.mcu.externaltools.arm-none.win32_1.3.0.201507241045/tools/compiler/bin/../lib/gcc/arm-none-eabi/4.9.3/../../../../arm-none-eabi/lib/armv7e-m/fpu\libc.a(lib_a-closer.o)
 .ARM.attributes
                0x00001368       0x34 c:/ac6/systemworkbench/plugins/fr.ac6.mcu.externaltools.arm-none.win32_1.3.0.201507241045/tools/compiler/bin/../lib/gcc/arm-none-eabi/4.9.3/../../../../arm-none-eabi/lib/armv7e-m/fpu\libc.a(lib_a-fclose.o)
 .ARM.attributes
                0x0000139c       0x34 c:/ac6/systemworkbench/plugins/fr.ac6.mcu.externaltools.arm-none.win32_1.3.0.201507241045/tools/compiler/bin/../lib/gcc/arm-none-eabi/4.9.3/../../../../arm-none-eabi/lib/armv7e-m/fpu\libc.a(lib_a-fputwc.o)
 .ARM.attributes
                0x000013d0       0x34 c:/ac6/systemworkbench/plugins/fr.ac6.mcu.externaltools.arm-none.win32_1.3.0.201507241045/tools/compiler/bin/../lib/gcc/arm-none-eabi/4.9.3/../../../../arm-none-eabi/lib/armv7e-m/fpu\libc.a(lib_a-fstatr.o)
 .ARM.attributes
                0x00001404       0x34 c:/ac6/systemworkbench/plugins/fr.ac6.mcu.externaltools.arm-none.win32_1.3.0.201507241045/tools/compiler/bin/../lib/gcc/arm-none-eabi/4.9.3/../../../../arm-none-eabi/lib/armv7e-m/fpu\libc.a(lib_a-isattyr.o)
 .ARM.attributes
                0x00001438       0x34 c:/ac6/systemworkbench/plugins/fr.ac6.mcu.externaltools.arm-none.win32_1.3.0.201507241045/tools/compiler/bin/../lib/gcc/arm-none-eabi/4.9.3/../../../../arm-none-eabi/lib/armv7e-m/fpu\libc.a(lib_a-lseekr.o)
 .ARM.attributes
                0x0000146c       0x34 c:/ac6/systemworkbench/plugins/fr.ac6.mcu.externaltools.arm-none.win32_1.3.0.201507241045/tools/compiler/bin/../lib/gcc/arm-none-eabi/4.9.3/../../../../arm-none-eabi/lib/armv7e-m/fpu\libc.a(lib_a-readr.o)
 .ARM.attributes
                0x000014a0       0x34 c:/ac6/systemworkbench/plugins/fr.ac6.mcu.externaltools.arm-none.win32_1.3.0.201507241045/tools/compiler/bin/../lib/gcc/arm-none-eabi/4.9.3/../../../../arm-none-eabi/lib/armv7e-m/fpu\libc.a(lib_a-wbuf.o)
 .ARM.attributes
                0x000014d4       0x34 c:/ac6/systemworkbench/plugins/fr.ac6.mcu.externaltools.arm-none.win32_1.3.0.201507241045/tools/compiler/bin/../lib/gcc/arm-none-eabi/4.9.3/../../../../arm-none-eabi/lib/armv7e-m/fpu\libc.a(lib_a-wcrtomb.o)
 .ARM.attributes
                0x00001508       0x34 c:/ac6/systemworkbench/plugins/fr.ac6.mcu.externaltools.arm-none.win32_1.3.0.201507241045/tools/compiler/bin/../lib/gcc/arm-none-eabi/4.9.3/../../../../arm-none-eabi/lib/armv7e-m/fpu\libc.a(lib_a-wctomb_r.o)
 .ARM.attributes
                0x0000153c       0x22 c:/ac6/systemworkbench/plugins/fr.ac6.mcu.externaltools.arm-none.win32_1.3.0.201507241045/tools/compiler/bin/../lib/gcc/arm-none-eabi/4.9.3/armv7e-m/fpu\libgcc.a(_arm_muldivdf3.o)
 .ARM.attributes
                0x0000155e       0x22 c:/ac6/systemworkbench/plugins/fr.ac6.mcu.externaltools.arm-none.win32_1.3.0.201507241045/tools/compiler/bin/../lib/gcc/arm-none-eabi/4.9.3/armv7e-m/fpu\libgcc.a(_arm_fixdfsi.o)
 .ARM.attributes
                0x00001580       0x22 c:/ac6/systemworkbench/plugins/fr.ac6.mcu.externaltools.arm-none.win32_1.3.0.201507241045/tools/compiler/bin/../lib/gcc/arm-none-eabi/4.9.3/armv7e-m/fpu\libgcc.a(_aeabi_uldivmod.o)
 .ARM.attributes
                0x000015a2       0x34 c:/ac6/systemworkbench/plugins/fr.ac6.mcu.externaltools.arm-none.win32_1.3.0.201507241045/tools/compiler/bin/../lib/gcc/arm-none-eabi/4.9.3/armv7e-m/fpu\libgcc.a(bpabi.o)
 .ARM.attributes
                0x000015d6       0x22 c:/ac6/systemworkbench/plugins/fr.ac6.mcu.externaltools.arm-none.win32_1.3.0.201507241045/tools/compiler/bin/../lib/gcc/arm-none-eabi/4.9.3/armv7e-m/fpu\libgcc.a(_dvmd_tls.o)
 .ARM.attributes
                0x000015f8       0x34 c:/ac6/systemworkbench/plugins/fr.ac6.mcu.externaltools.arm-none.win32_1.3.0.201507241045/tools/compiler/bin/../lib/gcc/arm-none-eabi/4.9.3/armv7e-m/fpu\libgcc.a(_divdi3.o)
 .ARM.attributes
                0x0000162c       0x34 c:/ac6/systemworkbench/plugins/fr.ac6.mcu.externaltools.arm-none.win32_1.3.0.201507241045/tools/compiler/bin/../lib/gcc/arm-none-eabi/4.9.3/armv7e-m/fpu\libgcc.a(_udivdi3.o)
 .ARM.attributes
                0x00001660       0x22 c:/ac6/systemworkbench/plugins/fr.ac6.mcu.externaltools.arm-none.win32_1.3.0.201507241045/tools/compiler/bin/../lib/gcc/arm-none-eabi/4.9.3/armv7e-m/fpu/crtn.o

.ExtRAMData
 *(.ExtRAMData)
OUTPUT(Lucky_1223.elf elf32-littlearm)

.debug_line     0x00000000    0x1700b
 .debug_line    0x00000000       0x8d startup/startup_stm32f40xx.o
 .debug_line    0x0000008d      0x98f src/camera_api.o
 .debug_line    0x00000a1c      0xb30 src/dcmi_ov2640.o
 .debug_line    0x0000154c      0xa39 src/main.o
 .debug_line    0x00001f85      0x9e1 src/netconf.o
 .debug_line    0x00002966      0x93c src/serial_debug.o
 .debug_line    0x000032a2      0x68c src/serial_io.o
 .debug_line    0x0000392e      0xa8a src/stm32f4x7_eth_bsp.o
 .debug_line    0x000043b8      0xa3b src/stm32f4xx_it.o
 .debug_line    0x00004df3      0x556 src/syscalls.o
 .debug_line    0x00005349      0x632 src/system_stm32f4xx.o
 .debug_line    0x0000597b      0x9eb src/udp_echoserver.o
 .debug_line    0x00006366      0x7bf lwip_v1.3.2/src/netif/etharp.o
 .debug_line    0x00006b25      0xbbe lwip_v1.3.2/src/core/dhcp.o
 .debug_line    0x000076e3      0x544 lwip_v1.3.2/src/core/mem.o
 .debug_line    0x00007c27      0x5c2 lwip_v1.3.2/src/core/memp.o
 .debug_line    0x000081e9      0x6f8 lwip_v1.3.2/src/core/netif.o
 .debug_line    0x000088e1      0x702 lwip_v1.3.2/src/core/pbuf.o
 .debug_line    0x00008fe3      0x5d9 lwip_v1.3.2/src/core/raw.o
 .debug_line    0x000095bc      0xac3 lwip_v1.3.2/src/core/tcp.o
 .debug_line    0x0000a07f      0xa17 lwip_v1.3.2/src/core/tcp_in.o
 .debug_line    0x0000aa96      0x875 lwip_v1.3.2/src/core/tcp_out.o
 .debug_line    0x0000b30b      0x713 lwip_v1.3.2/src/core/udp.o
 .debug_line    0x0000ba1e      0x561 lwip_v1.3.2/src/core/ipv4/icmp.o
 .debug_line    0x0000bf7f      0x57a lwip_v1.3.2/src/core/ipv4/inet.o
 .debug_line    0x0000c4f9      0x4e8 lwip_v1.3.2/src/core/ipv4/inet_chksum.o
 .debug_line    0x0000c9e1      0x66d lwip_v1.3.2/src/core/ipv4/ip.o
 .debug_line    0x0000d04e      0x46c lwip_v1.3.2/src/core/ipv4/ip_addr.o
 .debug_line    0x0000d4ba      0x6d7 lwip_v1.3.2/src/core/ipv4/ip_frag.o
 .debug_line    0x0000db91      0xa6d lwip_v1.3.2/port/STM32/Standalone/ethernetif.o
 .debug_line    0x0000e5fe      0x7d8 Utilities/STM3240_41_G_EVAL/stm324xg_eval.o
 .debug_line    0x0000edd6      0xc49 Utilities/STM3240_41_G_EVAL/stm324xg_eval_ioe.o
 .debug_line    0x0000fa1f      0xc98 Utilities/STM3240_41_G_EVAL/stm324xg_eval_lcd.o
 .debug_line    0x000106b7      0x2a4 Utilities/Common/fonts.o
 .debug_line    0x0001095b      0x91e StdPeriph_Driver/src/stm32f4xx_adc.o
 .debug_line    0x00011279      0x70a StdPeriph_Driver/src/stm32f4xx_dcmi.o
 .debug_line    0x00011983      0x7a8 StdPeriph_Driver/src/stm32f4xx_dma.o
 .debug_line    0x0001212b      0x670 StdPeriph_Driver/src/stm32f4xx_exti.o
 .debug_line    0x0001279b      0x81f StdPeriph_Driver/src/stm32f4xx_fsmc.o
 .debug_line    0x00012fba      0x70e StdPeriph_Driver/src/stm32f4xx_gpio.o
 .debug_line    0x000136c8      0x8be StdPeriph_Driver/src/stm32f4xx_i2c.o
 .debug_line    0x00013f86      0x624 StdPeriph_Driver/src/stm32f4xx_misc.o
 .debug_line    0x000145aa      0x980 StdPeriph_Driver/src/stm32f4xx_rcc.o
 .debug_line    0x00014f2a      0x630 StdPeriph_Driver/src/stm32f4xx_syscfg.o
 .debug_line    0x0001555a      0x85f StdPeriph_Driver/src/stm32f4xx_usart.o
 .debug_line    0x00015db9     0x1252 STM32F4x7_ETH_Driver/src/stm32f4x7_eth.o

.debug_info     0x00000000    0x18f36
 .debug_info    0x00000000       0x65 startup/startup_stm32f40xx.o
 .debug_info    0x00000065      0x31d src/camera_api.o
 .debug_info    0x00000382      0xa15 src/dcmi_ov2640.o
 .debug_info    0x00000d97      0x8a9 src/main.o
 .debug_info    0x00001640      0x74d src/netconf.o
 .debug_info    0x00001d8d      0x36f src/serial_debug.o
 .debug_info    0x000020fc      0x296 src/serial_io.o
 .debug_info    0x00002392     0x16fa src/stm32f4x7_eth_bsp.o
 .debug_info    0x00003a8c      0x24c src/stm32f4xx_it.o
 .debug_info    0x00003cd8      0x660 src/syscalls.o
 .debug_info    0x00004338      0x5f0 src/system_stm32f4xx.o
 .debug_info    0x00004928      0x4df src/udp_echoserver.o
 .debug_info    0x00004e07      0xe82 lwip_v1.3.2/src/netif/etharp.o
 .debug_info    0x00005c89     0x1011 lwip_v1.3.2/src/core/dhcp.o
 .debug_info    0x00006c9a      0x349 lwip_v1.3.2/src/core/mem.o
 .debug_info    0x00006fe3      0x257 lwip_v1.3.2/src/core/memp.o
 .debug_info    0x0000723a      0xea1 lwip_v1.3.2/src/core/netif.o
 .debug_info    0x000080db      0x66b lwip_v1.3.2/src/core/pbuf.o
 .debug_info    0x00008746      0x69a lwip_v1.3.2/src/core/raw.o
 .debug_info    0x00008de0     0x114d lwip_v1.3.2/src/core/tcp.o
 .debug_info    0x00009f2d      0xbf5 lwip_v1.3.2/src/core/tcp_in.o
 .debug_info    0x0000ab22      0xcca lwip_v1.3.2/src/core/tcp_out.o
 .debug_info    0x0000b7ec      0xac5 lwip_v1.3.2/src/core/udp.o
 .debug_info    0x0000c2b1      0x59b lwip_v1.3.2/src/core/ipv4/icmp.o
 .debug_info    0x0000c84c      0x2e5 lwip_v1.3.2/src/core/ipv4/inet.o
 .debug_info    0x0000cb31      0x2a4 lwip_v1.3.2/src/core/ipv4/inet_chksum.o
 .debug_info    0x0000cdd5      0x8c4 lwip_v1.3.2/src/core/ipv4/ip.o
 .debug_info    0x0000d699      0x309 lwip_v1.3.2/src/core/ipv4/ip_addr.o
 .debug_info    0x0000d9a2      0x8b3 lwip_v1.3.2/src/core/ipv4/ip_frag.o
 .debug_info    0x0000e255      0xa75 lwip_v1.3.2/port/STM32/Standalone/ethernetif.o
 .debug_info    0x0000ecca      0xf41 Utilities/STM3240_41_G_EVAL/stm324xg_eval.o
 .debug_info    0x0000fc0b     0x135f Utilities/STM3240_41_G_EVAL/stm324xg_eval_ioe.o
 .debug_info    0x00010f6a      0xf76 Utilities/STM3240_41_G_EVAL/stm324xg_eval_lcd.o
 .debug_info    0x00011ee0      0x1a2 Utilities/Common/fonts.o
 .debug_info    0x00012082      0xc40 StdPeriph_Driver/src/stm32f4xx_adc.o
 .debug_info    0x00012cc2      0x554 StdPeriph_Driver/src/stm32f4xx_dcmi.o
 .debug_info    0x00013216      0x741 StdPeriph_Driver/src/stm32f4xx_dma.o
 .debug_info    0x00013957      0x34f StdPeriph_Driver/src/stm32f4xx_exti.o
 .debug_info    0x00013ca6      0x8fd StdPeriph_Driver/src/stm32f4xx_fsmc.o
 .debug_info    0x000145a3      0x60d StdPeriph_Driver/src/stm32f4xx_gpio.o
 .debug_info    0x00014bb0      0xb8f StdPeriph_Driver/src/stm32f4xx_i2c.o
 .debug_info    0x0001573f      0x545 StdPeriph_Driver/src/stm32f4xx_misc.o
 .debug_info    0x00015c84      0xc7b StdPeriph_Driver/src/stm32f4xx_rcc.o
 .debug_info    0x000168ff      0x274 StdPeriph_Driver/src/stm32f4xx_syscfg.o
 .debug_info    0x00016b73      0x9ca StdPeriph_Driver/src/stm32f4xx_usart.o
 .debug_info    0x0001753d     0x19f9 STM32F4x7_ETH_Driver/src/stm32f4x7_eth.o

.debug_abbrev   0x00000000     0x4b20
 .debug_abbrev  0x00000000       0x12 startup/startup_stm32f40xx.o
 .debug_abbrev  0x00000012      0x166 src/camera_api.o
 .debug_abbrev  0x00000178      0x191 src/dcmi_ov2640.o
 .debug_abbrev  0x00000309      0x255 src/main.o
 .debug_abbrev  0x0000055e      0x153 src/netconf.o
 .debug_abbrev  0x000006b1      0x17c src/serial_debug.o
 .debug_abbrev  0x0000082d      0x140 src/serial_io.o
 .debug_abbrev  0x0000096d      0x294 src/stm32f4x7_eth_bsp.o
 .debug_abbrev  0x00000c01      0x116 src/stm32f4xx_it.o
 .debug_abbrev  0x00000d17      0x174 src/syscalls.o
 .debug_abbrev  0x00000e8b      0x13b src/system_stm32f4xx.o
 .debug_abbrev  0x00000fc6      0x1e0 src/udp_echoserver.o
 .debug_abbrev  0x000011a6      0x20d lwip_v1.3.2/src/netif/etharp.o
 .debug_abbrev  0x000013b3      0x21d lwip_v1.3.2/src/core/dhcp.o
 .debug_abbrev  0x000015d0      0x161 lwip_v1.3.2/src/core/mem.o
 .debug_abbrev  0x00001731      0x121 lwip_v1.3.2/src/core/memp.o
 .debug_abbrev  0x00001852      0x259 lwip_v1.3.2/src/core/netif.o
 .debug_abbrev  0x00001aab      0x1a6 lwip_v1.3.2/src/core/pbuf.o
 .debug_abbrev  0x00001c51      0x1c3 lwip_v1.3.2/src/core/raw.o
 .debug_abbrev  0x00001e14      0x2c7 lwip_v1.3.2/src/core/tcp.o
 .debug_abbrev  0x000020db      0x1ec lwip_v1.3.2/src/core/tcp_in.o
 .debug_abbrev  0x000022c7      0x227 lwip_v1.3.2/src/core/tcp_out.o
 .debug_abbrev  0x000024ee      0x206 lwip_v1.3.2/src/core/udp.o
 .debug_abbrev  0x000026f4      0x1a6 lwip_v1.3.2/src/core/ipv4/icmp.o
 .debug_abbrev  0x0000289a      0x133 lwip_v1.3.2/src/core/ipv4/inet.o
 .debug_abbrev  0x000029cd      0x13f lwip_v1.3.2/src/core/ipv4/inet_chksum.o
 .debug_abbrev  0x00002b0c      0x18f lwip_v1.3.2/src/core/ipv4/ip.o
 .debug_abbrev  0x00002c9b       0xff lwip_v1.3.2/src/core/ipv4/ip_addr.o
 .debug_abbrev  0x00002d9a      0x1eb lwip_v1.3.2/src/core/ipv4/ip_frag.o
 .debug_abbrev  0x00002f85      0x212 lwip_v1.3.2/port/STM32/Standalone/ethernetif.o
 .debug_abbrev  0x00003197      0x1cf Utilities/STM3240_41_G_EVAL/stm324xg_eval.o
 .debug_abbrev  0x00003366      0x21d Utilities/STM3240_41_G_EVAL/stm324xg_eval_ioe.o
 .debug_abbrev  0x00003583      0x25a Utilities/STM3240_41_G_EVAL/stm324xg_eval_lcd.o
 .debug_abbrev  0x000037dd       0x98 Utilities/Common/fonts.o
 .debug_abbrev  0x00003875      0x19b StdPeriph_Driver/src/stm32f4xx_adc.o
 .debug_abbrev  0x00003a10      0x18c StdPeriph_Driver/src/stm32f4xx_dcmi.o
 .debug_abbrev  0x00003b9c      0x15a StdPeriph_Driver/src/stm32f4xx_dma.o
 .debug_abbrev  0x00003cf6      0x1aa StdPeriph_Driver/src/stm32f4xx_exti.o
 .debug_abbrev  0x00003ea0      0x175 StdPeriph_Driver/src/stm32f4xx_fsmc.o
 .debug_abbrev  0x00004015      0x1a8 StdPeriph_Driver/src/stm32f4xx_gpio.o
 .debug_abbrev  0x000041bd      0x169 StdPeriph_Driver/src/stm32f4xx_i2c.o
 .debug_abbrev  0x00004326      0x14a StdPeriph_Driver/src/stm32f4xx_misc.o
 .debug_abbrev  0x00004470      0x1e8 StdPeriph_Driver/src/stm32f4xx_rcc.o
 .debug_abbrev  0x00004658      0x136 StdPeriph_Driver/src/stm32f4xx_syscfg.o
 .debug_abbrev  0x0000478e      0x15a StdPeriph_Driver/src/stm32f4xx_usart.o
 .debug_abbrev  0x000048e8      0x238 STM32F4x7_ETH_Driver/src/stm32f4x7_eth.o

.debug_aranges  0x00000000     0x19c0
 .debug_aranges
                0x00000000       0x30 startup/startup_stm32f40xx.o
 .debug_aranges
                0x00000030       0x48 src/camera_api.o
 .debug_aranges
                0x00000078       0x80 src/dcmi_ov2640.o
 .debug_aranges
                0x000000f8       0x58 src/main.o
 .debug_aranges
                0x00000150       0x30 src/netconf.o
 .debug_aranges
                0x00000180       0x40 src/serial_debug.o
 .debug_aranges
                0x000001c0       0x30 src/serial_io.o
 .debug_aranges
                0x000001f0       0x60 src/stm32f4x7_eth_bsp.o
 .debug_aranges
                0x00000250       0x68 src/stm32f4xx_it.o
 .debug_aranges
                0x000002b8       0xb0 src/syscalls.o
 .debug_aranges
                0x00000368       0x30 src/system_stm32f4xx.o
 .debug_aranges
                0x00000398       0x40 src/udp_echoserver.o
 .debug_aranges
                0x000003d8       0x80 lwip_v1.3.2/src/netif/etharp.o
 .debug_aranges
                0x00000458      0x138 lwip_v1.3.2/src/core/dhcp.o
 .debug_aranges
                0x00000590       0x48 lwip_v1.3.2/src/core/mem.o
 .debug_aranges
                0x000005d8       0x30 lwip_v1.3.2/src/core/memp.o
 .debug_aranges
                0x00000608       0x90 lwip_v1.3.2/src/core/netif.o
 .debug_aranges
                0x00000698       0x80 lwip_v1.3.2/src/core/pbuf.o
 .debug_aranges
                0x00000718       0x58 lwip_v1.3.2/src/core/raw.o
 .debug_aranges
                0x00000770      0x110 lwip_v1.3.2/src/core/tcp.o
 .debug_aranges
                0x00000880       0x48 lwip_v1.3.2/src/core/tcp_in.o
 .debug_aranges
                0x000008c8       0x80 lwip_v1.3.2/src/core/tcp_out.o
 .debug_aranges
                0x00000948       0x68 lwip_v1.3.2/src/core/udp.o
 .debug_aranges
                0x000009b0       0x38 lwip_v1.3.2/src/core/ipv4/icmp.o
 .debug_aranges
                0x000009e8       0x50 lwip_v1.3.2/src/core/ipv4/inet.o
 .debug_aranges
                0x00000a38       0x38 lwip_v1.3.2/src/core/ipv4/inet_chksum.o
 .debug_aranges
                0x00000a70       0x38 lwip_v1.3.2/src/core/ipv4/ip.o
 .debug_aranges
                0x00000aa8       0x20 lwip_v1.3.2/src/core/ipv4/ip_addr.o
 .debug_aranges
                0x00000ac8       0x58 lwip_v1.3.2/src/core/ipv4/ip_frag.o
 .debug_aranges
                0x00000b20       0x40 lwip_v1.3.2/port/STM32/Standalone/ethernetif.o
 .debug_aranges
                0x00000b60       0x88 Utilities/STM3240_41_G_EVAL/stm324xg_eval.o
 .debug_aranges
                0x00000be8      0x150 Utilities/STM3240_41_G_EVAL/stm324xg_eval_ioe.o
 .debug_aranges
                0x00000d38      0x168 Utilities/STM3240_41_G_EVAL/stm324xg_eval_lcd.o
 .debug_aranges
                0x00000ea0       0x18 Utilities/Common/fonts.o
 .debug_aranges
                0x00000eb8      0x148 StdPeriph_Driver/src/stm32f4xx_adc.o
 .debug_aranges
                0x00001000       0x90 StdPeriph_Driver/src/stm32f4xx_dcmi.o
 .debug_aranges
                0x00001090       0xb0 StdPeriph_Driver/src/stm32f4xx_dma.o
 .debug_aranges
                0x00001140       0x58 StdPeriph_Driver/src/stm32f4xx_exti.o
 .debug_aranges
                0x00001198       0xb0 StdPeriph_Driver/src/stm32f4xx_fsmc.o
 .debug_aranges
                0x00001248       0x88 StdPeriph_Driver/src/stm32f4xx_gpio.o
 .debug_aranges
                0x000012d0      0x130 StdPeriph_Driver/src/stm32f4xx_i2c.o
 .debug_aranges
                0x00001400       0x40 StdPeriph_Driver/src/stm32f4xx_misc.o
 .debug_aranges
                0x00001440      0x180 StdPeriph_Driver/src/stm32f4xx_rcc.o
 .debug_aranges
                0x000015c0       0x48 StdPeriph_Driver/src/stm32f4xx_syscfg.o
 .debug_aranges
                0x00001608      0x100 StdPeriph_Driver/src/stm32f4xx_usart.o
 .debug_aranges
                0x00001708      0x2b8 STM32F4x7_ETH_Driver/src/stm32f4x7_eth.o

.debug_ranges   0x00000000     0x16e0
 .debug_ranges  0x00000000       0x28 startup/startup_stm32f40xx.o
 .debug_ranges  0x00000028       0x38 src/camera_api.o
 .debug_ranges  0x00000060       0x70 src/dcmi_ov2640.o
 .debug_ranges  0x000000d0       0x48 src/main.o
 .debug_ranges  0x00000118       0x20 src/netconf.o
 .debug_ranges  0x00000138       0x30 src/serial_debug.o
 .debug_ranges  0x00000168       0x20 src/serial_io.o
 .debug_ranges  0x00000188       0x50 src/stm32f4x7_eth_bsp.o
 .debug_ranges  0x000001d8       0x58 src/stm32f4xx_it.o
 .debug_ranges  0x00000230       0xa0 src/syscalls.o
 .debug_ranges  0x000002d0       0x20 src/system_stm32f4xx.o
 .debug_ranges  0x000002f0       0x30 src/udp_echoserver.o
 .debug_ranges  0x00000320       0x70 lwip_v1.3.2/src/netif/etharp.o
 .debug_ranges  0x00000390      0x128 lwip_v1.3.2/src/core/dhcp.o
 .debug_ranges  0x000004b8       0x38 lwip_v1.3.2/src/core/mem.o
 .debug_ranges  0x000004f0       0x20 lwip_v1.3.2/src/core/memp.o
 .debug_ranges  0x00000510       0x80 lwip_v1.3.2/src/core/netif.o
 .debug_ranges  0x00000590       0x70 lwip_v1.3.2/src/core/pbuf.o
 .debug_ranges  0x00000600       0x48 lwip_v1.3.2/src/core/raw.o
 .debug_ranges  0x00000648      0x100 lwip_v1.3.2/src/core/tcp.o
 .debug_ranges  0x00000748       0x38 lwip_v1.3.2/src/core/tcp_in.o
 .debug_ranges  0x00000780       0x70 lwip_v1.3.2/src/core/tcp_out.o
 .debug_ranges  0x000007f0       0x58 lwip_v1.3.2/src/core/udp.o
 .debug_ranges  0x00000848       0x28 lwip_v1.3.2/src/core/ipv4/icmp.o
 .debug_ranges  0x00000870       0x40 lwip_v1.3.2/src/core/ipv4/inet.o
 .debug_ranges  0x000008b0       0x28 lwip_v1.3.2/src/core/ipv4/inet_chksum.o
 .debug_ranges  0x000008d8       0x28 lwip_v1.3.2/src/core/ipv4/ip.o
 .debug_ranges  0x00000900       0x10 lwip_v1.3.2/src/core/ipv4/ip_addr.o
 .debug_ranges  0x00000910       0x48 lwip_v1.3.2/src/core/ipv4/ip_frag.o
 .debug_ranges  0x00000958       0x30 lwip_v1.3.2/port/STM32/Standalone/ethernetif.o
 .debug_ranges  0x00000988       0x78 Utilities/STM3240_41_G_EVAL/stm324xg_eval.o
 .debug_ranges  0x00000a00      0x140 Utilities/STM3240_41_G_EVAL/stm324xg_eval_ioe.o
 .debug_ranges  0x00000b40      0x158 Utilities/STM3240_41_G_EVAL/stm324xg_eval_lcd.o
 .debug_ranges  0x00000c98      0x138 StdPeriph_Driver/src/stm32f4xx_adc.o
 .debug_ranges  0x00000dd0       0x80 StdPeriph_Driver/src/stm32f4xx_dcmi.o
 .debug_ranges  0x00000e50       0xa0 StdPeriph_Driver/src/stm32f4xx_dma.o
 .debug_ranges  0x00000ef0       0x48 StdPeriph_Driver/src/stm32f4xx_exti.o
 .debug_ranges  0x00000f38       0xa0 StdPeriph_Driver/src/stm32f4xx_fsmc.o
 .debug_ranges  0x00000fd8       0x78 StdPeriph_Driver/src/stm32f4xx_gpio.o
 .debug_ranges  0x00001050      0x120 StdPeriph_Driver/src/stm32f4xx_i2c.o
 .debug_ranges  0x00001170       0x30 StdPeriph_Driver/src/stm32f4xx_misc.o
 .debug_ranges  0x000011a0      0x170 StdPeriph_Driver/src/stm32f4xx_rcc.o
 .debug_ranges  0x00001310       0x38 StdPeriph_Driver/src/stm32f4xx_syscfg.o
 .debug_ranges  0x00001348       0xf0 StdPeriph_Driver/src/stm32f4xx_usart.o
 .debug_ranges  0x00001438      0x2a8 STM32F4x7_ETH_Driver/src/stm32f4x7_eth.o

.debug_macro    0x00000000    0x1c020
 .debug_macro   0x00000000      0x3a3 src/camera_api.o
 .debug_macro   0x000003a3      0x8a4 src/camera_api.o
 .debug_macro   0x00000c47       0x5d src/camera_api.o
 .debug_macro   0x00000ca4       0x3b src/camera_api.o
 .debug_macro   0x00000cdf       0x22 src/camera_api.o
 .debug_macro   0x00000d01       0x44 src/camera_api.o
 .debug_macro   0x00000d45       0x1c src/camera_api.o
 .debug_macro   0x00000d61      0x1f7 src/camera_api.o
 .debug_macro   0x00000f58       0x18 src/camera_api.o
 .debug_macro   0x00000f70       0x42 src/camera_api.o
 .debug_macro   0x00000fb2      0xd39 src/camera_api.o
 .debug_macro   0x00001ceb     0x822c src/camera_api.o
 .debug_macro   0x00009f17      0x44f src/camera_api.o
 .debug_macro   0x0000a366      0x3cf src/camera_api.o
 .debug_macro   0x0000a735      0x144 src/camera_api.o
 .debug_macro   0x0000a879      0x188 src/camera_api.o
 .debug_macro   0x0000aa01       0xb2 src/camera_api.o
 .debug_macro   0x0000aab3      0x149 src/camera_api.o
 .debug_macro   0x0000abfc      0x477 src/camera_api.o
 .debug_macro   0x0000b073       0xae src/camera_api.o
 .debug_macro   0x0000b121      0x2f7 src/camera_api.o
 .debug_macro   0x0000b418      0x279 src/camera_api.o
 .debug_macro   0x0000b691       0xc3 src/camera_api.o
 .debug_macro   0x0000b754      0x288 src/camera_api.o
 .debug_macro   0x0000b9dc      0x2bb src/camera_api.o
 .debug_macro   0x0000bc97       0x64 src/camera_api.o
 .debug_macro   0x0000bcfb       0xae src/camera_api.o
 .debug_macro   0x0000bda9      0x57c src/camera_api.o
 .debug_macro   0x0000c325       0x40 src/camera_api.o
 .debug_macro   0x0000c365      0x57b src/camera_api.o
 .debug_macro   0x0000c8e0      0x342 src/camera_api.o
 .debug_macro   0x0000cc22      0x36c src/camera_api.o
 .debug_macro   0x0000cf8e       0xe2 src/camera_api.o
 .debug_macro   0x0000d070      0x73b src/camera_api.o
 .debug_macro   0x0000d7ab      0x223 src/camera_api.o
 .debug_macro   0x0000d9ce       0x34 src/camera_api.o
 .debug_macro   0x0000da02       0x82 src/camera_api.o
 .debug_macro   0x0000da84       0x35 src/camera_api.o
 .debug_macro   0x0000dab9      0x3d4 src/camera_api.o
 .debug_macro   0x0000de8d      0x2e4 src/camera_api.o
 .debug_macro   0x0000e171       0x10 src/camera_api.o
 .debug_macro   0x0000e181      0x42a src/camera_api.o
 .debug_macro   0x0000e5ab       0x58 src/camera_api.o
 .debug_macro   0x0000e603       0x35 src/camera_api.o
 .debug_macro   0x0000e638       0x9c src/camera_api.o
 .debug_macro   0x0000e6d4       0x16 src/camera_api.o
 .debug_macro   0x0000e6ea       0x97 src/camera_api.o
 .debug_macro   0x0000e781      0x29d src/camera_api.o
 .debug_macro   0x0000ea1e       0xef src/camera_api.o
 .debug_macro   0x0000eb0d       0x10 src/camera_api.o
 .debug_macro   0x0000eb1d       0x52 src/camera_api.o
 .debug_macro   0x0000eb6f       0x16 src/camera_api.o
 .debug_macro   0x0000eb85       0x43 src/camera_api.o
 .debug_macro   0x0000ebc8      0x180 src/camera_api.o
 .debug_macro   0x0000ed48       0x10 src/camera_api.o
 .debug_macro   0x0000ed58       0x22 src/camera_api.o
 .debug_macro   0x0000ed7a       0xbd src/camera_api.o
 .debug_macro   0x0000ee37       0x16 src/camera_api.o
 .debug_macro   0x0000ee4d      0x196 src/camera_api.o
 .debug_macro   0x0000efe3       0x28 src/camera_api.o
 .debug_macro   0x0000f00b       0x22 src/camera_api.o
 .debug_macro   0x0000f02d       0xf5 src/camera_api.o
 .debug_macro   0x0000f122       0x16 src/camera_api.o
 .debug_macro   0x0000f138       0x10 src/camera_api.o
 .debug_macro   0x0000f148       0x4c src/camera_api.o
 .debug_macro   0x0000f194      0x3bd src/camera_api.o
 .debug_macro   0x0000f551       0x5e src/camera_api.o
 .debug_macro   0x0000f5af      0x43d src/camera_api.o
 .debug_macro   0x0000f9ec       0x70 src/camera_api.o
 .debug_macro   0x0000fa5c       0x28 src/camera_api.o
 .debug_macro   0x0000fa84       0xed src/camera_api.o
 .debug_macro   0x0000fb71       0x22 src/camera_api.o
 .debug_macro   0x0000fb93       0x42 src/camera_api.o
 .debug_macro   0x0000fbd5       0x40 src/camera_api.o
 .debug_macro   0x0000fc15      0x41d src/camera_api.o
 .debug_macro   0x00010032       0x88 src/camera_api.o
 .debug_macro   0x000100ba       0x28 src/camera_api.o
 .debug_macro   0x000100e2      0x3e8 src/camera_api.o
 .debug_macro   0x000104ca      0x207 src/camera_api.o
 .debug_macro   0x000106d1      0x3a6 src/dcmi_ov2640.o
 .debug_macro   0x00010a77      0x201 src/dcmi_ov2640.o
 .debug_macro   0x00010c78      0x3ff src/main.o
 .debug_macro   0x00011077       0x10 src/main.o
 .debug_macro   0x00011087      0x42a src/main.o
 .debug_macro   0x000114b1       0x2e src/main.o
 .debug_macro   0x000114df      0x41d src/main.o
 .debug_macro   0x000118fc       0x70 src/main.o
 .debug_macro   0x0001196c      0xcad src/main.o
 .debug_macro   0x00012619       0x28 src/main.o
 .debug_macro   0x00012641      0x417 src/netconf.o
 .debug_macro   0x00012a58       0x4a src/netconf.o
 .debug_macro   0x00012aa2       0x10 src/netconf.o
 .debug_macro   0x00012ab2       0x10 src/netconf.o
 .debug_macro   0x00012ac2       0x3a src/netconf.o
 .debug_macro   0x00012afc       0x9b src/netconf.o
 .debug_macro   0x00012b97       0x1c src/netconf.o
 .debug_macro   0x00012bb3       0x16 src/netconf.o
 .debug_macro   0x00012bc9       0x4e src/netconf.o
 .debug_macro   0x00012c17      0x11a src/netconf.o
 .debug_macro   0x00012d31       0x64 src/netconf.o
 .debug_macro   0x00012d95      0x242 src/netconf.o
 .debug_macro   0x00012fd7       0x3e src/netconf.o
 .debug_macro   0x00013015       0x77 src/netconf.o
 .debug_macro   0x0001308c      0x25b src/netconf.o
 .debug_macro   0x000132e7      0x3d8 src/serial_debug.o
 .debug_macro   0x000136bf       0x52 src/serial_debug.o
 .debug_macro   0x00013711       0x16 src/serial_debug.o
 .debug_macro   0x00013727       0x35 src/serial_debug.o
 .debug_macro   0x0001375c       0x16 src/serial_debug.o
 .debug_macro   0x00013772       0x29 src/serial_debug.o
 .debug_macro   0x0001379b      0x1bf src/serial_io.o
 .debug_macro   0x0001395a       0x10 src/serial_io.o
 .debug_macro   0x0001396a      0x3e8 src/stm32f4x7_eth_bsp.o
 .debug_macro   0x00013d52       0x10 src/stm32f4x7_eth_bsp.o
 .debug_macro   0x00013d62       0x38 src/stm32f4x7_eth_bsp.o
 .debug_macro   0x00013d9a      0x255 src/stm32f4x7_eth_bsp.o
 .debug_macro   0x00013fef      0x3eb src/stm32f4xx_it.o
 .debug_macro   0x000143da       0x2e src/stm32f4xx_it.o
 .debug_macro   0x00014408      0x1f4 src/stm32f4xx_it.o
 .debug_macro   0x000145fc       0x16 src/stm32f4xx_it.o
 .debug_macro   0x00014612       0x10 src/stm32f4xx_it.o
 .debug_macro   0x00014622      0x1ac src/syscalls.o
 .debug_macro   0x000147ce      0x166 src/syscalls.o
 .debug_macro   0x00014934       0x10 src/syscalls.o
 .debug_macro   0x00014944       0x10 src/syscalls.o
 .debug_macro   0x00014954       0x10 src/syscalls.o
 .debug_macro   0x00014964       0x35 src/syscalls.o
 .debug_macro   0x00014999      0x121 src/syscalls.o
 .debug_macro   0x00014aba       0x10 src/syscalls.o
 .debug_macro   0x00014aca      0x241 src/syscalls.o
 .debug_macro   0x00014d0b       0x1c src/syscalls.o
 .debug_macro   0x00014d27      0x13e src/syscalls.o
 .debug_macro   0x00014e65       0x16 src/syscalls.o
 .debug_macro   0x00014e7b       0x22 src/syscalls.o
 .debug_macro   0x00014e9d      0x1c1 src/system_stm32f4xx.o
 .debug_macro   0x0001505e      0x41b src/udp_echoserver.o
 .debug_macro   0x00015479       0x16 src/udp_echoserver.o
 .debug_macro   0x0001548f       0x16 src/udp_echoserver.o
 .debug_macro   0x000154a5      0x241 lwip_v1.3.2/src/netif/etharp.o
 .debug_macro   0x000156e6       0xf3 lwip_v1.3.2/src/netif/etharp.o
 .debug_macro   0x000157d9      0x10e lwip_v1.3.2/src/netif/etharp.o
 .debug_macro   0x000158e7      0x31b lwip_v1.3.2/src/netif/etharp.o
 .debug_macro   0x00015c02      0x238 lwip_v1.3.2/src/core/dhcp.o
 .debug_macro   0x00015e3a      0x1e4 lwip_v1.3.2/src/core/mem.o
 .debug_macro   0x0001601e      0x28c lwip_v1.3.2/src/core/memp.o
 .debug_macro   0x000162aa      0x114 lwip_v1.3.2/src/core/memp.o
 .debug_macro   0x000163be       0x10 lwip_v1.3.2/src/core/memp.o
 .debug_macro   0x000163ce      0x1ff lwip_v1.3.2/src/core/netif.o
 .debug_macro   0x000165cd      0x120 lwip_v1.3.2/src/core/netif.o
 .debug_macro   0x000166ed      0x1d1 lwip_v1.3.2/src/core/pbuf.o
 .debug_macro   0x000168be       0x16 lwip_v1.3.2/src/core/pbuf.o
 .debug_macro   0x000168d4      0x201 lwip_v1.3.2/src/core/raw.o
 .debug_macro   0x00016ad5      0x21d lwip_v1.3.2/src/core/tcp.o
 .debug_macro   0x00016cf2      0x20c lwip_v1.3.2/src/core/tcp_in.o
 .debug_macro   0x00016efe      0x21a lwip_v1.3.2/src/core/tcp_out.o
 .debug_macro   0x00017118      0x22d lwip_v1.3.2/src/core/udp.o
 .debug_macro   0x00017345      0x21a lwip_v1.3.2/src/core/ipv4/icmp.o
 .debug_macro   0x0001755f       0x5e lwip_v1.3.2/src/core/ipv4/icmp.o
 .debug_macro   0x000175bd      0x178 lwip_v1.3.2/src/core/ipv4/inet.o
 .debug_macro   0x00017735      0x1a1 lwip_v1.3.2/src/core/ipv4/inet_chksum.o
 .debug_macro   0x000178d6      0x248 lwip_v1.3.2/src/core/ipv4/ip.o
 .debug_macro   0x00017b1e      0x18f lwip_v1.3.2/src/core/ipv4/ip_addr.o
 .debug_macro   0x00017cad      0x22f lwip_v1.3.2/src/core/ipv4/ip_frag.o
 .debug_macro   0x00017edc      0x409 lwip_v1.3.2/port/STM32/Standalone/ethernetif.o
 .debug_macro   0x000182e5       0x71 lwip_v1.3.2/port/STM32/Standalone/ethernetif.o
 .debug_macro   0x00018356      0x1b6 Utilities/STM3240_41_G_EVAL/stm324xg_eval.o
 .debug_macro   0x0001850c      0x1cb Utilities/STM3240_41_G_EVAL/stm324xg_eval_ioe.o
 .debug_macro   0x000186d7      0x417 Utilities/STM3240_41_G_EVAL/stm324xg_eval_ioe.o
 .debug_macro   0x00018aee      0x1f2 Utilities/STM3240_41_G_EVAL/stm324xg_eval_lcd.o
 .debug_macro   0x00018ce0       0x5b Utilities/Common/fonts.o
 .debug_macro   0x00018d3b      0x232 StdPeriph_Driver/src/stm32f4xx_adc.o
 .debug_macro   0x00018f6d      0x3c9 StdPeriph_Driver/src/stm32f4xx_adc.o
 .debug_macro   0x00019336      0x1a8 StdPeriph_Driver/src/stm32f4xx_dcmi.o
 .debug_macro   0x000194de      0x143 StdPeriph_Driver/src/stm32f4xx_dcmi.o
 .debug_macro   0x00019621      0x1fc StdPeriph_Driver/src/stm32f4xx_dma.o
 .debug_macro   0x0001981d      0x471 StdPeriph_Driver/src/stm32f4xx_dma.o
 .debug_macro   0x00019c8e      0x1ae StdPeriph_Driver/src/stm32f4xx_exti.o
 .debug_macro   0x00019e3c       0xa8 StdPeriph_Driver/src/stm32f4xx_exti.o
 .debug_macro   0x00019ee4      0x1d8 StdPeriph_Driver/src/stm32f4xx_fsmc.o
 .debug_macro   0x0001a0bc      0x273 StdPeriph_Driver/src/stm32f4xx_fsmc.o
 .debug_macro   0x0001a32f      0x1a8 StdPeriph_Driver/src/stm32f4xx_gpio.o
 .debug_macro   0x0001a4d7      0x282 StdPeriph_Driver/src/stm32f4xx_gpio.o
 .debug_macro   0x0001a759      0x1ba StdPeriph_Driver/src/stm32f4xx_i2c.o
 .debug_macro   0x0001a913      0x2b5 StdPeriph_Driver/src/stm32f4xx_i2c.o
 .debug_macro   0x0001abc8      0x1ae StdPeriph_Driver/src/stm32f4xx_misc.o
 .debug_macro   0x0001ad76       0x7c StdPeriph_Driver/src/stm32f4xx_misc.o
 .debug_macro   0x0001adf2      0x264 StdPeriph_Driver/src/stm32f4xx_rcc.o
 .debug_macro   0x0001b056      0x576 StdPeriph_Driver/src/stm32f4xx_rcc.o
 .debug_macro   0x0001b5cc      0x1d2 StdPeriph_Driver/src/stm32f4xx_syscfg.o
 .debug_macro   0x0001b79e       0xdc StdPeriph_Driver/src/stm32f4xx_syscfg.o
 .debug_macro   0x0001b87a      0x1c0 StdPeriph_Driver/src/stm32f4xx_usart.o
 .debug_macro   0x0001ba3a      0x21d StdPeriph_Driver/src/stm32f4xx_usart.o
 .debug_macro   0x0001bc57      0x3c9 STM32F4x7_ETH_Driver/src/stm32f4x7_eth.o

.debug_str      0x00000000    0x7891d
 .debug_str     0x00000000    0x62a3f src/camera_api.o
                              0x62cc2 (size before relaxing)
 .debug_str     0x00062a3f      0x659 src/dcmi_ov2640.o
                              0x6274d (size before relaxing)
 .debug_str     0x00063098     0x8456 src/main.o
                              0x6b229 (size before relaxing)
 .debug_str     0x0006b4ee     0x2dac src/netconf.o
                              0x64751 (size before relaxing)
 .debug_str     0x0006e29a      0x2c6 src/serial_debug.o
                              0x61bfb (size before relaxing)
 .debug_str     0x0006e560       0x69 src/serial_io.o
                              0x5a401 (size before relaxing)
 .debug_str     0x0006e5c9      0xd53 src/stm32f4x7_eth_bsp.o
                              0x6bba3 (size before relaxing)
 .debug_str     0x0006f31c      0xd00 src/stm32f4xx_it.o
                              0x6a641 (size before relaxing)
 .debug_str     0x0007001c      0xcca src/syscalls.o
                               0x67a7 (size before relaxing)
 .debug_str     0x00070ce6      0x1c7 src/system_stm32f4xx.o
                              0x58d60 (size before relaxing)
 .debug_str     0x00070ead      0x1eb src/udp_echoserver.o
                              0x63a55 (size before relaxing)
 .debug_str     0x00071098     0x14bd lwip_v1.3.2/src/netif/etharp.o
                               0xaa0f (size before relaxing)
 .debug_str     0x00072555      0x379 lwip_v1.3.2/src/core/dhcp.o
                               0x9ffd (size before relaxing)
 .debug_str     0x000728ce      0x23b lwip_v1.3.2/src/core/mem.o
                               0x7f17 (size before relaxing)
 .debug_str     0x00072b09      0x1de lwip_v1.3.2/src/core/memp.o
                               0xa742 (size before relaxing)
 .debug_str     0x00072ce7      0x38d lwip_v1.3.2/src/core/netif.o
                               0xbad6 (size before relaxing)
 .debug_str     0x00073074      0x222 lwip_v1.3.2/src/core/pbuf.o
                               0x8171 (size before relaxing)
 .debug_str     0x00073296       0x99 lwip_v1.3.2/src/core/raw.o
                               0x9adc (size before relaxing)
 .debug_str     0x0007332f      0x2ce lwip_v1.3.2/src/core/tcp.o
                               0xb62d (size before relaxing)
 .debug_str     0x000735fd      0x113 lwip_v1.3.2/src/core/tcp_in.o
                               0xb4b6 (size before relaxing)
 .debug_str     0x00073710      0x12d lwip_v1.3.2/src/core/tcp_out.o
                               0xb494 (size before relaxing)
 .debug_str     0x0007383d      0x16d lwip_v1.3.2/src/core/udp.o
                               0xa6cc (size before relaxing)
 .debug_str     0x000739aa      0x104 lwip_v1.3.2/src/core/ipv4/icmp.o
                               0x9bef (size before relaxing)
 .debug_str     0x00073aae      0x1a2 lwip_v1.3.2/src/core/ipv4/inet.o
                               0x7501 (size before relaxing)
 .debug_str     0x00073c50      0x11b lwip_v1.3.2/src/core/ipv4/inet_chksum.o
                               0x7ece (size before relaxing)
 .debug_str     0x00073d6b       0x95 lwip_v1.3.2/src/core/ipv4/ip.o
                               0xbbf3 (size before relaxing)
 .debug_str     0x00073e00       0x89 lwip_v1.3.2/src/core/ipv4/ip_addr.o
                               0x7fba (size before relaxing)
 .debug_str     0x00073e89      0x2e5 lwip_v1.3.2/src/core/ipv4/ip_frag.o
                               0x9e56 (size before relaxing)
 .debug_str     0x0007416e      0x1cf lwip_v1.3.2/port/STM32/Standalone/ethernetif.o
                              0x6a703 (size before relaxing)
 .debug_str     0x0007433d      0x2d5 Utilities/STM3240_41_G_EVAL/stm324xg_eval.o
                              0x5b0a4 (size before relaxing)
 .debug_str     0x00074612      0x3f2 Utilities/STM3240_41_G_EVAL/stm324xg_eval_ioe.o
                              0x5bfe5 (size before relaxing)
 .debug_str     0x00074a04      0x6d0 Utilities/STM3240_41_G_EVAL/stm324xg_eval_lcd.o
                              0x5b738 (size before relaxing)
 .debug_str     0x000750d4       0x78 Utilities/Common/fonts.o
                               0x30f0 (size before relaxing)
 .debug_str     0x0007514c      0x7bd StdPeriph_Driver/src/stm32f4xx_adc.o
                              0x59445 (size before relaxing)
 .debug_str     0x00075909      0x276 StdPeriph_Driver/src/stm32f4xx_dcmi.o
                              0x58e37 (size before relaxing)
 .debug_str     0x00075b7f      0x54c StdPeriph_Driver/src/stm32f4xx_dma.o
                              0x591bc (size before relaxing)
 .debug_str     0x000760cb      0x101 StdPeriph_Driver/src/stm32f4xx_exti.o
                              0x58cd9 (size before relaxing)
 .debug_str     0x000761cc      0x50c StdPeriph_Driver/src/stm32f4xx_fsmc.o
                              0x5921d (size before relaxing)
 .debug_str     0x000766d8      0x170 StdPeriph_Driver/src/stm32f4xx_gpio.o
                              0x58e01 (size before relaxing)
 .debug_str     0x00076848      0x3c6 StdPeriph_Driver/src/stm32f4xx_i2c.o
                              0x59074 (size before relaxing)
 .debug_str     0x00076c0e      0x11f StdPeriph_Driver/src/stm32f4xx_misc.o
                              0x58d60 (size before relaxing)
 .debug_str     0x00076d2d      0xa5b StdPeriph_Driver/src/stm32f4xx_rcc.o
                              0x59738 (size before relaxing)
 .debug_str     0x00077788      0x2a2 StdPeriph_Driver/src/stm32f4xx_syscfg.o
                              0x58db2 (size before relaxing)
 .debug_str     0x00077a2a      0x49c StdPeriph_Driver/src/stm32f4xx_usart.o
                              0x59111 (size before relaxing)
 .debug_str     0x00077ec6      0xa57 STM32F4x7_ETH_Driver/src/stm32f4x7_eth.o
                              0x6abac (size before relaxing)

.comment        0x00000000       0x70
 .comment       0x00000000       0x70 src/camera_api.o
                                 0x71 (size before relaxing)
 .comment       0x00000000       0x71 src/dcmi_ov2640.o
 .comment       0x00000000       0x71 src/main.o
 .comment       0x00000000       0x71 src/netconf.o
 .comment       0x00000000       0x71 src/serial_debug.o
 .comment       0x00000000       0x71 src/serial_io.o
 .comment       0x00000000       0x71 src/stm32f4x7_eth_bsp.o
 .comment       0x00000000       0x71 src/stm32f4xx_it.o
 .comment       0x00000000       0x71 src/syscalls.o
 .comment       0x00000000       0x71 src/system_stm32f4xx.o
 .comment       0x00000000       0x71 src/udp_echoserver.o
 .comment       0x00000000       0x71 lwip_v1.3.2/src/netif/etharp.o
 .comment       0x00000000       0x71 lwip_v1.3.2/src/core/dhcp.o
 .comment       0x00000000       0x71 lwip_v1.3.2/src/core/mem.o
 .comment       0x00000000       0x71 lwip_v1.3.2/src/core/memp.o
 .comment       0x00000000       0x71 lwip_v1.3.2/src/core/netif.o
 .comment       0x00000000       0x71 lwip_v1.3.2/src/core/pbuf.o
 .comment       0x00000000       0x71 lwip_v1.3.2/src/core/raw.o
 .comment       0x00000000       0x71 lwip_v1.3.2/src/core/tcp.o
 .comment       0x00000000       0x71 lwip_v1.3.2/src/core/tcp_in.o
 .comment       0x00000000       0x71 lwip_v1.3.2/src/core/tcp_out.o
 .comment       0x00000000       0x71 lwip_v1.3.2/src/core/udp.o
 .comment       0x00000000       0x71 lwip_v1.3.2/src/core/ipv4/icmp.o
 .comment       0x00000000       0x71 lwip_v1.3.2/src/core/ipv4/inet.o
 .comment       0x00000000       0x71 lwip_v1.3.2/src/core/ipv4/inet_chksum.o
 .comment       0x00000000       0x71 lwip_v1.3.2/src/core/ipv4/ip.o
 .comment       0x00000000       0x71 lwip_v1.3.2/src/core/ipv4/ip_addr.o
 .comment       0x00000000       0x71 lwip_v1.3.2/src/core/ipv4/ip_frag.o
 .comment       0x00000000       0x71 lwip_v1.3.2/port/STM32/Standalone/ethernetif.o
 .comment       0x00000000       0x71 Utilities/STM3240_41_G_EVAL/stm324xg_eval.o
 .comment       0x00000000       0x71 Utilities/STM3240_41_G_EVAL/stm324xg_eval_ioe.o
 .comment       0x00000000       0x71 Utilities/STM3240_41_G_EVAL/stm324xg_eval_lcd.o
 .comment       0x00000000       0x71 Utilities/Common/fonts.o
 .comment       0x00000000       0x71 StdPeriph_Driver/src/stm32f4xx_adc.o
 .comment       0x00000000       0x71 StdPeriph_Driver/src/stm32f4xx_dcmi.o
 .comment       0x00000000       0x71 StdPeriph_Driver/src/stm32f4xx_dma.o
 .comment       0x00000000       0x71 StdPeriph_Driver/src/stm32f4xx_exti.o
 .comment       0x00000000       0x71 StdPeriph_Driver/src/stm32f4xx_fsmc.o
 .comment       0x00000000       0x71 StdPeriph_Driver/src/stm32f4xx_gpio.o
 .comment       0x00000000       0x71 StdPeriph_Driver/src/stm32f4xx_i2c.o
 .comment       0x00000000       0x71 StdPeriph_Driver/src/stm32f4xx_misc.o
 .comment       0x00000000       0x71 StdPeriph_Driver/src/stm32f4xx_rcc.o
 .comment       0x00000000       0x71 StdPeriph_Driver/src/stm32f4xx_syscfg.o
 .comment       0x00000000       0x71 StdPeriph_Driver/src/stm32f4xx_usart.o
 .comment       0x00000000       0x71 STM32F4x7_ETH_Driver/src/stm32f4x7_eth.o

.debug_frame    0x00000000     0x7ab4
 .debug_frame   0x00000000       0xe0 src/camera_api.o
 .debug_frame   0x000000e0      0x1dc src/dcmi_ov2640.o
 .debug_frame   0x000002bc      0x110 src/main.o
 .debug_frame   0x000003cc       0x7c src/netconf.o
 .debug_frame   0x00000448       0xdc src/serial_debug.o
 .debug_frame   0x00000524       0x74 src/serial_io.o
 .debug_frame   0x00000598      0x158 src/stm32f4x7_eth_bsp.o
 .debug_frame   0x000006f0      0x124 src/stm32f4xx_it.o
 .debug_frame   0x00000814      0x2d4 src/syscalls.o
 .debug_frame   0x00000ae8       0x7c src/system_stm32f4xx.o
 .debug_frame   0x00000b64       0xb8 src/udp_echoserver.o
 .debug_frame   0x00000c1c      0x1fc lwip_v1.3.2/src/netif/etharp.o
 .debug_frame   0x00000e18      0x56c lwip_v1.3.2/src/core/dhcp.o
 .debug_frame   0x00001384       0xf8 lwip_v1.3.2/src/core/mem.o
 .debug_frame   0x0000147c       0x88 lwip_v1.3.2/src/core/memp.o
 .debug_frame   0x00001504      0x248 lwip_v1.3.2/src/core/netif.o
 .debug_frame   0x0000174c      0x1f4 lwip_v1.3.2/src/core/pbuf.o
 .debug_frame   0x00001940      0x144 lwip_v1.3.2/src/core/raw.o
 .debug_frame   0x00001a84      0x498 lwip_v1.3.2/src/core/tcp.o
 .debug_frame   0x00001f1c      0x110 lwip_v1.3.2/src/core/tcp_in.o
 .debug_frame   0x0000202c      0x214 lwip_v1.3.2/src/core/tcp_out.o
 .debug_frame   0x00002240      0x194 lwip_v1.3.2/src/core/udp.o
 .debug_frame   0x000023d4       0xa8 lwip_v1.3.2/src/core/ipv4/icmp.o
 .debug_frame   0x0000247c      0x11c lwip_v1.3.2/src/core/ipv4/inet.o
 .debug_frame   0x00002598       0xa0 lwip_v1.3.2/src/core/ipv4/inet_chksum.o
 .debug_frame   0x00002638       0xac lwip_v1.3.2/src/core/ipv4/ip.o
 .debug_frame   0x000026e4       0x38 lwip_v1.3.2/src/core/ipv4/ip_addr.o
 .debug_frame   0x0000271c      0x138 lwip_v1.3.2/src/core/ipv4/ip_frag.o
 .debug_frame   0x00002854       0xc4 lwip_v1.3.2/port/STM32/Standalone/ethernetif.o
 .debug_frame   0x00002918      0x214 Utilities/STM3240_41_G_EVAL/stm324xg_eval.o
 .debug_frame   0x00002b2c      0x578 Utilities/STM3240_41_G_EVAL/stm324xg_eval_ioe.o
 .debug_frame   0x000030a4      0x61c Utilities/STM3240_41_G_EVAL/stm324xg_eval_lcd.o
 .debug_frame   0x000036c0      0x5ec StdPeriph_Driver/src/stm32f4xx_adc.o
 .debug_frame   0x00003cac      0x258 StdPeriph_Driver/src/stm32f4xx_dcmi.o
 .debug_frame   0x00003f04      0x308 StdPeriph_Driver/src/stm32f4xx_dma.o
 .debug_frame   0x0000420c      0x148 StdPeriph_Driver/src/stm32f4xx_exti.o
 .debug_frame   0x00004354      0x300 StdPeriph_Driver/src/stm32f4xx_fsmc.o
 .debug_frame   0x00004654      0x23c StdPeriph_Driver/src/stm32f4xx_gpio.o
 .debug_frame   0x00004890      0x580 StdPeriph_Driver/src/stm32f4xx_i2c.o
 .debug_frame   0x00004e10       0xd8 StdPeriph_Driver/src/stm32f4xx_misc.o
 .debug_frame   0x00004ee8      0x6fc StdPeriph_Driver/src/stm32f4xx_rcc.o
 .debug_frame   0x000055e4       0xf4 StdPeriph_Driver/src/stm32f4xx_syscfg.o
 .debug_frame   0x000056d8      0x490 StdPeriph_Driver/src/stm32f4xx_usart.o
 .debug_frame   0x00005b68      0xc54 STM32F4x7_ETH_Driver/src/stm32f4x7_eth.o
