Archive member included because of file (symbol)

c:/ac6/systemworkbench/plugins/fr.ac6.mcu.externaltools.arm-none.win32_1.3.0.201507241045/tools/compiler/bin/../lib/gcc/arm-none-eabi/4.9.3/armv7e-m/fpu\libgcc.a(_arm_addsubdf3.o)
                              Utilities/STM3240_41_G_EVAL/stm324xg_eval_lcd.o (__aeabi_ui2d)
c:/ac6/systemworkbench/plugins/fr.ac6.mcu.externaltools.arm-none.win32_1.3.0.201507241045/tools/compiler/bin/../lib/gcc/arm-none-eabi/4.9.3/armv7e-m/fpu\libgcc.a(_arm_cmpdf2.o)
                              Utilities/STM3240_41_G_EVAL/stm324xg_eval_lcd.o (__aeabi_dcmplt)
c:/ac6/systemworkbench/plugins/fr.ac6.mcu.externaltools.arm-none.win32_1.3.0.201507241045/tools/compiler/bin/../lib/gcc/arm-none-eabi/4.9.3/../../../../arm-none-eabi/lib/armv7e-m/fpu\libc.a(lib_a-errno.o)
                              src/syscalls.o (__errno)
c:/ac6/systemworkbench/plugins/fr.ac6.mcu.externaltools.arm-none.win32_1.3.0.201507241045/tools/compiler/bin/../lib/gcc/arm-none-eabi/4.9.3/../../../../arm-none-eabi/lib/armv7e-m/fpu\libc.a(lib_a-exit.o)
                              c:/ac6/systemworkbench/plugins/fr.ac6.mcu.externaltools.arm-none.win32_1.3.0.201507241045/tools/compiler/bin/../lib/gcc/arm-none-eabi/4.9.3/../../../../arm-none-eabi/lib/armv7e-m/fpu/crt0.o (exit)
c:/ac6/systemworkbench/plugins/fr.ac6.mcu.externaltools.arm-none.win32_1.3.0.201507241045/tools/compiler/bin/../lib/gcc/arm-none-eabi/4.9.3/../../../../arm-none-eabi/lib/armv7e-m/fpu\libc.a(lib_a-impure.o)
                              c:/ac6/systemworkbench/plugins/fr.ac6.mcu.externaltools.arm-none.win32_1.3.0.201507241045/tools/compiler/bin/../lib/gcc/arm-none-eabi/4.9.3/../../../../arm-none-eabi/lib/armv7e-m/fpu\libc.a(lib_a-exit.o) (_global_impure_ptr)
c:/ac6/systemworkbench/plugins/fr.ac6.mcu.externaltools.arm-none.win32_1.3.0.201507241045/tools/compiler/bin/../lib/gcc/arm-none-eabi/4.9.3/../../../../arm-none-eabi/lib/armv7e-m/fpu\libc.a(lib_a-init.o)
                              c:/ac6/systemworkbench/plugins/fr.ac6.mcu.externaltools.arm-none.win32_1.3.0.201507241045/tools/compiler/bin/../lib/gcc/arm-none-eabi/4.9.3/../../../../arm-none-eabi/lib/armv7e-m/fpu/crt0.o (__libc_init_array)
c:/ac6/systemworkbench/plugins/fr.ac6.mcu.externaltools.arm-none.win32_1.3.0.201507241045/tools/compiler/bin/../lib/gcc/arm-none-eabi/4.9.3/../../../../arm-none-eabi/lib/armv7e-m/fpu\libc.a(lib_a-malloc.o)
                              src/serial_debug.o (malloc)
c:/ac6/systemworkbench/plugins/fr.ac6.mcu.externaltools.arm-none.win32_1.3.0.201507241045/tools/compiler/bin/../lib/gcc/arm-none-eabi/4.9.3/../../../../arm-none-eabi/lib/armv7e-m/fpu\libc.a(lib_a-mallocr.o)
                              c:/ac6/systemworkbench/plugins/fr.ac6.mcu.externaltools.arm-none.win32_1.3.0.201507241045/tools/compiler/bin/../lib/gcc/arm-none-eabi/4.9.3/../../../../arm-none-eabi/lib/armv7e-m/fpu\libc.a(lib_a-malloc.o) (_malloc_r)
c:/ac6/systemworkbench/plugins/fr.ac6.mcu.externaltools.arm-none.win32_1.3.0.201507241045/tools/compiler/bin/../lib/gcc/arm-none-eabi/4.9.3/../../../../arm-none-eabi/lib/armv7e-m/fpu\libc.a(lib_a-memcmp.o)
                              src/udp_echoclient.o (memcmp)
c:/ac6/systemworkbench/plugins/fr.ac6.mcu.externaltools.arm-none.win32_1.3.0.201507241045/tools/compiler/bin/../lib/gcc/arm-none-eabi/4.9.3/../../../../arm-none-eabi/lib/armv7e-m/fpu\libc.a(lib_a-memcpy.o)
                              src/udp_echoclient.o (memcpy)
c:/ac6/systemworkbench/plugins/fr.ac6.mcu.externaltools.arm-none.win32_1.3.0.201507241045/tools/compiler/bin/../lib/gcc/arm-none-eabi/4.9.3/../../../../arm-none-eabi/lib/armv7e-m/fpu\libc.a(lib_a-memset.o)
                              c:/ac6/systemworkbench/plugins/fr.ac6.mcu.externaltools.arm-none.win32_1.3.0.201507241045/tools/compiler/bin/../lib/gcc/arm-none-eabi/4.9.3/../../../../arm-none-eabi/lib/armv7e-m/fpu/crt0.o (memset)
c:/ac6/systemworkbench/plugins/fr.ac6.mcu.externaltools.arm-none.win32_1.3.0.201507241045/tools/compiler/bin/../lib/gcc/arm-none-eabi/4.9.3/../../../../arm-none-eabi/lib/armv7e-m/fpu\libc.a(lib_a-mlock.o)
                              c:/ac6/systemworkbench/plugins/fr.ac6.mcu.externaltools.arm-none.win32_1.3.0.201507241045/tools/compiler/bin/../lib/gcc/arm-none-eabi/4.9.3/../../../../arm-none-eabi/lib/armv7e-m/fpu\libc.a(lib_a-mallocr.o) (__malloc_lock)
c:/ac6/systemworkbench/plugins/fr.ac6.mcu.externaltools.arm-none.win32_1.3.0.201507241045/tools/compiler/bin/../lib/gcc/arm-none-eabi/4.9.3/../../../../arm-none-eabi/lib/armv7e-m/fpu\libc.a(lib_a-sbrkr.o)
                              c:/ac6/systemworkbench/plugins/fr.ac6.mcu.externaltools.arm-none.win32_1.3.0.201507241045/tools/compiler/bin/../lib/gcc/arm-none-eabi/4.9.3/../../../../arm-none-eabi/lib/armv7e-m/fpu\libc.a(lib_a-mallocr.o) (_sbrk_r)
c:/ac6/systemworkbench/plugins/fr.ac6.mcu.externaltools.arm-none.win32_1.3.0.201507241045/tools/compiler/bin/../lib/gcc/arm-none-eabi/4.9.3/../../../../arm-none-eabi/lib/armv7e-m/fpu\libc.a(lib_a-sprintf.o)
                              src/netconf.o (sprintf)
c:/ac6/systemworkbench/plugins/fr.ac6.mcu.externaltools.arm-none.win32_1.3.0.201507241045/tools/compiler/bin/../lib/gcc/arm-none-eabi/4.9.3/../../../../arm-none-eabi/lib/armv7e-m/fpu\libc.a(lib_a-strlen.o)
                              src/udp_echoclient.o (strlen)
c:/ac6/systemworkbench/plugins/fr.ac6.mcu.externaltools.arm-none.win32_1.3.0.201507241045/tools/compiler/bin/../lib/gcc/arm-none-eabi/4.9.3/../../../../arm-none-eabi/lib/armv7e-m/fpu\libc.a(lib_a-svfprintf.o)
                              c:/ac6/systemworkbench/plugins/fr.ac6.mcu.externaltools.arm-none.win32_1.3.0.201507241045/tools/compiler/bin/../lib/gcc/arm-none-eabi/4.9.3/../../../../arm-none-eabi/lib/armv7e-m/fpu\libc.a(lib_a-sprintf.o) (_svfprintf_r)
c:/ac6/systemworkbench/plugins/fr.ac6.mcu.externaltools.arm-none.win32_1.3.0.201507241045/tools/compiler/bin/../lib/gcc/arm-none-eabi/4.9.3/../../../../arm-none-eabi/lib/armv7e-m/fpu\libc.a(lib_a-vsnprintf.o)
                              src/serial_debug.o (vsnprintf)
c:/ac6/systemworkbench/plugins/fr.ac6.mcu.externaltools.arm-none.win32_1.3.0.201507241045/tools/compiler/bin/../lib/gcc/arm-none-eabi/4.9.3/../../../../arm-none-eabi/lib/armv7e-m/fpu\libc.a(lib_a-vsprintf.o)
                              src/serial_debug.o (vsprintf)
c:/ac6/systemworkbench/plugins/fr.ac6.mcu.externaltools.arm-none.win32_1.3.0.201507241045/tools/compiler/bin/../lib/gcc/arm-none-eabi/4.9.3/../../../../arm-none-eabi/lib/armv7e-m/fpu\libc.a(lib_a-__call_atexit.o)
                              c:/ac6/systemworkbench/plugins/fr.ac6.mcu.externaltools.arm-none.win32_1.3.0.201507241045/tools/compiler/bin/../lib/gcc/arm-none-eabi/4.9.3/../../../../arm-none-eabi/lib/armv7e-m/fpu\libc.a(lib_a-exit.o) (__call_exitprocs)
c:/ac6/systemworkbench/plugins/fr.ac6.mcu.externaltools.arm-none.win32_1.3.0.201507241045/tools/compiler/bin/../lib/gcc/arm-none-eabi/4.9.3/../../../../arm-none-eabi/lib/armv7e-m/fpu\libc.a(lib_a-atexit.o)
                              c:/ac6/systemworkbench/plugins/fr.ac6.mcu.externaltools.arm-none.win32_1.3.0.201507241045/tools/compiler/bin/../lib/gcc/arm-none-eabi/4.9.3/../../../../arm-none-eabi/lib/armv7e-m/fpu\libc.a(lib_a-__call_atexit.o) (atexit)
c:/ac6/systemworkbench/plugins/fr.ac6.mcu.externaltools.arm-none.win32_1.3.0.201507241045/tools/compiler/bin/../lib/gcc/arm-none-eabi/4.9.3/../../../../arm-none-eabi/lib/armv7e-m/fpu\libc.a(lib_a-dtoa.o)
                              c:/ac6/systemworkbench/plugins/fr.ac6.mcu.externaltools.arm-none.win32_1.3.0.201507241045/tools/compiler/bin/../lib/gcc/arm-none-eabi/4.9.3/../../../../arm-none-eabi/lib/armv7e-m/fpu\libc.a(lib_a-svfprintf.o) (_dtoa_r)
c:/ac6/systemworkbench/plugins/fr.ac6.mcu.externaltools.arm-none.win32_1.3.0.201507241045/tools/compiler/bin/../lib/gcc/arm-none-eabi/4.9.3/../../../../arm-none-eabi/lib/armv7e-m/fpu\libc.a(lib_a-fini.o)
                              c:/ac6/systemworkbench/plugins/fr.ac6.mcu.externaltools.arm-none.win32_1.3.0.201507241045/tools/compiler/bin/../lib/gcc/arm-none-eabi/4.9.3/../../../../arm-none-eabi/lib/armv7e-m/fpu\libc.a(lib_a-__call_atexit.o) (__libc_fini_array)
c:/ac6/systemworkbench/plugins/fr.ac6.mcu.externaltools.arm-none.win32_1.3.0.201507241045/tools/compiler/bin/../lib/gcc/arm-none-eabi/4.9.3/../../../../arm-none-eabi/lib/armv7e-m/fpu\libc.a(lib_a-freer.o)
                              c:/ac6/systemworkbench/plugins/fr.ac6.mcu.externaltools.arm-none.win32_1.3.0.201507241045/tools/compiler/bin/../lib/gcc/arm-none-eabi/4.9.3/../../../../arm-none-eabi/lib/armv7e-m/fpu\libc.a(lib_a-malloc.o) (_free_r)
c:/ac6/systemworkbench/plugins/fr.ac6.mcu.externaltools.arm-none.win32_1.3.0.201507241045/tools/compiler/bin/../lib/gcc/arm-none-eabi/4.9.3/../../../../arm-none-eabi/lib/armv7e-m/fpu\libc.a(lib_a-locale.o)
                              c:/ac6/systemworkbench/plugins/fr.ac6.mcu.externaltools.arm-none.win32_1.3.0.201507241045/tools/compiler/bin/../lib/gcc/arm-none-eabi/4.9.3/../../../../arm-none-eabi/lib/armv7e-m/fpu\libc.a(lib_a-svfprintf.o) (_localeconv_r)
c:/ac6/systemworkbench/plugins/fr.ac6.mcu.externaltools.arm-none.win32_1.3.0.201507241045/tools/compiler/bin/../lib/gcc/arm-none-eabi/4.9.3/../../../../arm-none-eabi/lib/armv7e-m/fpu\libc.a(lib_a-memchr.o)
                              c:/ac6/systemworkbench/plugins/fr.ac6.mcu.externaltools.arm-none.win32_1.3.0.201507241045/tools/compiler/bin/../lib/gcc/arm-none-eabi/4.9.3/../../../../arm-none-eabi/lib/armv7e-m/fpu\libc.a(lib_a-svfprintf.o) (memchr)
c:/ac6/systemworkbench/plugins/fr.ac6.mcu.externaltools.arm-none.win32_1.3.0.201507241045/tools/compiler/bin/../lib/gcc/arm-none-eabi/4.9.3/../../../../arm-none-eabi/lib/armv7e-m/fpu\libc.a(lib_a-mprec.o)
                              c:/ac6/systemworkbench/plugins/fr.ac6.mcu.externaltools.arm-none.win32_1.3.0.201507241045/tools/compiler/bin/../lib/gcc/arm-none-eabi/4.9.3/../../../../arm-none-eabi/lib/armv7e-m/fpu\libc.a(lib_a-dtoa.o) (_Balloc)
c:/ac6/systemworkbench/plugins/fr.ac6.mcu.externaltools.arm-none.win32_1.3.0.201507241045/tools/compiler/bin/../lib/gcc/arm-none-eabi/4.9.3/../../../../arm-none-eabi/lib/armv7e-m/fpu\libc.a(lib_a-reent.o)
                              c:/ac6/systemworkbench/plugins/fr.ac6.mcu.externaltools.arm-none.win32_1.3.0.201507241045/tools/compiler/bin/../lib/gcc/arm-none-eabi/4.9.3/../../../../arm-none-eabi/lib/armv7e-m/fpu\libc.a(lib_a-sbrkr.o) (errno)
c:/ac6/systemworkbench/plugins/fr.ac6.mcu.externaltools.arm-none.win32_1.3.0.201507241045/tools/compiler/bin/../lib/gcc/arm-none-eabi/4.9.3/../../../../arm-none-eabi/lib/armv7e-m/fpu\libc.a(lib_a-s_fpclassify.o)
                              c:/ac6/systemworkbench/plugins/fr.ac6.mcu.externaltools.arm-none.win32_1.3.0.201507241045/tools/compiler/bin/../lib/gcc/arm-none-eabi/4.9.3/../../../../arm-none-eabi/lib/armv7e-m/fpu\libc.a(lib_a-svfprintf.o) (__fpclassifyd)
c:/ac6/systemworkbench/plugins/fr.ac6.mcu.externaltools.arm-none.win32_1.3.0.201507241045/tools/compiler/bin/../lib/gcc/arm-none-eabi/4.9.3/../../../../arm-none-eabi/lib/armv7e-m/fpu\libc.a(lib_a-strcmp.o)
                              c:/ac6/systemworkbench/plugins/fr.ac6.mcu.externaltools.arm-none.win32_1.3.0.201507241045/tools/compiler/bin/../lib/gcc/arm-none-eabi/4.9.3/../../../../arm-none-eabi/lib/armv7e-m/fpu\libc.a(lib_a-locale.o) (strcmp)
c:/ac6/systemworkbench/plugins/fr.ac6.mcu.externaltools.arm-none.win32_1.3.0.201507241045/tools/compiler/bin/../lib/gcc/arm-none-eabi/4.9.3/../../../../arm-none-eabi/lib/armv7e-m/fpu\libc.a(lib_a-svfiprintf.o)
                              c:/ac6/systemworkbench/plugins/fr.ac6.mcu.externaltools.arm-none.win32_1.3.0.201507241045/tools/compiler/bin/../lib/gcc/arm-none-eabi/4.9.3/../../../../arm-none-eabi/lib/armv7e-m/fpu\libc.a(lib_a-svfprintf.o) (__ssprint_r)
c:/ac6/systemworkbench/plugins/fr.ac6.mcu.externaltools.arm-none.win32_1.3.0.201507241045/tools/compiler/bin/../lib/gcc/arm-none-eabi/4.9.3/../../../../arm-none-eabi/lib/armv7e-m/fpu\libc.a(lib_a-__atexit.o)
                              c:/ac6/systemworkbench/plugins/fr.ac6.mcu.externaltools.arm-none.win32_1.3.0.201507241045/tools/compiler/bin/../lib/gcc/arm-none-eabi/4.9.3/../../../../arm-none-eabi/lib/armv7e-m/fpu\libc.a(lib_a-atexit.o) (__register_exitproc)
c:/ac6/systemworkbench/plugins/fr.ac6.mcu.externaltools.arm-none.win32_1.3.0.201507241045/tools/compiler/bin/../lib/gcc/arm-none-eabi/4.9.3/../../../../arm-none-eabi/lib/armv7e-m/fpu\libc.a(lib_a-callocr.o)
                              c:/ac6/systemworkbench/plugins/fr.ac6.mcu.externaltools.arm-none.win32_1.3.0.201507241045/tools/compiler/bin/../lib/gcc/arm-none-eabi/4.9.3/../../../../arm-none-eabi/lib/armv7e-m/fpu\libc.a(lib_a-mprec.o) (_calloc_r)
c:/ac6/systemworkbench/plugins/fr.ac6.mcu.externaltools.arm-none.win32_1.3.0.201507241045/tools/compiler/bin/../lib/gcc/arm-none-eabi/4.9.3/../../../../arm-none-eabi/lib/armv7e-m/fpu\libc.a(lib_a-memmove.o)
                              c:/ac6/systemworkbench/plugins/fr.ac6.mcu.externaltools.arm-none.win32_1.3.0.201507241045/tools/compiler/bin/../lib/gcc/arm-none-eabi/4.9.3/../../../../arm-none-eabi/lib/armv7e-m/fpu\libc.a(lib_a-svfiprintf.o) (memmove)
c:/ac6/systemworkbench/plugins/fr.ac6.mcu.externaltools.arm-none.win32_1.3.0.201507241045/tools/compiler/bin/../lib/gcc/arm-none-eabi/4.9.3/../../../../arm-none-eabi/lib/armv7e-m/fpu\libc.a(lib_a-reallocr.o)
                              c:/ac6/systemworkbench/plugins/fr.ac6.mcu.externaltools.arm-none.win32_1.3.0.201507241045/tools/compiler/bin/../lib/gcc/arm-none-eabi/4.9.3/../../../../arm-none-eabi/lib/armv7e-m/fpu\libc.a(lib_a-svfiprintf.o) (_realloc_r)
c:/ac6/systemworkbench/plugins/fr.ac6.mcu.externaltools.arm-none.win32_1.3.0.201507241045/tools/compiler/bin/../lib/gcc/arm-none-eabi/4.9.3/armv7e-m/fpu\libgcc.a(_arm_muldivdf3.o)
                              c:/ac6/systemworkbench/plugins/fr.ac6.mcu.externaltools.arm-none.win32_1.3.0.201507241045/tools/compiler/bin/../lib/gcc/arm-none-eabi/4.9.3/../../../../arm-none-eabi/lib/armv7e-m/fpu\libc.a(lib_a-dtoa.o) (__aeabi_dmul)
c:/ac6/systemworkbench/plugins/fr.ac6.mcu.externaltools.arm-none.win32_1.3.0.201507241045/tools/compiler/bin/../lib/gcc/arm-none-eabi/4.9.3/armv7e-m/fpu\libgcc.a(_arm_fixdfsi.o)
                              c:/ac6/systemworkbench/plugins/fr.ac6.mcu.externaltools.arm-none.win32_1.3.0.201507241045/tools/compiler/bin/../lib/gcc/arm-none-eabi/4.9.3/../../../../arm-none-eabi/lib/armv7e-m/fpu\libc.a(lib_a-dtoa.o) (__aeabi_d2iz)
c:/ac6/systemworkbench/plugins/fr.ac6.mcu.externaltools.arm-none.win32_1.3.0.201507241045/tools/compiler/bin/../lib/gcc/arm-none-eabi/4.9.3/armv7e-m/fpu\libgcc.a(_aeabi_uldivmod.o)
                              c:/ac6/systemworkbench/plugins/fr.ac6.mcu.externaltools.arm-none.win32_1.3.0.201507241045/tools/compiler/bin/../lib/gcc/arm-none-eabi/4.9.3/../../../../arm-none-eabi/lib/armv7e-m/fpu\libc.a(lib_a-svfprintf.o) (__aeabi_uldivmod)
c:/ac6/systemworkbench/plugins/fr.ac6.mcu.externaltools.arm-none.win32_1.3.0.201507241045/tools/compiler/bin/../lib/gcc/arm-none-eabi/4.9.3/armv7e-m/fpu\libgcc.a(bpabi.o)
                              c:/ac6/systemworkbench/plugins/fr.ac6.mcu.externaltools.arm-none.win32_1.3.0.201507241045/tools/compiler/bin/../lib/gcc/arm-none-eabi/4.9.3/armv7e-m/fpu\libgcc.a(_aeabi_uldivmod.o) (__gnu_uldivmod_helper)
c:/ac6/systemworkbench/plugins/fr.ac6.mcu.externaltools.arm-none.win32_1.3.0.201507241045/tools/compiler/bin/../lib/gcc/arm-none-eabi/4.9.3/armv7e-m/fpu\libgcc.a(_dvmd_tls.o)
                              c:/ac6/systemworkbench/plugins/fr.ac6.mcu.externaltools.arm-none.win32_1.3.0.201507241045/tools/compiler/bin/../lib/gcc/arm-none-eabi/4.9.3/armv7e-m/fpu\libgcc.a(_aeabi_uldivmod.o) (__aeabi_ldiv0)
c:/ac6/systemworkbench/plugins/fr.ac6.mcu.externaltools.arm-none.win32_1.3.0.201507241045/tools/compiler/bin/../lib/gcc/arm-none-eabi/4.9.3/armv7e-m/fpu\libgcc.a(_divdi3.o)
                              c:/ac6/systemworkbench/plugins/fr.ac6.mcu.externaltools.arm-none.win32_1.3.0.201507241045/tools/compiler/bin/../lib/gcc/arm-none-eabi/4.9.3/armv7e-m/fpu\libgcc.a(bpabi.o) (__divdi3)
c:/ac6/systemworkbench/plugins/fr.ac6.mcu.externaltools.arm-none.win32_1.3.0.201507241045/tools/compiler/bin/../lib/gcc/arm-none-eabi/4.9.3/armv7e-m/fpu\libgcc.a(_udivdi3.o)
                              c:/ac6/systemworkbench/plugins/fr.ac6.mcu.externaltools.arm-none.win32_1.3.0.201507241045/tools/compiler/bin/../lib/gcc/arm-none-eabi/4.9.3/armv7e-m/fpu\libgcc.a(bpabi.o) (__udivdi3)

Allocating common symbols
Common symbol       size              file

LCD_CacheBuffer_yptr_bottom_bak
                    0x2               Utilities/Common/lcd_log.o
LCD_CacheBuffer_yptr_top_bak
                    0x2               Utilities/Common/lcd_log.o
netif_list          0x4               lwip_v1.3.2/src/core/netif.o
SDIO_CmdInitStructure
                    0x14              Utilities/STM3240_41_G_EVAL/stm324xg_eval_sdio_sd.o
sEEDMA_InitStructure
                    0x3c              Utilities/STM3240_41_G_EVAL/stm324xg_eval.o
RX_Frame_Descriptor
                    0xc               STM32F4x7_ETH_Driver/src/stm32f4x7_eth.o
tcp_active_pcbs     0x4               lwip_v1.3.2/src/core/tcp.o
udp_pcbs            0x4               lwip_v1.3.2/src/core/udp.o
errno               0x4               c:/ac6/systemworkbench/plugins/fr.ac6.mcu.externaltools.arm-none.win32_1.3.0.201507241045/tools/compiler/bin/../lib/gcc/arm-none-eabi/4.9.3/../../../../arm-none-eabi/lib/armv7e-m/fpu\libc.a(lib_a-reent.o)
current_netif       0x4               lwip_v1.3.2/src/core/ipv4/ip.o
tcp_ticks           0x4               lwip_v1.3.2/src/core/tcp.o
tcp_listen_pcbs     0x4               lwip_v1.3.2/src/core/tcp.o
ETH_InitStructure   0xbc              src/stm32f4x7_eth_bsp.o
DMARxDescToGet      0x4               STM32F4x7_ETH_Driver/src/stm32f4x7_eth.o
gnetif              0x38              src/netconf.o
LCD_CacheBuffer_yptr_bottom
                    0x2               Utilities/Common/lcd_log.o
LCD_CacheBuffer_xptr
                    0x2               Utilities/Common/lcd_log.o
DMATxDescToSet      0x4               STM32F4x7_ETH_Driver/src/stm32f4x7_eth.o
tcp_tmp_pcb         0x4               lwip_v1.3.2/src/core/tcp.o
SDCardInfo          0x58              Utilities/STM3240_41_G_EVAL/stm324xg_eval_sdio_sd.o
SDIO_InitStructure  0x18              Utilities/STM3240_41_G_EVAL/stm324xg_eval_sdio_sd.o
tcp_input_pcb       0x4               lwip_v1.3.2/src/core/tcp_in.o
LCD_CacheBuffer_yptr_invert
                    0x1               Utilities/Common/lcd_log.o
DMATxDscrTab        0x80              STM32F4x7_ETH_Driver/src/stm32f4x7_eth.o
SDIO_DataInitStructure
                    0x18              Utilities/STM3240_41_G_EVAL/stm324xg_eval_sdio_sd.o
current_header      0x4               lwip_v1.3.2/src/core/ipv4/ip.o
LCD_Lock            0x1               Utilities/Common/lcd_log.o
Rx_Buff             0x17d0            STM32F4x7_ETH_Driver/src/stm32f4x7_eth.o
g_frame_total_len   0x4               src/udp_echoclient.o
tcp_bound_pcbs      0x4               lwip_v1.3.2/src/core/tcp.o
LCD_Scrolled        0x1               Utilities/Common/lcd_log.o
Frame_Rx_index      0x4               STM32F4x7_ETH_Driver/src/stm32f4x7_eth.o
data                0x64              src/udp_echoclient.o
LCD_CacheBuffer_yptr_top
                    0x2               Utilities/Common/lcd_log.o
LCD_ScrollActive    0x1               Utilities/Common/lcd_log.o
LCD_CacheBuffer     0xc98             Utilities/Common/lcd_log.o
DMA_RX_FRAME_infos  0x4               STM32F4x7_ETH_Driver/src/stm32f4x7_eth.o
DMARxDscrTab        0x80              STM32F4x7_ETH_Driver/src/stm32f4x7_eth.o
g_cur_section       0x2               src/udp_echoclient.o
TS_State            0x8               Utilities/STM3240_41_G_EVAL/stm324xg_eval_ioe.o
g_recv_frame_count  0x4               src/udp_echoclient.o
tcp_tw_pcbs         0x4               lwip_v1.3.2/src/core/tcp.o
LCD_LineColor       0x2               Utilities/Common/lcd_log.o
netif_default       0x4               lwip_v1.3.2/src/core/netif.o
NVIC_InitStructure  0x4               Utilities/STM3240_41_G_EVAL/stm324xg_eval.o
m_client_state      0x1               src/udp_echoclient.o
g_total_section     0x2               src/udp_echoclient.o
timingdelay         0x4               src/main.o
Tx_Buff             0x17d0            STM32F4x7_ETH_Driver/src/stm32f4x7_eth.o
LCD_ScrollBackStep  0x2               Utilities/Common/lcd_log.o

Discarded input sections

 .text          0x00000000        0x0 c:/ac6/systemworkbench/plugins/fr.ac6.mcu.externaltools.arm-none.win32_1.3.0.201507241045/tools/compiler/bin/../lib/gcc/arm-none-eabi/4.9.3/armv7e-m/fpu/crti.o
 .data          0x00000000        0x0 c:/ac6/systemworkbench/plugins/fr.ac6.mcu.externaltools.arm-none.win32_1.3.0.201507241045/tools/compiler/bin/../lib/gcc/arm-none-eabi/4.9.3/armv7e-m/fpu/crti.o
 .bss           0x00000000        0x0 c:/ac6/systemworkbench/plugins/fr.ac6.mcu.externaltools.arm-none.win32_1.3.0.201507241045/tools/compiler/bin/../lib/gcc/arm-none-eabi/4.9.3/armv7e-m/fpu/crti.o
 .data          0x00000000        0x4 c:/ac6/systemworkbench/plugins/fr.ac6.mcu.externaltools.arm-none.win32_1.3.0.201507241045/tools/compiler/bin/../lib/gcc/arm-none-eabi/4.9.3/armv7e-m/fpu/crtbegin.o
 .text          0x00000000       0x74 c:/ac6/systemworkbench/plugins/fr.ac6.mcu.externaltools.arm-none.win32_1.3.0.201507241045/tools/compiler/bin/../lib/gcc/arm-none-eabi/4.9.3/../../../../arm-none-eabi/lib/armv7e-m/fpu/crt0.o
 .data          0x00000000        0x0 c:/ac6/systemworkbench/plugins/fr.ac6.mcu.externaltools.arm-none.win32_1.3.0.201507241045/tools/compiler/bin/../lib/gcc/arm-none-eabi/4.9.3/../../../../arm-none-eabi/lib/armv7e-m/fpu/crt0.o
 .bss           0x00000000        0x0 c:/ac6/systemworkbench/plugins/fr.ac6.mcu.externaltools.arm-none.win32_1.3.0.201507241045/tools/compiler/bin/../lib/gcc/arm-none-eabi/4.9.3/../../../../arm-none-eabi/lib/armv7e-m/fpu/crt0.o
 .ARM.extab     0x00000000        0x0 c:/ac6/systemworkbench/plugins/fr.ac6.mcu.externaltools.arm-none.win32_1.3.0.201507241045/tools/compiler/bin/../lib/gcc/arm-none-eabi/4.9.3/../../../../arm-none-eabi/lib/armv7e-m/fpu/crt0.o
 .ARM.exidx     0x00000000        0x8 c:/ac6/systemworkbench/plugins/fr.ac6.mcu.externaltools.arm-none.win32_1.3.0.201507241045/tools/compiler/bin/../lib/gcc/arm-none-eabi/4.9.3/../../../../arm-none-eabi/lib/armv7e-m/fpu/crt0.o
 .ARM.attributes
                0x00000000       0x20 c:/ac6/systemworkbench/plugins/fr.ac6.mcu.externaltools.arm-none.win32_1.3.0.201507241045/tools/compiler/bin/../lib/gcc/arm-none-eabi/4.9.3/../../../../arm-none-eabi/lib/armv7e-m/fpu/crt0.o
 .text          0x00000000       0x14 startup/startup_stm32f40xx.o
 .data          0x00000000        0x0 startup/startup_stm32f40xx.o
 .bss           0x00000000        0x0 startup/startup_stm32f40xx.o
 .text.Empty_serial_io_init
                0x00000000        0x2 startup/startup_stm32f40xx.o
 .group         0x00000000        0x8 src/main.o
 .group         0x00000000        0x8 src/main.o
Memory Configuration

Name             Origin             Length             Attributes
FLASH            0x08000000         0x00100000         xr
RAM              0x20000000         0x00020000         xrw
CCMRAM           0x10000000         0x00010000         xrw
MEMORY_B1        0x60000000         0x00000000         xr
ExtRAM           0x64080000         0x00200000         rw
*default*        0x00000000         0xffffffff

Linker script and memory map

LOAD c:/ac6/systemworkbench/plugins/fr.ac6.mcu.externaltools.arm-none.win32_1.3.0.201507241045/tools/compiler/bin/../lib/gcc/arm-none-eabi/4.9.3/armv7e-m/fpu/crti.o
LOAD c:/ac6/systemworkbench/plugins/fr.ac6.mcu.externaltools.arm-none.win32_1.3.0.201507241045/tools/compiler/bin/../lib/gcc/arm-none-eabi/4.9.3/armv7e-m/fpu/crtbegin.o
LOAD c:/ac6/systemworkbench/plugins/fr.ac6.mcu.externaltools.arm-none.win32_1.3.0.201507241045/tools/compiler/bin/../lib/gcc/arm-none-eabi/4.9.3/../../../../arm-none-eabi/lib/armv7e-m/fpu/crt0.o
LOAD c:/ac6/systemworkbench/plugins/fr.ac6.mcu.externaltools.arm-none.win32_1.3.0.201507241045/tools/compiler/bin/../lib/gcc/arm-none-eabi/4.9.3/../../../../arm-none-eabi/lib/armv7e-m/fpu\libm.a
LOAD startup/startup_stm32f40xx.o
LOAD src/main.o
LOAD src/netconf.o
LOAD src/serial_debug.o
LOAD src/serial_io.o
LOAD src/stm32f4x7_eth_bsp.o
LOAD src/stm32f4xx_it.o
LOAD src/syscalls.o
LOAD src/system_stm32f4xx.o
LOAD src/udp_echoclient.o
LOAD lwip_v1.3.2/src/netif/etharp.o
LOAD lwip_v1.3.2/src/netif/loopif.o
LOAD lwip_v1.3.2/src/netif/slipif.o
LOAD lwip_v1.3.2/src/netif/ppp/auth.o
LOAD lwip_v1.3.2/src/netif/ppp/chap.o
LOAD lwip_v1.3.2/src/netif/ppp/chpms.o
LOAD lwip_v1.3.2/src/netif/ppp/fsm.o
LOAD lwip_v1.3.2/src/netif/ppp/ipcp.o
LOAD lwip_v1.3.2/src/netif/ppp/lcp.o
LOAD lwip_v1.3.2/src/netif/ppp/magic.o
LOAD lwip_v1.3.2/src/netif/ppp/md5.o
LOAD lwip_v1.3.2/src/netif/ppp/pap.o
LOAD lwip_v1.3.2/src/netif/ppp/ppp.o
LOAD lwip_v1.3.2/src/netif/ppp/ppp_oe.o
LOAD lwip_v1.3.2/src/netif/ppp/randm.o
LOAD lwip_v1.3.2/src/netif/ppp/vj.o
LOAD lwip_v1.3.2/src/core/dhcp.o
LOAD lwip_v1.3.2/src/core/dns.o
LOAD lwip_v1.3.2/src/core/init.o
LOAD lwip_v1.3.2/src/core/mem.o
LOAD lwip_v1.3.2/src/core/memp.o
LOAD lwip_v1.3.2/src/core/netif.o
LOAD lwip_v1.3.2/src/core/pbuf.o
LOAD lwip_v1.3.2/src/core/raw.o
LOAD lwip_v1.3.2/src/core/stats.o
LOAD lwip_v1.3.2/src/core/sys.o
LOAD lwip_v1.3.2/src/core/tcp.o
LOAD lwip_v1.3.2/src/core/tcp_in.o
LOAD lwip_v1.3.2/src/core/tcp_out.o
LOAD lwip_v1.3.2/src/core/udp.o
LOAD lwip_v1.3.2/src/core/snmp/asn1_dec.o
LOAD lwip_v1.3.2/src/core/snmp/asn1_enc.o
LOAD lwip_v1.3.2/src/core/snmp/mib2.o
LOAD lwip_v1.3.2/src/core/snmp/mib_structs.o
LOAD lwip_v1.3.2/src/core/snmp/msg_in.o
LOAD lwip_v1.3.2/src/core/snmp/msg_out.o
LOAD lwip_v1.3.2/src/core/ipv4/autoip.o
LOAD lwip_v1.3.2/src/core/ipv4/icmp.o
LOAD lwip_v1.3.2/src/core/ipv4/igmp.o
LOAD lwip_v1.3.2/src/core/ipv4/inet.o
LOAD lwip_v1.3.2/src/core/ipv4/inet_chksum.o
LOAD lwip_v1.3.2/src/core/ipv4/ip.o
LOAD lwip_v1.3.2/src/core/ipv4/ip_addr.o
LOAD lwip_v1.3.2/src/core/ipv4/ip_frag.o
LOAD lwip_v1.3.2/src/api/api_lib.o
LOAD lwip_v1.3.2/src/api/api_msg.o
LOAD lwip_v1.3.2/src/api/err.o
LOAD lwip_v1.3.2/src/api/netbuf.o
LOAD lwip_v1.3.2/src/api/netdb.o
LOAD lwip_v1.3.2/src/api/netifapi.o
LOAD lwip_v1.3.2/src/api/sockets.o
LOAD lwip_v1.3.2/src/api/tcpip.o
LOAD lwip_v1.3.2/port/STM32/Standalone/ethernetif.o
LOAD Utilities/STM3240_41_G_EVAL/stm324xg_eval.o
LOAD Utilities/STM3240_41_G_EVAL/stm324xg_eval_fsmc_sram.o
LOAD Utilities/STM3240_41_G_EVAL/stm324xg_eval_ioe.o
LOAD Utilities/STM3240_41_G_EVAL/stm324xg_eval_lcd.o
LOAD Utilities/STM3240_41_G_EVAL/stm324xg_eval_sdio_sd.o
LOAD Utilities/Common/fonts.o
LOAD Utilities/Common/lcd_log.o
LOAD StdPeriph_Driver/src/stm32f4xx_adc.o
LOAD StdPeriph_Driver/src/stm32f4xx_can.o
LOAD StdPeriph_Driver/src/stm32f4xx_crc.o
LOAD StdPeriph_Driver/src/stm32f4xx_cryp.o
LOAD StdPeriph_Driver/src/stm32f4xx_cryp_aes.o
LOAD StdPeriph_Driver/src/stm32f4xx_cryp_des.o
LOAD StdPeriph_Driver/src/stm32f4xx_cryp_tdes.o
LOAD StdPeriph_Driver/src/stm32f4xx_dac.o
LOAD StdPeriph_Driver/src/stm32f4xx_dbgmcu.o
LOAD StdPeriph_Driver/src/stm32f4xx_dcmi.o
LOAD StdPeriph_Driver/src/stm32f4xx_dma.o
LOAD StdPeriph_Driver/src/stm32f4xx_exti.o
LOAD StdPeriph_Driver/src/stm32f4xx_flash.o
LOAD StdPeriph_Driver/src/stm32f4xx_fsmc.o
LOAD StdPeriph_Driver/src/stm32f4xx_gpio.o
LOAD StdPeriph_Driver/src/stm32f4xx_hash.o
LOAD StdPeriph_Driver/src/stm32f4xx_hash_md5.o
LOAD StdPeriph_Driver/src/stm32f4xx_hash_sha1.o
LOAD StdPeriph_Driver/src/stm32f4xx_i2c.o
LOAD StdPeriph_Driver/src/stm32f4xx_iwdg.o
LOAD StdPeriph_Driver/src/stm32f4xx_misc.o
LOAD StdPeriph_Driver/src/stm32f4xx_pwr.o
LOAD StdPeriph_Driver/src/stm32f4xx_rcc.o
LOAD StdPeriph_Driver/src/stm32f4xx_rng.o
LOAD StdPeriph_Driver/src/stm32f4xx_rtc.o
LOAD StdPeriph_Driver/src/stm32f4xx_sdio.o
LOAD StdPeriph_Driver/src/stm32f4xx_spi.o
LOAD StdPeriph_Driver/src/stm32f4xx_syscfg.o
LOAD StdPeriph_Driver/src/stm32f4xx_tim.o
LOAD StdPeriph_Driver/src/stm32f4xx_usart.o
LOAD StdPeriph_Driver/src/stm32f4xx_wwdg.o
LOAD STM32F4x7_ETH_Driver/src/stm32f4x7_eth.o
START GROUP
LOAD c:/ac6/systemworkbench/plugins/fr.ac6.mcu.externaltools.arm-none.win32_1.3.0.201507241045/tools/compiler/bin/../lib/gcc/arm-none-eabi/4.9.3/armv7e-m/fpu\libgcc.a
LOAD c:/ac6/systemworkbench/plugins/fr.ac6.mcu.externaltools.arm-none.win32_1.3.0.201507241045/tools/compiler/bin/../lib/gcc/arm-none-eabi/4.9.3/../../../../arm-none-eabi/lib/armv7e-m/fpu\libc.a
END GROUP
LOAD c:/ac6/systemworkbench/plugins/fr.ac6.mcu.externaltools.arm-none.win32_1.3.0.201507241045/tools/compiler/bin/../lib/gcc/arm-none-eabi/4.9.3/armv7e-m/fpu/crtend.o
LOAD c:/ac6/systemworkbench/plugins/fr.ac6.mcu.externaltools.arm-none.win32_1.3.0.201507241045/tools/compiler/bin/../lib/gcc/arm-none-eabi/4.9.3/armv7e-m/fpu/crtn.o
                0x20020000                _estack = 0x20020000
                0x00000000                _Min_Heap_Size = 0x0
                0x00000400                _Min_Stack_Size = 0x400

.isr_vector     0x08000000      0x188
                0x08000000                . = ALIGN (0x4)
 *(.isr_vector)
 .isr_vector    0x08000000      0x188 startup/startup_stm32f40xx.o
                0x08000000                g_pfnVectors
                0x08000188                . = ALIGN (0x4)

.text           0x08000188    0x12a98
                0x08000188                . = ALIGN (0x4)
 *(.text)
 .text          0x08000188       0x5c c:/ac6/systemworkbench/plugins/fr.ac6.mcu.externaltools.arm-none.win32_1.3.0.201507241045/tools/compiler/bin/../lib/gcc/arm-none-eabi/4.9.3/armv7e-m/fpu/crtbegin.o
 .text          0x080001e4      0x370 c:/ac6/systemworkbench/plugins/fr.ac6.mcu.externaltools.arm-none.win32_1.3.0.201507241045/tools/compiler/bin/../lib/gcc/arm-none-eabi/4.9.3/armv7e-m/fpu\libgcc.a(_arm_addsubdf3.o)
                0x080001e4                __aeabi_drsub
                0x080001ec                __aeabi_dsub
                0x080001ec                __subdf3
                0x080001f0                __aeabi_dadd
                0x080001f0                __adddf3
                0x08000468                __floatunsidf
                0x08000468                __aeabi_ui2d
                0x08000488                __floatsidf
                0x08000488                __aeabi_i2d
                0x080004ac                __aeabi_f2d
                0x080004ac                __extendsfdf2
                0x080004e8                __floatundidf
                0x080004e8                __aeabi_ul2d
                0x080004f8                __floatdidf
                0x080004f8                __aeabi_l2d
 .text          0x08000554      0x110 c:/ac6/systemworkbench/plugins/fr.ac6.mcu.externaltools.arm-none.win32_1.3.0.201507241045/tools/compiler/bin/../lib/gcc/arm-none-eabi/4.9.3/armv7e-m/fpu\libgcc.a(_arm_cmpdf2.o)
                0x08000554                __gtdf2
                0x08000554                __gedf2
                0x0800055c                __ltdf2
                0x0800055c                __ledf2
                0x08000564                __nedf2
                0x08000564                __eqdf2
                0x08000564                __cmpdf2
                0x080005e0                __aeabi_cdrcmple
                0x080005f0                __aeabi_cdcmpeq
                0x080005f0                __aeabi_cdcmple
                0x08000600                __aeabi_dcmpeq
                0x08000614                __aeabi_dcmplt
                0x08000628                __aeabi_dcmple
                0x0800063c                __aeabi_dcmpge
                0x08000650                __aeabi_dcmpgt
 .text          0x08000664      0x134 c:/ac6/systemworkbench/plugins/fr.ac6.mcu.externaltools.arm-none.win32_1.3.0.201507241045/tools/compiler/bin/../lib/gcc/arm-none-eabi/4.9.3/../../../../arm-none-eabi/lib/armv7e-m/fpu\libc.a(lib_a-memcpy.o)
                0x08000664                memcpy
 .text          0x08000798      0x424 c:/ac6/systemworkbench/plugins/fr.ac6.mcu.externaltools.arm-none.win32_1.3.0.201507241045/tools/compiler/bin/../lib/gcc/arm-none-eabi/4.9.3/armv7e-m/fpu\libgcc.a(_arm_muldivdf3.o)
                0x08000798                __aeabi_dmul
                0x08000798                __muldf3
                0x080009ec                __divdf3
                0x080009ec                __aeabi_ddiv
 .text          0x08000bbc       0x50 c:/ac6/systemworkbench/plugins/fr.ac6.mcu.externaltools.arm-none.win32_1.3.0.201507241045/tools/compiler/bin/../lib/gcc/arm-none-eabi/4.9.3/armv7e-m/fpu\libgcc.a(_arm_fixdfsi.o)
                0x08000bbc                __aeabi_d2iz
                0x08000bbc                __fixdfsi
 .text          0x08000c0c       0x30 c:/ac6/systemworkbench/plugins/fr.ac6.mcu.externaltools.arm-none.win32_1.3.0.201507241045/tools/compiler/bin/../lib/gcc/arm-none-eabi/4.9.3/armv7e-m/fpu\libgcc.a(_aeabi_uldivmod.o)
                0x08000c0c                __aeabi_uldivmod
 .text          0x08000c3c       0x60 c:/ac6/systemworkbench/plugins/fr.ac6.mcu.externaltools.arm-none.win32_1.3.0.201507241045/tools/compiler/bin/../lib/gcc/arm-none-eabi/4.9.3/armv7e-m/fpu\libgcc.a(bpabi.o)
                0x08000c3c                __gnu_ldivmod_helper
                0x08000c6c                __gnu_uldivmod_helper
 .text          0x08000c9c        0x4 c:/ac6/systemworkbench/plugins/fr.ac6.mcu.externaltools.arm-none.win32_1.3.0.201507241045/tools/compiler/bin/../lib/gcc/arm-none-eabi/4.9.3/armv7e-m/fpu\libgcc.a(_dvmd_tls.o)
                0x08000c9c                __aeabi_idiv0
                0x08000c9c                __aeabi_ldiv0
 .text          0x08000ca0      0x29c c:/ac6/systemworkbench/plugins/fr.ac6.mcu.externaltools.arm-none.win32_1.3.0.201507241045/tools/compiler/bin/../lib/gcc/arm-none-eabi/4.9.3/armv7e-m/fpu\libgcc.a(_divdi3.o)
                0x08000ca0                __divdi3
 .text          0x08000f3c      0x26c c:/ac6/systemworkbench/plugins/fr.ac6.mcu.externaltools.arm-none.win32_1.3.0.201507241045/tools/compiler/bin/../lib/gcc/arm-none-eabi/4.9.3/armv7e-m/fpu\libgcc.a(_udivdi3.o)
                0x08000f3c                __udivdi3
 *(.text*)
 .text.Reset_Handler
                0x080011a8       0x4c startup/startup_stm32f40xx.o
                0x080011a8                Reset_Handler
 .text.Default_Handler
                0x080011f4        0x2 startup/startup_stm32f40xx.o
                0x080011f4                RTC_Alarm_IRQHandler
                0x080011f4                HASH_RNG_IRQHandler
                0x080011f4                EXTI2_IRQHandler
                0x080011f4                TIM8_CC_IRQHandler
                0x080011f4                TIM1_CC_IRQHandler
                0x080011f4                DMA2_Stream5_IRQHandler
                0x080011f4                DMA1_Stream5_IRQHandler
                0x080011f4                PVD_IRQHandler
                0x080011f4                SDIO_IRQHandler
                0x080011f4                TAMP_STAMP_IRQHandler
                0x080011f4                PendSV_Handler
                0x080011f4                CAN2_RX1_IRQHandler
                0x080011f4                EXTI3_IRQHandler
                0x080011f4                TIM8_TRG_COM_TIM14_IRQHandler
                0x080011f4                TIM1_UP_TIM10_IRQHandler
                0x080011f4                TIM8_UP_TIM13_IRQHandler
                0x080011f4                I2C3_ER_IRQHandler
                0x080011f4                EXTI0_IRQHandler
                0x080011f4                I2C2_EV_IRQHandler
                0x080011f4                DMA1_Stream2_IRQHandler
                0x080011f4                CAN1_RX0_IRQHandler
                0x080011f4                FPU_IRQHandler
                0x080011f4                OTG_HS_WKUP_IRQHandler
                0x080011f4                CAN2_SCE_IRQHandler
                0x080011f4                DMA2_Stream2_IRQHandler
                0x080011f4                SPI1_IRQHandler
                0x080011f4                TIM6_DAC_IRQHandler
                0x080011f4                TIM1_BRK_TIM9_IRQHandler
                0x080011f4                DCMI_IRQHandler
                0x080011f4                CAN2_RX0_IRQHandler
                0x080011f4                DMA2_Stream3_IRQHandler
                0x080011f4                USART6_IRQHandler
                0x080011f4                USART3_IRQHandler
                0x080011f4                CRYP_IRQHandler
                0x080011f4                CAN1_RX1_IRQHandler
                0x080011f4                UART5_IRQHandler
                0x080011f4                DMA2_Stream0_IRQHandler
                0x080011f4                TIM4_IRQHandler
                0x080011f4                I2C1_EV_IRQHandler
                0x080011f4                DMA1_Stream6_IRQHandler
                0x080011f4                DMA1_Stream1_IRQHandler
                0x080011f4                UART4_IRQHandler
                0x080011f4                TIM3_IRQHandler
                0x080011f4                RCC_IRQHandler
                0x080011f4                TIM8_BRK_TIM12_IRQHandler
                0x080011f4                Default_Handler
                0x080011f4                ADC_IRQHandler
                0x080011f4                DMA1_Stream7_IRQHandler
                0x080011f4                TIM7_IRQHandler
                0x080011f4                CAN2_TX_IRQHandler
                0x080011f4                TIM5_IRQHandler
                0x080011f4                DMA2_Stream7_IRQHandler
                0x080011f4                I2C3_EV_IRQHandler
                0x080011f4                EXTI9_5_IRQHandler
                0x080011f4                RTC_WKUP_IRQHandler
                0x080011f4                ETH_WKUP_IRQHandler
                0x080011f4                SPI2_IRQHandler
                0x080011f4                OTG_HS_EP1_IN_IRQHandler
                0x080011f4                DMA1_Stream0_IRQHandler
                0x080011f4                CAN1_TX_IRQHandler
                0x080011f4                SVC_Handler
                0x080011f4                EXTI4_IRQHandler
                0x080011f4                FSMC_IRQHandler
                0x080011f4                ETH_IRQHandler
                0x080011f4                OTG_HS_EP1_OUT_IRQHandler
                0x080011f4                WWDG_IRQHandler
                0x080011f4                TIM2_IRQHandler
                0x080011f4                OTG_FS_WKUP_IRQHandler
                0x080011f4                TIM1_TRG_COM_TIM11_IRQHandler
                0x080011f4                OTG_HS_IRQHandler
                0x080011f4                EXTI1_IRQHandler
                0x080011f4                USART2_IRQHandler
                0x080011f4                I2C2_ER_IRQHandler
                0x080011f4                DMA2_Stream1_IRQHandler
                0x080011f4                CAN1_SCE_IRQHandler
                0x080011f4                FLASH_IRQHandler
                0x080011f4                DMA2_Stream4_IRQHandler
                0x080011f4                USART1_IRQHandler
                0x080011f4                OTG_FS_IRQHandler
                0x080011f4                SPI3_IRQHandler
                0x080011f4                DMA1_Stream4_IRQHandler
                0x080011f4                I2C1_ER_IRQHandler
                0x080011f4                DMA2_Stream6_IRQHandler
                0x080011f4                DMA1_Stream3_IRQHandler
 *fill*         0x080011f6        0x2 
 .text.main     0x080011f8       0x68 src/main.o
                0x080011f8                main
 .text.Delay    0x08001260       0x34 src/main.o
                0x08001260                Delay
 .text.Time_Update
                0x08001294       0x1c src/main.o
                0x08001294                Time_Update
 .text.LCD_LED_BUTTON_Init
                0x080012b0       0xb0 src/main.o
                0x080012b0                LCD_LED_BUTTON_Init
 .text.LwIP_Init
                0x08001360      0x15c src/netconf.o
                0x08001360                LwIP_Init
 .text.LwIP_Pkt_Handle
                0x080014bc       0x10 src/netconf.o
                0x080014bc                LwIP_Pkt_Handle
 .text.LwIP_Periodic_Handle
                0x080014cc       0x48 src/netconf.o
                0x080014cc                LwIP_Periodic_Handle
 .text.DebugComPort_Init
                0x08001514       0x30 src/serial_debug.o
                0x08001514                DebugComPort_Init
 .text.__io_putchar
                0x08001544       0x34 src/serial_debug.o
                0x08001544                __io_putchar
 .text.Serial_PutString
                0x08001578       0x28 src/serial_debug.o
                0x08001578                Serial_PutString
 .text.printf2  0x080015a0       0x50 src/serial_debug.o
                0x080015a0                printf2
 .text.__serial_io_init
                0x080015f0       0x30 src/serial_io.o
                0x080015f0                __serial_io_init
 .text.NVIC_SetPriority
                0x08001620       0x54 src/stm32f4x7_eth_bsp.o
 .text.SysTick_Config
                0x08001674       0x44 src/stm32f4x7_eth_bsp.o
 .text.ETH_BSP_Config
                0x080016b8       0x6c src/stm32f4x7_eth_bsp.o
                0x080016b8                ETH_BSP_Config
 .text.ETH_MACDMA_Config
                0x08001724       0xe8 src/stm32f4x7_eth_bsp.o
 .text.ETH_GPIO_Config
                0x0800180c      0x178 src/stm32f4x7_eth_bsp.o
 .text.Eth_Link_PHYITConfig
                0x08001984       0x74 src/stm32f4x7_eth_bsp.o
                0x08001984                Eth_Link_PHYITConfig
 .text.Eth_Link_EXTIConfig
                0x080019f8       0x74 src/stm32f4x7_eth_bsp.o
                0x080019f8                Eth_Link_EXTIConfig
 .text.Eth_Link_ITHandler
                0x08001a6c       0x54 src/stm32f4x7_eth_bsp.o
                0x08001a6c                Eth_Link_ITHandler
 .text.ETH_link_callback
                0x08001ac0      0x2e0 src/stm32f4x7_eth_bsp.o
                0x08001ac0                ETH_link_callback
 .text.NMI_Handler
                0x08001da0        0xc src/stm32f4xx_it.o
                0x08001da0                NMI_Handler
 .text.HardFault_Handler
                0x08001dac        0x8 src/stm32f4xx_it.o
                0x08001dac                HardFault_Handler
 .text.MemManage_Handler
                0x08001db4        0x8 src/stm32f4xx_it.o
                0x08001db4                MemManage_Handler
 .text.BusFault_Handler
                0x08001dbc        0x8 src/stm32f4xx_it.o
                0x08001dbc                BusFault_Handler
 .text.UsageFault_Handler
                0x08001dc4        0x8 src/stm32f4xx_it.o
                0x08001dc4                UsageFault_Handler
 .text.DebugMon_Handler
                0x08001dcc        0xc src/stm32f4xx_it.o
                0x08001dcc                DebugMon_Handler
 .text.SysTick_Handler
                0x08001dd8        0xc src/stm32f4xx_it.o
                0x08001dd8                SysTick_Handler
 .text.EXTI15_10_IRQHandler
                0x08001de4       0x4c src/stm32f4xx_it.o
                0x08001de4                EXTI15_10_IRQHandler
 .text._sbrk    0x08001e30       0x58 src/syscalls.o
                0x08001e30                _sbrk
 .text.SystemInit
                0x08001e88       0x68 src/system_stm32f4xx.o
                0x08001e88                SystemInit
 .text.SetSysClock
                0x08001ef0      0x110 src/system_stm32f4xx.o
 .text.udp_echoclient_connect
                0x08002000      0x118 src/udp_echoclient.o
                0x08002000                udp_echoclient_connect
 .text.udp_receive_callback
                0x08002118      0x18c src/udp_echoclient.o
                0x08002118                udp_receive_callback
 .text.process_udp_data
                0x080022a4      0x1dc src/udp_echoclient.o
                0x080022a4                process_udp_data
 .text.Init_image_recv_process
                0x08002480       0x60 src/udp_echoclient.o
                0x08002480                Init_image_recv_process
 .text.set_status
                0x080024e0       0x34 src/udp_echoclient.o
                0x080024e0                set_status
 .text.Write_Raw_Data_To_LCD
                0x08002514       0x70 src/udp_echoclient.o
                0x08002514                Write_Raw_Data_To_LCD
 .text.print_status
                0x08002584       0x40 src/udp_echoclient.o
                0x08002584                print_status
 .text.Demo_LCD_Clear
                0x080025c4       0x38 src/udp_echoclient.o
                0x080025c4                Demo_LCD_Clear
 .text.free_etharp_q
                0x080025fc       0x34 lwip_v1.3.2/src/netif/etharp.o
 .text.etharp_tmr
                0x08002630       0xfc lwip_v1.3.2/src/netif/etharp.o
                0x08002630                etharp_tmr
 .text.find_entry
                0x0800272c      0x2cc lwip_v1.3.2/src/netif/etharp.o
 .text.etharp_send_ip
                0x080029f8       0x68 lwip_v1.3.2/src/netif/etharp.o
 .text.update_arp_entry
                0x08002a60      0x150 lwip_v1.3.2/src/netif/etharp.o
 .text.etharp_ip_input
                0x08002bb0       0x50 lwip_v1.3.2/src/netif/etharp.o
                0x08002bb0                etharp_ip_input
 .text.etharp_arp_input
                0x08002c00      0x1d4 lwip_v1.3.2/src/netif/etharp.o
                0x08002c00                etharp_arp_input
 .text.etharp_output
                0x08002dd4       0xf8 lwip_v1.3.2/src/netif/etharp.o
                0x08002dd4                etharp_output
 .text.etharp_query
                0x08002ecc      0x24c lwip_v1.3.2/src/netif/etharp.o
                0x08002ecc                etharp_query
 .text.etharp_raw
                0x08003118      0x108 lwip_v1.3.2/src/netif/etharp.o
 .text.etharp_request
                0x08003220       0x48 lwip_v1.3.2/src/netif/etharp.o
                0x08003220                etharp_request
 .text.ethernet_input
                0x08003268       0x88 lwip_v1.3.2/src/netif/etharp.o
                0x08003268                ethernet_input
 .text.dhcp_network_changed
                0x080032f0       0x80 lwip_v1.3.2/src/core/dhcp.o
                0x080032f0                dhcp_network_changed
 .text.dhcp_arp_reply
                0x08003370       0x40 lwip_v1.3.2/src/core/dhcp.o
                0x08003370                dhcp_arp_reply
 .text.dhcp_decline
                0x080033b0       0xd4 lwip_v1.3.2/src/core/dhcp.o
 .text.dhcp_discover
                0x08003484      0x118 lwip_v1.3.2/src/core/dhcp.o
 .text.dhcp_reboot
                0x0800359c      0x100 lwip_v1.3.2/src/core/dhcp.o
 .text.dhcp_set_state
                0x0800369c       0x2c lwip_v1.3.2/src/core/dhcp.o
 .text.dhcp_option
                0x080036c8       0x4c lwip_v1.3.2/src/core/dhcp.o
 .text.dhcp_option_byte
                0x08003714       0x30 lwip_v1.3.2/src/core/dhcp.o
 .text.dhcp_option_short
                0x08003744       0x54 lwip_v1.3.2/src/core/dhcp.o
 .text.dhcp_option_long
                0x08003798       0x98 lwip_v1.3.2/src/core/dhcp.o
 .text.dhcp_create_request
                0x08003830      0x1e8 lwip_v1.3.2/src/core/dhcp.o
 .text.dhcp_delete_request
                0x08003a18       0x44 lwip_v1.3.2/src/core/dhcp.o
 .text.dhcp_option_trailer
                0x08003a5c       0x60 lwip_v1.3.2/src/core/dhcp.o
 .text.plug_holes
                0x08003abc       0xbc lwip_v1.3.2/src/core/mem.o
 .text.mem_init
                0x08003b78       0x84 lwip_v1.3.2/src/core/mem.o
                0x08003b78                mem_init
 .text.mem_free
                0x08003bfc       0x64 lwip_v1.3.2/src/core/mem.o
                0x08003bfc                mem_free
 .text.mem_realloc
                0x08003c60      0x17c lwip_v1.3.2/src/core/mem.o
                0x08003c60                mem_realloc
 .text.mem_malloc
                0x08003ddc      0x14c lwip_v1.3.2/src/core/mem.o
                0x08003ddc                mem_malloc
 .text.memp_init
                0x08003f28       0x98 lwip_v1.3.2/src/core/memp.o
                0x08003f28                memp_init
 .text.memp_malloc
                0x08003fc0       0x44 lwip_v1.3.2/src/core/memp.o
                0x08003fc0                memp_malloc
 .text.memp_free
                0x08004004       0x3c lwip_v1.3.2/src/core/memp.o
                0x08004004                memp_free
 .text.netif_add
                0x08004040       0x90 lwip_v1.3.2/src/core/netif.o
                0x08004040                netif_add
 .text.netif_set_addr
                0x080040d0       0x2c lwip_v1.3.2/src/core/netif.o
                0x080040d0                netif_set_addr
 .text.netif_set_ipaddr
                0x080040fc       0xac lwip_v1.3.2/src/core/netif.o
                0x080040fc                netif_set_ipaddr
 .text.netif_set_gw
                0x080041a8       0x28 lwip_v1.3.2/src/core/netif.o
                0x080041a8                netif_set_gw
 .text.netif_set_netmask
                0x080041d0       0x28 lwip_v1.3.2/src/core/netif.o
                0x080041d0                netif_set_netmask
 .text.netif_set_default
                0x080041f8       0x1c lwip_v1.3.2/src/core/netif.o
                0x080041f8                netif_set_default
 .text.netif_set_up
                0x08004214       0x58 lwip_v1.3.2/src/core/netif.o
                0x08004214                netif_set_up
 .text.netif_set_down
                0x0800426c       0x40 lwip_v1.3.2/src/core/netif.o
                0x0800426c                netif_set_down
 .text.netif_is_up
                0x080042ac       0x28 lwip_v1.3.2/src/core/netif.o
                0x080042ac                netif_is_up
 .text.netif_set_link_up
                0x080042d4       0x68 lwip_v1.3.2/src/core/netif.o
                0x080042d4                netif_set_link_up
 .text.netif_set_link_down
                0x0800433c       0x30 lwip_v1.3.2/src/core/netif.o
                0x0800433c                netif_set_link_down
 .text.netif_is_link_up
                0x0800436c       0x28 lwip_v1.3.2/src/core/netif.o
                0x0800436c                netif_is_link_up
 .text.netif_set_link_callback
                0x08004394       0x20 lwip_v1.3.2/src/core/netif.o
                0x08004394                netif_set_link_callback
 .text.pbuf_alloc
                0x080043b4      0x1f4 lwip_v1.3.2/src/core/pbuf.o
                0x080043b4                pbuf_alloc
 .text.pbuf_realloc
                0x080045a8       0xc8 lwip_v1.3.2/src/core/pbuf.o
                0x080045a8                pbuf_realloc
 .text.pbuf_header
                0x08004670       0xe0 lwip_v1.3.2/src/core/pbuf.o
                0x08004670                pbuf_header
 .text.pbuf_free
                0x08004750       0xa0 lwip_v1.3.2/src/core/pbuf.o
                0x08004750                pbuf_free
 .text.pbuf_clen
                0x080047f0       0x30 lwip_v1.3.2/src/core/pbuf.o
                0x080047f0                pbuf_clen
 .text.pbuf_ref
                0x08004820       0x24 lwip_v1.3.2/src/core/pbuf.o
                0x08004820                pbuf_ref
 .text.pbuf_cat
                0x08004844       0x5c lwip_v1.3.2/src/core/pbuf.o
                0x08004844                pbuf_cat
 .text.pbuf_chain
                0x080048a0       0x20 lwip_v1.3.2/src/core/pbuf.o
                0x080048a0                pbuf_chain
 .text.pbuf_copy
                0x080048c0      0x100 lwip_v1.3.2/src/core/pbuf.o
                0x080048c0                pbuf_copy
 .text.pbuf_copy_partial
                0x080049c0       0xcc lwip_v1.3.2/src/core/pbuf.o
                0x080049c0                pbuf_copy_partial
 .text.pbuf_take
                0x08004a8c       0x9c lwip_v1.3.2/src/core/pbuf.o
                0x08004a8c                pbuf_take
 .text.raw_input
                0x08004b28       0xac lwip_v1.3.2/src/core/raw.o
                0x08004b28                raw_input
 .text.tcp_tmr  0x08004bd4       0x2c lwip_v1.3.2/src/core/tcp.o
                0x08004bd4                tcp_tmr
 .text.tcp_close
                0x08004c00      0x164 lwip_v1.3.2/src/core/tcp.o
                0x08004c00                tcp_close
 .text.tcp_abandon
                0x08004d64       0xe0 lwip_v1.3.2/src/core/tcp.o
                0x08004d64                tcp_abandon
 .text.tcp_update_rcv_ann_wnd
                0x08004e44       0x84 lwip_v1.3.2/src/core/tcp.o
                0x08004e44                tcp_update_rcv_ann_wnd
 .text.tcp_recved
                0x08004ec8       0x60 lwip_v1.3.2/src/core/tcp.o
                0x08004ec8                tcp_recved
 .text.tcp_slowtmr
                0x08004f28      0x3cc lwip_v1.3.2/src/core/tcp.o
                0x08004f28                tcp_slowtmr
 .text.tcp_fasttmr
                0x080052f4       0xb0 lwip_v1.3.2/src/core/tcp.o
                0x080052f4                tcp_fasttmr
 .text.tcp_segs_free
                0x080053a4       0x38 lwip_v1.3.2/src/core/tcp.o
                0x080053a4                tcp_segs_free
 .text.tcp_seg_free
                0x080053dc       0x3c lwip_v1.3.2/src/core/tcp.o
                0x080053dc                tcp_seg_free
 .text.tcp_recv_null
                0x08005418       0x48 lwip_v1.3.2/src/core/tcp.o
                0x08005418                tcp_recv_null
 .text.tcp_kill_prio
                0x08005460       0x80 lwip_v1.3.2/src/core/tcp.o
 .text.tcp_kill_timewait
                0x080054e0       0x60 lwip_v1.3.2/src/core/tcp.o
 .text.tcp_alloc
                0x08005540      0x10c lwip_v1.3.2/src/core/tcp.o
                0x08005540                tcp_alloc
 .text.tcp_pcb_purge
                0x0800564c       0x60 lwip_v1.3.2/src/core/tcp.o
                0x0800564c                tcp_pcb_purge
 .text.tcp_pcb_remove
                0x080056ac       0xac lwip_v1.3.2/src/core/tcp.o
                0x080056ac                tcp_pcb_remove
 .text.tcp_next_iss
                0x08005758       0x28 lwip_v1.3.2/src/core/tcp.o
                0x08005758                tcp_next_iss
 .text.tcp_eff_send_mss
                0x08005780       0x40 lwip_v1.3.2/src/core/tcp.o
                0x08005780                tcp_eff_send_mss
 .text.tcp_input
                0x080057c0      0x5d0 lwip_v1.3.2/src/core/tcp_in.o
                0x080057c0                tcp_input
 .text.tcp_listen_input
                0x08005d90      0x1a4 lwip_v1.3.2/src/core/tcp_in.o
 .text.tcp_timewait_input
                0x08005f34       0xe8 lwip_v1.3.2/src/core/tcp_in.o
 .text.tcp_process
                0x0800601c      0x6cc lwip_v1.3.2/src/core/tcp_in.o
 .text.tcp_receive
                0x080066e8      0x8c4 lwip_v1.3.2/src/core/tcp_in.o
 .text.tcp_parseopt
                0x08006fac      0x104 lwip_v1.3.2/src/core/tcp_in.o
 .text.tcp_output_set_header
                0x080070b0       0xec lwip_v1.3.2/src/core/tcp_out.o
 .text.tcp_send_ctrl
                0x0800719c       0x2c lwip_v1.3.2/src/core/tcp_out.o
                0x0800719c                tcp_send_ctrl
 .text.tcp_enqueue
                0x080071c8      0x5b4 lwip_v1.3.2/src/core/tcp_out.o
                0x080071c8                tcp_enqueue
 .text.tcp_send_empty_ack
                0x0800777c       0x6c lwip_v1.3.2/src/core/tcp_out.o
                0x0800777c                tcp_send_empty_ack
 .text.tcp_output
                0x080077e8      0x2d4 lwip_v1.3.2/src/core/tcp_out.o
                0x080077e8                tcp_output
 .text.tcp_output_segment
                0x08007abc      0x144 lwip_v1.3.2/src/core/tcp_out.o
 .text.tcp_rst  0x08007c00       0xf0 lwip_v1.3.2/src/core/tcp_out.o
                0x08007c00                tcp_rst
 .text.tcp_rexmit_rto
                0x08007cf0       0x60 lwip_v1.3.2/src/core/tcp_out.o
                0x08007cf0                tcp_rexmit_rto
 .text.tcp_rexmit
                0x08007d50       0x84 lwip_v1.3.2/src/core/tcp_out.o
                0x08007d50                tcp_rexmit
 .text.tcp_rexmit_fast
                0x08007dd4       0xac lwip_v1.3.2/src/core/tcp_out.o
                0x08007dd4                tcp_rexmit_fast
 .text.tcp_keepalive
                0x08007e80       0x44 lwip_v1.3.2/src/core/tcp_out.o
                0x08007e80                tcp_keepalive
 .text.tcp_zero_window_probe
                0x08007ec4       0xe0 lwip_v1.3.2/src/core/tcp_out.o
                0x08007ec4                tcp_zero_window_probe
 .text.udp_input
                0x08007fa4      0x290 lwip_v1.3.2/src/core/udp.o
                0x08007fa4                udp_input
 .text.udp_send
                0x08008234       0x24 lwip_v1.3.2/src/core/udp.o
                0x08008234                udp_send
 .text.udp_sendto
                0x08008258       0x40 lwip_v1.3.2/src/core/udp.o
                0x08008258                udp_sendto
 .text.udp_sendto_if
                0x08008298      0x128 lwip_v1.3.2/src/core/udp.o
                0x08008298                udp_sendto_if
 .text.udp_bind
                0x080083c0       0xc0 lwip_v1.3.2/src/core/udp.o
                0x080083c0                udp_bind
 .text.udp_connect
                0x08008480       0x9c lwip_v1.3.2/src/core/udp.o
                0x08008480                udp_connect
 .text.udp_recv
                0x0800851c       0x24 lwip_v1.3.2/src/core/udp.o
                0x0800851c                udp_recv
 .text.udp_remove
                0x08008540       0x60 lwip_v1.3.2/src/core/udp.o
                0x08008540                udp_remove
 .text.udp_new  0x080085a0       0x30 lwip_v1.3.2/src/core/udp.o
                0x080085a0                udp_new
 .text.icmp_input
                0x080085d0      0x200 lwip_v1.3.2/src/core/ipv4/icmp.o
                0x080085d0                icmp_input
 .text.icmp_dest_unreach
                0x080087d0       0x20 lwip_v1.3.2/src/core/ipv4/icmp.o
                0x080087d0                icmp_dest_unreach
 .text.icmp_time_exceeded
                0x080087f0       0x20 lwip_v1.3.2/src/core/ipv4/icmp.o
                0x080087f0                icmp_time_exceeded
 .text.icmp_send_response
                0x08008810       0xa8 lwip_v1.3.2/src/core/ipv4/icmp.o
 .text.htons    0x080088b8       0x2c lwip_v1.3.2/src/core/ipv4/inet.o
                0x080088b8                htons
 .text.ntohs    0x080088e4       0x1c lwip_v1.3.2/src/core/ipv4/inet.o
                0x080088e4                ntohs
 .text.htonl    0x08008900       0x34 lwip_v1.3.2/src/core/ipv4/inet.o
                0x08008900                htonl
 .text.ntohl    0x08008934       0x18 lwip_v1.3.2/src/core/ipv4/inet.o
                0x08008934                ntohl
 .text.lwip_standard_chksum
                0x0800894c       0x9c lwip_v1.3.2/src/core/ipv4/inet_chksum.o
 .text.inet_chksum
                0x080089e8       0x24 lwip_v1.3.2/src/core/ipv4/inet_chksum.o
                0x080089e8                inet_chksum
 .text.inet_chksum_pbuf
                0x08008a0c       0x98 lwip_v1.3.2/src/core/ipv4/inet_chksum.o
                0x08008a0c                inet_chksum_pbuf
 .text.ip_route
                0x08008aa4       0x70 lwip_v1.3.2/src/core/ipv4/ip.o
                0x08008aa4                ip_route
 .text.ip_input
                0x08008b14      0x278 lwip_v1.3.2/src/core/ipv4/ip.o
                0x08008b14                ip_input
 .text.ip_output_if
                0x08008d8c      0x194 lwip_v1.3.2/src/core/ipv4/ip.o
                0x08008d8c                ip_output_if
 .text.ip_output
                0x08008f20       0x4c lwip_v1.3.2/src/core/ipv4/ip.o
                0x08008f20                ip_output
 .text.ip_addr_isbroadcast
                0x08008f6c       0x7c lwip_v1.3.2/src/core/ipv4/ip_addr.o
                0x08008f6c                ip_addr_isbroadcast
 .text.ip_reass_free_complete_datagram
                0x08008fe8       0xbc lwip_v1.3.2/src/core/ipv4/ip_frag.o
 .text.ip_reass_remove_oldest_datagram
                0x080090a4       0xb8 lwip_v1.3.2/src/core/ipv4/ip_frag.o
 .text.ip_reass_enqueue_new_datagram
                0x0800915c       0x74 lwip_v1.3.2/src/core/ipv4/ip_frag.o
 .text.ip_reass_dequeue_datagram
                0x080091d0       0x38 lwip_v1.3.2/src/core/ipv4/ip_frag.o
 .text.ip_reass_chain_frag_into_datagram_and_validate
                0x08009208      0x210 lwip_v1.3.2/src/core/ipv4/ip_frag.o
 .text.ip_reass
                0x08009418      0x268 lwip_v1.3.2/src/core/ipv4/ip_frag.o
                0x08009418                ip_reass
 .text.ip_frag  0x08009680      0x1a4 lwip_v1.3.2/src/core/ipv4/ip_frag.o
                0x08009680                ip_frag
 .text.low_level_init
                0x08009824       0xb0 lwip_v1.3.2/port/STM32/Standalone/ethernetif.o
 .text.low_level_output
                0x080098d4       0x68 lwip_v1.3.2/port/STM32/Standalone/ethernetif.o
 .text.low_level_input
                0x0800993c       0xf4 lwip_v1.3.2/port/STM32/Standalone/ethernetif.o
 .text.ethernetif_input
                0x08009a30       0x48 lwip_v1.3.2/port/STM32/Standalone/ethernetif.o
                0x08009a30                ethernetif_input
 .text.ethernetif_init
                0x08009a78       0x40 lwip_v1.3.2/port/STM32/Standalone/ethernetif.o
                0x08009a78                ethernetif_init
 .text.STM_EVAL_LEDInit
                0x08009ab8       0x5c Utilities/STM3240_41_G_EVAL/stm324xg_eval.o
                0x08009ab8                STM_EVAL_LEDInit
 .text.STM_EVAL_LEDOn
                0x08009b14       0x30 Utilities/STM3240_41_G_EVAL/stm324xg_eval.o
                0x08009b14                STM_EVAL_LEDOn
 .text.STM_EVAL_PBInit
                0x08009b44       0xe4 Utilities/STM3240_41_G_EVAL/stm324xg_eval.o
                0x08009b44                STM_EVAL_PBInit
 .text.STM_EVAL_COMInit
                0x08009c28       0xd4 Utilities/STM3240_41_G_EVAL/stm324xg_eval.o
                0x08009c28                STM_EVAL_COMInit
 .text.LCD_Init
                0x08009cfc      0x424 Utilities/STM3240_41_G_EVAL/stm324xg_eval_lcd.o
                0x08009cfc                LCD_Init
 .text.LCD_SetTextColor
                0x0800a120       0x20 Utilities/STM3240_41_G_EVAL/stm324xg_eval_lcd.o
                0x0800a120                LCD_SetTextColor
 .text.LCD_SetBackColor
                0x0800a140       0x20 Utilities/STM3240_41_G_EVAL/stm324xg_eval_lcd.o
                0x0800a140                LCD_SetBackColor
 .text.LCD_SetFont
                0x0800a160       0x1c Utilities/STM3240_41_G_EVAL/stm324xg_eval_lcd.o
                0x0800a160                LCD_SetFont
 .text.LCD_GetFont
                0x0800a17c       0x18 Utilities/STM3240_41_G_EVAL/stm324xg_eval_lcd.o
                0x0800a17c                LCD_GetFont
 .text.LCD_ClearLine
                0x0800a194       0x48 Utilities/STM3240_41_G_EVAL/stm324xg_eval_lcd.o
                0x0800a194                LCD_ClearLine
 .text.LCD_Clear
                0x0800a1dc       0x40 Utilities/STM3240_41_G_EVAL/stm324xg_eval_lcd.o
                0x0800a1dc                LCD_Clear
 .text.LCD_SetCursor
                0x0800a21c       0x2c Utilities/STM3240_41_G_EVAL/stm324xg_eval_lcd.o
                0x0800a21c                LCD_SetCursor
 .text.LCD_DrawChar
                0x0800a248      0x104 Utilities/STM3240_41_G_EVAL/stm324xg_eval_lcd.o
                0x0800a248                LCD_DrawChar
 .text.LCD_DisplayChar
                0x0800a34c       0x48 Utilities/STM3240_41_G_EVAL/stm324xg_eval_lcd.o
                0x0800a34c                LCD_DisplayChar
 .text.LCD_DisplayStringLine
                0x0800a394       0x70 Utilities/STM3240_41_G_EVAL/stm324xg_eval_lcd.o
                0x0800a394                LCD_DisplayStringLine
 .text.LCD_SetDisplayWindow
                0x0800a404       0x94 Utilities/STM3240_41_G_EVAL/stm324xg_eval_lcd.o
                0x0800a404                LCD_SetDisplayWindow
 .text.LCD_WriteReg
                0x0800a498       0x2c Utilities/STM3240_41_G_EVAL/stm324xg_eval_lcd.o
                0x0800a498                LCD_WriteReg
 .text.LCD_ReadReg
                0x0800a4c4       0x28 Utilities/STM3240_41_G_EVAL/stm324xg_eval_lcd.o
                0x0800a4c4                LCD_ReadReg
 .text.LCD_WriteRAM_Prepare
                0x0800a4ec       0x14 Utilities/STM3240_41_G_EVAL/stm324xg_eval_lcd.o
                0x0800a4ec                LCD_WriteRAM_Prepare
 .text.LCD_WriteRAM
                0x0800a500       0x1c Utilities/STM3240_41_G_EVAL/stm324xg_eval_lcd.o
                0x0800a500                LCD_WriteRAM
 .text.LCD_CtrlLinesConfig
                0x0800a51c      0x13c Utilities/STM3240_41_G_EVAL/stm324xg_eval_lcd.o
                0x0800a51c                LCD_CtrlLinesConfig
 .text.LCD_FSMCConfig
                0x0800a658       0x80 Utilities/STM3240_41_G_EVAL/stm324xg_eval_lcd.o
                0x0800a658                LCD_FSMCConfig
 .text.delay    0x0800a6d8       0x34 Utilities/STM3240_41_G_EVAL/stm324xg_eval_lcd.o
 .text.EXTI_Init
                0x0800a70c       0xe4 StdPeriph_Driver/src/stm32f4xx_exti.o
                0x0800a70c                EXTI_Init
 .text.EXTI_GetITStatus
                0x0800a7f0       0x48 StdPeriph_Driver/src/stm32f4xx_exti.o
                0x0800a7f0                EXTI_GetITStatus
 .text.EXTI_ClearITPendingBit
                0x0800a838       0x1c StdPeriph_Driver/src/stm32f4xx_exti.o
                0x0800a838                EXTI_ClearITPendingBit
 .text.FSMC_NORSRAMInit
                0x0800a854      0x134 StdPeriph_Driver/src/stm32f4xx_fsmc.o
                0x0800a854                FSMC_NORSRAMInit
 .text.FSMC_NORSRAMCmd
                0x0800a988       0x54 StdPeriph_Driver/src/stm32f4xx_fsmc.o
                0x0800a988                FSMC_NORSRAMCmd
 .text.GPIO_Init
                0x0800a9dc      0x11c StdPeriph_Driver/src/stm32f4xx_gpio.o
                0x0800a9dc                GPIO_Init
 .text.GPIO_PinAFConfig
                0x0800aaf8       0x90 StdPeriph_Driver/src/stm32f4xx_gpio.o
                0x0800aaf8                GPIO_PinAFConfig
 .text.NVIC_PriorityGroupConfig
                0x0800ab88       0x24 StdPeriph_Driver/src/stm32f4xx_misc.o
                0x0800ab88                NVIC_PriorityGroupConfig
 .text.NVIC_Init
                0x0800abac       0xc0 StdPeriph_Driver/src/stm32f4xx_misc.o
                0x0800abac                NVIC_Init
 .text.SysTick_CLKSourceConfig
                0x0800ac6c       0x38 StdPeriph_Driver/src/stm32f4xx_misc.o
                0x0800ac6c                SysTick_CLKSourceConfig
 .text.RCC_MCO1Config
                0x0800aca4       0x3c StdPeriph_Driver/src/stm32f4xx_rcc.o
                0x0800aca4                RCC_MCO1Config
 .text.RCC_GetClocksFreq
                0x0800ace0      0x154 StdPeriph_Driver/src/stm32f4xx_rcc.o
                0x0800ace0                RCC_GetClocksFreq
 .text.RCC_AHB1PeriphClockCmd
                0x0800ae34       0x3c StdPeriph_Driver/src/stm32f4xx_rcc.o
                0x0800ae34                RCC_AHB1PeriphClockCmd
 .text.RCC_AHB3PeriphClockCmd
                0x0800ae70       0x3c StdPeriph_Driver/src/stm32f4xx_rcc.o
                0x0800ae70                RCC_AHB3PeriphClockCmd
 .text.RCC_APB1PeriphClockCmd
                0x0800aeac       0x3c StdPeriph_Driver/src/stm32f4xx_rcc.o
                0x0800aeac                RCC_APB1PeriphClockCmd
 .text.RCC_APB2PeriphClockCmd
                0x0800aee8       0x3c StdPeriph_Driver/src/stm32f4xx_rcc.o
                0x0800aee8                RCC_APB2PeriphClockCmd
 .text.RCC_AHB1PeriphResetCmd
                0x0800af24       0x3c StdPeriph_Driver/src/stm32f4xx_rcc.o
                0x0800af24                RCC_AHB1PeriphResetCmd
 .text.SYSCFG_EXTILineConfig
                0x0800af60       0x84 StdPeriph_Driver/src/stm32f4xx_syscfg.o
                0x0800af60                SYSCFG_EXTILineConfig
 .text.SYSCFG_ETH_MediaInterfaceConfig
                0x0800afe4       0x1c StdPeriph_Driver/src/stm32f4xx_syscfg.o
                0x0800afe4                SYSCFG_ETH_MediaInterfaceConfig
 .text.USART_Init
                0x0800b000      0x178 StdPeriph_Driver/src/stm32f4xx_usart.o
                0x0800b000                USART_Init
 .text.USART_Cmd
                0x0800b178       0x40 StdPeriph_Driver/src/stm32f4xx_usart.o
                0x0800b178                USART_Cmd
 .text.USART_SendData
                0x0800b1b8       0x24 StdPeriph_Driver/src/stm32f4xx_usart.o
                0x0800b1b8                USART_SendData
 .text.USART_GetFlagStatus
                0x0800b1dc       0x38 StdPeriph_Driver/src/stm32f4xx_usart.o
                0x0800b1dc                USART_GetFlagStatus
 .text.ETH_DeInit
                0x0800b214       0x1c STM32F4x7_ETH_Driver/src/stm32f4x7_eth.o
                0x0800b214                ETH_DeInit
 .text.ETH_StructInit
                0x0800b230      0x15c STM32F4x7_ETH_Driver/src/stm32f4x7_eth.o
                0x0800b230                ETH_StructInit
 .text.ETH_Init
                0x0800b38c      0x474 STM32F4x7_ETH_Driver/src/stm32f4x7_eth.o
                0x0800b38c                ETH_Init
 .text.ETH_Start
                0x0800b800       0x24 STM32F4x7_ETH_Driver/src/stm32f4x7_eth.o
                0x0800b800                ETH_Start
 .text.ETH_Stop
                0x0800b824       0x24 STM32F4x7_ETH_Driver/src/stm32f4x7_eth.o
                0x0800b824                ETH_Stop
 .text.ETH_MACTransmissionCmd
                0x0800b848       0x4c STM32F4x7_ETH_Driver/src/stm32f4x7_eth.o
                0x0800b848                ETH_MACTransmissionCmd
 .text.ETH_MACReceptionCmd
                0x0800b894       0x4c STM32F4x7_ETH_Driver/src/stm32f4x7_eth.o
                0x0800b894                ETH_MACReceptionCmd
 .text.ETH_MACAddressConfig
                0x0800b8e0       0x6c STM32F4x7_ETH_Driver/src/stm32f4x7_eth.o
                0x0800b8e0                ETH_MACAddressConfig
 .text.ETH_Get_Received_Frame
                0x0800b94c       0x70 STM32F4x7_ETH_Driver/src/stm32f4x7_eth.o
                0x0800b94c                ETH_Get_Received_Frame
 .text.ETH_Prepare_Transmit_Descriptors
                0x0800b9bc      0x164 STM32F4x7_ETH_Driver/src/stm32f4x7_eth.o
                0x0800b9bc                ETH_Prepare_Transmit_Descriptors
 .text.ETH_DMARxDescChainInit
                0x0800bb20       0xa8 STM32F4x7_ETH_Driver/src/stm32f4x7_eth.o
                0x0800bb20                ETH_DMARxDescChainInit
 .text.ETH_CheckFrameReceived
                0x0800bbc8       0xe8 STM32F4x7_ETH_Driver/src/stm32f4x7_eth.o
                0x0800bbc8                ETH_CheckFrameReceived
 .text.ETH_DMATxDescChainInit
                0x0800bcb0       0x90 STM32F4x7_ETH_Driver/src/stm32f4x7_eth.o
                0x0800bcb0                ETH_DMATxDescChainInit
 .text.ETH_DMATxDescChecksumInsertionConfig
                0x0800bd40       0x20 STM32F4x7_ETH_Driver/src/stm32f4x7_eth.o
                0x0800bd40                ETH_DMATxDescChecksumInsertionConfig
 .text.ETH_SoftwareReset
                0x0800bd60       0x24 STM32F4x7_ETH_Driver/src/stm32f4x7_eth.o
                0x0800bd60                ETH_SoftwareReset
 .text.ETH_GetSoftwareResetStatus
                0x0800bd84       0x38 STM32F4x7_ETH_Driver/src/stm32f4x7_eth.o
                0x0800bd84                ETH_GetSoftwareResetStatus
 .text.ETH_FlushTransmitFIFO
                0x0800bdbc       0x4c STM32F4x7_ETH_Driver/src/stm32f4x7_eth.o
                0x0800bdbc                ETH_FlushTransmitFIFO
 .text.ETH_DMATransmissionCmd
                0x0800be08       0x50 STM32F4x7_ETH_Driver/src/stm32f4x7_eth.o
                0x0800be08                ETH_DMATransmissionCmd
 .text.ETH_DMAReceptionCmd
                0x0800be58       0x50 STM32F4x7_ETH_Driver/src/stm32f4x7_eth.o
                0x0800be58                ETH_DMAReceptionCmd
 .text.ETH_ReadPHYRegister
                0x0800bea8       0xa0 STM32F4x7_ETH_Driver/src/stm32f4x7_eth.o
                0x0800bea8                ETH_ReadPHYRegister
 .text.ETH_WritePHYRegister
                0x0800bf48       0xa4 STM32F4x7_ETH_Driver/src/stm32f4x7_eth.o
                0x0800bf48                ETH_WritePHYRegister
 .text.__errno  0x0800bfec        0xc c:/ac6/systemworkbench/plugins/fr.ac6.mcu.externaltools.arm-none.win32_1.3.0.201507241045/tools/compiler/bin/../lib/gcc/arm-none-eabi/4.9.3/../../../../arm-none-eabi/lib/armv7e-m/fpu\libc.a(lib_a-errno.o)
                0x0800bfec                __errno
 .text.__libc_init_array
                0x0800bff8       0x50 c:/ac6/systemworkbench/plugins/fr.ac6.mcu.externaltools.arm-none.win32_1.3.0.201507241045/tools/compiler/bin/../lib/gcc/arm-none-eabi/4.9.3/../../../../arm-none-eabi/lib/armv7e-m/fpu\libc.a(lib_a-init.o)
                0x0800bff8                __libc_init_array
 .text.malloc   0x0800c048       0x10 c:/ac6/systemworkbench/plugins/fr.ac6.mcu.externaltools.arm-none.win32_1.3.0.201507241045/tools/compiler/bin/../lib/gcc/arm-none-eabi/4.9.3/../../../../arm-none-eabi/lib/armv7e-m/fpu\libc.a(lib_a-malloc.o)
                0x0800c048                malloc
 .text.free     0x0800c058       0x10 c:/ac6/systemworkbench/plugins/fr.ac6.mcu.externaltools.arm-none.win32_1.3.0.201507241045/tools/compiler/bin/../lib/gcc/arm-none-eabi/4.9.3/../../../../arm-none-eabi/lib/armv7e-m/fpu\libc.a(lib_a-malloc.o)
                0x0800c058                free
 .text._malloc_r
                0x0800c068      0x524 c:/ac6/systemworkbench/plugins/fr.ac6.mcu.externaltools.arm-none.win32_1.3.0.201507241045/tools/compiler/bin/../lib/gcc/arm-none-eabi/4.9.3/../../../../arm-none-eabi/lib/armv7e-m/fpu\libc.a(lib_a-mallocr.o)
                0x0800c068                _malloc_r
 .text.memcmp   0x0800c58c       0x64 c:/ac6/systemworkbench/plugins/fr.ac6.mcu.externaltools.arm-none.win32_1.3.0.201507241045/tools/compiler/bin/../lib/gcc/arm-none-eabi/4.9.3/../../../../arm-none-eabi/lib/armv7e-m/fpu\libc.a(lib_a-memcmp.o)
                0x0800c58c                memcmp
 .text.memset   0x0800c5f0       0x9c c:/ac6/systemworkbench/plugins/fr.ac6.mcu.externaltools.arm-none.win32_1.3.0.201507241045/tools/compiler/bin/../lib/gcc/arm-none-eabi/4.9.3/../../../../arm-none-eabi/lib/armv7e-m/fpu\libc.a(lib_a-memset.o)
                0x0800c5f0                memset
 .text.__malloc_lock
                0x0800c68c        0x4 c:/ac6/systemworkbench/plugins/fr.ac6.mcu.externaltools.arm-none.win32_1.3.0.201507241045/tools/compiler/bin/../lib/gcc/arm-none-eabi/4.9.3/../../../../arm-none-eabi/lib/armv7e-m/fpu\libc.a(lib_a-mlock.o)
                0x0800c68c                __malloc_lock
 .text.__malloc_unlock
                0x0800c690        0x4 c:/ac6/systemworkbench/plugins/fr.ac6.mcu.externaltools.arm-none.win32_1.3.0.201507241045/tools/compiler/bin/../lib/gcc/arm-none-eabi/4.9.3/../../../../arm-none-eabi/lib/armv7e-m/fpu\libc.a(lib_a-mlock.o)
                0x0800c690                __malloc_unlock
 .text._sbrk_r  0x0800c694       0x24 c:/ac6/systemworkbench/plugins/fr.ac6.mcu.externaltools.arm-none.win32_1.3.0.201507241045/tools/compiler/bin/../lib/gcc/arm-none-eabi/4.9.3/../../../../arm-none-eabi/lib/armv7e-m/fpu\libc.a(lib_a-sbrkr.o)
                0x0800c694                _sbrk_r
 .text.sprintf  0x0800c6b8       0x4c c:/ac6/systemworkbench/plugins/fr.ac6.mcu.externaltools.arm-none.win32_1.3.0.201507241045/tools/compiler/bin/../lib/gcc/arm-none-eabi/4.9.3/../../../../arm-none-eabi/lib/armv7e-m/fpu\libc.a(lib_a-sprintf.o)
                0x0800c6b8                sprintf
 .text.strlen   0x0800c704       0x5c c:/ac6/systemworkbench/plugins/fr.ac6.mcu.externaltools.arm-none.win32_1.3.0.201507241045/tools/compiler/bin/../lib/gcc/arm-none-eabi/4.9.3/../../../../arm-none-eabi/lib/armv7e-m/fpu\libc.a(lib_a-strlen.o)
                0x0800c704                strlen
 .text._svfprintf_r
                0x0800c760     0x14d0 c:/ac6/systemworkbench/plugins/fr.ac6.mcu.externaltools.arm-none.win32_1.3.0.201507241045/tools/compiler/bin/../lib/gcc/arm-none-eabi/4.9.3/../../../../arm-none-eabi/lib/armv7e-m/fpu\libc.a(lib_a-svfprintf.o)
                0x0800c760                _svfprintf_r
 .text._vsnprintf_r
                0x0800dc30       0x74 c:/ac6/systemworkbench/plugins/fr.ac6.mcu.externaltools.arm-none.win32_1.3.0.201507241045/tools/compiler/bin/../lib/gcc/arm-none-eabi/4.9.3/../../../../arm-none-eabi/lib/armv7e-m/fpu\libc.a(lib_a-vsnprintf.o)
                0x0800dc30                _vsnprintf_r
 .text.vsnprintf
                0x0800dca4       0x20 c:/ac6/systemworkbench/plugins/fr.ac6.mcu.externaltools.arm-none.win32_1.3.0.201507241045/tools/compiler/bin/../lib/gcc/arm-none-eabi/4.9.3/../../../../arm-none-eabi/lib/armv7e-m/fpu\libc.a(lib_a-vsnprintf.o)
                0x0800dca4                vsnprintf
 .text._vsprintf_r
                0x0800dcc4       0x34 c:/ac6/systemworkbench/plugins/fr.ac6.mcu.externaltools.arm-none.win32_1.3.0.201507241045/tools/compiler/bin/../lib/gcc/arm-none-eabi/4.9.3/../../../../arm-none-eabi/lib/armv7e-m/fpu\libc.a(lib_a-vsprintf.o)
                0x0800dcc4                _vsprintf_r
 .text.vsprintf
                0x0800dcf8       0x18 c:/ac6/systemworkbench/plugins/fr.ac6.mcu.externaltools.arm-none.win32_1.3.0.201507241045/tools/compiler/bin/../lib/gcc/arm-none-eabi/4.9.3/../../../../arm-none-eabi/lib/armv7e-m/fpu\libc.a(lib_a-vsprintf.o)
                0x0800dcf8                vsprintf
 .text.startup.register_fini
                0x0800dd10       0x14 c:/ac6/systemworkbench/plugins/fr.ac6.mcu.externaltools.arm-none.win32_1.3.0.201507241045/tools/compiler/bin/../lib/gcc/arm-none-eabi/4.9.3/../../../../arm-none-eabi/lib/armv7e-m/fpu\libc.a(lib_a-__call_atexit.o)
 .text.atexit   0x0800dd24        0xc c:/ac6/systemworkbench/plugins/fr.ac6.mcu.externaltools.arm-none.win32_1.3.0.201507241045/tools/compiler/bin/../lib/gcc/arm-none-eabi/4.9.3/../../../../arm-none-eabi/lib/armv7e-m/fpu\libc.a(lib_a-atexit.o)
                0x0800dd24                atexit
 .text.quorem   0x0800dd30      0x12c c:/ac6/systemworkbench/plugins/fr.ac6.mcu.externaltools.arm-none.win32_1.3.0.201507241045/tools/compiler/bin/../lib/gcc/arm-none-eabi/4.9.3/../../../../arm-none-eabi/lib/armv7e-m/fpu\libc.a(lib_a-dtoa.o)
 *fill*         0x0800de5c        0x4 
 .text._dtoa_r  0x0800de60      0xea8 c:/ac6/systemworkbench/plugins/fr.ac6.mcu.externaltools.arm-none.win32_1.3.0.201507241045/tools/compiler/bin/../lib/gcc/arm-none-eabi/4.9.3/../../../../arm-none-eabi/lib/armv7e-m/fpu\libc.a(lib_a-dtoa.o)
                0x0800de60                _dtoa_r
 .text.__libc_fini_array
                0x0800ed08       0x2c c:/ac6/systemworkbench/plugins/fr.ac6.mcu.externaltools.arm-none.win32_1.3.0.201507241045/tools/compiler/bin/../lib/gcc/arm-none-eabi/4.9.3/../../../../arm-none-eabi/lib/armv7e-m/fpu\libc.a(lib_a-fini.o)
                0x0800ed08                __libc_fini_array
 .text._malloc_trim_r
                0x0800ed34       0x9c c:/ac6/systemworkbench/plugins/fr.ac6.mcu.externaltools.arm-none.win32_1.3.0.201507241045/tools/compiler/bin/../lib/gcc/arm-none-eabi/4.9.3/../../../../arm-none-eabi/lib/armv7e-m/fpu\libc.a(lib_a-freer.o)
                0x0800ed34                _malloc_trim_r
 .text._free_r  0x0800edd0      0x1b0 c:/ac6/systemworkbench/plugins/fr.ac6.mcu.externaltools.arm-none.win32_1.3.0.201507241045/tools/compiler/bin/../lib/gcc/arm-none-eabi/4.9.3/../../../../arm-none-eabi/lib/armv7e-m/fpu\libc.a(lib_a-freer.o)
                0x0800edd0                _free_r
 .text._localeconv_r
                0x0800ef80        0x8 c:/ac6/systemworkbench/plugins/fr.ac6.mcu.externaltools.arm-none.win32_1.3.0.201507241045/tools/compiler/bin/../lib/gcc/arm-none-eabi/4.9.3/../../../../arm-none-eabi/lib/armv7e-m/fpu\libc.a(lib_a-locale.o)
                0x0800ef80                _localeconv_r
 .text.memchr   0x0800ef88       0x94 c:/ac6/systemworkbench/plugins/fr.ac6.mcu.externaltools.arm-none.win32_1.3.0.201507241045/tools/compiler/bin/../lib/gcc/arm-none-eabi/4.9.3/../../../../arm-none-eabi/lib/armv7e-m/fpu\libc.a(lib_a-memchr.o)
                0x0800ef88                memchr
 .text._Balloc  0x0800f01c       0x4c c:/ac6/systemworkbench/plugins/fr.ac6.mcu.externaltools.arm-none.win32_1.3.0.201507241045/tools/compiler/bin/../lib/gcc/arm-none-eabi/4.9.3/../../../../arm-none-eabi/lib/armv7e-m/fpu\libc.a(lib_a-mprec.o)
                0x0800f01c                _Balloc
 .text._Bfree   0x0800f068       0x14 c:/ac6/systemworkbench/plugins/fr.ac6.mcu.externaltools.arm-none.win32_1.3.0.201507241045/tools/compiler/bin/../lib/gcc/arm-none-eabi/4.9.3/../../../../arm-none-eabi/lib/armv7e-m/fpu\libc.a(lib_a-mprec.o)
                0x0800f068                _Bfree
 .text.__multadd
                0x0800f07c       0x84 c:/ac6/systemworkbench/plugins/fr.ac6.mcu.externaltools.arm-none.win32_1.3.0.201507241045/tools/compiler/bin/../lib/gcc/arm-none-eabi/4.9.3/../../../../arm-none-eabi/lib/armv7e-m/fpu\libc.a(lib_a-mprec.o)
                0x0800f07c                __multadd
 .text.__hi0bits
                0x0800f100       0x40 c:/ac6/systemworkbench/plugins/fr.ac6.mcu.externaltools.arm-none.win32_1.3.0.201507241045/tools/compiler/bin/../lib/gcc/arm-none-eabi/4.9.3/../../../../arm-none-eabi/lib/armv7e-m/fpu\libc.a(lib_a-mprec.o)
                0x0800f100                __hi0bits
 .text.__lo0bits
                0x0800f140       0x5c c:/ac6/systemworkbench/plugins/fr.ac6.mcu.externaltools.arm-none.win32_1.3.0.201507241045/tools/compiler/bin/../lib/gcc/arm-none-eabi/4.9.3/../../../../arm-none-eabi/lib/armv7e-m/fpu\libc.a(lib_a-mprec.o)
                0x0800f140                __lo0bits
 .text.__i2b    0x0800f19c       0x14 c:/ac6/systemworkbench/plugins/fr.ac6.mcu.externaltools.arm-none.win32_1.3.0.201507241045/tools/compiler/bin/../lib/gcc/arm-none-eabi/4.9.3/../../../../arm-none-eabi/lib/armv7e-m/fpu\libc.a(lib_a-mprec.o)
                0x0800f19c                __i2b
 .text.__multiply
                0x0800f1b0      0x134 c:/ac6/systemworkbench/plugins/fr.ac6.mcu.externaltools.arm-none.win32_1.3.0.201507241045/tools/compiler/bin/../lib/gcc/arm-none-eabi/4.9.3/../../../../arm-none-eabi/lib/armv7e-m/fpu\libc.a(lib_a-mprec.o)
                0x0800f1b0                __multiply
 .text.__pow5mult
                0x0800f2e4       0xa0 c:/ac6/systemworkbench/plugins/fr.ac6.mcu.externaltools.arm-none.win32_1.3.0.201507241045/tools/compiler/bin/../lib/gcc/arm-none-eabi/4.9.3/../../../../arm-none-eabi/lib/armv7e-m/fpu\libc.a(lib_a-mprec.o)
                0x0800f2e4                __pow5mult
 .text.__lshift
                0x0800f384       0xac c:/ac6/systemworkbench/plugins/fr.ac6.mcu.externaltools.arm-none.win32_1.3.0.201507241045/tools/compiler/bin/../lib/gcc/arm-none-eabi/4.9.3/../../../../arm-none-eabi/lib/armv7e-m/fpu\libc.a(lib_a-mprec.o)
                0x0800f384                __lshift
 .text.__mcmp   0x0800f430       0x48 c:/ac6/systemworkbench/plugins/fr.ac6.mcu.externaltools.arm-none.win32_1.3.0.201507241045/tools/compiler/bin/../lib/gcc/arm-none-eabi/4.9.3/../../../../arm-none-eabi/lib/armv7e-m/fpu\libc.a(lib_a-mprec.o)
                0x0800f430                __mcmp
 .text.__mdiff  0x0800f478       0xd4 c:/ac6/systemworkbench/plugins/fr.ac6.mcu.externaltools.arm-none.win32_1.3.0.201507241045/tools/compiler/bin/../lib/gcc/arm-none-eabi/4.9.3/../../../../arm-none-eabi/lib/armv7e-m/fpu\libc.a(lib_a-mprec.o)
                0x0800f478                __mdiff
 .text.__d2b    0x0800f54c       0xbc c:/ac6/systemworkbench/plugins/fr.ac6.mcu.externaltools.arm-none.win32_1.3.0.201507241045/tools/compiler/bin/../lib/gcc/arm-none-eabi/4.9.3/../../../../arm-none-eabi/lib/armv7e-m/fpu\libc.a(lib_a-mprec.o)
                0x0800f54c                __d2b
 .text.__fpclassifyd
                0x0800f608       0x5c c:/ac6/systemworkbench/plugins/fr.ac6.mcu.externaltools.arm-none.win32_1.3.0.201507241045/tools/compiler/bin/../lib/gcc/arm-none-eabi/4.9.3/../../../../arm-none-eabi/lib/armv7e-m/fpu\libc.a(lib_a-s_fpclassify.o)
                0x0800f608                __fpclassifyd
 .text.__ssprint_r
                0x0800f664      0x104 c:/ac6/systemworkbench/plugins/fr.ac6.mcu.externaltools.arm-none.win32_1.3.0.201507241045/tools/compiler/bin/../lib/gcc/arm-none-eabi/4.9.3/../../../../arm-none-eabi/lib/armv7e-m/fpu\libc.a(lib_a-svfiprintf.o)
                0x0800f664                __ssprint_r
 .text.__register_exitproc
                0x0800f768       0xa4 c:/ac6/systemworkbench/plugins/fr.ac6.mcu.externaltools.arm-none.win32_1.3.0.201507241045/tools/compiler/bin/../lib/gcc/arm-none-eabi/4.9.3/../../../../arm-none-eabi/lib/armv7e-m/fpu\libc.a(lib_a-__atexit.o)
                0x0800f768                __register_exitproc
 .text._calloc_r
                0x0800f80c       0x60 c:/ac6/systemworkbench/plugins/fr.ac6.mcu.externaltools.arm-none.win32_1.3.0.201507241045/tools/compiler/bin/../lib/gcc/arm-none-eabi/4.9.3/../../../../arm-none-eabi/lib/armv7e-m/fpu\libc.a(lib_a-callocr.o)
                0x0800f80c                _calloc_r
 .text.memmove  0x0800f86c       0xc8 c:/ac6/systemworkbench/plugins/fr.ac6.mcu.externaltools.arm-none.win32_1.3.0.201507241045/tools/compiler/bin/../lib/gcc/arm-none-eabi/4.9.3/../../../../arm-none-eabi/lib/armv7e-m/fpu\libc.a(lib_a-memmove.o)
                0x0800f86c                memmove
 .text._realloc_r
                0x0800f934      0x3ec c:/ac6/systemworkbench/plugins/fr.ac6.mcu.externaltools.arm-none.win32_1.3.0.201507241045/tools/compiler/bin/../lib/gcc/arm-none-eabi/4.9.3/../../../../arm-none-eabi/lib/armv7e-m/fpu\libc.a(lib_a-reallocr.o)
                0x0800f934                _realloc_r
 *(.rodata)
 .rodata        0x0800fd20       0x6c src/main.o
 .rodata        0x0800fd8c       0x58 src/netconf.o
 .rodata        0x0800fde4       0x6c src/stm32f4x7_eth_bsp.o
 .rodata        0x0800fe50      0x120 src/udp_echoclient.o
 .rodata        0x0800ff70       0x10 lwip_v1.3.2/src/netif/etharp.o
                0x0800ff70                ethbroadcast
                0x0800ff78                ethzero
 .rodata        0x0800ff80       0x28 lwip_v1.3.2/src/core/memp.o
 .rodata        0x0800ffa8       0x90 lwip_v1.3.2/src/core/tcp.o
                0x08010020                tcp_backoff
                0x08010030                tcp_persist_backoff
 .rodata        0x08010038        0x8 lwip_v1.3.2/src/core/ipv4/ip_addr.o
                0x08010038                ip_addr_any
                0x0801003c                ip_addr_broadcast
 .rodata        0x08010040       0x70 Utilities/STM3240_41_G_EVAL/stm324xg_eval.o
                0x08010040                GPIO_PIN
                0x08010048                GPIO_CLK
                0x08010058                BUTTON_PIN
                0x08010060                BUTTON_CLK
                0x0801006c                BUTTON_EXTI_LINE
                0x08010074                BUTTON_PORT_SOURCE
                0x0801007c                BUTTON_PIN_SOURCE
                0x08010084                BUTTON_IRQn
                0x0801008c                COM_USART_CLK
                0x08010090                COM_TX_PORT_CLK
                0x08010094                COM_RX_PORT_CLK
                0x08010098                COM_TX_PIN
                0x0801009c                COM_RX_PIN
                0x080100a0                COM_TX_PIN_SOURCE
                0x080100a4                COM_RX_PIN_SOURCE
                0x080100a8                COM_TX_AF
                0x080100ac                COM_RX_AF
 .rodata        0x080100b0     0x29d0 Utilities/Common/fonts.o
                0x080100b0                ASCII16x24_Table
                0x08011280                ASCII12x12_Table
                0x08011b80                ASCII8x12_Table
                0x08012480                ASCII8x8_Table
 *(.rodata*)
 .rodata.str1.4
                0x08012a80        0x2 c:/ac6/systemworkbench/plugins/fr.ac6.mcu.externaltools.arm-none.win32_1.3.0.201507241045/tools/compiler/bin/../lib/gcc/arm-none-eabi/4.9.3/../../../../arm-none-eabi/lib/armv7e-m/fpu\libc.a(lib_a-impure.o)
                                  0x4 (size before relaxing)
 *fill*         0x08012a82        0x2 
 .rodata._global_impure_ptr
                0x08012a84        0x4 c:/ac6/systemworkbench/plugins/fr.ac6.mcu.externaltools.arm-none.win32_1.3.0.201507241045/tools/compiler/bin/../lib/gcc/arm-none-eabi/4.9.3/../../../../arm-none-eabi/lib/armv7e-m/fpu\libc.a(lib_a-impure.o)
                0x08012a84                _global_impure_ptr
 .rodata.zeroes.6916
                0x08012a88       0x10 c:/ac6/systemworkbench/plugins/fr.ac6.mcu.externaltools.arm-none.win32_1.3.0.201507241045/tools/compiler/bin/../lib/gcc/arm-none-eabi/4.9.3/../../../../arm-none-eabi/lib/armv7e-m/fpu\libc.a(lib_a-svfprintf.o)
 .rodata.str1.4
                0x08012a98       0x42 c:/ac6/systemworkbench/plugins/fr.ac6.mcu.externaltools.arm-none.win32_1.3.0.201507241045/tools/compiler/bin/../lib/gcc/arm-none-eabi/4.9.3/../../../../arm-none-eabi/lib/armv7e-m/fpu\libc.a(lib_a-svfprintf.o)
                                 0x44 (size before relaxing)
 *fill*         0x08012ada        0x2 
 .rodata.blanks.6915
                0x08012adc       0x10 c:/ac6/systemworkbench/plugins/fr.ac6.mcu.externaltools.arm-none.win32_1.3.0.201507241045/tools/compiler/bin/../lib/gcc/arm-none-eabi/4.9.3/../../../../arm-none-eabi/lib/armv7e-m/fpu\libc.a(lib_a-svfprintf.o)
 .rodata.str1.4
                0x08012aec       0x10 c:/ac6/systemworkbench/plugins/fr.ac6.mcu.externaltools.arm-none.win32_1.3.0.201507241045/tools/compiler/bin/../lib/gcc/arm-none-eabi/4.9.3/../../../../arm-none-eabi/lib/armv7e-m/fpu\libc.a(lib_a-dtoa.o)
                                 0x14 (size before relaxing)
 .rodata.str1.4
                0x08012afc        0xc c:/ac6/systemworkbench/plugins/fr.ac6.mcu.externaltools.arm-none.win32_1.3.0.201507241045/tools/compiler/bin/../lib/gcc/arm-none-eabi/4.9.3/../../../../arm-none-eabi/lib/armv7e-m/fpu\libc.a(lib_a-locale.o)
                                 0x14 (size before relaxing)
 .rodata.p05.5296
                0x08012b08        0xc c:/ac6/systemworkbench/plugins/fr.ac6.mcu.externaltools.arm-none.win32_1.3.0.201507241045/tools/compiler/bin/../lib/gcc/arm-none-eabi/4.9.3/../../../../arm-none-eabi/lib/armv7e-m/fpu\libc.a(lib_a-mprec.o)
 *fill*         0x08012b14        0x4 
 .rodata.__mprec_tens
                0x08012b18       0xc8 c:/ac6/systemworkbench/plugins/fr.ac6.mcu.externaltools.arm-none.win32_1.3.0.201507241045/tools/compiler/bin/../lib/gcc/arm-none-eabi/4.9.3/../../../../arm-none-eabi/lib/armv7e-m/fpu\libc.a(lib_a-mprec.o)
                0x08012b18                __mprec_tens
 .rodata.__mprec_bigtens
                0x08012be0       0x28 c:/ac6/systemworkbench/plugins/fr.ac6.mcu.externaltools.arm-none.win32_1.3.0.201507241045/tools/compiler/bin/../lib/gcc/arm-none-eabi/4.9.3/../../../../arm-none-eabi/lib/armv7e-m/fpu\libc.a(lib_a-mprec.o)
                0x08012be0                __mprec_bigtens
 *(.glue_7)
 .glue_7        0x00000000        0x0 linker stubs
 *(.glue_7t)
 .glue_7t       0x00000000        0x0 linker stubs
 *(.eh_frame)
 .eh_frame      0x08012c08        0x0 c:/ac6/systemworkbench/plugins/fr.ac6.mcu.externaltools.arm-none.win32_1.3.0.201507241045/tools/compiler/bin/../lib/gcc/arm-none-eabi/4.9.3/armv7e-m/fpu/crtbegin.o
 *(.init)
 .init          0x08012c08        0x4 c:/ac6/systemworkbench/plugins/fr.ac6.mcu.externaltools.arm-none.win32_1.3.0.201507241045/tools/compiler/bin/../lib/gcc/arm-none-eabi/4.9.3/armv7e-m/fpu/crti.o
                0x08012c08                _init
 .init          0x08012c0c        0x8 c:/ac6/systemworkbench/plugins/fr.ac6.mcu.externaltools.arm-none.win32_1.3.0.201507241045/tools/compiler/bin/../lib/gcc/arm-none-eabi/4.9.3/armv7e-m/fpu/crtn.o
 *(.fini)
 .fini          0x08012c14        0x4 c:/ac6/systemworkbench/plugins/fr.ac6.mcu.externaltools.arm-none.win32_1.3.0.201507241045/tools/compiler/bin/../lib/gcc/arm-none-eabi/4.9.3/armv7e-m/fpu/crti.o
                0x08012c14                _fini
 .fini          0x08012c18        0x8 c:/ac6/systemworkbench/plugins/fr.ac6.mcu.externaltools.arm-none.win32_1.3.0.201507241045/tools/compiler/bin/../lib/gcc/arm-none-eabi/4.9.3/armv7e-m/fpu/crtn.o
                0x08012c20                . = ALIGN (0x4)
                0x08012c20                _etext = .

.vfp11_veneer   0x08012c20        0x0
 .vfp11_veneer  0x00000000        0x0 linker stubs

.v4_bx          0x08012c20        0x0
 .v4_bx         0x00000000        0x0 linker stubs

.iplt           0x08012c20        0x0
 .iplt          0x00000000        0x0 c:/ac6/systemworkbench/plugins/fr.ac6.mcu.externaltools.arm-none.win32_1.3.0.201507241045/tools/compiler/bin/../lib/gcc/arm-none-eabi/4.9.3/armv7e-m/fpu/crtbegin.o

.ARM.extab
 *(.ARM.extab* .gnu.linkonce.armextab.*)

.ARM            0x08012c20        0x8
                0x08012c20                __exidx_start = .
 *(.ARM.exidx*)
 .ARM.exidx     0x08012c20        0x8 c:/ac6/systemworkbench/plugins/fr.ac6.mcu.externaltools.arm-none.win32_1.3.0.201507241045/tools/compiler/bin/../lib/gcc/arm-none-eabi/4.9.3/armv7e-m/fpu\libgcc.a(_divdi3.o)
 .ARM.exidx     0x08012c28        0x0 c:/ac6/systemworkbench/plugins/fr.ac6.mcu.externaltools.arm-none.win32_1.3.0.201507241045/tools/compiler/bin/../lib/gcc/arm-none-eabi/4.9.3/armv7e-m/fpu\libgcc.a(_udivdi3.o)
                                  0x8 (size before relaxing)
                0x08012c28                __exidx_end = .

.rel.dyn        0x08012c28        0x0
 .rel.iplt      0x00000000        0x0 c:/ac6/systemworkbench/plugins/fr.ac6.mcu.externaltools.arm-none.win32_1.3.0.201507241045/tools/compiler/bin/../lib/gcc/arm-none-eabi/4.9.3/armv7e-m/fpu/crtbegin.o

.preinit_array  0x08012c28        0x0
                0x08012c28                PROVIDE (__preinit_array_start, .)
 *(.preinit_array*)
                0x08012c28                PROVIDE (__preinit_array_end, .)

.init_array     0x08012c28        0x8
                0x08012c28                PROVIDE (__init_array_start, .)
 *(SORT(.init_array.*))
 .init_array.00000
                0x08012c28        0x4 c:/ac6/systemworkbench/plugins/fr.ac6.mcu.externaltools.arm-none.win32_1.3.0.201507241045/tools/compiler/bin/../lib/gcc/arm-none-eabi/4.9.3/../../../../arm-none-eabi/lib/armv7e-m/fpu\libc.a(lib_a-__call_atexit.o)
 *(.init_array*)
 .init_array    0x08012c2c        0x4 c:/ac6/systemworkbench/plugins/fr.ac6.mcu.externaltools.arm-none.win32_1.3.0.201507241045/tools/compiler/bin/../lib/gcc/arm-none-eabi/4.9.3/armv7e-m/fpu/crtbegin.o
                0x08012c30                PROVIDE (__init_array_end, .)

.fini_array     0x08012c30        0x4
                0x08012c30                PROVIDE (__fini_array_start, .)
 *(SORT(.fini_array.*))
 *(.fini_array*)
 .fini_array    0x08012c30        0x4 c:/ac6/systemworkbench/plugins/fr.ac6.mcu.externaltools.arm-none.win32_1.3.0.201507241045/tools/compiler/bin/../lib/gcc/arm-none-eabi/4.9.3/armv7e-m/fpu/crtbegin.o
                0x08012c34                PROVIDE (__fini_array_end, .)
                0x08012c34                _sidata = LOADADDR (.data)

.data           0x20000000      0x90c load address 0x08012c34
                0x20000000                . = ALIGN (0x4)
                0x20000000                _sdata = .
 *(.data)
 .data          0x20000000        0x4 lwip_v1.3.2/src/core/dhcp.o
 .data          0x20000004       0x34 lwip_v1.3.2/src/core/tcp.o
                0x20000004                tcp_state_str
 .data          0x20000038       0x28 Utilities/STM3240_41_G_EVAL/stm324xg_eval.o
                0x20000038                GPIO_PORT
                0x20000048                BUTTON_PORT
                0x20000054                COM_USART
                0x20000058                COM_TX_PORT
                0x2000005c                COM_RX_PORT
 .data          0x20000060        0x2 Utilities/STM3240_41_G_EVAL/stm324xg_eval_lcd.o
                0x20000060                BackColor
 *fill*         0x20000062        0x2 
 .data          0x20000064       0x20 Utilities/Common/fonts.o
                0x20000064                Font16x24
                0x2000006c                Font12x12
                0x20000074                Font8x12
                0x2000007c                Font8x8
 .data          0x20000084       0x10 StdPeriph_Driver/src/stm32f4xx_rcc.o
 *(.data*)
 *fill*         0x20000094        0x4 
 .data.impure_data
                0x20000098      0x428 c:/ac6/systemworkbench/plugins/fr.ac6.mcu.externaltools.arm-none.win32_1.3.0.201507241045/tools/compiler/bin/../lib/gcc/arm-none-eabi/4.9.3/../../../../arm-none-eabi/lib/armv7e-m/fpu\libc.a(lib_a-impure.o)
 .data._impure_ptr
                0x200004c0        0x4 c:/ac6/systemworkbench/plugins/fr.ac6.mcu.externaltools.arm-none.win32_1.3.0.201507241045/tools/compiler/bin/../lib/gcc/arm-none-eabi/4.9.3/../../../../arm-none-eabi/lib/armv7e-m/fpu\libc.a(lib_a-impure.o)
                0x200004c0                _impure_ptr
 .data.__malloc_av_
                0x200004c4      0x408 c:/ac6/systemworkbench/plugins/fr.ac6.mcu.externaltools.arm-none.win32_1.3.0.201507241045/tools/compiler/bin/../lib/gcc/arm-none-eabi/4.9.3/../../../../arm-none-eabi/lib/armv7e-m/fpu\libc.a(lib_a-mallocr.o)
                0x200004c4                __malloc_av_
 .data.__malloc_trim_threshold
                0x200008cc        0x4 c:/ac6/systemworkbench/plugins/fr.ac6.mcu.externaltools.arm-none.win32_1.3.0.201507241045/tools/compiler/bin/../lib/gcc/arm-none-eabi/4.9.3/../../../../arm-none-eabi/lib/armv7e-m/fpu\libc.a(lib_a-mallocr.o)
                0x200008cc                __malloc_trim_threshold
 .data.__malloc_sbrk_base
                0x200008d0        0x4 c:/ac6/systemworkbench/plugins/fr.ac6.mcu.externaltools.arm-none.win32_1.3.0.201507241045/tools/compiler/bin/../lib/gcc/arm-none-eabi/4.9.3/../../../../arm-none-eabi/lib/armv7e-m/fpu\libc.a(lib_a-mallocr.o)
                0x200008d0                __malloc_sbrk_base
 .data.lconv    0x200008d4       0x38 c:/ac6/systemworkbench/plugins/fr.ac6.mcu.externaltools.arm-none.win32_1.3.0.201507241045/tools/compiler/bin/../lib/gcc/arm-none-eabi/4.9.3/../../../../arm-none-eabi/lib/armv7e-m/fpu\libc.a(lib_a-locale.o)
                0x2000090c                . = ALIGN (0x4)
                0x2000090c                _edata = .
                0x08013540                _siccmram = LOADADDR (.ccmram)

.jcr            0x2000090c        0x0 load address 0x08013540
 .jcr           0x2000090c        0x0 c:/ac6/systemworkbench/plugins/fr.ac6.mcu.externaltools.arm-none.win32_1.3.0.201507241045/tools/compiler/bin/../lib/gcc/arm-none-eabi/4.9.3/armv7e-m/fpu/crtbegin.o

.igot.plt       0x2000090c        0x0 load address 0x08013540
 .igot.plt      0x00000000        0x0 c:/ac6/systemworkbench/plugins/fr.ac6.mcu.externaltools.arm-none.win32_1.3.0.201507241045/tools/compiler/bin/../lib/gcc/arm-none-eabi/4.9.3/armv7e-m/fpu/crtbegin.o

.ccmram         0x10000000        0x0 load address 0x08013540
                0x10000000                . = ALIGN (0x4)
                0x10000000                _sccmram = .
 *(.ccmram)
 *(.ccmram*)
                0x10000000                . = ALIGN (0x4)
                0x10000000                _eccmram = .
                0x10000000                . = ALIGN (0x4)

.bss            0x2000090c    0x13160
                0x2000090c                _sbss = .
                0x2000090c                __bss_start__ = _sbss
 *(.bss)
 .bss           0x2000090c       0x1c c:/ac6/systemworkbench/plugins/fr.ac6.mcu.externaltools.arm-none.win32_1.3.0.201507241045/tools/compiler/bin/../lib/gcc/arm-none-eabi/4.9.3/armv7e-m/fpu/crtbegin.o
 .bss           0x20000928        0x4 src/main.o
                0x20000928                LocalTime
 .bss           0x2000092c        0xc src/netconf.o
                0x2000092c                TCPTimer
                0x20000930                ARPTimer
                0x20000934                IPaddress
 .bss           0x20000938        0x8 src/stm32f4x7_eth_bsp.o
                0x20000938                EthStatus
                0x2000093c                EthLinkStatus
 .bss           0x20000940        0x8 src/syscalls.o
                0x20000940                __env
 .bss           0x20000948     0x960c src/udp_echoclient.o
                0x20000948                frame_buffer
                0x20009f48                message_count
 .bss           0x20009f54       0xcc lwip_v1.3.2/src/netif/etharp.o
 .bss           0x2000a020     0x2824 lwip_v1.3.2/src/core/mem.o
 .bss           0x2000c844     0x3968 lwip_v1.3.2/src/core/memp.o
 .bss           0x200101ac        0x1 lwip_v1.3.2/src/core/netif.o
 *fill*         0x200101ad        0x3 
 .bss           0x200101b0        0x4 lwip_v1.3.2/src/core/raw.o
 .bss           0x200101b4        0x1 lwip_v1.3.2/src/core/tcp.o
 *fill*         0x200101b5        0x3 
 .bss           0x200101b8       0x30 lwip_v1.3.2/src/core/tcp_in.o
 .bss           0x200101e8        0x2 lwip_v1.3.2/src/core/ipv4/ip.o
 *fill*         0x200101ea        0x2 
 .bss           0x200101ec      0x5e8 lwip_v1.3.2/src/core/ipv4/ip_frag.o
 .bss           0x200107d4        0x8 Utilities/STM3240_41_G_EVAL/stm324xg_eval_lcd.o
                0x200107d8                TextColor
 *(.bss*)
 .bss.__malloc_max_total_mem
                0x200107dc        0x4 c:/ac6/systemworkbench/plugins/fr.ac6.mcu.externaltools.arm-none.win32_1.3.0.201507241045/tools/compiler/bin/../lib/gcc/arm-none-eabi/4.9.3/../../../../arm-none-eabi/lib/armv7e-m/fpu\libc.a(lib_a-mallocr.o)
                0x200107dc                __malloc_max_total_mem
 .bss.__malloc_max_sbrked_mem
                0x200107e0        0x4 c:/ac6/systemworkbench/plugins/fr.ac6.mcu.externaltools.arm-none.win32_1.3.0.201507241045/tools/compiler/bin/../lib/gcc/arm-none-eabi/4.9.3/../../../../arm-none-eabi/lib/armv7e-m/fpu\libc.a(lib_a-mallocr.o)
                0x200107e0                __malloc_max_sbrked_mem
 .bss.__malloc_top_pad
                0x200107e4        0x4 c:/ac6/systemworkbench/plugins/fr.ac6.mcu.externaltools.arm-none.win32_1.3.0.201507241045/tools/compiler/bin/../lib/gcc/arm-none-eabi/4.9.3/../../../../arm-none-eabi/lib/armv7e-m/fpu\libc.a(lib_a-mallocr.o)
                0x200107e4                __malloc_top_pad
 .bss.__malloc_current_mallinfo
                0x200107e8       0x28 c:/ac6/systemworkbench/plugins/fr.ac6.mcu.externaltools.arm-none.win32_1.3.0.201507241045/tools/compiler/bin/../lib/gcc/arm-none-eabi/4.9.3/../../../../arm-none-eabi/lib/armv7e-m/fpu\libc.a(lib_a-mallocr.o)
                0x200107e8                __malloc_current_mallinfo
 *(COMMON)
 COMMON         0x20010810        0x4 src/main.o
                0x20010810                timingdelay
 COMMON         0x20010814       0x38 src/netconf.o
                0x20010814                gnetif
 COMMON         0x2001084c       0xbc src/stm32f4x7_eth_bsp.o
                0x2001084c                ETH_InitStructure
 COMMON         0x20010908       0x74 src/udp_echoclient.o
                0x20010908                g_frame_total_len
                0x2001090c                data
                0x20010970                g_cur_section
                0x20010974                g_recv_frame_count
                0x20010978                m_client_state
                0x2001097a                g_total_section
 COMMON         0x2001097c        0x8 lwip_v1.3.2/src/core/netif.o
                0x2001097c                netif_list
                0x20010980                netif_default
 COMMON         0x20010984       0x18 lwip_v1.3.2/src/core/tcp.o
                0x20010984                tcp_active_pcbs
                0x20010988                tcp_ticks
                0x2001098c                tcp_listen_pcbs
                0x20010990                tcp_tmp_pcb
                0x20010994                tcp_bound_pcbs
                0x20010998                tcp_tw_pcbs
 COMMON         0x2001099c        0x4 lwip_v1.3.2/src/core/tcp_in.o
                0x2001099c                tcp_input_pcb
 COMMON         0x200109a0        0x4 lwip_v1.3.2/src/core/udp.o
                0x200109a0                udp_pcbs
 COMMON         0x200109a4        0x8 lwip_v1.3.2/src/core/ipv4/ip.o
                0x200109a4                current_netif
                0x200109a8                current_header
 COMMON         0x200109ac     0x30bc STM32F4x7_ETH_Driver/src/stm32f4x7_eth.o
                0x200109ac                RX_Frame_Descriptor
                0x200109b8                DMARxDescToGet
                0x200109bc                DMATxDescToSet
                0x200109c0                DMATxDscrTab
                0x20010a40                Rx_Buff
                0x20012210                Frame_Rx_index
                0x20012214                DMA_RX_FRAME_infos
                0x20012218                DMARxDscrTab
                0x20012298                Tx_Buff
 COMMON         0x20013a68        0x4 c:/ac6/systemworkbench/plugins/fr.ac6.mcu.externaltools.arm-none.win32_1.3.0.201507241045/tools/compiler/bin/../lib/gcc/arm-none-eabi/4.9.3/../../../../arm-none-eabi/lib/armv7e-m/fpu\libc.a(lib_a-reent.o)
                0x20013a68                errno
                0x20013a6c                . = ALIGN (0x4)
                0x20013a6c                _ebss = .
                0x20013a6c                __bss_end__ = _ebss

._user_heap_stack
                0x20013a6c      0x404
                0x20013a70                . = ALIGN (0x8)
 *fill*         0x20013a6c        0x4 
                0x20013a70                PROVIDE (end, .)
                0x20013a70                PROVIDE (_end, .)
                0x20013a70                . = (. + _Min_Heap_Size)
                0x20013e70                . = (. + _Min_Stack_Size)
 *fill*         0x20013a70      0x400 
                0x20013e70                . = ALIGN (0x8)

.memory_b1_text
 *(.mb1text)
 *(.mb1text*)
 *(.mb1rodata)
 *(.mb1rodata*)

.ARM.attributes
                0x00000000       0x30
 *(.ARM.attributes)
 .ARM.attributes
                0x00000000       0x22 c:/ac6/systemworkbench/plugins/fr.ac6.mcu.externaltools.arm-none.win32_1.3.0.201507241045/tools/compiler/bin/../lib/gcc/arm-none-eabi/4.9.3/armv7e-m/fpu/crti.o
 .ARM.attributes
                0x00000022       0x34 c:/ac6/systemworkbench/plugins/fr.ac6.mcu.externaltools.arm-none.win32_1.3.0.201507241045/tools/compiler/bin/../lib/gcc/arm-none-eabi/4.9.3/armv7e-m/fpu/crtbegin.o
 .ARM.attributes
                0x00000056       0x21 startup/startup_stm32f40xx.o
 .ARM.attributes
                0x00000077       0x39 src/main.o
 .ARM.attributes
                0x000000b0       0x39 src/netconf.o
 .ARM.attributes
                0x000000e9       0x39 src/serial_debug.o
 .ARM.attributes
                0x00000122       0x39 src/serial_io.o
 .ARM.attributes
                0x0000015b       0x39 src/stm32f4x7_eth_bsp.o
 .ARM.attributes
                0x00000194       0x39 src/stm32f4xx_it.o
 .ARM.attributes
                0x000001cd       0x39 src/syscalls.o
 .ARM.attributes
                0x00000206       0x39 src/system_stm32f4xx.o
 .ARM.attributes
                0x0000023f       0x39 src/udp_echoclient.o
 .ARM.attributes
                0x00000278       0x39 lwip_v1.3.2/src/netif/etharp.o
 .ARM.attributes
                0x000002b1       0x39 lwip_v1.3.2/src/core/dhcp.o
 .ARM.attributes
                0x000002ea       0x39 lwip_v1.3.2/src/core/mem.o
 .ARM.attributes
                0x00000323       0x39 lwip_v1.3.2/src/core/memp.o
 .ARM.attributes
                0x0000035c       0x39 lwip_v1.3.2/src/core/netif.o
 .ARM.attributes
                0x00000395       0x39 lwip_v1.3.2/src/core/pbuf.o
 .ARM.attributes
                0x000003ce       0x39 lwip_v1.3.2/src/core/raw.o
 .ARM.attributes
                0x00000407       0x39 lwip_v1.3.2/src/core/tcp.o
 .ARM.attributes
                0x00000440       0x39 lwip_v1.3.2/src/core/tcp_in.o
 .ARM.attributes
                0x00000479       0x39 lwip_v1.3.2/src/core/tcp_out.o
 .ARM.attributes
                0x000004b2       0x39 lwip_v1.3.2/src/core/udp.o
 .ARM.attributes
                0x000004eb       0x39 lwip_v1.3.2/src/core/ipv4/icmp.o
 .ARM.attributes
                0x00000524       0x39 lwip_v1.3.2/src/core/ipv4/inet.o
 .ARM.attributes
                0x0000055d       0x39 lwip_v1.3.2/src/core/ipv4/inet_chksum.o
 .ARM.attributes
                0x00000596       0x39 lwip_v1.3.2/src/core/ipv4/ip.o
 .ARM.attributes
                0x000005cf       0x39 lwip_v1.3.2/src/core/ipv4/ip_addr.o
 .ARM.attributes
                0x00000608       0x39 lwip_v1.3.2/src/core/ipv4/ip_frag.o
 .ARM.attributes
                0x00000641       0x39 lwip_v1.3.2/port/STM32/Standalone/ethernetif.o
 .ARM.attributes
                0x0000067a       0x39 Utilities/STM3240_41_G_EVAL/stm324xg_eval.o
 .ARM.attributes
                0x000006b3       0x39 Utilities/STM3240_41_G_EVAL/stm324xg_eval_lcd.o
 .ARM.attributes
                0x000006ec       0x39 Utilities/Common/fonts.o
 .ARM.attributes
                0x00000725       0x39 StdPeriph_Driver/src/stm32f4xx_exti.o
 .ARM.attributes
                0x0000075e       0x39 StdPeriph_Driver/src/stm32f4xx_fsmc.o
 .ARM.attributes
                0x00000797       0x39 StdPeriph_Driver/src/stm32f4xx_gpio.o
 .ARM.attributes
                0x000007d0       0x39 StdPeriph_Driver/src/stm32f4xx_misc.o
 .ARM.attributes
                0x00000809       0x39 StdPeriph_Driver/src/stm32f4xx_rcc.o
 .ARM.attributes
                0x00000842       0x39 StdPeriph_Driver/src/stm32f4xx_syscfg.o
 .ARM.attributes
                0x0000087b       0x39 StdPeriph_Driver/src/stm32f4xx_usart.o
 .ARM.attributes
                0x000008b4       0x39 STM32F4x7_ETH_Driver/src/stm32f4x7_eth.o
 .ARM.attributes
                0x000008ed       0x22 c:/ac6/systemworkbench/plugins/fr.ac6.mcu.externaltools.arm-none.win32_1.3.0.201507241045/tools/compiler/bin/../lib/gcc/arm-none-eabi/4.9.3/armv7e-m/fpu\libgcc.a(_arm_addsubdf3.o)
 .ARM.attributes
                0x0000090f       0x22 c:/ac6/systemworkbench/plugins/fr.ac6.mcu.externaltools.arm-none.win32_1.3.0.201507241045/tools/compiler/bin/../lib/gcc/arm-none-eabi/4.9.3/armv7e-m/fpu\libgcc.a(_arm_cmpdf2.o)
 .ARM.attributes
                0x00000931       0x34 c:/ac6/systemworkbench/plugins/fr.ac6.mcu.externaltools.arm-none.win32_1.3.0.201507241045/tools/compiler/bin/../lib/gcc/arm-none-eabi/4.9.3/../../../../arm-none-eabi/lib/armv7e-m/fpu\libc.a(lib_a-errno.o)
 .ARM.attributes
                0x00000965       0x34 c:/ac6/systemworkbench/plugins/fr.ac6.mcu.externaltools.arm-none.win32_1.3.0.201507241045/tools/compiler/bin/../lib/gcc/arm-none-eabi/4.9.3/../../../../arm-none-eabi/lib/armv7e-m/fpu\libc.a(lib_a-impure.o)
 .ARM.attributes
                0x00000999       0x34 c:/ac6/systemworkbench/plugins/fr.ac6.mcu.externaltools.arm-none.win32_1.3.0.201507241045/tools/compiler/bin/../lib/gcc/arm-none-eabi/4.9.3/../../../../arm-none-eabi/lib/armv7e-m/fpu\libc.a(lib_a-init.o)
 .ARM.attributes
                0x000009cd       0x34 c:/ac6/systemworkbench/plugins/fr.ac6.mcu.externaltools.arm-none.win32_1.3.0.201507241045/tools/compiler/bin/../lib/gcc/arm-none-eabi/4.9.3/../../../../arm-none-eabi/lib/armv7e-m/fpu\libc.a(lib_a-malloc.o)
 .ARM.attributes
                0x00000a01       0x34 c:/ac6/systemworkbench/plugins/fr.ac6.mcu.externaltools.arm-none.win32_1.3.0.201507241045/tools/compiler/bin/../lib/gcc/arm-none-eabi/4.9.3/../../../../arm-none-eabi/lib/armv7e-m/fpu\libc.a(lib_a-mallocr.o)
 .ARM.attributes
                0x00000a35       0x34 c:/ac6/systemworkbench/plugins/fr.ac6.mcu.externaltools.arm-none.win32_1.3.0.201507241045/tools/compiler/bin/../lib/gcc/arm-none-eabi/4.9.3/../../../../arm-none-eabi/lib/armv7e-m/fpu\libc.a(lib_a-memcmp.o)
 .ARM.attributes
                0x00000a69       0x20 c:/ac6/systemworkbench/plugins/fr.ac6.mcu.externaltools.arm-none.win32_1.3.0.201507241045/tools/compiler/bin/../lib/gcc/arm-none-eabi/4.9.3/../../../../arm-none-eabi/lib/armv7e-m/fpu\libc.a(lib_a-memcpy.o)
 .ARM.attributes
                0x00000a89       0x34 c:/ac6/systemworkbench/plugins/fr.ac6.mcu.externaltools.arm-none.win32_1.3.0.201507241045/tools/compiler/bin/../lib/gcc/arm-none-eabi/4.9.3/../../../../arm-none-eabi/lib/armv7e-m/fpu\libc.a(lib_a-memset.o)
 .ARM.attributes
                0x00000abd       0x34 c:/ac6/systemworkbench/plugins/fr.ac6.mcu.externaltools.arm-none.win32_1.3.0.201507241045/tools/compiler/bin/../lib/gcc/arm-none-eabi/4.9.3/../../../../arm-none-eabi/lib/armv7e-m/fpu\libc.a(lib_a-mlock.o)
 .ARM.attributes
                0x00000af1       0x34 c:/ac6/systemworkbench/plugins/fr.ac6.mcu.externaltools.arm-none.win32_1.3.0.201507241045/tools/compiler/bin/../lib/gcc/arm-none-eabi/4.9.3/../../../../arm-none-eabi/lib/armv7e-m/fpu\libc.a(lib_a-sbrkr.o)
 .ARM.attributes
                0x00000b25       0x34 c:/ac6/systemworkbench/plugins/fr.ac6.mcu.externaltools.arm-none.win32_1.3.0.201507241045/tools/compiler/bin/../lib/gcc/arm-none-eabi/4.9.3/../../../../arm-none-eabi/lib/armv7e-m/fpu\libc.a(lib_a-sprintf.o)
 .ARM.attributes
                0x00000b59       0x34 c:/ac6/systemworkbench/plugins/fr.ac6.mcu.externaltools.arm-none.win32_1.3.0.201507241045/tools/compiler/bin/../lib/gcc/arm-none-eabi/4.9.3/../../../../arm-none-eabi/lib/armv7e-m/fpu\libc.a(lib_a-strlen.o)
 .ARM.attributes
                0x00000b8d       0x34 c:/ac6/systemworkbench/plugins/fr.ac6.mcu.externaltools.arm-none.win32_1.3.0.201507241045/tools/compiler/bin/../lib/gcc/arm-none-eabi/4.9.3/../../../../arm-none-eabi/lib/armv7e-m/fpu\libc.a(lib_a-svfprintf.o)
 .ARM.attributes
                0x00000bc1       0x34 c:/ac6/systemworkbench/plugins/fr.ac6.mcu.externaltools.arm-none.win32_1.3.0.201507241045/tools/compiler/bin/../lib/gcc/arm-none-eabi/4.9.3/../../../../arm-none-eabi/lib/armv7e-m/fpu\libc.a(lib_a-vsnprintf.o)
 .ARM.attributes
                0x00000bf5       0x34 c:/ac6/systemworkbench/plugins/fr.ac6.mcu.externaltools.arm-none.win32_1.3.0.201507241045/tools/compiler/bin/../lib/gcc/arm-none-eabi/4.9.3/../../../../arm-none-eabi/lib/armv7e-m/fpu\libc.a(lib_a-vsprintf.o)
 .ARM.attributes
                0x00000c29       0x34 c:/ac6/systemworkbench/plugins/fr.ac6.mcu.externaltools.arm-none.win32_1.3.0.201507241045/tools/compiler/bin/../lib/gcc/arm-none-eabi/4.9.3/../../../../arm-none-eabi/lib/armv7e-m/fpu\libc.a(lib_a-__call_atexit.o)
 .ARM.attributes
                0x00000c5d       0x34 c:/ac6/systemworkbench/plugins/fr.ac6.mcu.externaltools.arm-none.win32_1.3.0.201507241045/tools/compiler/bin/../lib/gcc/arm-none-eabi/4.9.3/../../../../arm-none-eabi/lib/armv7e-m/fpu\libc.a(lib_a-atexit.o)
 .ARM.attributes
                0x00000c91       0x34 c:/ac6/systemworkbench/plugins/fr.ac6.mcu.externaltools.arm-none.win32_1.3.0.201507241045/tools/compiler/bin/../lib/gcc/arm-none-eabi/4.9.3/../../../../arm-none-eabi/lib/armv7e-m/fpu\libc.a(lib_a-dtoa.o)
 .ARM.attributes
                0x00000cc5       0x34 c:/ac6/systemworkbench/plugins/fr.ac6.mcu.externaltools.arm-none.win32_1.3.0.201507241045/tools/compiler/bin/../lib/gcc/arm-none-eabi/4.9.3/../../../../arm-none-eabi/lib/armv7e-m/fpu\libc.a(lib_a-fini.o)
 .ARM.attributes
                0x00000cf9       0x34 c:/ac6/systemworkbench/plugins/fr.ac6.mcu.externaltools.arm-none.win32_1.3.0.201507241045/tools/compiler/bin/../lib/gcc/arm-none-eabi/4.9.3/../../../../arm-none-eabi/lib/armv7e-m/fpu\libc.a(lib_a-freer.o)
 .ARM.attributes
                0x00000d2d       0x34 c:/ac6/systemworkbench/plugins/fr.ac6.mcu.externaltools.arm-none.win32_1.3.0.201507241045/tools/compiler/bin/../lib/gcc/arm-none-eabi/4.9.3/../../../../arm-none-eabi/lib/armv7e-m/fpu\libc.a(lib_a-locale.o)
 .ARM.attributes
                0x00000d61       0x34 c:/ac6/systemworkbench/plugins/fr.ac6.mcu.externaltools.arm-none.win32_1.3.0.201507241045/tools/compiler/bin/../lib/gcc/arm-none-eabi/4.9.3/../../../../arm-none-eabi/lib/armv7e-m/fpu\libc.a(lib_a-memchr.o)
 .ARM.attributes
                0x00000d95       0x34 c:/ac6/systemworkbench/plugins/fr.ac6.mcu.externaltools.arm-none.win32_1.3.0.201507241045/tools/compiler/bin/../lib/gcc/arm-none-eabi/4.9.3/../../../../arm-none-eabi/lib/armv7e-m/fpu\libc.a(lib_a-mprec.o)
 .ARM.attributes
                0x00000dc9       0x34 c:/ac6/systemworkbench/plugins/fr.ac6.mcu.externaltools.arm-none.win32_1.3.0.201507241045/tools/compiler/bin/../lib/gcc/arm-none-eabi/4.9.3/../../../../arm-none-eabi/lib/armv7e-m/fpu\libc.a(lib_a-reent.o)
 .ARM.attributes
                0x00000dfd       0x34 c:/ac6/systemworkbench/plugins/fr.ac6.mcu.externaltools.arm-none.win32_1.3.0.201507241045/tools/compiler/bin/../lib/gcc/arm-none-eabi/4.9.3/../../../../arm-none-eabi/lib/armv7e-m/fpu\libc.a(lib_a-s_fpclassify.o)
 .ARM.attributes
                0x00000e31       0x34 c:/ac6/systemworkbench/plugins/fr.ac6.mcu.externaltools.arm-none.win32_1.3.0.201507241045/tools/compiler/bin/../lib/gcc/arm-none-eabi/4.9.3/../../../../arm-none-eabi/lib/armv7e-m/fpu\libc.a(lib_a-svfiprintf.o)
 .ARM.attributes
                0x00000e65       0x34 c:/ac6/systemworkbench/plugins/fr.ac6.mcu.externaltools.arm-none.win32_1.3.0.201507241045/tools/compiler/bin/../lib/gcc/arm-none-eabi/4.9.3/../../../../arm-none-eabi/lib/armv7e-m/fpu\libc.a(lib_a-__atexit.o)
 .ARM.attributes
                0x00000e99       0x34 c:/ac6/systemworkbench/plugins/fr.ac6.mcu.externaltools.arm-none.win32_1.3.0.201507241045/tools/compiler/bin/../lib/gcc/arm-none-eabi/4.9.3/../../../../arm-none-eabi/lib/armv7e-m/fpu\libc.a(lib_a-callocr.o)
 .ARM.attributes
                0x00000ecd       0x34 c:/ac6/systemworkbench/plugins/fr.ac6.mcu.externaltools.arm-none.win32_1.3.0.201507241045/tools/compiler/bin/../lib/gcc/arm-none-eabi/4.9.3/../../../../arm-none-eabi/lib/armv7e-m/fpu\libc.a(lib_a-memmove.o)
 .ARM.attributes
                0x00000f01       0x34 c:/ac6/systemworkbench/plugins/fr.ac6.mcu.externaltools.arm-none.win32_1.3.0.201507241045/tools/compiler/bin/../lib/gcc/arm-none-eabi/4.9.3/../../../../arm-none-eabi/lib/armv7e-m/fpu\libc.a(lib_a-reallocr.o)
 .ARM.attributes
                0x00000f35       0x22 c:/ac6/systemworkbench/plugins/fr.ac6.mcu.externaltools.arm-none.win32_1.3.0.201507241045/tools/compiler/bin/../lib/gcc/arm-none-eabi/4.9.3/armv7e-m/fpu\libgcc.a(_arm_muldivdf3.o)
 .ARM.attributes
                0x00000f57       0x22 c:/ac6/systemworkbench/plugins/fr.ac6.mcu.externaltools.arm-none.win32_1.3.0.201507241045/tools/compiler/bin/../lib/gcc/arm-none-eabi/4.9.3/armv7e-m/fpu\libgcc.a(_arm_fixdfsi.o)
 .ARM.attributes
                0x00000f79       0x22 c:/ac6/systemworkbench/plugins/fr.ac6.mcu.externaltools.arm-none.win32_1.3.0.201507241045/tools/compiler/bin/../lib/gcc/arm-none-eabi/4.9.3/armv7e-m/fpu\libgcc.a(_aeabi_uldivmod.o)
 .ARM.attributes
                0x00000f9b       0x34 c:/ac6/systemworkbench/plugins/fr.ac6.mcu.externaltools.arm-none.win32_1.3.0.201507241045/tools/compiler/bin/../lib/gcc/arm-none-eabi/4.9.3/armv7e-m/fpu\libgcc.a(bpabi.o)
 .ARM.attributes
                0x00000fcf       0x22 c:/ac6/systemworkbench/plugins/fr.ac6.mcu.externaltools.arm-none.win32_1.3.0.201507241045/tools/compiler/bin/../lib/gcc/arm-none-eabi/4.9.3/armv7e-m/fpu\libgcc.a(_dvmd_tls.o)
 .ARM.attributes
                0x00000ff1       0x34 c:/ac6/systemworkbench/plugins/fr.ac6.mcu.externaltools.arm-none.win32_1.3.0.201507241045/tools/compiler/bin/../lib/gcc/arm-none-eabi/4.9.3/armv7e-m/fpu\libgcc.a(_divdi3.o)
 .ARM.attributes
                0x00001025       0x34 c:/ac6/systemworkbench/plugins/fr.ac6.mcu.externaltools.arm-none.win32_1.3.0.201507241045/tools/compiler/bin/../lib/gcc/arm-none-eabi/4.9.3/armv7e-m/fpu\libgcc.a(_udivdi3.o)
 .ARM.attributes
                0x00001059       0x22 c:/ac6/systemworkbench/plugins/fr.ac6.mcu.externaltools.arm-none.win32_1.3.0.201507241045/tools/compiler/bin/../lib/gcc/arm-none-eabi/4.9.3/armv7e-m/fpu/crtn.o

.ExtRAMData
 *(.ExtRAMData)
OUTPUT(Happy_1224.elf elf32-littlearm)

.debug_line     0x00000000    0x12c5c
 .debug_line    0x00000000       0x8d startup/startup_stm32f40xx.o
 .debug_line    0x0000008d      0x98e src/main.o
 .debug_line    0x00000a1b      0x99b src/netconf.o
 .debug_line    0x000013b6      0x8f6 src/serial_debug.o
 .debug_line    0x00001cac      0x68c src/serial_io.o
 .debug_line    0x00002338      0xa46 src/stm32f4x7_eth_bsp.o
 .debug_line    0x00002d7e      0x9c2 src/stm32f4xx_it.o
 .debug_line    0x00003740      0x556 src/syscalls.o
 .debug_line    0x00003c96      0x632 src/system_stm32f4xx.o
 .debug_line    0x000042c8      0xa52 src/udp_echoclient.o
 .debug_line    0x00004d1a      0x7bf lwip_v1.3.2/src/netif/etharp.o
 .debug_line    0x000054d9      0xbbe lwip_v1.3.2/src/core/dhcp.o
 .debug_line    0x00006097      0x544 lwip_v1.3.2/src/core/mem.o
 .debug_line    0x000065db      0x5c2 lwip_v1.3.2/src/core/memp.o
 .debug_line    0x00006b9d      0x6f8 lwip_v1.3.2/src/core/netif.o
 .debug_line    0x00007295      0x702 lwip_v1.3.2/src/core/pbuf.o
 .debug_line    0x00007997      0x5d9 lwip_v1.3.2/src/core/raw.o
 .debug_line    0x00007f70      0xac3 lwip_v1.3.2/src/core/tcp.o
 .debug_line    0x00008a33      0xa17 lwip_v1.3.2/src/core/tcp_in.o
 .debug_line    0x0000944a      0x875 lwip_v1.3.2/src/core/tcp_out.o
 .debug_line    0x00009cbf      0x713 lwip_v1.3.2/src/core/udp.o
 .debug_line    0x0000a3d2      0x561 lwip_v1.3.2/src/core/ipv4/icmp.o
 .debug_line    0x0000a933      0x57a lwip_v1.3.2/src/core/ipv4/inet.o
 .debug_line    0x0000aead      0x4e8 lwip_v1.3.2/src/core/ipv4/inet_chksum.o
 .debug_line    0x0000b395      0x66d lwip_v1.3.2/src/core/ipv4/ip.o
 .debug_line    0x0000ba02      0x46c lwip_v1.3.2/src/core/ipv4/ip_addr.o
 .debug_line    0x0000be6e      0x6d7 lwip_v1.3.2/src/core/ipv4/ip_frag.o
 .debug_line    0x0000c545      0xa27 lwip_v1.3.2/port/STM32/Standalone/ethernetif.o
 .debug_line    0x0000cf6c      0x7d8 Utilities/STM3240_41_G_EVAL/stm324xg_eval.o
 .debug_line    0x0000d744      0xc98 Utilities/STM3240_41_G_EVAL/stm324xg_eval_lcd.o
 .debug_line    0x0000e3dc      0x2a4 Utilities/Common/fonts.o
 .debug_line    0x0000e680      0x670 StdPeriph_Driver/src/stm32f4xx_exti.o
 .debug_line    0x0000ecf0      0x81f StdPeriph_Driver/src/stm32f4xx_fsmc.o
 .debug_line    0x0000f50f      0x70e StdPeriph_Driver/src/stm32f4xx_gpio.o
 .debug_line    0x0000fc1d      0x624 StdPeriph_Driver/src/stm32f4xx_misc.o
 .debug_line    0x00010241      0x980 StdPeriph_Driver/src/stm32f4xx_rcc.o
 .debug_line    0x00010bc1      0x630 StdPeriph_Driver/src/stm32f4xx_syscfg.o
 .debug_line    0x000111f1      0x85f StdPeriph_Driver/src/stm32f4xx_usart.o
 .debug_line    0x00011a50     0x120c STM32F4x7_ETH_Driver/src/stm32f4x7_eth.o

.debug_info     0x00000000    0x14736
 .debug_info    0x00000000       0x65 startup/startup_stm32f40xx.o
 .debug_info    0x00000065      0x3bf src/main.o
 .debug_info    0x00000424      0x74d src/netconf.o
 .debug_info    0x00000b71      0x36f src/serial_debug.o
 .debug_info    0x00000ee0      0x296 src/serial_io.o
 .debug_info    0x00001176     0x1710 src/stm32f4x7_eth_bsp.o
 .debug_info    0x00002886      0x19b src/stm32f4xx_it.o
 .debug_info    0x00002a21      0x660 src/syscalls.o
 .debug_info    0x00003081      0x5f0 src/system_stm32f4xx.o
 .debug_info    0x00003671      0x759 src/udp_echoclient.o
 .debug_info    0x00003dca      0xe82 lwip_v1.3.2/src/netif/etharp.o
 .debug_info    0x00004c4c     0x1011 lwip_v1.3.2/src/core/dhcp.o
 .debug_info    0x00005c5d      0x349 lwip_v1.3.2/src/core/mem.o
 .debug_info    0x00005fa6      0x257 lwip_v1.3.2/src/core/memp.o
 .debug_info    0x000061fd      0xea1 lwip_v1.3.2/src/core/netif.o
 .debug_info    0x0000709e      0x66b lwip_v1.3.2/src/core/pbuf.o
 .debug_info    0x00007709      0x69a lwip_v1.3.2/src/core/raw.o
 .debug_info    0x00007da3     0x114d lwip_v1.3.2/src/core/tcp.o
 .debug_info    0x00008ef0      0xbf5 lwip_v1.3.2/src/core/tcp_in.o
 .debug_info    0x00009ae5      0xcca lwip_v1.3.2/src/core/tcp_out.o
 .debug_info    0x0000a7af      0xac5 lwip_v1.3.2/src/core/udp.o
 .debug_info    0x0000b274      0x59b lwip_v1.3.2/src/core/ipv4/icmp.o
 .debug_info    0x0000b80f      0x2e5 lwip_v1.3.2/src/core/ipv4/inet.o
 .debug_info    0x0000baf4      0x2a4 lwip_v1.3.2/src/core/ipv4/inet_chksum.o
 .debug_info    0x0000bd98      0x8c4 lwip_v1.3.2/src/core/ipv4/ip.o
 .debug_info    0x0000c65c      0x309 lwip_v1.3.2/src/core/ipv4/ip_addr.o
 .debug_info    0x0000c965      0x8b3 lwip_v1.3.2/src/core/ipv4/ip_frag.o
 .debug_info    0x0000d218      0xa75 lwip_v1.3.2/port/STM32/Standalone/ethernetif.o
 .debug_info    0x0000dc8d      0xf41 Utilities/STM3240_41_G_EVAL/stm324xg_eval.o
 .debug_info    0x0000ebce      0xf76 Utilities/STM3240_41_G_EVAL/stm324xg_eval_lcd.o
 .debug_info    0x0000fb44      0x1a2 Utilities/Common/fonts.o
 .debug_info    0x0000fce6      0x34f StdPeriph_Driver/src/stm32f4xx_exti.o
 .debug_info    0x00010035      0x8fd StdPeriph_Driver/src/stm32f4xx_fsmc.o
 .debug_info    0x00010932      0x60d StdPeriph_Driver/src/stm32f4xx_gpio.o
 .debug_info    0x00010f3f      0x545 StdPeriph_Driver/src/stm32f4xx_misc.o
 .debug_info    0x00011484      0xc7b StdPeriph_Driver/src/stm32f4xx_rcc.o
 .debug_info    0x000120ff      0x274 StdPeriph_Driver/src/stm32f4xx_syscfg.o
 .debug_info    0x00012373      0x9ca StdPeriph_Driver/src/stm32f4xx_usart.o
 .debug_info    0x00012d3d     0x19f9 STM32F4x7_ETH_Driver/src/stm32f4x7_eth.o

.debug_abbrev   0x00000000     0x3fad
 .debug_abbrev  0x00000000       0x12 startup/startup_stm32f40xx.o
 .debug_abbrev  0x00000012      0x1dd src/main.o
 .debug_abbrev  0x000001ef      0x153 src/netconf.o
 .debug_abbrev  0x00000342      0x17c src/serial_debug.o
 .debug_abbrev  0x000004be      0x140 src/serial_io.o
 .debug_abbrev  0x000005fe      0x294 src/stm32f4x7_eth_bsp.o
 .debug_abbrev  0x00000892       0xeb src/stm32f4xx_it.o
 .debug_abbrev  0x0000097d      0x174 src/syscalls.o
 .debug_abbrev  0x00000af1      0x13b src/system_stm32f4xx.o
 .debug_abbrev  0x00000c2c      0x20e src/udp_echoclient.o
 .debug_abbrev  0x00000e3a      0x20d lwip_v1.3.2/src/netif/etharp.o
 .debug_abbrev  0x00001047      0x21d lwip_v1.3.2/src/core/dhcp.o
 .debug_abbrev  0x00001264      0x161 lwip_v1.3.2/src/core/mem.o
 .debug_abbrev  0x000013c5      0x121 lwip_v1.3.2/src/core/memp.o
 .debug_abbrev  0x000014e6      0x259 lwip_v1.3.2/src/core/netif.o
 .debug_abbrev  0x0000173f      0x1a6 lwip_v1.3.2/src/core/pbuf.o
 .debug_abbrev  0x000018e5      0x1c3 lwip_v1.3.2/src/core/raw.o
 .debug_abbrev  0x00001aa8      0x2c7 lwip_v1.3.2/src/core/tcp.o
 .debug_abbrev  0x00001d6f      0x1ec lwip_v1.3.2/src/core/tcp_in.o
 .debug_abbrev  0x00001f5b      0x227 lwip_v1.3.2/src/core/tcp_out.o
 .debug_abbrev  0x00002182      0x206 lwip_v1.3.2/src/core/udp.o
 .debug_abbrev  0x00002388      0x1a6 lwip_v1.3.2/src/core/ipv4/icmp.o
 .debug_abbrev  0x0000252e      0x133 lwip_v1.3.2/src/core/ipv4/inet.o
 .debug_abbrev  0x00002661      0x13f lwip_v1.3.2/src/core/ipv4/inet_chksum.o
 .debug_abbrev  0x000027a0      0x18f lwip_v1.3.2/src/core/ipv4/ip.o
 .debug_abbrev  0x0000292f       0xff lwip_v1.3.2/src/core/ipv4/ip_addr.o
 .debug_abbrev  0x00002a2e      0x1eb lwip_v1.3.2/src/core/ipv4/ip_frag.o
 .debug_abbrev  0x00002c19      0x212 lwip_v1.3.2/port/STM32/Standalone/ethernetif.o
 .debug_abbrev  0x00002e2b      0x1cf Utilities/STM3240_41_G_EVAL/stm324xg_eval.o
 .debug_abbrev  0x00002ffa      0x25a Utilities/STM3240_41_G_EVAL/stm324xg_eval_lcd.o
 .debug_abbrev  0x00003254       0x98 Utilities/Common/fonts.o
 .debug_abbrev  0x000032ec      0x1aa StdPeriph_Driver/src/stm32f4xx_exti.o
 .debug_abbrev  0x00003496      0x175 StdPeriph_Driver/src/stm32f4xx_fsmc.o
 .debug_abbrev  0x0000360b      0x1a8 StdPeriph_Driver/src/stm32f4xx_gpio.o
 .debug_abbrev  0x000037b3      0x14a StdPeriph_Driver/src/stm32f4xx_misc.o
 .debug_abbrev  0x000038fd      0x1e8 StdPeriph_Driver/src/stm32f4xx_rcc.o
 .debug_abbrev  0x00003ae5      0x136 StdPeriph_Driver/src/stm32f4xx_syscfg.o
 .debug_abbrev  0x00003c1b      0x15a StdPeriph_Driver/src/stm32f4xx_usart.o
 .debug_abbrev  0x00003d75      0x238 STM32F4x7_ETH_Driver/src/stm32f4x7_eth.o

.debug_aranges  0x00000000     0x13e8
 .debug_aranges
                0x00000000       0x30 startup/startup_stm32f40xx.o
 .debug_aranges
                0x00000030       0x40 src/main.o
 .debug_aranges
                0x00000070       0x30 src/netconf.o
 .debug_aranges
                0x000000a0       0x40 src/serial_debug.o
 .debug_aranges
                0x000000e0       0x30 src/serial_io.o
 .debug_aranges
                0x00000110       0x60 src/stm32f4x7_eth_bsp.o
 .debug_aranges
                0x00000170       0x58 src/stm32f4xx_it.o
 .debug_aranges
                0x000001c8       0xb0 src/syscalls.o
 .debug_aranges
                0x00000278       0x30 src/system_stm32f4xx.o
 .debug_aranges
                0x000002a8       0x60 src/udp_echoclient.o
 .debug_aranges
                0x00000308       0x80 lwip_v1.3.2/src/netif/etharp.o
 .debug_aranges
                0x00000388      0x138 lwip_v1.3.2/src/core/dhcp.o
 .debug_aranges
                0x000004c0       0x48 lwip_v1.3.2/src/core/mem.o
 .debug_aranges
                0x00000508       0x30 lwip_v1.3.2/src/core/memp.o
 .debug_aranges
                0x00000538       0x90 lwip_v1.3.2/src/core/netif.o
 .debug_aranges
                0x000005c8       0x80 lwip_v1.3.2/src/core/pbuf.o
 .debug_aranges
                0x00000648       0x58 lwip_v1.3.2/src/core/raw.o
 .debug_aranges
                0x000006a0      0x110 lwip_v1.3.2/src/core/tcp.o
 .debug_aranges
                0x000007b0       0x48 lwip_v1.3.2/src/core/tcp_in.o
 .debug_aranges
                0x000007f8       0x80 lwip_v1.3.2/src/core/tcp_out.o
 .debug_aranges
                0x00000878       0x68 lwip_v1.3.2/src/core/udp.o
 .debug_aranges
                0x000008e0       0x38 lwip_v1.3.2/src/core/ipv4/icmp.o
 .debug_aranges
                0x00000918       0x50 lwip_v1.3.2/src/core/ipv4/inet.o
 .debug_aranges
                0x00000968       0x38 lwip_v1.3.2/src/core/ipv4/inet_chksum.o
 .debug_aranges
                0x000009a0       0x38 lwip_v1.3.2/src/core/ipv4/ip.o
 .debug_aranges
                0x000009d8       0x20 lwip_v1.3.2/src/core/ipv4/ip_addr.o
 .debug_aranges
                0x000009f8       0x58 lwip_v1.3.2/src/core/ipv4/ip_frag.o
 .debug_aranges
                0x00000a50       0x40 lwip_v1.3.2/port/STM32/Standalone/ethernetif.o
 .debug_aranges
                0x00000a90       0x88 Utilities/STM3240_41_G_EVAL/stm324xg_eval.o
 .debug_aranges
                0x00000b18      0x168 Utilities/STM3240_41_G_EVAL/stm324xg_eval_lcd.o
 .debug_aranges
                0x00000c80       0x18 Utilities/Common/fonts.o
 .debug_aranges
                0x00000c98       0x58 StdPeriph_Driver/src/stm32f4xx_exti.o
 .debug_aranges
                0x00000cf0       0xb0 StdPeriph_Driver/src/stm32f4xx_fsmc.o
 .debug_aranges
                0x00000da0       0x88 StdPeriph_Driver/src/stm32f4xx_gpio.o
 .debug_aranges
                0x00000e28       0x40 StdPeriph_Driver/src/stm32f4xx_misc.o
 .debug_aranges
                0x00000e68      0x180 StdPeriph_Driver/src/stm32f4xx_rcc.o
 .debug_aranges
                0x00000fe8       0x48 StdPeriph_Driver/src/stm32f4xx_syscfg.o
 .debug_aranges
                0x00001030      0x100 StdPeriph_Driver/src/stm32f4xx_usart.o
 .debug_aranges
                0x00001130      0x2b8 STM32F4x7_ETH_Driver/src/stm32f4x7_eth.o

.debug_ranges   0x00000000     0x1178
 .debug_ranges  0x00000000       0x28 startup/startup_stm32f40xx.o
 .debug_ranges  0x00000028       0x30 src/main.o
 .debug_ranges  0x00000058       0x20 src/netconf.o
 .debug_ranges  0x00000078       0x30 src/serial_debug.o
 .debug_ranges  0x000000a8       0x20 src/serial_io.o
 .debug_ranges  0x000000c8       0x50 src/stm32f4x7_eth_bsp.o
 .debug_ranges  0x00000118       0x48 src/stm32f4xx_it.o
 .debug_ranges  0x00000160       0xa0 src/syscalls.o
 .debug_ranges  0x00000200       0x20 src/system_stm32f4xx.o
 .debug_ranges  0x00000220       0x50 src/udp_echoclient.o
 .debug_ranges  0x00000270       0x70 lwip_v1.3.2/src/netif/etharp.o
 .debug_ranges  0x000002e0      0x128 lwip_v1.3.2/src/core/dhcp.o
 .debug_ranges  0x00000408       0x38 lwip_v1.3.2/src/core/mem.o
 .debug_ranges  0x00000440       0x20 lwip_v1.3.2/src/core/memp.o
 .debug_ranges  0x00000460       0x80 lwip_v1.3.2/src/core/netif.o
 .debug_ranges  0x000004e0       0x70 lwip_v1.3.2/src/core/pbuf.o
 .debug_ranges  0x00000550       0x48 lwip_v1.3.2/src/core/raw.o
 .debug_ranges  0x00000598      0x100 lwip_v1.3.2/src/core/tcp.o
 .debug_ranges  0x00000698       0x38 lwip_v1.3.2/src/core/tcp_in.o
 .debug_ranges  0x000006d0       0x70 lwip_v1.3.2/src/core/tcp_out.o
 .debug_ranges  0x00000740       0x58 lwip_v1.3.2/src/core/udp.o
 .debug_ranges  0x00000798       0x28 lwip_v1.3.2/src/core/ipv4/icmp.o
 .debug_ranges  0x000007c0       0x40 lwip_v1.3.2/src/core/ipv4/inet.o
 .debug_ranges  0x00000800       0x28 lwip_v1.3.2/src/core/ipv4/inet_chksum.o
 .debug_ranges  0x00000828       0x28 lwip_v1.3.2/src/core/ipv4/ip.o
 .debug_ranges  0x00000850       0x10 lwip_v1.3.2/src/core/ipv4/ip_addr.o
 .debug_ranges  0x00000860       0x48 lwip_v1.3.2/src/core/ipv4/ip_frag.o
 .debug_ranges  0x000008a8       0x30 lwip_v1.3.2/port/STM32/Standalone/ethernetif.o
 .debug_ranges  0x000008d8       0x78 Utilities/STM3240_41_G_EVAL/stm324xg_eval.o
 .debug_ranges  0x00000950      0x158 Utilities/STM3240_41_G_EVAL/stm324xg_eval_lcd.o
 .debug_ranges  0x00000aa8       0x48 StdPeriph_Driver/src/stm32f4xx_exti.o
 .debug_ranges  0x00000af0       0xa0 StdPeriph_Driver/src/stm32f4xx_fsmc.o
 .debug_ranges  0x00000b90       0x78 StdPeriph_Driver/src/stm32f4xx_gpio.o
 .debug_ranges  0x00000c08       0x30 StdPeriph_Driver/src/stm32f4xx_misc.o
 .debug_ranges  0x00000c38      0x170 StdPeriph_Driver/src/stm32f4xx_rcc.o
 .debug_ranges  0x00000da8       0x38 StdPeriph_Driver/src/stm32f4xx_syscfg.o
 .debug_ranges  0x00000de0       0xf0 StdPeriph_Driver/src/stm32f4xx_usart.o
 .debug_ranges  0x00000ed0      0x2a8 STM32F4x7_ETH_Driver/src/stm32f4x7_eth.o

.debug_macro    0x00000000    0x19146
 .debug_macro   0x00000000      0x3f1 src/main.o
 .debug_macro   0x000003f1      0x89e src/main.o
 .debug_macro   0x00000c8f       0x5d src/main.o
 .debug_macro   0x00000cec       0x3b src/main.o
 .debug_macro   0x00000d27       0x22 src/main.o
 .debug_macro   0x00000d49       0x44 src/main.o
 .debug_macro   0x00000d8d       0x1c src/main.o
 .debug_macro   0x00000da9      0x1f7 src/main.o
 .debug_macro   0x00000fa0       0x18 src/main.o
 .debug_macro   0x00000fb8       0x42 src/main.o
 .debug_macro   0x00000ffa      0xd39 src/main.o
 .debug_macro   0x00001d33     0x822c src/main.o
 .debug_macro   0x00009f5f      0x44f src/main.o
 .debug_macro   0x0000a3ae      0x3cf src/main.o
 .debug_macro   0x0000a77d      0x144 src/main.o
 .debug_macro   0x0000a8c1      0x188 src/main.o
 .debug_macro   0x0000aa49       0xb2 src/main.o
 .debug_macro   0x0000aafb      0x149 src/main.o
 .debug_macro   0x0000ac44      0x477 src/main.o
 .debug_macro   0x0000b0bb       0xae src/main.o
 .debug_macro   0x0000b169      0x2f7 src/main.o
 .debug_macro   0x0000b460      0x279 src/main.o
 .debug_macro   0x0000b6d9       0xc3 src/main.o
 .debug_macro   0x0000b79c      0x288 src/main.o
 .debug_macro   0x0000ba24      0x2bb src/main.o
 .debug_macro   0x0000bcdf       0x64 src/main.o
 .debug_macro   0x0000bd43       0xae src/main.o
 .debug_macro   0x0000bdf1      0x57c src/main.o
 .debug_macro   0x0000c36d       0x40 src/main.o
 .debug_macro   0x0000c3ad      0x57b src/main.o
 .debug_macro   0x0000c928      0x342 src/main.o
 .debug_macro   0x0000cc6a      0x36c src/main.o
 .debug_macro   0x0000cfd6       0xe2 src/main.o
 .debug_macro   0x0000d0b8      0x73b src/main.o
 .debug_macro   0x0000d7f3      0x223 src/main.o
 .debug_macro   0x0000da16       0x34 src/main.o
 .debug_macro   0x0000da4a       0x82 src/main.o
 .debug_macro   0x0000dacc       0x35 src/main.o
 .debug_macro   0x0000db01       0x10 src/main.o
 .debug_macro   0x0000db11      0x3d4 src/main.o
 .debug_macro   0x0000dee5      0x2e4 src/main.o
 .debug_macro   0x0000e1c9       0x10 src/main.o
 .debug_macro   0x0000e1d9      0x42a src/main.o
 .debug_macro   0x0000e603       0xf5 src/main.o
 .debug_macro   0x0000e6f8       0x16 src/main.o
 .debug_macro   0x0000e70e       0x10 src/main.o
 .debug_macro   0x0000e71e       0x4c src/main.o
 .debug_macro   0x0000e76a      0x3bd src/main.o
 .debug_macro   0x0000eb27       0x58 src/main.o
 .debug_macro   0x0000eb7f       0x35 src/main.o
 .debug_macro   0x0000ebb4       0x9c src/main.o
 .debug_macro   0x0000ec50       0x16 src/main.o
 .debug_macro   0x0000ec66       0x97 src/main.o
 .debug_macro   0x0000ecfd      0x29d src/main.o
 .debug_macro   0x0000ef9a       0xef src/main.o
 .debug_macro   0x0000f089       0x10 src/main.o
 .debug_macro   0x0000f099       0x52 src/main.o
 .debug_macro   0x0000f0eb       0x16 src/main.o
 .debug_macro   0x0000f101       0x43 src/main.o
 .debug_macro   0x0000f144      0x180 src/main.o
 .debug_macro   0x0000f2c4       0x10 src/main.o
 .debug_macro   0x0000f2d4       0x22 src/main.o
 .debug_macro   0x0000f2f6       0xbd src/main.o
 .debug_macro   0x0000f3b3       0x16 src/main.o
 .debug_macro   0x0000f3c9      0x196 src/main.o
 .debug_macro   0x0000f55f       0x5e src/main.o
 .debug_macro   0x0000f5bd      0x43d src/main.o
 .debug_macro   0x0000f9fa       0x70 src/main.o
 .debug_macro   0x0000fa6a       0x28 src/main.o
 .debug_macro   0x0000fa92       0xed src/main.o
 .debug_macro   0x0000fb7f       0x22 src/main.o
 .debug_macro   0x0000fba1       0x42 src/main.o
 .debug_macro   0x0000fbe3       0x40 src/main.o
 .debug_macro   0x0000fc23       0xbe src/main.o
 .debug_macro   0x0000fce1       0x70 src/main.o
 .debug_macro   0x0000fd51      0xcad src/main.o
 .debug_macro   0x000109fe       0x28 src/main.o
 .debug_macro   0x00010a26       0x9b src/main.o
 .debug_macro   0x00010ac1       0x16 src/main.o
 .debug_macro   0x00010ad7       0x16 src/main.o
 .debug_macro   0x00010aed      0x11a src/main.o
 .debug_macro   0x00010c07       0x64 src/main.o
 .debug_macro   0x00010c6b      0x242 src/main.o
 .debug_macro   0x00010ead      0x3e3 src/netconf.o
 .debug_macro   0x00011290       0x4a src/netconf.o
 .debug_macro   0x000112da       0x10 src/netconf.o
 .debug_macro   0x000112ea       0x10 src/netconf.o
 .debug_macro   0x000112fa       0x3a src/netconf.o
 .debug_macro   0x00011334       0x1c src/netconf.o
 .debug_macro   0x00011350       0x4e src/netconf.o
 .debug_macro   0x0001139e       0x3e src/netconf.o
 .debug_macro   0x000113dc       0x77 src/netconf.o
 .debug_macro   0x00011453      0x25b src/netconf.o
 .debug_macro   0x000116ae      0x42a src/netconf.o
 .debug_macro   0x00011ad8      0x3a4 src/serial_debug.o
 .debug_macro   0x00011e7c       0x52 src/serial_debug.o
 .debug_macro   0x00011ece       0x16 src/serial_debug.o
 .debug_macro   0x00011ee4       0x35 src/serial_debug.o
 .debug_macro   0x00011f19       0x16 src/serial_debug.o
 .debug_macro   0x00011f2f       0x29 src/serial_debug.o
 .debug_macro   0x00011f58      0x1bf src/serial_io.o
 .debug_macro   0x00012117       0x10 src/serial_io.o
 .debug_macro   0x00012127      0x3b4 src/stm32f4x7_eth_bsp.o
 .debug_macro   0x000124db       0x10 src/stm32f4x7_eth_bsp.o
 .debug_macro   0x000124eb       0x38 src/stm32f4x7_eth_bsp.o
 .debug_macro   0x00012523      0x255 src/stm32f4x7_eth_bsp.o
 .debug_macro   0x00012778      0x3b6 src/stm32f4xx_it.o
 .debug_macro   0x00012b2e       0x2e src/stm32f4xx_it.o
 .debug_macro   0x00012b5c      0x41d src/stm32f4xx_it.o
 .debug_macro   0x00012f79      0x1f4 src/stm32f4xx_it.o
 .debug_macro   0x0001316d       0x16 src/stm32f4xx_it.o
 .debug_macro   0x00013183       0x10 src/stm32f4xx_it.o
 .debug_macro   0x00013193      0x1ac src/syscalls.o
 .debug_macro   0x0001333f      0x166 src/syscalls.o
 .debug_macro   0x000134a5       0x10 src/syscalls.o
 .debug_macro   0x000134b5       0x10 src/syscalls.o
 .debug_macro   0x000134c5       0x10 src/syscalls.o
 .debug_macro   0x000134d5       0x35 src/syscalls.o
 .debug_macro   0x0001350a      0x121 src/syscalls.o
 .debug_macro   0x0001362b       0x10 src/syscalls.o
 .debug_macro   0x0001363b      0x241 src/syscalls.o
 .debug_macro   0x0001387c       0x1c src/syscalls.o
 .debug_macro   0x00013898      0x13e src/syscalls.o
 .debug_macro   0x000139d6       0x16 src/syscalls.o
 .debug_macro   0x000139ec       0x22 src/syscalls.o
 .debug_macro   0x00013a0e      0x1c1 src/system_stm32f4xx.o
 .debug_macro   0x00013bcf      0x3e2 src/udp_echoclient.o
 .debug_macro   0x00013fb1       0x16 src/udp_echoclient.o
 .debug_macro   0x00013fc7       0x10 src/udp_echoclient.o
 .debug_macro   0x00013fd7      0x241 lwip_v1.3.2/src/netif/etharp.o
 .debug_macro   0x00014218       0xf3 lwip_v1.3.2/src/netif/etharp.o
 .debug_macro   0x0001430b      0x10e lwip_v1.3.2/src/netif/etharp.o
 .debug_macro   0x00014419      0x31b lwip_v1.3.2/src/netif/etharp.o
 .debug_macro   0x00014734      0x238 lwip_v1.3.2/src/core/dhcp.o
 .debug_macro   0x0001496c      0x1e4 lwip_v1.3.2/src/core/mem.o
 .debug_macro   0x00014b50      0x28c lwip_v1.3.2/src/core/memp.o
 .debug_macro   0x00014ddc      0x114 lwip_v1.3.2/src/core/memp.o
 .debug_macro   0x00014ef0       0x10 lwip_v1.3.2/src/core/memp.o
 .debug_macro   0x00014f00      0x1ff lwip_v1.3.2/src/core/netif.o
 .debug_macro   0x000150ff      0x120 lwip_v1.3.2/src/core/netif.o
 .debug_macro   0x0001521f      0x1d1 lwip_v1.3.2/src/core/pbuf.o
 .debug_macro   0x000153f0       0x16 lwip_v1.3.2/src/core/pbuf.o
 .debug_macro   0x00015406      0x201 lwip_v1.3.2/src/core/raw.o
 .debug_macro   0x00015607      0x21d lwip_v1.3.2/src/core/tcp.o
 .debug_macro   0x00015824      0x20c lwip_v1.3.2/src/core/tcp_in.o
 .debug_macro   0x00015a30      0x21a lwip_v1.3.2/src/core/tcp_out.o
 .debug_macro   0x00015c4a      0x22d lwip_v1.3.2/src/core/udp.o
 .debug_macro   0x00015e77      0x21a lwip_v1.3.2/src/core/ipv4/icmp.o
 .debug_macro   0x00016091       0x5e lwip_v1.3.2/src/core/ipv4/icmp.o
 .debug_macro   0x000160ef      0x178 lwip_v1.3.2/src/core/ipv4/inet.o
 .debug_macro   0x00016267      0x1a1 lwip_v1.3.2/src/core/ipv4/inet_chksum.o
 .debug_macro   0x00016408      0x248 lwip_v1.3.2/src/core/ipv4/ip.o
 .debug_macro   0x00016650      0x18f lwip_v1.3.2/src/core/ipv4/ip_addr.o
 .debug_macro   0x000167df      0x22f lwip_v1.3.2/src/core/ipv4/ip_frag.o
 .debug_macro   0x00016a0e      0x3d5 lwip_v1.3.2/port/STM32/Standalone/ethernetif.o
 .debug_macro   0x00016de3       0x71 lwip_v1.3.2/port/STM32/Standalone/ethernetif.o
 .debug_macro   0x00016e54      0x1b6 Utilities/STM3240_41_G_EVAL/stm324xg_eval.o
 .debug_macro   0x0001700a      0x1f2 Utilities/STM3240_41_G_EVAL/stm324xg_eval_lcd.o
 .debug_macro   0x000171fc       0x5b Utilities/Common/fonts.o
 .debug_macro   0x00017257      0x1ae StdPeriph_Driver/src/stm32f4xx_exti.o
 .debug_macro   0x00017405       0xa8 StdPeriph_Driver/src/stm32f4xx_exti.o
 .debug_macro   0x000174ad      0x1d8 StdPeriph_Driver/src/stm32f4xx_fsmc.o
 .debug_macro   0x00017685      0x273 StdPeriph_Driver/src/stm32f4xx_fsmc.o
 .debug_macro   0x000178f8      0x1a8 StdPeriph_Driver/src/stm32f4xx_gpio.o
 .debug_macro   0x00017aa0      0x282 StdPeriph_Driver/src/stm32f4xx_gpio.o
 .debug_macro   0x00017d22      0x1ae StdPeriph_Driver/src/stm32f4xx_misc.o
 .debug_macro   0x00017ed0       0x7c StdPeriph_Driver/src/stm32f4xx_misc.o
 .debug_macro   0x00017f4c      0x264 StdPeriph_Driver/src/stm32f4xx_rcc.o
 .debug_macro   0x000181b0      0x576 StdPeriph_Driver/src/stm32f4xx_rcc.o
 .debug_macro   0x00018726      0x1d2 StdPeriph_Driver/src/stm32f4xx_syscfg.o
 .debug_macro   0x000188f8       0xdc StdPeriph_Driver/src/stm32f4xx_syscfg.o
 .debug_macro   0x000189d4      0x1c0 StdPeriph_Driver/src/stm32f4xx_usart.o
 .debug_macro   0x00018b94      0x21d StdPeriph_Driver/src/stm32f4xx_usart.o
 .debug_macro   0x00018db1      0x395 STM32F4x7_ETH_Driver/src/stm32f4x7_eth.o

.debug_str      0x00000000    0x757a8
 .debug_str     0x00000000    0x6a77c src/main.o
                              0x6aad9 (size before relaxing)
 .debug_str     0x0006a77c      0xf76 src/netconf.o
                              0x6376f (size before relaxing)
 .debug_str     0x0006b6f2      0x337 src/serial_debug.o
                              0x60c44 (size before relaxing)
 .debug_str     0x0006ba29       0x69 src/serial_io.o
                              0x5a3f0 (size before relaxing)
 .debug_str     0x0006ba92      0xf77 src/stm32f4x7_eth_bsp.o
                              0x6abcf (size before relaxing)
 .debug_str     0x0006ca09     0x1ad8 src/stm32f4xx_it.o
                              0x6a3db (size before relaxing)
 .debug_str     0x0006e4e1      0xcca src/syscalls.o
                               0x6796 (size before relaxing)
 .debug_str     0x0006f1ab      0x1c7 src/system_stm32f4xx.o
                              0x58d4f (size before relaxing)
 .debug_str     0x0006f372      0x25e src/udp_echoclient.o
                              0x62b1f (size before relaxing)
 .debug_str     0x0006f5d0     0x14bd lwip_v1.3.2/src/netif/etharp.o
                               0xa9fe (size before relaxing)
 .debug_str     0x00070a8d      0x379 lwip_v1.3.2/src/core/dhcp.o
                               0x9fec (size before relaxing)
 .debug_str     0x00070e06      0x23b lwip_v1.3.2/src/core/mem.o
                               0x7f06 (size before relaxing)
 .debug_str     0x00071041      0x1de lwip_v1.3.2/src/core/memp.o
                               0xa731 (size before relaxing)
 .debug_str     0x0007121f      0x38d lwip_v1.3.2/src/core/netif.o
                               0xbac5 (size before relaxing)
 .debug_str     0x000715ac      0x222 lwip_v1.3.2/src/core/pbuf.o
                               0x8160 (size before relaxing)
 .debug_str     0x000717ce       0x99 lwip_v1.3.2/src/core/raw.o
                               0x9acb (size before relaxing)
 .debug_str     0x00071867      0x2ce lwip_v1.3.2/src/core/tcp.o
                               0xb61c (size before relaxing)
 .debug_str     0x00071b35      0x113 lwip_v1.3.2/src/core/tcp_in.o
                               0xb4a5 (size before relaxing)
 .debug_str     0x00071c48      0x12d lwip_v1.3.2/src/core/tcp_out.o
                               0xb483 (size before relaxing)
 .debug_str     0x00071d75      0x16d lwip_v1.3.2/src/core/udp.o
                               0xa6bb (size before relaxing)
 .debug_str     0x00071ee2      0x104 lwip_v1.3.2/src/core/ipv4/icmp.o
                               0x9bde (size before relaxing)
 .debug_str     0x00071fe6      0x1a2 lwip_v1.3.2/src/core/ipv4/inet.o
                               0x74f0 (size before relaxing)
 .debug_str     0x00072188      0x11b lwip_v1.3.2/src/core/ipv4/inet_chksum.o
                               0x7ebd (size before relaxing)
 .debug_str     0x000722a3       0x95 lwip_v1.3.2/src/core/ipv4/ip.o
                               0xbbe2 (size before relaxing)
 .debug_str     0x00072338       0x89 lwip_v1.3.2/src/core/ipv4/ip_addr.o
                               0x7fa9 (size before relaxing)
 .debug_str     0x000723c1      0x2e5 lwip_v1.3.2/src/core/ipv4/ip_frag.o
                               0x9e45 (size before relaxing)
 .debug_str     0x000726a6      0x1cf lwip_v1.3.2/port/STM32/Standalone/ethernetif.o
                              0x69721 (size before relaxing)
 .debug_str     0x00072875      0x300 Utilities/STM3240_41_G_EVAL/stm324xg_eval.o
                              0x5b093 (size before relaxing)
 .debug_str     0x00072b75      0x6d0 Utilities/STM3240_41_G_EVAL/stm324xg_eval_lcd.o
                              0x5b727 (size before relaxing)
 .debug_str     0x00073245       0x78 Utilities/Common/fonts.o
                               0x30df (size before relaxing)
 .debug_str     0x000732bd      0x118 StdPeriph_Driver/src/stm32f4xx_exti.o
                              0x58cc8 (size before relaxing)
 .debug_str     0x000733d5      0x515 StdPeriph_Driver/src/stm32f4xx_fsmc.o
                              0x5920c (size before relaxing)
 .debug_str     0x000738ea      0x17c StdPeriph_Driver/src/stm32f4xx_gpio.o
                              0x58df0 (size before relaxing)
 .debug_str     0x00073a66      0x126 StdPeriph_Driver/src/stm32f4xx_misc.o
                              0x58d4f (size before relaxing)
 .debug_str     0x00073b8c      0xa75 StdPeriph_Driver/src/stm32f4xx_rcc.o
                              0x59727 (size before relaxing)
 .debug_str     0x00074601      0x2a2 StdPeriph_Driver/src/stm32f4xx_syscfg.o
                              0x58da1 (size before relaxing)
 .debug_str     0x000748a3      0x4a3 StdPeriph_Driver/src/stm32f4xx_usart.o
                              0x59100 (size before relaxing)
 .debug_str     0x00074d46      0xa62 STM32F4x7_ETH_Driver/src/stm32f4x7_eth.o
                              0x69bca (size before relaxing)

.comment        0x00000000       0x70
 .comment       0x00000000       0x70 src/main.o
                                 0x71 (size before relaxing)
 .comment       0x00000000       0x71 src/netconf.o
 .comment       0x00000000       0x71 src/serial_debug.o
 .comment       0x00000000       0x71 src/serial_io.o
 .comment       0x00000000       0x71 src/stm32f4x7_eth_bsp.o
 .comment       0x00000000       0x71 src/stm32f4xx_it.o
 .comment       0x00000000       0x71 src/syscalls.o
 .comment       0x00000000       0x71 src/system_stm32f4xx.o
 .comment       0x00000000       0x71 src/udp_echoclient.o
 .comment       0x00000000       0x71 lwip_v1.3.2/src/netif/etharp.o
 .comment       0x00000000       0x71 lwip_v1.3.2/src/core/dhcp.o
 .comment       0x00000000       0x71 lwip_v1.3.2/src/core/mem.o
 .comment       0x00000000       0x71 lwip_v1.3.2/src/core/memp.o
 .comment       0x00000000       0x71 lwip_v1.3.2/src/core/netif.o
 .comment       0x00000000       0x71 lwip_v1.3.2/src/core/pbuf.o
 .comment       0x00000000       0x71 lwip_v1.3.2/src/core/raw.o
 .comment       0x00000000       0x71 lwip_v1.3.2/src/core/tcp.o
 .comment       0x00000000       0x71 lwip_v1.3.2/src/core/tcp_in.o
 .comment       0x00000000       0x71 lwip_v1.3.2/src/core/tcp_out.o
 .comment       0x00000000       0x71 lwip_v1.3.2/src/core/udp.o
 .comment       0x00000000       0x71 lwip_v1.3.2/src/core/ipv4/icmp.o
 .comment       0x00000000       0x71 lwip_v1.3.2/src/core/ipv4/inet.o
 .comment       0x00000000       0x71 lwip_v1.3.2/src/core/ipv4/inet_chksum.o
 .comment       0x00000000       0x71 lwip_v1.3.2/src/core/ipv4/ip.o
 .comment       0x00000000       0x71 lwip_v1.3.2/src/core/ipv4/ip_addr.o
 .comment       0x00000000       0x71 lwip_v1.3.2/src/core/ipv4/ip_frag.o
 .comment       0x00000000       0x71 lwip_v1.3.2/port/STM32/Standalone/ethernetif.o
 .comment       0x00000000       0x71 Utilities/STM3240_41_G_EVAL/stm324xg_eval.o
 .comment       0x00000000       0x71 Utilities/STM3240_41_G_EVAL/stm324xg_eval_lcd.o
 .comment       0x00000000       0x71 Utilities/Common/fonts.o
 .comment       0x00000000       0x71 StdPeriph_Driver/src/stm32f4xx_exti.o
 .comment       0x00000000       0x71 StdPeriph_Driver/src/stm32f4xx_fsmc.o
 .comment       0x00000000       0x71 StdPeriph_Driver/src/stm32f4xx_gpio.o
 .comment       0x00000000       0x71 StdPeriph_Driver/src/stm32f4xx_misc.o
 .comment       0x00000000       0x71 StdPeriph_Driver/src/stm32f4xx_rcc.o
 .comment       0x00000000       0x71 StdPeriph_Driver/src/stm32f4xx_syscfg.o
 .comment       0x00000000       0x71 StdPeriph_Driver/src/stm32f4xx_usart.o
 .comment       0x00000000       0x71 STM32F4x7_ETH_Driver/src/stm32f4x7_eth.o

.debug_frame    0x00000000     0x5990
 .debug_frame   0x00000000       0xb8 src/main.o
 .debug_frame   0x000000b8       0x7c src/netconf.o
 .debug_frame   0x00000134       0xdc src/serial_debug.o
 .debug_frame   0x00000210       0x74 src/serial_io.o
 .debug_frame   0x00000284      0x158 src/stm32f4x7_eth_bsp.o
 .debug_frame   0x000003dc       0xe8 src/stm32f4xx_it.o
 .debug_frame   0x000004c4      0x2d4 src/syscalls.o
 .debug_frame   0x00000798       0x7c src/system_stm32f4xx.o
 .debug_frame   0x00000814      0x144 src/udp_echoclient.o
 .debug_frame   0x00000958      0x1fc lwip_v1.3.2/src/netif/etharp.o
 .debug_frame   0x00000b54      0x56c lwip_v1.3.2/src/core/dhcp.o
 .debug_frame   0x000010c0       0xf8 lwip_v1.3.2/src/core/mem.o
 .debug_frame   0x000011b8       0x88 lwip_v1.3.2/src/core/memp.o
 .debug_frame   0x00001240      0x248 lwip_v1.3.2/src/core/netif.o
 .debug_frame   0x00001488      0x1f4 lwip_v1.3.2/src/core/pbuf.o
 .debug_frame   0x0000167c      0x144 lwip_v1.3.2/src/core/raw.o
 .debug_frame   0x000017c0      0x498 lwip_v1.3.2/src/core/tcp.o
 .debug_frame   0x00001c58      0x110 lwip_v1.3.2/src/core/tcp_in.o
 .debug_frame   0x00001d68      0x214 lwip_v1.3.2/src/core/tcp_out.o
 .debug_frame   0x00001f7c      0x194 lwip_v1.3.2/src/core/udp.o
 .debug_frame   0x00002110       0xa8 lwip_v1.3.2/src/core/ipv4/icmp.o
 .debug_frame   0x000021b8      0x11c lwip_v1.3.2/src/core/ipv4/inet.o
 .debug_frame   0x000022d4       0xa0 lwip_v1.3.2/src/core/ipv4/inet_chksum.o
 .debug_frame   0x00002374       0xac lwip_v1.3.2/src/core/ipv4/ip.o
 .debug_frame   0x00002420       0x38 lwip_v1.3.2/src/core/ipv4/ip_addr.o
 .debug_frame   0x00002458      0x138 lwip_v1.3.2/src/core/ipv4/ip_frag.o
 .debug_frame   0x00002590       0xc4 lwip_v1.3.2/port/STM32/Standalone/ethernetif.o
 .debug_frame   0x00002654      0x214 Utilities/STM3240_41_G_EVAL/stm324xg_eval.o
 .debug_frame   0x00002868      0x61c Utilities/STM3240_41_G_EVAL/stm324xg_eval_lcd.o
 .debug_frame   0x00002e84      0x148 StdPeriph_Driver/src/stm32f4xx_exti.o
 .debug_frame   0x00002fcc      0x300 StdPeriph_Driver/src/stm32f4xx_fsmc.o
 .debug_frame   0x000032cc      0x23c StdPeriph_Driver/src/stm32f4xx_gpio.o
 .debug_frame   0x00003508       0xd8 StdPeriph_Driver/src/stm32f4xx_misc.o
 .debug_frame   0x000035e0      0x6fc StdPeriph_Driver/src/stm32f4xx_rcc.o
 .debug_frame   0x00003cdc       0xf4 StdPeriph_Driver/src/stm32f4xx_syscfg.o
 .debug_frame   0x00003dd0      0x490 StdPeriph_Driver/src/stm32f4xx_usart.o
 .debug_frame   0x00004260      0xc54 STM32F4x7_ETH_Driver/src/stm32f4x7_eth.o
 .debug_frame   0x00004eb4       0x20 c:/ac6/systemworkbench/plugins/fr.ac6.mcu.externaltools.arm-none.win32_1.3.0.201507241045/tools/compiler/bin/../lib/gcc/arm-none-eabi/4.9.3/../../../../arm-none-eabi/lib/armv7e-m/fpu\libc.a(lib_a-errno.o)
 .debug_frame   0x00004ed4       0x2c c:/ac6/systemworkbench/plugins/fr.ac6.mcu.externaltools.arm-none.win32_1.3.0.201507241045/tools/compiler/bin/../lib/gcc/arm-none-eabi/4.9.3/../../../../arm-none-eabi/lib/armv7e-m/fpu\libc.a(lib_a-init.o)
 .debug_frame   0x00004f00       0x30 c:/ac6/systemworkbench/plugins/fr.ac6.mcu.externaltools.arm-none.win32_1.3.0.201507241045/tools/compiler/bin/../lib/gcc/arm-none-eabi/4.9.3/../../../../arm-none-eabi/lib/armv7e-m/fpu\libc.a(lib_a-malloc.o)
 .debug_frame   0x00004f30       0x58 c:/ac6/systemworkbench/plugins/fr.ac6.mcu.externaltools.arm-none.win32_1.3.0.201507241045/tools/compiler/bin/../lib/gcc/arm-none-eabi/4.9.3/../../../../arm-none-eabi/lib/armv7e-m/fpu\libc.a(lib_a-mallocr.o)
 .debug_frame   0x00004f88       0x38 c:/ac6/systemworkbench/plugins/fr.ac6.mcu.externaltools.arm-none.win32_1.3.0.201507241045/tools/compiler/bin/../lib/gcc/arm-none-eabi/4.9.3/../../../../arm-none-eabi/lib/armv7e-m/fpu\libc.a(lib_a-memcmp.o)
 .debug_frame   0x00004fc0       0x34 c:/ac6/systemworkbench/plugins/fr.ac6.mcu.externaltools.arm-none.win32_1.3.0.201507241045/tools/compiler/bin/../lib/gcc/arm-none-eabi/4.9.3/../../../../arm-none-eabi/lib/armv7e-m/fpu\libc.a(lib_a-memset.o)
 .debug_frame   0x00004ff4       0x30 c:/ac6/systemworkbench/plugins/fr.ac6.mcu.externaltools.arm-none.win32_1.3.0.201507241045/tools/compiler/bin/../lib/gcc/arm-none-eabi/4.9.3/../../../../arm-none-eabi/lib/armv7e-m/fpu\libc.a(lib_a-mlock.o)
 .debug_frame   0x00005024       0x2c c:/ac6/systemworkbench/plugins/fr.ac6.mcu.externaltools.arm-none.win32_1.3.0.201507241045/tools/compiler/bin/../lib/gcc/arm-none-eabi/4.9.3/../../../../arm-none-eabi/lib/armv7e-m/fpu\libc.a(lib_a-sbrkr.o)
 .debug_frame   0x00005050       0x84 c:/ac6/systemworkbench/plugins/fr.ac6.mcu.externaltools.arm-none.win32_1.3.0.201507241045/tools/compiler/bin/../lib/gcc/arm-none-eabi/4.9.3/../../../../arm-none-eabi/lib/armv7e-m/fpu\libc.a(lib_a-sprintf.o)
 .debug_frame   0x000050d4       0x20 c:/ac6/systemworkbench/plugins/fr.ac6.mcu.externaltools.arm-none.win32_1.3.0.201507241045/tools/compiler/bin/../lib/gcc/arm-none-eabi/4.9.3/../../../../arm-none-eabi/lib/armv7e-m/fpu\libc.a(lib_a-strlen.o)
 .debug_frame   0x000050f4       0x40 c:/ac6/systemworkbench/plugins/fr.ac6.mcu.externaltools.arm-none.win32_1.3.0.201507241045/tools/compiler/bin/../lib/gcc/arm-none-eabi/4.9.3/../../../../arm-none-eabi/lib/armv7e-m/fpu\libc.a(lib_a-svfprintf.o)
 .debug_frame   0x00005134       0x60 c:/ac6/systemworkbench/plugins/fr.ac6.mcu.externaltools.arm-none.win32_1.3.0.201507241045/tools/compiler/bin/../lib/gcc/arm-none-eabi/4.9.3/../../../../arm-none-eabi/lib/armv7e-m/fpu\libc.a(lib_a-vsnprintf.o)
 .debug_frame   0x00005194       0x50 c:/ac6/systemworkbench/plugins/fr.ac6.mcu.externaltools.arm-none.win32_1.3.0.201507241045/tools/compiler/bin/../lib/gcc/arm-none-eabi/4.9.3/../../../../arm-none-eabi/lib/armv7e-m/fpu\libc.a(lib_a-vsprintf.o)
 .debug_frame   0x000051e4       0x50 c:/ac6/systemworkbench/plugins/fr.ac6.mcu.externaltools.arm-none.win32_1.3.0.201507241045/tools/compiler/bin/../lib/gcc/arm-none-eabi/4.9.3/../../../../arm-none-eabi/lib/armv7e-m/fpu\libc.a(lib_a-__call_atexit.o)
 .debug_frame   0x00005234       0x20 c:/ac6/systemworkbench/plugins/fr.ac6.mcu.externaltools.arm-none.win32_1.3.0.201507241045/tools/compiler/bin/../lib/gcc/arm-none-eabi/4.9.3/../../../../arm-none-eabi/lib/armv7e-m/fpu\libc.a(lib_a-atexit.o)
 .debug_frame   0x00005254       0x88 c:/ac6/systemworkbench/plugins/fr.ac6.mcu.externaltools.arm-none.win32_1.3.0.201507241045/tools/compiler/bin/../lib/gcc/arm-none-eabi/4.9.3/../../../../arm-none-eabi/lib/armv7e-m/fpu\libc.a(lib_a-dtoa.o)
 .debug_frame   0x000052dc       0x34 c:/ac6/systemworkbench/plugins/fr.ac6.mcu.externaltools.arm-none.win32_1.3.0.201507241045/tools/compiler/bin/../lib/gcc/arm-none-eabi/4.9.3/../../../../arm-none-eabi/lib/armv7e-m/fpu\libc.a(lib_a-fini.o)
 .debug_frame   0x00005310       0x74 c:/ac6/systemworkbench/plugins/fr.ac6.mcu.externaltools.arm-none.win32_1.3.0.201507241045/tools/compiler/bin/../lib/gcc/arm-none-eabi/4.9.3/../../../../arm-none-eabi/lib/armv7e-m/fpu\libc.a(lib_a-freer.o)
 .debug_frame   0x00005384       0x9c c:/ac6/systemworkbench/plugins/fr.ac6.mcu.externaltools.arm-none.win32_1.3.0.201507241045/tools/compiler/bin/../lib/gcc/arm-none-eabi/4.9.3/../../../../arm-none-eabi/lib/armv7e-m/fpu\libc.a(lib_a-locale.o)
 .debug_frame   0x00005420       0x3c c:/ac6/systemworkbench/plugins/fr.ac6.mcu.externaltools.arm-none.win32_1.3.0.201507241045/tools/compiler/bin/../lib/gcc/arm-none-eabi/4.9.3/../../../../arm-none-eabi/lib/armv7e-m/fpu\libc.a(lib_a-memchr.o)
 .debug_frame   0x0000545c      0x268 c:/ac6/systemworkbench/plugins/fr.ac6.mcu.externaltools.arm-none.win32_1.3.0.201507241045/tools/compiler/bin/../lib/gcc/arm-none-eabi/4.9.3/../../../../arm-none-eabi/lib/armv7e-m/fpu\libc.a(lib_a-mprec.o)
 .debug_frame   0x000056c4       0x58 c:/ac6/systemworkbench/plugins/fr.ac6.mcu.externaltools.arm-none.win32_1.3.0.201507241045/tools/compiler/bin/../lib/gcc/arm-none-eabi/4.9.3/../../../../arm-none-eabi/lib/armv7e-m/fpu\libc.a(lib_a-reent.o)
 .debug_frame   0x0000571c       0x34 c:/ac6/systemworkbench/plugins/fr.ac6.mcu.externaltools.arm-none.win32_1.3.0.201507241045/tools/compiler/bin/../lib/gcc/arm-none-eabi/4.9.3/../../../../arm-none-eabi/lib/armv7e-m/fpu\libc.a(lib_a-s_fpclassify.o)
 .debug_frame   0x00005750       0x78 c:/ac6/systemworkbench/plugins/fr.ac6.mcu.externaltools.arm-none.win32_1.3.0.201507241045/tools/compiler/bin/../lib/gcc/arm-none-eabi/4.9.3/../../../../arm-none-eabi/lib/armv7e-m/fpu\libc.a(lib_a-svfiprintf.o)
 .debug_frame   0x000057c8       0x34 c:/ac6/systemworkbench/plugins/fr.ac6.mcu.externaltools.arm-none.win32_1.3.0.201507241045/tools/compiler/bin/../lib/gcc/arm-none-eabi/4.9.3/../../../../arm-none-eabi/lib/armv7e-m/fpu\libc.a(lib_a-__atexit.o)
 .debug_frame   0x000057fc       0x28 c:/ac6/systemworkbench/plugins/fr.ac6.mcu.externaltools.arm-none.win32_1.3.0.201507241045/tools/compiler/bin/../lib/gcc/arm-none-eabi/4.9.3/../../../../arm-none-eabi/lib/armv7e-m/fpu\libc.a(lib_a-callocr.o)
 .debug_frame   0x00005824       0x30 c:/ac6/systemworkbench/plugins/fr.ac6.mcu.externaltools.arm-none.win32_1.3.0.201507241045/tools/compiler/bin/../lib/gcc/arm-none-eabi/4.9.3/../../../../arm-none-eabi/lib/armv7e-m/fpu\libc.a(lib_a-memmove.o)
 .debug_frame   0x00005854       0x60 c:/ac6/systemworkbench/plugins/fr.ac6.mcu.externaltools.arm-none.win32_1.3.0.201507241045/tools/compiler/bin/../lib/gcc/arm-none-eabi/4.9.3/../../../../arm-none-eabi/lib/armv7e-m/fpu\libc.a(lib_a-reallocr.o)
 .debug_frame   0x000058b4       0x28 c:/ac6/systemworkbench/plugins/fr.ac6.mcu.externaltools.arm-none.win32_1.3.0.201507241045/tools/compiler/bin/../lib/gcc/arm-none-eabi/4.9.3/armv7e-m/fpu\libgcc.a(_aeabi_uldivmod.o)
 .debug_frame   0x000058dc       0x50 c:/ac6/systemworkbench/plugins/fr.ac6.mcu.externaltools.arm-none.win32_1.3.0.201507241045/tools/compiler/bin/../lib/gcc/arm-none-eabi/4.9.3/armv7e-m/fpu\libgcc.a(bpabi.o)
 .debug_frame   0x0000592c       0x34 c:/ac6/systemworkbench/plugins/fr.ac6.mcu.externaltools.arm-none.win32_1.3.0.201507241045/tools/compiler/bin/../lib/gcc/arm-none-eabi/4.9.3/armv7e-m/fpu\libgcc.a(_divdi3.o)
 .debug_frame   0x00005960       0x30 c:/ac6/systemworkbench/plugins/fr.ac6.mcu.externaltools.arm-none.win32_1.3.0.201507241045/tools/compiler/bin/../lib/gcc/arm-none-eabi/4.9.3/armv7e-m/fpu\libgcc.a(_udivdi3.o)
